:020000040000fa
:020000040040ba
:10000000f0ff4520e1624000677a40000ba040000d
:100010006bab4000abad400033b3400000000000cc
:10002000000000000000000000000000b1e04000ff
:100030006ba840000000000021be40004dd84000e9
:10004000b7754000b7754000b7754000b775400000
:10005000b7754000b7754000b7754000b7754000f0
:10006000b77540000000000051ea400061ea40001e
:10007000b7754000e5764000b97540001178400042
:1000800071ea4000b7754000dd7d400049614000e5
:10009000b7754000b7754000b7754000b7754000b0
:1000a000b7754000b7754000b7754000b7754000a0
:1000b000b7754000b7754000b77540005de440007b
:1000c000b7754000b7754000b7754000b775400080
:1000d000b7754000b7754000b7754000b775400070
:1000e000b7754000b7754000b7754000b775400060
:1000f000b7754000b7754000b7754000b775400050
:10010000b7754000b775400039e04000b775400052
:10011000b775400000000000000000000000000073
:10012000b7754000b775400071c04000b77540001a
:10013000b7754000b7754000b7754000b77540000f
:10014000b7754000b7754000b7754000b7754000ff
:10015000b7754000b7754000b7754000b7754000ef
:08016000b7754000b7754000bf
:020000040000fa
:020000040040ba
:10016800f8b500bff8bc08bc9e46704779ce400081
:10017800f8b500bff8bc08bc9e46704755ce400095
:020000040000fa
:020000040040ba
:080188001c460000010000000c
:020000040000fa
:020000040040ba
:100190002de9f04784b00746002303934ff45074d1
:1001a00004fb00f4b84d2e1904f54b731d444ff6b3
:1001b000ff7128460ef0f9f8d6f8cc8296f8df32b7
:1001c000102b01f22f83dfe813f01f0050006200b4
:1001d0009700e3083e0a780ab50ae00a170b6a0b93
:1001e000a10bce0bff0b1f0c5e0c1100d6f8cc42fe
:1001f000002c01f0a0844ff45078a34b08fb073883
:100200004ff0010901f089bc4ff450739e4a03fb83
:1002100007239b789bb94ff4507303fb07239b681c
:100220009b6b9847002801f0fd824ff45070964b6d
:1002300000fb0730012380f8df3201f0f3ba924e61
:1002400004f12001314438460bf0b2fe4ff45070f7
:1002500000fb0767bb685b6898478c4bc7f8b432f4
:10026000032387f8df3201f0ddba89492144fa20ff
:100270000cf036fc002841f0d5824ff45070824bd0
:1002800000fb0730022380f8df3201f0cbba4ff4d5
:1002900050737d4a03fb0723d3f8e8020ef01cfae3
:1002a000002801f0bf824ff45073774a03fb072305
:1002b0009b689b6b984748b94ff45070724b00fb9a
:1002c0000730002380f8df3201f0acba6e4e04f143
:1002d0002001314438460bf06bfe4ff4507303fba2
:1002e0000767bb685b689847684bc7f8b43203235d
:1002f00087f8df3201f096ba002302934ff450736f
:10030000614a03fb072393f8e032212b00f2da87de
:10031000dfe813f022005d007d009300c000ea00da
:10032000600189018b02cc0267032905530583050f
:100330001a04340469049004b504e504a805f90519
:1003400042066706ae060d075d078007ae07cb07be
:10035000cb070002760220034ff450734a4a03fb96
:100360000723d3f8b422494b9a4215d04ff4507367
:10037000454a03fb07239b689b684448984700282d
:1003800000f046864ff450733f4a03fb07233f4a71
:10039000c3f8b42200f03cbe4ff450733a4a03fb5a
:1003a00007239b78012b09d04ff45073364a03fb87
:1003b0000723032283f8e02200f02abe4ff4507393
:1003c00003fb0723012283f8e02200f021be2e491f
:1003d00004f53a724ff4507303fb07131144586845
:1003e0000cf07efb48b94ff45073274a03fb0723f8
:1003f000022283f8e02200f00bbe4ff45073224a31
:1004000003fb07231e2283f8e02200f001be4ff415
:1004100050731d4a03fb0723d3f8e8020ef05cf982
:10042000002800f0f5854ff45073174a03fb0723ab
:10043000032283f8e02200f0ebbddff84c8004f2e9
:10044000e3234344009300231a461946304606f03e
:100450007bff4ff4507303fb078393f8e232032bc7
:1004600040f0d68508f53a71214402200cf038fba3
:10047000002840f0cd854ff4507303fb078304221e
:1004800083f8e02200f0c4bda0b04020801a06002e
:1004900088b340204ff45073d74a03fb0723d3f8a7
:1004a000e8020ef019f9002800f0b2854ff45073fd
:1004b000d14a03fb072393f8f03243b94ff450734a
:1004c00003fb0723052283f8e02200f0a1bd4ff4cf
:1004d0005073c94a03fb07231f2283f8e02214222a
:1004e000a3f8fc2200f094bddff80c8304f2e323b0
:1004f0004344009308234ff4d5721946304606f062
:1005000023ff4ff4507303fb078393f8e232032b6e
:1005100040f07e854ff4507303fb0783062183f878
:10052000e012072183f8e112002183f8a51204f5f7
:100530003b7141444ff4fa600cf0d2fa012813d019
:100540004ff45073ac4a03fb072393f8dd32a3b199
:10055000022b35d14ff45073a74a03fb0723002227
:1005600083f8ac2200f054bd4ff4507303fb0783b3
:100570001e2283f8e02200f04bbd4ff4507303fbc2
:1005800007239b681b6a02a900209847029bc3f3bc
:100590000803b3f5d57f09d04ff45073964a03fb97
:1005a00007231e2283f8e02200f032bd4ff450737f
:1005b000914a03fb0723012283f8ac2200f028bdf7
:1005c0004ff450738c4a03fb07231e2283f8e0226a
:1005d00000f01ebd884b4ff4507808fb0738b8f880
:1005e000a22204f2e3210b440093012312043721d9
:1005f000304606f0a9fe98f8e232032b40f0088559
:1006000098f8dd322bb998f8e12288f8e02200f062
:10061000ffbc4ff45073784a03fb07231e2283f874
:10062000e02200f0f5bc744b4ff4507808fb07381b
:1006300098f8ac1298f8a522120404f2e3200344bf
:100640000093042342ea81722921304606f07cfea1
:1006500098f8e232032b40f0db84d8f8ec020ef07d
:100660003bf888bb4ff45073634a03fb072393f8ae
:10067000dd32002b44d14ff4507303fb07239b68fa
:100680001b6a02a900209847029b13f4701f20d018
:10069000002b28da13f0804f4ff45073564a03fbb7
:1006a000072314bf0122002283f8a6224ff45076bc
:1006b000514b06fb0736d6f8ec020cf063fe08231c
:1006c00086f8e03200f0a4bc1e2288f8e02200f098
:1006d0009fbc4ff45073484a03fb07231e2283f844
:1006e000e02200f095bc4ff45073434a03fb07230c
:1006f0003c2283f8a522062283f8e02200f088bc81
:100700004ff450733c4a03fb07231e2283f8e02278
:1007100000f07ebcdff8e08004f2e3234344009362
:100720000423364a0121304606f00efe4ff4507382
:1007300003fb078393f8e232032b40f069844ff404
:10074000507303fb078393f8dd324bb14ff45073c2
:10075000294a03fb07231e2283f8e02200f058bc3d
:100760004ff4507303fb07839b681b6a02a90020a8
:100770009847029b002b22db4ff450731e4a03fb69
:100780000723b3f8fc3263b311464ff4507202fbf7
:100790000712013ba2f8fc3204f53a7319443220e7
:1007a0000cf09ef9002840f033844ff45073124a45
:1007b00003fb0723202283f8e02200f029bc4ff43a
:1007c000507202fb078203f0c043b3f1804f14bfa5
:1007d0000023012382f8a632082382f8e03200f0d9
:1007e00017bc4ff45073044a03fb07231e2283f8ff
:1007f000e02200f00dbc00bfa0b040200000384057
:100800004ff45073cc4a03fb0723d3f8e8020df0f2
:1008100063ff002800f0fc834ff45073c64a03fbcb
:1008200007231f2283f8e022f2e3dff80c8304f2af
:10083000e32343440093032300220221304606f0c1
:1008400083fd4ff4507303fb078393f8e232032bcd
:1008500040f0de834ff4507303fb078393f8dd32df
:1008600043b14ff45073b44a03fb07231e2283f8ad
:10087000e022cde3414604f120034ff4507606fb1d
:100880000786b268126a19440420904796f8f0323d
:100890001bb9092286f8e022bae34ff45073a64a46
:1008a00003fb0723212283f8e022b1e3dff88882eb
:1008b00004f2e3234344009307230022032130463c
:1008c00006f042fd4ff4507303fb078393f8e232c6
:1008d000032b40f09d834ff4507303fb078393f881
:1008e000dd3243b14ff45073934a03fb07231e22ba
:1008f00083f8e0228ce34ff4507303fb07839b687b
:100900001b6a02a900209847029b13f4604f07d08e
:100910004ff4507303fb07831e2283f8e02277e332
:100920001b0c4ff45072844902fb0712a2f8a2324a
:100930003bb94ff4507303fb0713092283f8e022fd
:1009400066e34ff450737c4a03fb07230a2283f8c3
:10095000e0225de3dff8e08104f2e3234344009307
:1009600001234ff400320321304606f0edfc4ff432
:10097000507303fb078393f8e232032b40f0488364
:100980004ff4507303fb078393f8dd3243b14ff408
:100990005073694a03fb07231e2283f8e02237e3e2
:1009a0004ff4507303fb07839b681b6a02a9002066
:1009b0009847029b13f4590f07d04ff4507303fb71
:1009c00007831e2283f8e02222e34ff450735a4a31
:1009d00003fb07230222a3f8a2220a2283f8e022c3
:1009e00016e3554b4ff4507808fb0738b8f8a222ad
:1009f00004f2e3210b44009303231204092130463f
:100a000006f0a2fc98f8e232032b40f001834a4a38
:100a100098f8dd3243b14ff45073474a03fb072384
:100a20001e2283f8e022f3e204f1300616444ff46c
:100a3000507808fb0728d8f808301b6a3146042094
:100a4000984798f8f032002b43d13c4ac8f8b822b6
:100a5000b37b9b09012b2ed0337a9b0203f44060b9
:100a60003279520002f006024ff45071324b01fb12
:100a7000073196f807e0b3799b0943ea8e030343f5
:100a80000133f07842ead01202329340727a02f0d7
:100a90000f02a2f109000122824092b202fb03f38d
:100aa000c1f8a8324ff45073234a03fb07230e22e8
:100ab00083f8e022ace2f3791b0403f47c12b079f2
:100ac000737943ea0023134301339b02c8f8a83229
:100ad000e8e7f37a4ff45071174a01fb0721c3f39b
:100ae000c20003f00703164a52f82020154850f8b8
:100af000233003fb02f30a22b3fbf2f3c1f8b8324e
:100b0000f279b3799b0943ea8203327a920202f4c2
:100b10004062134301337279520002f006023079c9
:100b200042ead01202329340727a02f00f029340ee
:100b30005b0ac1f8a832b5e7a0b0402040787d013b
:100b4000d4ce4000f0e140004ff45073c44a03fba0
:100b500007239a689268d3f8b8029047002800f0fb
:100b600057824ff45073be4a03fb0723d3f8b822d1
:100b7000c3f8b4220f2283f8e02249e2b84b4ff4c5
:100b8000507808fb0738b8f8a22204f2e3210b449e
:100b90000093022312040721304606f0d5fb98f893
:100ba000e232032b40f0348298f8dd3293b998f8a2
:100bb000f03233b9062288f8e022102288f8e122c8
:100bc00026e24ff45073a64a03fb07230b2283f857
:100bd000e0221de24ff45073a14a03fb07231e22bb
:100be00083f8e02214e24ff450739d4a03fb07237d
:100bf0009b681b6a02a900209847029b13f0007fa4
:100c00000cd113f4006f4ff45073954a03fb072384
:100c100014bf11221e2283f8e022f9e14ff4507331
:100c20008f4a03fb0723012283f8ae221d2283f89b
:100c3000e022ede18a4e4ff4507808fb0768d8f8bf
:100c400008309b6a082098474ff0010988f8e39222
:100c500088f8e492002388f8e53204f140031e444a
:100c6000202130460cf0cafbd8f808305b6b4a46ae
:100c7000082130469847122388f8e032c8e1dff8af
:100c8000e08104f2e3234344009301230022332153
:100c9000304606f059fb4ff4507303fb078393f87b
:100ca000e232032b40f0b4814ff4507303fb07830f
:100cb000002283f8e32293f8dd323bb94ff45073fe
:100cc00003fb0783132283f8e022a1e14ff4507362
:100cd000634a03fb07231e2283f8e02298e14ff4c6
:100ce00050735f4a03fb072393f8af32002b00f0e9
:100cf0008f814ff4507303fb0723b3f8b23223f410
:100d0000fb4323f00f039bb2d3b94ff45073544a03
:100d100003fb072393f8413013f0040f07d04ff47f
:100d2000507303fb072393f8f232012b10d04ff4da
:100d300050734b4a03fb0723152283f8e02267e137
:100d40004ff4507303fb07231e2283f8e0225fe178
:100d50004ff4507303fb0723062283f8e02214228a
:100d600083f8e12254e1dff8f8804ff4507606fb77
:100d700007864ff0010986f8e39286f8e492002096
:100d800086f8e502b3685b6a9847b3689b6a4ff4dc
:100d90000070984704f1a00398444ff40071404656
:100da0000cf02cfbb3685b6b4a464ff40071404675
:100db00098470c2386f8e0322ae1dff8a48004f299
:100dc000e32343440093012300220821304606f028
:100dd000bbfa4ff4507303fb078393f8e232032b03
:100de00040f016814ff4507303fb0783002283f811
:100df000e32293f8dd323bb94ff4507303fb0783d2
:100e00000d2283f8e02203e14ff45073144a03fbf0
:100e100007231e2283f8e022fae04ff45073104ab1
:100e200003fb072393f8af32002b00f0f1804ff45f
:100e300050720b4b02fb073292f8771192f8763121
:100e40001b0443ea016392f874110b4392f8751185
:100e500043ea0123c2f8a832142382f8e032d7e033
:100e6000a0b040204ff45073cf4a03fb072393f800
:100e7000f0321bbb02f2e32323440093012302223e
:100e80000621304606f060fa4ff45073c64a03fb61
:100e9000072393f8e232032b40f0ba804ff45073eb
:100ea00003fb072393f8dd32e3b14ff45073be4ade
:100eb00003fb07231e2283f8e022a9e0ba4b4ff47c
:100ec000507202fb073292f8f21204f2e32213444a
:100ed00000930223b54a42ea01220621304606f079
:100ee00033fad1e74ff4507606fb0726b368db6a86
:100ef00096f8f202984796f8f23286f8a132152356
:100f000086f8e03284e04ff45073a74a03fb0723ce
:100f100093f8f03223bb4ff4507303fb072393f88d
:100f2000403013f00f0f07d04ff4507303fb07232b
:100f300093f8f132012b08d04ff450739a4a03fb17
:100f400007231b2283f8e02262e04ff4507303fb77
:100f50000723002283f8a422162283f8e02257e018
:100f6000012be9d14ff450738f4a03fb072393f809
:100f7000643113f0010fdfd04ff4507303fb0723ec
:100f800093f8f132012bd7d14ff4507303fb0723b1
:100f9000192283f8e0223be0dff80c924ff45078fe
:100fa00008fb0798d8f808309b6a402098474ff014
:100fb000010a88f8e3a288f8e4a2002388f8e53261
:100fc00004f160039944402148460cf017fad8f820
:100fd00008305b6b5246402148469847172388f8f3
:100fe000e032714b4ff4507808fb073898f8a412a0
:100ff00004f2e3221344009301236d4a42eac172d2
:101000000621304606f0a0f998f8e232032b1cd0f6
:101010004ff45073644a03fb072393f8e0321d2b0f
:1010200000f059811e2b40f0fd834ff450735e4a4f
:1010300003fb07239b78012b40f0f48302f120018e
:10104000214438460af0b4ffece3002288f8e3229a
:1010500098f8dd321bb9182288f8e022d8e74ff45f
:101060005073514a03fb07231e2283f8e022cfe787
:101070004ff450734c4a03fb072393f8af32002b15
:10108000c6d04ff4507303fb0723b3f8b23223f4f6
:10109000fb4323f00f039bb2ebb94ff45073424a6a
:1010a00003fb072393f8a432012b1cd04ff4507399
:1010b0003d4a03fb072393f86d3013f0020f2dd048
:1010c0004ff4507303fb0723012283f8a422162256
:1010d00083f8e0229ce74ff4507303fb07231e22a2
:1010e00083f8e02294e74ff4507303fb072393f84f
:1010f000703003f00f03012b07d14ff4507303fb43
:1011000007231a2283f8e02282e74ff45073264a1d
:1011100003fb07231d2283f8e02279e74ff4507385
:10112000214a03fb07231d2283f8e02270e7dff842
:10113000788004f2e3234344009302231d4a0621ee
:10114000304606f001f94ff4507303fb078393f820
:10115000e232032b7ff45caf4ff4507303fb078341
:1011600093f8dd3243b14ff450730f4a03fb07236a
:101170001e2283f8e0224be74ff4507303fb0783f2
:101180009b689b680c489847c0b14ff4507606fbab
:101190000786094bc6f8b432b3681b6b0120984729
:1011a0001b2386f8e03233e7a0b040200100b703ec
:1011b00001ffff000101b903007519034ff45073db
:1011c000c84a03fb07231e2283f8e02220e74ff4de
:1011d0005073c44a03fb07239b689b68c248984727
:1011e00040b94ff45073bf4a03fb07231e2283f814
:1011f000e0220de74ff45076ba4b06fb0736ba4ba8
:10120000c6f8b432b3681b6b012098471b2386f8dd
:10121000e032fde6dff8cc8204f2e323434400939e
:1012200001234ff400721021304606f08df84ff480
:10123000507303fb078393f8e232032b7ff4e8ae8d
:101240004ff4507303fb078393f8dd323bb94ff43f
:10125000507303fb07831c2283f8e022d8e64ff487
:101260005073a04a03fb07231e2283f8e022cfe637
:10127000dff8708204f2e3234344009300231a460c
:101280000721304606f060f84ff4507303fb0783e4
:1012900093f8e232032b7ff4bbae4ff4507303fba1
:1012a00007831d2283f8e022b2e64ff450768d4b7f
:1012b00006fb0736d6f8ec020cf064f8002386f83b
:1012c000e032a5e64ff45073864a03fb0723002261
:1012d00083f8e0229ce64ff4507303fb07230022bf
:1012e00083f8fa2293f8dc3283b14ff450737d4acd
:1012f00003fb07239b68db6b83b198474ff4507364
:10130000784a03fb072383f8ad0207e04ff45073dc
:10131000744a03fb0723002283f8ad22714a4ff47d
:10132000507303fb0723d3f8a8124ff40070c3f8df
:101330001403c3f81813c3f81c03c3f82013c3f82d
:101340002403c3f828130121c3f80413c3f80813b6
:10135000c3f80c1304f545742244c3f810239b789a
:101360008b420bd04ff450705e4b00fb07300123d3
:1013700080f8de32042380f8df3253e24ff45073fa
:10138000584a03fb07234ff0ff32c3f8ec22e9e78a
:10139000b8f1000f08d04ff45073524a03fb0723f3
:1013a00093f8e232032b28d04ff450734d4a03fbdd
:1013b00007239b78022b00f00a81012b40f0328238
:1013c0004ff45073474a03fb0723d3f8ec02b0f104
:1013d000ff3f00f022810df07ff9002800f022820b
:1013e0004ff450703f4b00fb07304ff0ff33c0f815
:1013f000ec32062380f8df3214e24ff4507303fb23
:1014000007239b78012b55d04ff45073354a03fbcb
:10141000072393f8ae32002b59d14ff45073314a61
:1014200003fb07239b78002b60d0022388f8083049
:101430004ff450732b4a03fb072393f8a63223b9ca
:10144000d8f814305b02c8f8143098f81d30012b1e
:101450005ed04ff45073234a03fb072393f8ad3259
:10146000002b79d14ff450731e4a03fb072300224f
:1014700083f8e422d8f81830012b78d0192388f8a3
:101480001c304ff45073174a03fb0723012283f8e3
:10149000e5224ff45073134a03fb07239b78022b7a
:1014a00071d04ff450700f4b00fb0730072380f8ca
:1014b000df32b7e14ff4507404fb0724d4f8ec0298
:1014c0000bf060ff4ff0ff33c4f8ec329ce7ff23d2
:1014d00088f808304ff4507000fb07200e2380f886
:1014e000df329fe1a0b0402080f0fa024ff4507349
:1014f00003fb07239b689b6b9847002895d14ff40b
:101500005070d44b00fb0730102380f8df3289e1a4
:101510004ff45073cf4a03fb0723012283f8e422e0
:10152000d8f8183093420bd0122388f81c304ff4af
:101530005073c84a03fb0723012283f8e522a8e77a
:10154000112388f81c304ff45073c24a03fb072361
:10155000002283f8e5229ce7ff2388f808304ff447
:10156000507000fb07200e2380f8df325ae1182369
:1015700088f81c304ff45073b64a03fb072300224f
:1015800083f8e52285e74ff4507303fb072393f8b4
:10159000f032012b08d04ff45070ae4b00fb0730f7
:1015a000072380f8df323de14ff4507303fb07233c
:1015b00093f8fa32012beed14ff4507000fb072064
:1015c000002380f8fa32052380f8df322ae14ff455
:1015d000507303fb072393f8f032012b40f0228174
:1015e0004ff4507303fb072393f8f932002b00f0fc
:1015f00019814ff4507303fb072393f8fa32002b41
:1016000040f010814ff4507000fb0720012380f858
:10161000fa32052380f8df3204e104f53b714ff420
:10162000507303fb0723114458680bf059fa012843
:1016300040f0f8804ff45070864b00fb07300e23cb
:1016400080f8df32eee0834b4ff4507808fb073828
:10165000002288f8e322b8f8a20298f8fa22d2030e
:1016600004f2e32423440093022342ea00420521ca
:10167000304605f069fe98f8e232032b40f0d28044
:1016800098f8dd3283b998f8fa32012b08d04ff47c
:101690005070704b00fb0730072380f8df32c1e049
:1016a000042388f8df32bde04ff45070694b00fb33
:1016b0000730102380f8df32b4e0664b4ff45078e7
:1016c00008fb0738002288f8e322b8f8a22204f2c7
:1016d000e32423440093012312040d21304605f036
:1016e00033fe98f8e232032b40f09c8098f8dd320c
:1016f00043b14ff45070574b00fb0730102380f874
:10170000df328fe0d8f808301b6a03a90020984721
:10171000039bc3f34323032b03d0102388f8df324a
:1017200080e04ff450704b4b00fb0730042380f8ef
:10173000df3277e0474b4ff4507808fb0738b8f8b2
:10174000a22204f2e324234400930223120407217b
:10175000304605f0f9fd98f8e232032b62d198f893
:10176000dd3243b14ff450703a4b00fb07300e238b
:1017700080f8df3256e0d8f808301b6a03a9002051
:101780009847082388f8df324ce0b8f1000f4fd0bb
:10179000d8f8180001284ff450732e4a03fb072392
:1017a0009b685b6a0cbf002080b298474ff450736f
:1017b000284a03fb07239b689b6a4ff400709847f5
:1017c00098f81d30002b3cd0012b45d04ff45079b8
:1017d000204b09fb0739012389f8e332d8f81810a8
:1017e000d9f808305b6b98f81d204902d8f8100032
:1017f0009847092389f8df32d8f8142098f81c108c
:10180000dff8508004f2e32444440094012330467e
:1018100005f09afd4ff4507303fb078393f8e2320f
:10182000032b21d028460cf027ff04b0bde8f08739
:101830004ff45070074b00fb07300e2380f8df3267
:10184000f0e7d8f818104902d8f810000bf0f2fdb4
:10185000bce700bfa0b04020d8f818104902d8f863
:1018600010000bf0cbfdb1e74ff4507303fb07837f
:10187000002283f8e32293f8dd323bb94ff4507035
:1018800000fb07800a2380f8df32cbe74ff450706b
:10189000ae4b00fb07300e2380f8df32c2e74ff477
:1018a0005073aa4a03fb072393f8af32002bb9d039
:1018b0004ff4507303fb0723b3f8b23223f4fb4316
:1018c00023f00f039bb283b9b8f1000f15d0d8f8fd
:1018d0001830012b4ff450709c4b00fb07308cbf2d
:1018e0000b230c2380f8df329ce74ff4507000fb91
:1018f00007200e2380f8df3294e74ff45070934bab
:1019000000fb07300e2380f8df328be7dff83c82e4
:1019100004f2e32444440094022300220c213046c4
:1019200005f012fd4ff4507303fb078393f8e23286
:10193000032b7ff477af4ff4507303fb078393f8c7
:10194000dd323bb94ff4507000fb07800c2380f868
:10195000df3267e74ff450707c4b00fb07300e23fb
:1019600080f8df325ee7794b4ff4507808fb073898
:10197000b8f8a22204f2e3242344009301231204c2
:101980000d21304605f0e0fc98f8e232032b7ff49d
:1019900049af98f8dd3243b14ff450706b4b00fb08
:1019a00007300e2380f8df323ce7d8f808301b6a96
:1019b00003a900209847039b13f4807f3ff432afc4
:1019c0000d2388f8df322de7dff8809104f2e3245d
:1019d0004c44009400231a460721304605f0b4fc1d
:1019e0004ff4507303fb079393f8e232032b7ff419
:1019f00019af002388f808304ff4507000fb0790af
:101a00000f2380f8df320de74ff450734f4a03fb8a
:101a100007239b783bb34d4b4ff4507909fb0739b3
:101a2000002289f8e322b9f8a22204f2e3241c443c
:101a30000094012312040d21304605f085fc99f82d
:101a4000e232032b7ff4eeaeff2388f808300f2339
:101a500089f8df3299f8dd32002b3ff4e3ae002243
:101a60003b4b1a70dee64ff4507000fb0727bb6853
:101a70009b6b9847364b1870ff2388f808300f236c
:101a800087f8df32cee6b8f1000f17d0d8f804108f
:101a9000c8b24ff450722d4b02fb0732d2f8d83245
:101aa00003eb0013da68914214d0d6f8cc322bb194
:101ab0001a6ac6f8cc2200221a621a70244b1b78cc
:101ac000abb14ff45070214b00fb0730042380f87a
:101ad000df32a7e65c68002ce7d098f908009a6826
:101ae000d8f80c10003018bf0120a047dde7012214
:101af000174b1a704ff45070144b00fb0730102333
:101b000080f8df328ee69a68e1684846d0470023c5
:101b100023622370d6f8cc426cb1236ac6f8cc326b
:101b20002279d8f8d83203eb0213d3f804a0baf123
:101b3000000fe8d1ebe74ff45073044803fb0700b4
:101b4000002380f8de3280f8df326be6a0b0402060
:041b5000c3c44020aa
:020000040000fa
:020000040040ba
:041b54000164704771
:020000040000fa
:020000040040ba
:101b58002de9f04f2ded0c8b98469bb000230446e1
:101b680040460e46119216930bf0b4fc814600686d
:101b78000cf0faff4ff0000a07464ff0000b1596dd
:101b8800159b1a780d2a34d8092a38d2002a40d051
:101b980000230c93159d2b78302b40f00d816b782a
:101ba800582b01d0782b6cd10c9b019316ab00936a
:101bb800cdf8088017abb14a15a9204601f00cfdf5
:101bc80010f00706074605d0062e2cd10135002354
:101bd80015950c93119b002b40f06d850c9bebb178
:101be8004bec17abb1ee470b1bb0bdec0c8bbde853
:101bf800f08f2b2a06d02d2a13d0202ac8d10133e2
:101c08001593bde700220c925a1c15925b78002ba5
:101c1800c0d1119b1596002b40f04b854bec10abb7
:101c2800e2e70122efe7169a3ab1352118a80bf03e
:101c380075fd169920460bf065fe013e042e08d866
:101c4800dfe806f00c03171a0c00ddf860a0ddf8d9
:101c580064b03b07bed54bf0004bbbe7199b179a06
:101c6800ddf860a023f4801302f2334243ea025bfa
:101c7800efe7dff814b2ece76ff0004b4ff0ff3af4
:101c8800e7e7159b5a1c15925b78302bf9d0002b8f
:101c9800a0d001230d93159b0e9300230493069364
:101ca8001d460a22159890f80080a8f13003d9b291
:101cb800092940f283803a46d9f800100cf03cfa22
:101cc800002800f08b80002042462b4601460890f1
:101cd800652a02d0452a40f0008123b910b90d9b2e
:101ce800002b96d00023159e721c159272782b2a11
:101cf80000f0da802d2a00f0dd804ff0000ca2f110
:101d0800300ebef1090f00f2e780302a00f0d580ce
:101d1800a2f1310ebef1080f00f2df80a2f1300807
:101d2800159a0f92159a02f1010ecdf854e05278e7
:101d3800a2f13009b9f1090f40f2c6800f9faeeb4e
:101d4800070ebef1080f44f61f6e00f3c380f0457e
:101d5800a8bff046bcf1000f01d0c8f10008002b65
:101d680040f0e18000287ff435af0d9b002b7ff415
:101d780031af089b002b7ff44caf4e2a00f0b680a1
:101d880000f3ae80492a7ff444af3d4915a80cf012
:101d980005f900283ff43daf159b3a49013b15a8ca
:101da80015930cf0fbf810b9159b01331593dff868
:101db800d8b04ff0000a0de700236be7082dd5bf18
:101dc8000699049902fb013302fb013300f101007b
:101dd800d4bf069304930135159063e7159bda1970
:101de8001592da5d002d59d12846302a2dd0a2f15e
:101df8003103082b00f26484159b0e9301460020e2
:101e08000346b2f1300900f1010712d0394400eb62
:101e1800030c1f464ff00a0e67451cd118440828ca
:101e280000f1010332dc069a0a2000fb02920692b6
:101e38000027159a501c159052783846a2f13007a1
:101e4800092fded90127089742e7159b5a1c1592de
:101e580001305a78c9e7013707f1ff38b8f1080fa0
:101e680004dc069a0efb02f20692d5e7102fdebfbd
:101e7800049a0efb02f20492cee700bf90e94000fc
:101e88008ced40008fed40000000f07f102bdfbf8d
:101e9800049a0a2000fb02920492c9e701462b46e5
:101ea800cce70123089319e74ff0000cb21c1592f8
:101eb800b27824e74ff0010cf8e7159a02f1010e09
:101ec800cdf854e0527820e70a2707fb0828a8f144
:101ed800300827e7f0463de715964ff000083ee743
:101ee800692a3ff452af6e2a7ff493ae884915a849
:101ef8000cf054f800283ff48cae159b1b78282b67
:101f08000ed118aa834915a805f0f4ff052807d1b2
:101f1800199bddf860a043f0ff4b4bf4e00b59e64a
:101f2800dff800b245e7dded067a002d08bf1d4653
:101f3800b8ee677b102b1a46a8bf10228ded087be0
:101f4800092aa8eb0108dde908ab0edd7249ddedd1
:101f5800047a01ebc20111ed126b9ded085bb8ee3e
:101f6800677ba5ee067b5bec17ab0f2b38dcb8f173
:101f7800000f3ff42fae24ddb8f1160f0bdc6649d5
:101f880001ebc80898ed007b4bec16ab27ee067bff
:101f98005bec17ab1ee6c3f12501884520dc5e4ae1
:101fa800c3f10f0302ebc30191ed007b4bec16abc1
:101fb800a8eb030302ebc30227ee067b92ed006b4e
:101fc800e4e718f1160f0bdb5349a1ebc80898edad
:101fd800007b4bec15ab85ee076b5bec16abf9e5bc
:101fe8009a1a4244002a73dd12f00f000ad04a49b7
:101ff80001ebc00191ed007b4bec16ab27ee067ba5
:102008005bec17ab32f00f024fd0b2f59a7f22ddae
:1020180000252f460495a8462223dff80cb123603b
:102028004ff0000a049b002b3ff4d4ad16992046cc
:102038000bf068fc414620460bf064fc394620460c
:102048000bf060fc049920460bf05cfc2946204606
:102058000bf058fcbee53149cde904ab002712115d
:102068003e460846012a23dc0fb1dde904ab00eb4c
:10207800c600abf1547b90ed007b4bec16ab27ee22
:10208800067b5bec17ab2bf00042120d24481205bf
:1020980082425946bcd8a0f58010824286bfdff83c
:1020a8008cb04ff0ff3a01f1547b4ff0000970e01b
:1020b80012f0010f08d09ded046b91ed007b26ee28
:1020c800077b8ded047b0127013652100831c9e7e3
:1020d800ebd0524212f00f000ad00f4901ebc001b9
:1020e80091ed007b4bec15ab85ee076b5bec16ab0b
:1020f8001211dad01f2a1bdd00252f460495a846a9
:1021080022234ff0000a4ff0000b23608ae700bf3c
:1021180095ed4000a4e940005099400030df4000b0
:102128000000a07c0000f8ff0000f07fffffef7fb9
:10213800cde904ab12f01009ad4918bf4ff06a0998
:102148000020002a00f30e8108b1dde904abb9f1e3
:10215800000f17d0cbf30a52c2f16b02002a59467e
:1021680010dd1f2a40f30c81342adebf203a4ff0dd
:10217800ff3000fa02f24ff0000accbf4ff05c7b50
:1021880002ea010b4bec17abb5ee407bf1ee10fa0f
:10219800b2d0069a00920e992a46204609f004f910
:1021a800049000283ff434afb8f1000fc8f10003e1
:1021b8009fed899ba8bf00239fed89ab9fed8abb4c
:1021c8000d93002528eae8730e932f46049b2046ba
:1021d800596809f083fd804600283ff41daf049b31
:1021e8001a69023203f10c0192000c300cf035fb35
:1021f80018aa17a94bec10ab2046cde908ab08f09c
:1022080093fa169000283ff407af012120460cf0fe
:10221800e1fb074600283ff4ffae179e189a002ef0
:10222800b1bf0e9b0d9b0e989b19babf981b0d9bb7
:102238000693a6eb0906b8bf069316446d4b013efc
:102248009e42c2f1360280f2ae809b1b1f2ba2eb8e
:1022580003024ff0010100f39a8001fa03f310938f
:1022680000230f93069b1344024409eb0206069ac7
:102278009a42a8bf1a46b242a8bf3246002a04ddd5
:1022880006999b1ab61a8a1a06920d9ac2b139464d
:102298002046139308f0e6fa074600283ff4bcae40
:1022a8000146169a204605f042ff129000283ff496
:1022b800b3ae169920460bf025fb129a139b169283
:1022c800002b75dc0e9b002b7bd1002e08dd4146d0
:1022d8003246204608f0e5f8804600283ff49caed8
:1022e800069b002b08dd39461a46204608f0d9f827
:1022f800074600283ff490ae42461699204607f05c
:10230800c7fd054600283ff487aec368069300233f
:10231800c36039460bf0e8f900286dda069be3b98b
:10232800baf1000f19d1cbf31303b3b92bf0004363
:102338001b0d1b05b3f1d66f0fd96b6913b92b6948
:10234800012b0add29460122204608f0aaf8394661
:1023580005460bf0c9f900287ddcb9f1000f40f003
:10236800888063e6d60708d59ded046b91ed007b68
:1023780026ee077b8ded047b012052100831e0e644
:102388004ff0ff3101fa02f202ea0a0afae6c6f150
:102398007f4606f57f0606f57b46e23601fa06f328
:1023a8000f9310915ee700230f930123109359e7d1
:1023b8001a461699204608f074f81690002881d11c
:1023c8002ae641460e9a204608f04cfa8046002834
:1023d8007ff47baf20e600bf9535a094ffffdf3f79
:1023e80035e5af350000e03f9535a094ffffcf3fbe
:1023f80008df400002fcffff40f08480069acbf320
:10240800130322b3b64a9342594652d15046b9f102
:10241800000f19d0b34b0b40b3f1d46f4ff0ff321c
:1024280003d81b0dc3f16b039a40824241d1ae4bd6
:10243800994202d101323ff4efadaa4b0b4003f5ac
:10244800801b4ff0000a88e74ff0ff32ede783bbaf
:10245800baf1000f2dd12bf000431b0d1b05b9f16c
:10246800000f1dd0b3f1d66f1adcb3f15c7f7ff794
:1024780047ae9e4b0b9300230a939ded0a6b4bece2
:1024880017ab27ee067b5bec17abbbf1000f7ff4b5
:10249800cdadbaf1000f7ff4c9ad22232360c5e5a5
:1024a800a3f580136fea135b6fea0b5b4ff0ff3afb
:1024b80053e70f9b8bb113ea0b0f3ff44eaf069b0c
:1024c8004a465046594663b10bf0f4f89ded087b37
:1024d80037ee007b5bec17ab3fe7109b13ea0a0f64
:1024e800ebe70bf0e7f89ded087b37ee407b8dedd1
:1024f800067bb5ee407bf1ee10fadde906ab3ff462
:10250800ffad2ae7394628460af084fbb0ee007b87
:10251800b4eec70bf1ee10fa64d8069b002b41d03d
:10252800734b0022b7ee008b6e48724900ea0b0627
:102538008e4240f086800f90dde90801abf1547bb4
:102548004bec10ab43ec1c2bcde90a010af0ecfa7a
:102558004bec1dab0f98acee00db5bec1dab664b98
:1025680000ea0b029a4247d90b9a03f154739a4234
:1025780003d10a9b01333ff44faddff86cb14ff044
:10258800ff3a169920460bf0bdf9414620460bf05c
:10259800b9f9394620460bf0b5f9294620460bf023
:1025a800b1f913e6baf1000f12d1cbf31303b3b9a3
:1025b800b7ee007bb4eec70bf1ee10fab6ee008b67
:1025c80001d420ee088bb1ee487b53ec172babe718
:1025d800baf1010f03d1bbf1000f3ff491ad002216
:1025e800464b9fe7069bb6ee008b20ee088b002b30
:1025f800e9d053ec182b97e70bf1547bb9f1000f96
:10260800bfd12bf000431b0d1b059e42b9d1bdee77
:10261800c80b069bb8eec00b38ee408b2bb9baf14d
:10262800000f02d1cbf31302e2b3b4eec98bf1ee83
:1026380010fa3ff5fbacb4eeca8bf1ee10faa0dd50
:10264800f4e4b9f1000f1dd0b6f1d46f1ad89fed9c
:10265800227bb4eec78bf1ee10fa10d8fceec87be3
:1026680017ee903a002b08bf012307ee903a069b1d
:10267800b8ee678b9bb9b1ee487b53ec172b03f18f
:10268800d6618b1b9ded080b43ec1c2b0af04cfa12
:102698009ded087bacee007b5bec17abaee753ec33
:1026a800182bece7b4eecb8bf1ee10fa7ff569af9f
:1026b800bce400230c93119a159b1360fff78ebaa4
:1026c800652a4ff000013ff4ecab01270b46089751
:1026d800fff700bbaff300800000c0ffffffdf4142
:1026e800ffff0f000000f07fffffef7f0000503971
:1026f8000000f03f0000e07fffff9f7c0000f0bf7c
:020000040000fa
:020000040040ba
:1027080004c340201c00000000000000ccc2402090
:102718003800000000000000a0b040204003000086
:1027280000000000c3c440200100000001000000b8
:10273800010000002cbe4020140100000000000031
:10274800d8c340201400000000000000d0c440207e
:10275800060000000100000000010202040400005d
:102768000000402030000000000000003000402041
:1027780008000000000000003800402008000000a9
:102788000000000090c34020280000000000000066
:102798004000402030000000000000007000402091
:1027a8003000000000000000a000402030000000c1
:1027b80000000000d00040201000000000000000d1
:1027c800cfc440200100000000000000d8c4402011
:1027d800040000000000000078c440201000000041
:1027e800000000005ec04020020000000000000061
:1027f800c0ba40200002000000000000a0b840203d
:102808002002000000000000e000402078010000e5
:1028180000000000a0a84020000800000000000000
:1028280088a8402018000000010000006002402035
:10283800a004402038ed400000000000a002402025
:1028480000000000ecc3402014000000010000005c
:1028580098e240009ce24000a0e24000a8e240006c
:10286800ace24000600240205c0200000000000072
:1028780020c340203800000000000000e0b34020e2
:10288800600200000000000040b640206002000026
:102898000000000076c44020010000000000000095
:1028a80058c34020380000000000000040bf40200e
:1028b800a000000000000000dec040200200000070
:1028c800010000000100000088c440201000000042
:1028d8000000000084c24020480000000000000002
:1028e80098c440201000000000000000b8c3402039
:1028f8002000000000000000c4c14020600000006b
:1029080000000000a8c440201000000000000000e3
:10291800bc0440202c00000000000000dcc4402063
:102928000400000000000000e80440201c00000033
:1029380000000000e0c44020040000000100000086
:10294800aaaaaaaae4c440200400000000000000cb
:102958008808402000a0000000000000e8c44020d3
:102968000400000000000000ecc440200400000047
:1029780000000000f0c44020040000000000000037
:10298800f4c44020040000000000000060c14020a2
:102998006400000000000000f8c4402004000000ab
:1029a80000000000fcc440200400000000000000fb
:1029b80000c54020040000000000000004c54020bd
:1029c800040000000000000008c5402004000000ca
:1029d8000000000000c440201400000000000000b7
:1029e80014c4402014000000000000000cc5402062
:1029f800040000000000000010c540200400000092
:102a08000000000014c54020040000000000000081
:102a180018c54020040000000000000028c4402021
:102a280014000000000000001cc540200400000045
:102a3800000000003cc4402014000000000000001a
:102a480050c44020140000000000000020c54020b1
:102a5800040000000000000024c54020040000001d
:102a680000000000e0bf40207e00000000000000e1
:102a780028c5402004000000000000002cc54020ac
:102a8800040000000000000060c040207e0000003c
:102a980000000000e0c040207e00000000000000b0
:102aa80030c540200400000000000000b8c44020e9
:102ab8000b00000001000000636f6e6669726d65af
:102ac800640a000034c54020040000000100000032
:102ad8000400000064c4402012000000010000004f
:102ae8007369676e616c5f636f6e6669726d65644a
:102af8000a000000c4c440200b00000001000000d0
:102b0800626f61742073656e640a000004054020da
:102b1800380000000000000077c4402001000000d9
:102b28000000000038c5402004000000000000003c
:102b38003cc54020040000000000000040c54020c3
:102b4800040000000000000044c54020040000000c
:102b580000000000d6c44020010000000000000072
:102b680048c54020040000000100000002000000e9
:102b78004cc5402004000000010000008700000050
:102b88003c054020010000000000000040054020f6
:102b9800d00000000000000050c5402004000000e4
:102ba8000000000054c540200400000000000000a0
:102bb800d7c44020010000000000000058c5402094
:102bc80004000000000000005cc540200400000074
:102bd800010000006829000060c5402004000000d2
:102be80001000000c02b000064c540200400000064
:102bf800010000000100000068c54020040000003a
:102c080001000000942a0000100640203c0000004b
:102c1800000000006cc54020040000000000000017
:102c28004c064020c0000000000000005ec14020ab
:102c38000200000001000000420000000c074020d4
:102c4800b80000000000000080c54020010000001e
:102c580000000000c4074020c00000000000000081
:102c680070c54020040000000100000024c240207c
:102c780024c24020600000000100000000000000a5
:102c8800000000000000000000000000000000003c
:102c9800000000000000000000000000000000002c
:102ca800000000000000000000000000000000001c
:102cb800000000000000000000000000000000000c
:102cc80000000000000000000000000000000000fc
:102cd800000000000000000000000000c0bc402010
:102ce8006c0100000100000043000000000000002b
:102cf80000000000000000000000000000000000cc
:102d08000000000000000000430000000000000078
:102d180000000000000000000000000000000000ab
:102d28000000000000000000430000000000000058
:102d3800000000000000000000000000000000008b
:102d48000000000000000000430000000000000038
:102d5800000000000000000000000000000000006b
:102d68000000000000000000430000000000000018
:102d7800000000000000000000000000000000004b
:102d880000000000000000004300000000000000f8
:102d9800000000000000000000000000000000002b
:102da80000000000000000004300000000000000d8
:102db800000000000000000000000000000000000b
:102dc80000000000000000002fe640001de1400068
:102dd8000000000088854000aded4000aced4000eb
:102de800aced4000aced4000aced4000aced400077
:102df800aced4000aced4000aced4000aced400067
:102e0800ffffffffffffffffffffffffffff0000c8
:102e18000100415343494900000000000000000040
:102e2800000000000000000000000000000000009a
:102e38000000415343494900000000000000000021
:102e4800000000000000000000000000000000007a
:102e58000000000074c540200400000000000000cd
:102e680078c54020040000000000000084084020cd
:102e780004000000000000007cc5402004000000a1
:102e880000000000000000000000000022222222b2
:020000040000fa
:020000040040ba
:102e98002de9f04f97b016ad45f8140d0c461646bf
:102ea8001f46284609f010f90028c0f24883ab4baa
:102eb80053f820300bb100221a70a94b13f81050a8
:102ec80003eb400393f80180a64b002c08bf1c4677
:102ed80028460bf011fe10f0010f01d003232fe359
:102ee80010f0040f01d00a232ae363681593002b1e
:102ef80049d0159a531eb3f5004f4ed301231593ad
:102f080094f801b00bf1ff33dbb2022b28bf4ff06e
:102f1800010ba3685a1eb2f5004f41d203f00f020d
:102f2800002a18bf4ff400730093e368b3f1807f61
:102f38003ad85a1e1a40002a0cbf99464ff0000989
:102f48005fea572a00f00083002e00f0fd82237804
:102f5800019300231493b8f1000f41d001230022fc
:102f68003146284605f08efc002840f0ef8296f89e
:102f7800ff2196f8fe3143ea02231bb27a4a9342b4
:102f880015d00e23dce215aa032128460af06afab6
:102f98000028aed001231593b2e71a42aed1afe7ad
:102fa8004ff400730093c0e74ff00009c8e7b8f189
:102fb800040f01d90e23c3e206eb081494f8b231ca
:102fc80004f5d774002b00f0c38204f108000bf05d
:102fd80002fc029004f10c000bf0fdfb149015e0cc
:102fe80014aa012128460af03dfa002840f0b282ce
:102ff800019b13f0080f07d1149b3f2b0bd93f3bc4
:1030080014933f23029301e00023029314997f292c
:1030180004d80e2394e200230293f7e7019a12f0f2
:103028000203049324d002f00103002b0cbf0323f6
:1030380002230393cdf820b04fea5923802b28bff1
:1030480080234fea113e009ac2f3161210461092de
:103058004fea514c159a541e0a94524206920b900c
:103068000c95039dcdf834800e965e460f9796e238
:10307800019b13f0010f08bf132300f061820223a4
:103088000393d7e79946032588e283b9bcf1000f7b
:103098002dd0364a901c4ff002094a46944507d372
:1030a8004fea490930f8022f002af7d100e0994683
:1030b800b1fbf9f2900000f207204fea5028a2f580
:1030c8007f42f63a2a48824200f24682029a02f188
:1030d800200708fb06700a9a0244069c2240121a2e
:1030e80000240794202414440594174449e04ff021
:1030f8000109dde79946b1fbf9f240f6f570824225
:1031080020d90232520002f2ff124fea5228029ae4
:10311800571c08fb0670109a10440a9a8218069cdd
:103128002240121a032d14d0b2fbf6f406fb142425
:1031380004b3013a029ca71c022405941ce04ff03a
:103148000109d8e702eb4202013252080332012595
:10315800d9e70b9c07940124c5e700bfd8c44020d9
:1031680088024020f0ea400055aaffffe0ea40004c
:10317800fffffe0f01240594b2fbf6f290440b9a70
:103188000792029ac2eb091202449142c0f0e6810a
:10319800059a8c1a06fb1844079aa41ab4fbf9f48a
:1031a8004ff6f572944298bf032d0cbf01220022fe
:1031b800099208d1002b40f0d3815fea590940f009
:1031c800ed810e23bce1022d26d14ff6f572944213
:1031d80012d9002b40f0de814fea4909b9f1400fbe
:1031e80040f2dc81049a002a7ff44cafb9f1800fd9
:1031f80040f2d4810e23a3e140f6f572944200f226
:103208009480002b40f0ae814fea4909b9f1800f54
:1032180040f2c4810e2393e12b46039504970c9d3d
:10322800cdf81880ddf834800e9e0f9f012b14bf57
:10323800002301231a46099340f6f5739c4202d9ec
:10324800002a40f091814ff40072002130460bf0c3
:1032580039fd0b22c84930460bf046fb0023f372b8
:103268000223337386f80d90059ab273c2f30723cd
:10327800f37386f810b0039b032b009b08bf002351
:103288007374c3f30723b3741499b1f5803f56d20e
:10329800f174c1f307213175f82373753f23337631
:1032a80000237376ff22b276f376029906f11c00aa
:1032b8000bf0fafb039b032b46d10af05cfe014698
:1032c80006f143000bf0f0fb069906f124000bf021
:1032d800ebfb022106f12c000bf0e6fb4ff0010b93
:1032e80086f830b0002386f83130062286f832207e
:1032f80086f83330802386f84030292386f8423018
:1033080013229e4906f147000bf0eefa552386f882
:10331800fe31aa2386f8ff315b46029a31462846d9
:1033280005f0aafbb8b301230ae1039504970c9da5
:10333800cdf81880ddf834800e9e0f9f83e706f1e4
:1033480020000bf0b1fba7e70af015fe014606f1d5
:1033580027000bf0a9fb069ab275c2f30723f37591
:10336800802386f82430292386f8263013228449be
:1033780006f12b000bf0b8fa552386f8fe31aa2384
:1033880086f8ff310123029a3146284605f074fb7e
:10339800b0b30123d4e00123029a0632314628460d
:1033a80005f06afb4ff40072002130460bf08afcee
:1033b800744930460bf078fb734906f5f2700bf050
:1033c80073fb611e06f5f4700bf06efb022106f527
:1033d800f6700bf069fb552386f8fe31aa2386f8b0
:1033e800ff310123029c224607323146284605f068
:1033f80043fb012322461a443146284605f03cfb8c
:10340800624a3a40002130460bf05cfc099b002bd5
:103418005f4b08bf6ff0070300934ff0000b331d9d
:103428000293089b9b453ad3079b039a032a18bf2c
:103438009946049f4c46d14528bf544623463a46f0
:103448003146284605f018fb002840f091802744b3
:10345800b9eb0409eed1039a032a53d0149bb3f5b0
:10346800803f51d2022a0cbf04240124b8f1000f76
:103478004cd0012300223146284605f003fa0028e3
:1034880078d106eb081888f8b241012300223146aa
:10349800284605f0f1fa002848d0012350e0039ba4
:1034a800032b2ad16ff0070130460bf0fdfa4ff0dd
:1034b800ff3102980bf0f8fa6ff0704106f108003e
:1034c8000bf0f2fa069c2746544528bf57463b4660
:1034d800049a3146284605f0cffa002846d14ff421
:1034e8000072002130460bf0edfb049b3b44049333
:1034f800e41be8d10bf1010b93e7009930460bf080
:10350800d3fadfe70c24b1e70624afe7019b13f0f9
:10351800080f0bd1149b12930023139333462246b2
:1035280012a9284603f0c4f9034648b900221146f7
:10353800284609f097ff031c18bf012300e00b235e
:10354800184617b0bde8f08f1123f9e70123f7e714
:103558000e23f5e70123f3e70e23f1e70e23efe748
:103568000e23ede70e23ebe70e23e9e70123e7e758
:103578000123e5e70123e3e714c9400020c940001f
:1035880034c94000525261417272416100feffff2e
:10359800f8ffff00049adab1994603254b46032d3c
:1035a8003ff473ad002b7ff4a5adbef1000f3ff4df
:1035b800c6ad084a901c4ff0020904229645fff454
:1035c8009aad4fea490930f8022f002af6d192e560
:0835d8000e23b5e7d0ea400024
:020000040000fa
:020000040040ba
:1035e0002de9f04f8bb08a460290169806939046cc
:1035f00009f074ff0368039318460bf0b9fa039bb4
:10360000019003444ff0000b13f8013c0793daf8e4
:10361000003002331f4613f8010b30286cd00af03b
:1036200043fb044600286ad1019a039938460af000
:1036300087fd002866d1019bf85cfe180af034fb78
:10364000002862d03346187830281f4603f1010362
:10365000f9d00af029fbb0fa80f56d0934464ff035
:10366000010b3a461646013230780af01dfb00285d
:10367000f8d1019a039930460af062fd50b954b965
:10368000019bf41822461646013230780af00cfbf2
:103690000028f8d10cb1a41ba4003378502b01d022
:1036a000702b40d173782b2b35d02d2b2fd0711c44
:1036b0004ff0000908780af0f7fa431edbb2182b26
:1036c00031d8a0f1100211f8010f0af0edfa431ef3
:1036d000dbb2182b22d9b9f1000f00d052421444aa
:1036e000caf800100db3bbf1000f14bf0027062766
:1036f00038460bb0bde8f08f0bf1010b8ae70025cf
:103700002c46aee73e460125c7e70446fbe74ff0ef
:103710000109b11ccee74ff00009fae70a2303fbc9
:103720000202103acfe73146dae7f31b013b2946a4
:10373000072b49dc029808f0d5fa019b00f1140927
:103740004ff0000bc3f101030546cdf81090da46a7
:103750000893b7423bd3049840f804aba0eb0900b0
:10376000801028614701504609f074fdd8f80060c8
:103770003f1ab74264ddbf1b3946284609f048fbb3
:10378000824678b17b1e591103f01f024ff0010ae7
:1037900059f821100afa02f20a4203d0534546dcd6
:1037a0004ff0020a3946284608f062f93c44d8f83e
:1037b00008309c4252dd294602980af0a7f8149a74
:1037c00000231360a32793e701315b10b0e7731e5a
:1037d0000593079a16f8013c934218d0bbf1200fcd
:1037e00007d1049bc3f800a004334ff0000a0493f0
:1037f000d34616f8010c0af057fa00f00f0000fa51
:103800000bf04aea000a0bf1040b059b0de0059b47
:10381000089a13449f42e1d81846019a03990993e4
:103820000af08efc099b0028d8d11e4691e7b91eec
:10383000284609f0edfa0028b2d04ff0030ab1e7ac
:1038400009daf71b29463a46029806f02efee41bd9
:10385000054600f114094ff0000aa8e7d8f8040063
:1038600084426ada041ba6422edcd8f80c30022b04
:1038700022d0032b24d0012b15d1a64213d1012e27
:103880000bdc069ad8f80430136001232b61c9f8c9
:103890000030149b62271d602ae7711e284609f03c
:1038a000b7fa0028edd1294602980af02ff8149aa9
:1038b0000023136050271be7159b002be1d0f2e794
:1038c000159b002bddd1eee7671ebaf1000f31d159
:1038d00027b13946284609f09bfa82467a1101231e
:1038e00007f01f0703fa07f759f8223021461f4255
:1038f000284618bf4af0020a361b08f0b9f8d8f873
:1039000004400227baf1000f45d0d8f80c30022b42
:1039100015d0032b17d0012b09d11af0020f06d0b6
:10392000d9f800304aea030a1af0010f0ed147f025
:10393000100730e04ff0010ad0e70127e2e7159bbe
:10394000c3f101031593159b002bf0d0d5f810900f
:1039500005f114034fea890a03eb0a0100201a68f3
:10396000b2f1ff3f1cd001321a60022f05f114039f
:1039700038d1d8f80020013a96420ad171110122bb
:1039800006f01f0653f8213002fa06f61e4218bf51
:10399000174647f02007149b1d60069b1c60a7e696
:1039a00043f8040b9942dad8ab68994512db696891
:1039b0000298013108f096f92a69023205f10c01ea
:1039c000834692000c300af04cff2946029809f019
:1039d0009dff5d462b695a1c05eb83032a6101227a
:1039e0005a61c2e72a6991450bda0121284608f09d
:1039f0003ff8d8f8083001349c423ff7dcae01278d
:103a0000c7e716f01f06fad09a44c6f120065af806
:0c3a1000040c09f01ffcb042e7dbf0e7fb
:020000040000fa
:020000040040ba
:103a1c002de9f04f83b09c4b1e68197d21b933788a
:103a2c004bbb03b0bde8f08f3378002b40f0c28164
:103a3c0030460022531cdbb29942f2d010f8284fca
:103a4c000cb91a46f6e70232d2b2012a08bf00229c
:103a5c008d490a75ff2be4d003eb8303dc00351989
:103a6c006b79012b09d02b7b042bdad8dfe803f020
:103a7c000a1d2e5081000b46eee72b7b042b10d039
:103a8c0000232b7395f82030012b00f06e8100235e
:103a9c00335585f820306b71ab70eb706b702b71fc
:103aac00bfe70022784b5a75eae7ab685b6a0321e3
:103abc00e88898476861b0f1ff3fb2d0ab681b69ea
:103acc002a467249984702232b73aae7ab681b68f6
:103adc006869984770b195f820301bb1012385f8bf
:103aec0020309ee7ab685b6868699847686203237f
:103afc002b73f3e795f82030012b03d0002385f8c6
:103b0c0020308ee728460af0bffc00232b71f5e726
:103b1c005d4b5b7d012b84d001225b4b5a756b6a2c
:103b2c001b691b68b3f5007f04d24ff40074b4fb1f
:103b3c00f3f400e00124544e4ff40072002130697c
:103b4c000bf000f8022385f8213032696869ab6804
:103b5c0000949c68002305f11c01a047eb69b3f1ac
:103b6c00ff3f02d004232b735be70022464b5a75b0
:103b7c0057e795f92130022b06d06bb10022424b4e
:103b8c005a7503232b734ce7ab68db6a002b3ff4ad
:103b9c0048af2869984744e73b4b1e6900236b707c
:103bac0096f8fe31552b0ed0002634464ff0ff0808
:103bbc00354b5f683b78002b6ad00022324b5a752c
:103bcc0002232b732de796f8ff31aa2b01d0002688
:103bdc00ebe73378eb2b2bd096f8c2010af0cefa38
:103bec0007460446687096f8d2010af0c7fa20b16d
:103bfc0047f0020401376f70e4b296f8e2010af064
:103c0c00bdfa28b144f00404e4b26b7801336b7054
:103c1c0096f8f2010af0b2fa28b144f00804e4b2c2
:103c2c006b7801336b70002c40f0c1800126bce72f
:103c3c007378582b18bf3c2b01d0fe2bccd1b3780a
:103c4c00902bc9d101236b7096f85230462b00f0a3
:103c5c00908096f85330412b00f0908096f85430b9
:103c6c00542b00f0908096f83630462b00f0908064
:103c7c0096f83730412b00f0908096f83830542b62
:103c8c0000f09080002690e788a8402021d64000c4
:103c9c004a4bd3f810a02b7901332b712a7e484b59
:103cac0053f822b058460af05dff5ffa80f94a4695
:103cbc005946b81c09f0ddffaa7807eb09039a7086
:103ccc0009f1010357fa83f32a7930329a7009f11a
:103cdc00020357fa83f300229a70bd6187f80180c2
:103cec001cb314f0010f29d01446b8f1ff0f1cd0ef
:103cfc00344b33f814301af803207a705344d97ac1
:103d0c009a7a120402eb0162597a02eb0122197ab7
:103d1c000a447a61d9799a79120402eb01625979d1
:103d2c0002eb01221b7913443b61c6b1264bea78a6
:103d3c001a7001345c7001233b703ee714f0020fe3
:103d4c0001d00124d1e714f0040f01d00224cce7f8
:103d5c0004f00804002c0cbf00240324c5e71a4b04
:103d6c00ea781a7000225a70e5e728460af08cfbb4
:103d7c008de6002634464ff00b0819e70026344632
:103d8c004ff00b0814e7002634464ff00b080fe7f2
:103d9c00002634464ff006080ae7002634464ff05a
:103dac00060805e7002634464ff0060800e7012612
:103dbc00b046fde60023014a13754de688a8402065
:0c3dcc00ecc340201cee400088024020a8
:020000040000fa
:020000040040ba
:103dd8002de9f04f87b083468946036802930b7834
:103de8002f2b0bd05c2b09d0029b9b69836099f821
:103df80000301f2b10d9dff874a38be12f2b01d0d3
:103e08005c2b05d119f8013f2f2bfbd05c2bf9d087
:103e18000023cbf80830eae780238bf82f30002105
:103e2800584605f01bff03462ce082b22f2a18bf24
:103e38001f2a2bd95c2a29d07f2a12d9fe2c20d8f8
:103e480025f81420013405a809f0a4ffb0f1ff3fbc
:103e580017d0b0f5803fe8d3030c25f814300134af
:103e6800e3e71046222a00f07c812a230af10d019b
:103e7800984204d011f8013f002bf9d1dee7002b5e
:103e8800dcd00623184607b0bde8f08f1f2a0fd9eb
:103e9800059b1a782f2a01d05c2a52d10133059349
:103ea8001a782f2afad05c2af8d04ff0000801e0df
:103eb8004ff00408ddf81490012c45d0022c59d09d
:103ec800002c00f04c816ff00043234405eb4302c3
:103ed80035f81330202b01d02e2b08d1013c00f0ef
:103ee8003e8132f8023d202bf8d02e2bf6d061000f
:103ef800002325f814302b88202b42d12a4600268f
:103f0800013632f8023f202bfad02e2b00d00eb10a
:103f180048f003088a1eab18aa5a2e2a05d0013c7d
:103f280003d033f8022d2e2af9d10b2220210bf1d0
:103f380024000af0c7fe082301930023009303938b
:103f480024e04ff00008b5e72b882e2bbbd10023c7
:103f580025f814300bf123029c428cbf2e2120211e
:103f680002f8011f01330b2bf6d148f020088bf81b
:103f78002f80b3e06b882e2ba5d12b882e2ba2d1b6
:103f8800e5e70026c1e748f003083e46771c35f808
:103f98001600002800f081802028f4d02e2801d1b6
:103fa800a742f0d1009b019a93420fd2a7420dd0ad
:103fb8007f2828d8ff2849d9019a531e0099994289
:103fc8003cd348f003083e460092dfe7019b0b2be9
:103fd8000fd0a74218bf48f00308a7425dd8039b3b
:103fe8009b00dbb2039326460b230193082300931f
:103ff800cce748f003089bf82430e52b54d105237f
:104008008bf824304de048f0020840f2b51109f071
:104018005df810f0800f03d000f07f00524b185c61
:10402800ff28c9d890b948f00308009b5f205a1ca4
:1040380000925b4483f824003e46a7e7009a1346a3
:1040480001335a44010a82f82410f0e72b28ead0f9
:104058002c230af1190299b2814219d012f8013fb2
:10406800002bf8d1a0f141039bb2192b03d8039b75
:1040780043f002030393a0f161039bb2192b0ad802
:10408800039b43f001030393203880b2009bcee7e3
:10409800002bc8d1e6e7009bc9e79bf82430e52b45
:1040a800add0019b082b3cd0039a02f00c030c2bdb
:1040b8003cd002f00303032b38d018f0020f0bd1c9
:1040c800039b13f0010f18bf48f01008039b13f06f
:1040d800040f18bf48f008088bf82f80584601f0e5
:1040e80009fc9bf82f20034618bb12f0040f7ff43d
:1040f800c9ae9bf8063013f0100f2ed0029800f1cd
:104108004001dbf81430c3f3080319440af09cf8a3
:10411800cbf80800cdf81490dbf80030dd680024f7
:1041280091e6039b9b00dbb20393bde748f00208ce
:10413800c3e7042b7ff4a6ae12f0200f07d012f0cd
:10414800040fe7d080238bf82f3000239ae602f083
:104158000402002a08bf052394e6052392e60023fb
:104168002b8006238ee600bfb4b04000f4c84000a0
:020000040000fa
:020000040040ba
:104178002de9f04385b00d46164600230b6007f085
:10418800a3ff071ec0f25381b84b53f82740002cf9
:1041980000f051812c6006f0fe0623787bb1607830
:1041a80000f0ecff10f0010f09d1002e00f045815e
:1041b80000f0040000280cbf00200a2038e100238a
:1041c8002370ab4b13f8170060700af095fc10f0e1
:1041d800010f01d003202be126b110f0040f01d00c
:1041e8000a2025e1a24b03eb47077f7800212046f0
:1041f80004f0b2fd022801d029d847b3042f01d911
:104208000d2015e104f206256e4604f246282846dc
:104218000af0e1fa46f8040b1035a845f7d12fb19a
:104228007d1e0deb85064ff003080ae03d46f8e7d2
:10423800204604f091fd57b9012808d90135032d0e
:1042480005d856f8041b0029f2d14046f3e70428a4
:1042580000f0f580012801d90d20e9e094f84c2000
:1042680094f84b3043ea02231bb2b3f5007f01d028
:104278000d20dde094f8573094f8567057ea03277c
:1042880004d104f164000af0a6fa0746666b2762b7
:1042980094f85050a5706b1edbb2012b01d90d208c
:1042a800c6e094f84d901ffa89f36381002b00f063
:1042b800c88009f1ff3313ea090f01d00d20b7e0d8
:1042c80094f8523094f8518048ea0328a4f80880fa
:1042d80018f00f0f40f0b78094f8543094f853005a
:1042e80050ea032003d104f160000af074fa94f84c
:1042f8004f2094f84e3053ea022300f0a68007fbc3
:1043080005f203eb181111448842c0f0a080451a49
:10431800b5fbf9f5002d00f09c805648854294bf06
:104328004ff003094ff000094ff6f570854298bf2a
:104338004ff0020940f6f570854240f2a980b9f1c4
:10434800000f00f088800235e56166623344a3629d
:1043580031442163b9f1030f40f0a38094f86b2036
:1043680094f86a3053ea022377d1b8f1000f74d178
:1043780004f16c000af02ffae062ab0003f2ff13bd
:10438800b7eb532f6bd34ff0ff3363612361802367
:10439800237194f8712094f8703043ea02231bb219
:1043a800012b28d1711c204609f0b2f818bb002354
:1043b800237194f83f2294f83e3243ea02231bb259
:1043c8002d4a934217d104f140000af004fa2b4b0e
:1043d800984210d104f509700af0fdf9284b98426b
:1043e80009d104f50a700af0f6f9606104f50b705a
:1043f8000af0f1f9206184f80090224a1388013309
:104408009bb21380e380204be3600023a3611f4b22
:104418001b689c4202d100221c4b1a60002007e056
:1044280005eb450305f0010505eb530542e00b20bc
:1044380005b0bde8f0830c20fae70020f8e701207a
:10444800f6e70d20f4e70d20f2e70d20f0e70d2048
:10445800eee70d20ece70d20eae70d20e8e70d2058
:10446800e6e70d20e4e70d20e2e700bfd8c44020ce
:1044780088024020f5ffff0f55aaffff5252614105
:10448800727241615ec04020c0ba402078c44020aa
:104498000235e56166623344a3620e4426634ff039
:1044a8000109b8f1000fdcd01344e362b9f1020f3f
:1044b800b6d16d0005f2ff15b7eb552fd3d34ff0ea
:0c44c800ff33636123618023237194e7bc
:020000040000fa
:020000040040ba
:1044d4002de9f04f9fb004460d4690464c22002132
:1044e4000ba80af0f1fb0b944ff0000b0ae1d04645
:1044f40008e16978302947d02d294ad00235de46b3
:104504002a294dd0a1f13003dbb2092b46d85c46f1
:1045140004eb840401eb4404303c15f8011ba1f1c5
:104524003003dbb2092bf3d901f0df034c2b03d1a9
:104534004ef0040e29780135002900f02b81a1f1f9
:104544006103dbb2192b32d8a1f12003dbb2a3f152
:104554004202162a67d8dfe812f017015d006a00ec
:104564006600660066006600660066006600660017
:1045740066006600ea006600660066002e006600bb
:104584006a00660066002c00a97803354ff0010e1e
:10459400b6e7a97803354ff0020eb1e75c46c3e7ee
:1045a400d8f80040297808f104080135bce70b4627
:1045b400cde71027bce008f1040ad8f80070397878
:1045c400002900f0aa803b465a4600e03246561cb9
:1045d40013f8010f0028f9d11ef0020f00f0bc807f
:1045e4000ba808f0f7fd17f8011f0029f8d1771c74
:1045f400b4427ff67caf0134202631460ba808f084
:10460400e9fd0137bc42f8d1d0467be05e46012388
:104614000193a5e008f1040498f800100ba808f031
:10462400d9fda0466ee00ba808f0d4fd6ae01ef0a8
:10463400040f07d1442b14d1d8f8002008f1040842
:104644000a2706e00a2700e00227d8f8002008f12c
:104654000408442b73d1002a71da52424ef0080e3a
:104664006de00a2767e00cf10106303300f8013fe2
:1046740069b11f2e0bd8b446b2fbf7f107fb112327
:10468400dbb20a46092beed94b44dbb2ebe71ef052
:10469400080f06d01eab1e442d2306f86c3c0cf10b
:1046a40002060ef00103002b14bf302720271ef052
:1046b400020f10d106f10109a6420dd204f1010a3c
:1046c40039460ba808f086fd09f10109ca45f7d15e
:1046d40004f1010900e0b14603ab1e449a4616f802
:1046e400011d0ba808f076fdb245f8d109f10106c9
:1046f4004c4507d9013439460ba808f06bfd013647
:10470400a642f8d12978002944d025293ff4f1aef6
:1047140001350ba808f05efdf4e71ef0020f04d18a
:10472400002c7ff473af012661e75e465fe708273c
:104734001ef0040f89d1d8f8002008f10408782964
:104744000cbf4ff027094ff007090df10b00dc46b1
:1047540092e73978019e43e7931c0193b442f8d958
:1047640004f10109ddf8048020210ba808f032fdd2
:1047740008f10108c845f7d1019b9e1b26443978ee
:1047840000297ff42daf32e71ef0040f7ff45caff5
:104794000227d0e70ba808f011fe1fb0bde8f08f88
:020000040000fa
:020000040040ba
:1047a4002de9f04f099f15469c4604468846002b88
:1047b40040f0cd808a424cd9b2fa82febef1000f9d
:1047c4000bd0cef1200802fa0ef520fa08f801fa0f
:1047d4000ef248ea020800fa0ef44fea1549abb2a9
:1047e400b8fbf9fa260c09fb1a820afb03fb46ea1a
:1047f400024293451ed952190af1ff3004d293455f
:1048040002d9aaf102002a44a2eb0b02a4b2b2fb21
:10481400f9f609fb162206fb03f144ea0243994226
:104824000ad95b1906f1ff3207d2994205d9b21ea3
:104834002b4402e05046e7e732465b1a42ea004066
:1048440027b123fa0ef33b6000237b606146bde889
:10485400f08f12b90125b5fbf2f5b5fa85febef16c
:10486400000f2ed14a1b4ff0010c2e0cabb2b2fb41
:10487400f6f8210c06fb182208fb03f941ea024270
:10488400914560d9521908f1ff3004d2914502d9fb
:10489400a8f102002a44a2eb0902a4b2b2fbf6f882
:1048a40006fb182208fb03f144ea024399424cd95f
:1048b4005b1908f1ff32c0d29942bed9a8f10202b5
:1048c400b6e7cef1200421fa04fc01fa0ef220fa34
:1048d40004f405fa0ef544ea02064fea154800fa14
:1048e4000ef4bcfbf8f1aab208fb11cc300c01fbae
:1048f40002f940ea0c43994521d95b1901f1ff30d3
:1049040003d2994501d9881e2b44a3eb0903b6b2ff
:10491400b3fbf8f908fb193309fb02f146ea034239
:1049240091420ed9521909f1ff3c04d2914202d9a5
:10493400a9f1020c2a44521a4cea004c95e70846a5
:10494400e3e7cc46f7e74046a5e7424675e78b42e6
:1049540006d90fb187e803004ff0000c604675e7f5
:10496400b3fa83f68eb98b4201d382420bd8841af0
:1049740061eb030201209046002f6bd087e8100101
:104984004ff0000c62e73046f6e7c6f1200eb34064
:1049940022fa0ef51d4321fa0efb02fa06f401fa7f
:1049a40006f220fa0ef10a434fea15491ffa85f878
:1049b400bbfbf9fa4fea124c09fb1abb0afb08f1dc
:1049c4004cea0b4c614500fa06f33fd91ceb050c8d
:1049d4000af1ff3004d2614502d9aaf10200ac44c5
:1049e400aceb010c92b2bcfbf9fa09fb1acc0afb42
:1049f40008f842ea0c4188452ad949190af1ff32dc
:104a040004d2884502d9aaf10202294442ea0040ac
:104a1400a1eb0801a0fb04894945c246cc4602d358
:104a240006d1434504d2b8eb040a69eb050c0138fe
:104a340087b1b3eb0a0261eb0c0303fa0efef240fa
:104a44004eea0202f34087e80c0099e75046c7e7b4
:084a54005246dbe7bc46f9e61f
:020000040000fa
:020000040040ba
:104a5c002de9f04f8bb090f82f3013f0a00f04d04d
:104a6c00062738460bb0bde8f08f0668f3681a8845
:104a7c0012b34ff0000a0af1010a33f8022f002a90
:104a8c00f9d1054600f124040c22214607a809f0af
:104a9c0029ff9df8273013f0010f7bd0402385f8b8
:104aac002f300b2207a9204609f01cff4ff00109fb
:104abc004b46dff8448203e04ff0000ae1e74b4637
:104acc000df11b07072203f00f0000f1300139290b
:104adc0088bf00f13701013a07f801191b09f2d11f
:104aec007e200aa9114401f8140c62b195f8241027
:104afc0020290bd0214601339a4206d011f8010f20
:104b0c002028f8d102e0134600e01346234420206d
:104b1c0005e0014603f8011b191b072907d8072ad2
:104b2c00f7d80aa9114411f8141c0132f2e72846ef
:104b3c0000f0defe074618bb09f10109b9f1640f5c
:104b4c001cd0f7680b2207a9204609f0cbfeb9f15f
:104b5c00050fb4d9023f4b4637f8022f002aafd0cd
:104b6c00102102f0010000eb4303520813f4803fc4
:104b7c0018bf83ea08030139f3d1ede7072770e783
:104b8c00b9f1640f74d004287ff46baf9df8273013
:104b9c0085f82f309df8273013f0020f00f0858038
:104bac000af10c03524aa2fb03234fea930a0af1bf
:104bbc000101284607f06efe074600287ff451af2e
:104bcc00baf1000f79d06969a1eb4a11284605f0ba
:104bdc0043f8074600287ff444af204609f0eefb6b
:104bec00019000230293039419e0384649e04ff6f4
:104bfc00ff72934202d03cf810300bb948f04008d9
:104c0c0081f800800123f3700021284604f0f2faa9
:104c1c00074600287ff425afbaf1010a26d0e969ce
:104c2c00304608f073fc074600287ff41aafd6f81c
:104c3c000cc0296a5ffa8af89df804304b734ff068
:104c4c000f03cb724ff000030b738b76cb7608f10e
:104c5c00ff3000eb400300eb8300264a02f10d0eff
:104c6c00029b4ff6ff744ff0ff090de0039c24e00c
:104c7c000727f6e6177801eb070b01f807908bf87e
:104c8c00019001329645b2d0a342f3d0471c3cf8b8
:104c9c001030107801eb000b0b54180a8bf8010044
:104cac00002ba2d138462346ebe70121284607f01a
:104cbc00f1fd074600287ff4d4aee969304608f0d0
:104ccc0025fc074600287ff4ccae20220021286a60
:104cdc0009f0f6ff0b222146286a09f003fe2a6a26
:104cec0095f82f3003f0180313730123f370b8e613
:0c4cfc004fecc44ec0ea40002110010043
:020000040000fa
:020000040040ba
:104d08002de9f04391b00191002800f0028104469a
:104d1800154602f03f073a4602a901a8fff728fa0c
:104d2800064610b100232360f4e0029b0393019927
:104d380003a8fff74df80346002840f0ef809df9df
:104d48003b30002bc0f2f38037f0010314bf012180
:104d5800002103a807f018fc034615f01c0f00f00b
:104d6800a68050b99df8123013f0110f40f0018160
:104d780015f0040f07d00826fce0042b4cd047f0b0
:104d88000807002b52d117f0080f51d117f0080f60
:104d980001d047f04007029b5b6b63620b9ba362e9
:104da80037f0010314bf0121002103a806f02cfcf1
:104db8002061002800f0ab80029dddf82c80414680
:104dc800284609f041faa06008f11c0009f003fd2b
:104dd800e0602560eb88a38027750021617521625a
:104de800a16104f140084ff40072404609f06affdf
:104df80017f0200f00f08e80e568002d00f08a8003
:104e0800a561029bb3f80a904fea4929a1684d456c
:104e180040f2928037465ce05a4b1b680bb1122374
:104e280098e003a8fff716fe0346a8e71e4679e7b1
:104e380009f0a1f8054601460b980e3009f034fe3a
:104e480029460b98163009f02ffe029dddf82c80bc
:104e58004146284609f0f8f98146202388f80b30a6
:104e680000220b99284609f0b7fb00210b981c304b
:104e780009f01afe0122029bda70b9f1000f88d0fe
:104e8800029b5d6b0022494603a805f045ff08b167
:104e9800064647e72946029808f03afb09f1ff332e
:104ea800029a136100283ff474af06463ae70028d7
:104eb80063d19df8123013f0100f60d115f0020f76
:104ec8003ff464af13f0010f3ff460af072629e702
:104ed8001f46204604f0d4fa0146012841d93b4632
:104ee800b0f1ff3f40d0a5eb09050fb9a945efd3b5
:104ef800e16117b33e4615e700eb55222262012314
:104f08004146787803f0befc20b101260ae7022664
:104f180008e70926304611b0bde8f08315f01c0fec
:104f28007ff42baf002b3ff447af1e46fae615f08f
:104f38001c0f0ed10623f5e7e161c5f30803002b2a
:104f4800e8d0029f384609f0b7fb0028d4d10226e2
:104f5800e8e6062347f00807e4e7a5eb090502277a
:104f6800c6e7b0f1ff3ff8d14ff0ff33e361012608
:104f7800d8e60726002ecdd0d4e60646d2e604268b
:084f8800d0e600bf78c4402010
:020000040000fa
:020000040040ba
:104f900061001a03e0001703f8000703ff00010097
:104fa00078010001300132010601390110014a0186
:104fb0002e017901060180014d0043028101820129
:104fc00082018401840186018701870189018a01a8
:104fd0008b018b018d018e018f0190019101910157
:104fe00093019401f60196019701980198013d0201
:104ff0009b019c019d0120029f01a001a001a20133
:10500000a201a401a401a601a701a701a901aa0167
:10501000ab01ac01ac01ae01af01af01b101b20116
:10502000b301b301b501b501b701b801b801ba01c7
:10503000bb01bc01bc01be01f701c001c101c2013d
:10504000c301c401c501c401c701c801c701ca0128
:10505000cb01ca01cd011001dd0101008e01de018d
:105060001201f3010300f101f401f401f801280138
:10507000220212013a020900652c3b023b023d026a
:10508000662c3f0240024102410246020a015302dd
:10509000400081018601550289018a0158028f0171
:1050a0005a0290015c025d025e025f02930161029e
:1050b000620294016402650266026702970196012a
:1050c0006a02622c6c026d026e029c017002710217
:1050d0009d01730274029f017602770278027902c1
:1050e0007a027b027c02642c7e027f02a60181028e
:1050f0008202a9018402850286028702ae0144026f
:10510000b101b20145028d028e028f02900291021e
:10511000b7017b030300fd03fe03ff03ac030400a0
:105120008603880389038a03b1031103c2030200c3
:10513000a303a303c4030803cc0303008c038e035f
:105140008f03d8031801f2030a00f903f303f403f1
:10515000f503f603f703f703f903fa03fa03300440
:10516000200350041007600422018a043601c104a0
:105170000e01cf040100c004d004440161052604df
:04518000000000bf6c
:020000040000fa
:020000040040ba
:045184000020704750
:020000040000fa
:020000040040ba
:1051880038b5b0ee407b17ee905a714b25f00044cd
:105198009c4214dd6f4a944210ee103a01dc05d1ae
:1051a80023b137ee077bb0ee470b38bd9fed4c7b44
:1051b8009fed4d6b002dc8bfb0ee467bf3e7664b05
:1051c8009c4211dca3f1de739c420adcb7ee005b63
:1051d8009fed476b30ee066bb4eec56bf1ee10fa3f
:1051e800e1dc4ff0ff3313e009f0d4fc5b4b9c4249
:1051f8004ddca3f550239c423fdcb0ee007bbfeeb4
:10520800006b0023a0ee076b30ee070b86ee007be9
:105218009fed395b27ee074b24ee046b9fed383b7f
:10522800a6ee053b9fed385ba6ee035b9fed383b92
:10523800a6ee053b9fed385ba6ee035b9fed383b82
:105248009fed392ba6ee053b9fed395ba6ee052bae
:105258009fed395ba6ee025b9fed392ba6ee052b81
:105268009fed395b5a1ca6ee025b25ee066b03ee3a
:10527800046b21d1a7ee467b95e7b7ee007b0123af
:1052880030ee476b30ee070b86ee007bc0e7344b01
:105298009c420bdcb7ee087bb7ee006b30ee475b49
:1052a800a0ee076b022385ee067bb1e7bfee006b2d
:1052b800032386ee007babe72a4a2b49db001a441e
:1052c8000b4493ed005b97ee065b92ed006b35eeb9
:1052d800477b002d36ee477bb8bfb1ee477b62e7d0
:1052e800182d4454fb21f9bf182d4454fb21f93fd4
:1052f8009c7500883ce4377e11da22e33aad903f92
:10530800eb0d76244b7ba93f513dd0a0660db13ff4
:105318006e204cc5cd45b73fff8300922449c23f5c
:105328000d5555555555d53f9afdde522ddeadbf6d
:105338002f6c6a2c44b4a2bf6d9a74aff2b0b3bf9d
:10534800711623fec671bcbfc4eb98999999c9bf61
:10535800ffff0f440000f07fffffdb3ffffff23f3e
:0c536800ff7f0340f0e2400010e3400033
:020000040000fa
:020000040040ba
:105374002de9f04f83b001900f4698460d9e95009d
:10538400284606f07dfd002800f08e8082465420d9
:1053940006f076fd0446002800f08380c0f830a0b3
:1053a4002a46a521504609f0d1fb043d236b1d4438
:1053b40025f00705002f7ad03b7884f834303b7809
:1053c40063b13b4604f1340207f10f01587802f847
:1053d400010f13f8010f08b18b42f7d1002384f8b1
:1053e40043300c9b042b28bf04239946e362636477
:1053f4000027a76404f1040b584609f074fd04f176
:10540400180009f070fd2461c9f10503a361646209
:10541400e76484f8507042460199284608f0c0fbbe
:10542400206006b1346008f053fe3d4a136801332e
:1054340013603c4b1b68002b3dd03b4b1b683bb9b6
:10544400384b1b68da6ae36a9a4201d8354b1c6010
:10545400364a136801331360e06a354a1168012340
:1054640083400b43136000eb80005946314b03eb40
:10547400800009f077f909f075fa2b4b1b68002bb3
:1054840048d0284b1b68da6ae36a9a4246d24ff046
:105494008052294b1a60bff34f8fbff36f8f0120e7
:1054a40039e0504606f025f94ff0ff3033e0002391
:1054b40084f8343095e71b4b1c601368012bc7d16b
:1054c4001c4d284609f0aaf905f1140009f0a6f9c3
:1054d40005f1280009f0a2f905f13c0009f09ef954
:1054e40005f1500009f09af9144e304609f096f986
:1054f400134d284609f092f9124809f08ff9124821
:1055040009f08cf9114809f089f9114b1e60114b0f
:105514001d609de7012003b0bde8f08f0120fae78c
:10552400f8c44020ecc440201cc5402004c54020e1
:1055340008c5402060c1402004ed00e000c44020c4
:1055440014c4402028c4402050c440203cc44020ff
:08555400f0c44020f4c4402023
:020000040000fa
:020000040040ba
:10555c002de9f843664b1b78062b00f2c680dfe87a
:10556c0003f0042a53683e13ac000021084601f0f6
:10557c0009fd5f4c60600021084601f003fda0604e
:10558c0001232370bde8f8835a4c21465a4809f090
:10559c003bf85a4b18600c222146594808f0cafdba
:1055ac0020b90622524b1a70bde8f8830122504be9
:1055bc001a70bde8f883534ec8244f4d3460204612
:1055cc0008f05cf87e222946494b586804f024f810
:1055dc000028f3d00422464b1a70bde8f8834ff430
:1055ec007a70484b186008f049f8474c0b2221465a
:1055fc00464808f0e5fd0246404b186021463c4bfe
:10560c00986803f0a3ffe0b94ff496703d4b186017
:10561c0008f034f83c4c0b2221463d4808f0d0fdf4
:10562c000246364b18602146314b986803f08effca
:10563c0060b9344f4ff4c8742f4d2d4edff8e08015
:10564c0011e005222a4b1a70bde8f8830322284b7f
:10565c001a70bde8f8832f4a1368013313602e4a81
:10566c001268934221d03c60204608f007f87e2255
:10567c002946706803f0d0ff0028ecd0dff8749056
:10568c004946284608f0c0ff1c4b186009224946c1
:10569c00404608f04ffd0028ddd100221d4b1a605a
:1056ac000122134b1a70bde8f8830022194b1a60c3
:1056bc0002220f4b1a70bde8f8834ff47a70114b2d
:1056cc00186007f0dbff104c12222146134808f03b
:1056dc0077fd0246094b18602146054b986803f08c
:1056ec0035ff10b10322024b1a70bde8f88300bfde
:1056fc0004054020e0bf402060c0402030c5402061
:10570c0058e5400028c54020e0c04020b8c44020e7
:10571c00c4c440202cc5402034c5402064c4402063
:04572c0068e54000ec
:020000040000fa
:020000040040ba
:10573000f8b511ee10ea11ee905acef1000125f005
:10574000004041ea0e016c4f53ec102b40ead1713e
:10575000b94210ee10ca1e4607d8544223f0004149
:10576000144341ead474bc4206d943ec172b37eefc
:10577000017b53ec172b1ae005f1404404f580142b
:1057800054ea0e0403d1bde8f840fff7fdbcac17a6
:1057900004f002045cea010c44ead3740ad1022c3e
:1057a0003bd09fed3f7b032c08bf53ec172b43ec02
:1057b000102bf8bd5eea000e0ad19fed3b7b9fedfa
:1057c0003c6b002eb4bf53ec172b53ec162beee7bb
:1057d000b8422ad1814216d1022c0cd0032c0ed013
:1057e0009fed357b9fed366b012c14bf53ec172bcf
:1057f00053ec162bdbe734a3d3e90023d7e734a31c
:10580000d3e90023d3e7022c07d0032c09d0012cc5
:105810009fed317b9fed326be7e733a3d3e90023a4
:10582000c5e71fa3d3e90023c1e7b942c5d0091ad0
:1058300009153c291edc002d01da3c311edb43ec4e
:10584000172b87ee010b09f0a9f9fff79dfc53ec2c
:10585000102b012c15d0022c16d0002ca7d09fedb8
:10586000247b43ec162b36ee477b9fed1f6b37ee08
:10587000467b7ee70ea3d3e90023eae7002200235c
:10588000e7e703f1004392e79fed197b43ec162b0a
:1058900036ee477b9fed146b36ee477b69e700bf22
:1058a000182d4454fb2109c0182d4454fb21f9bf85
:1058b000182d4454fb21f93f182d4454fb21e93f96
:1058c000182d4454fb21e9bfd221337f7cd90240fb
:1058d000d221337f7cd902c000000000000000000c
:1058e0000000000000000080182d4454fb210940f6
:0c58f000075c143326a6a13c0000f07fea
:020000040000fa
:020000040040ba
:1058fc002de9f04f85b005460768002104f0acf99e
:10590c008346002840f0b8804ff0ff332b634ff0f4
:10591c00ff0ad14698460be0c5f830804ff0ff09de
:10592c000021284603f066fc8346002840f0a48042
:10593c00e969384607f0eafd8346002840f09c8070
:10594c002c6a2678002e00f09580e27a02f03f0354
:10595c00ab71e52ee0d012f0080f01d00f2bdbd18c
:10596c000f2b20d0b9f1000f05d1204608f026fdf1
:10597c00824500f0818095f82f3013f0010f0dd186
:10598c0005f124020b2314f8010b12f8011b13f17f
:10599c00ff3301d08842f6d088426dd0c5f83080f4
