:020000040000fa
:020000040040ba
:10000000f0ff45201d7840008b734000cb904000ee
:10001000d7ab40003fb14000bbbe40000000000035
:10002000000000000000000000000000a1fa4000f5
:100030003b9540000000000021d74000f9f240004d
:100040002b6d40002b6d40002b6d40002b6d400050
:100050002b6d40002b6d40002b6d40002b6d400040
:100060002b6d400000000000a9044100b9044100cc
:100070002b6d4000ad88400081874000d989400049
:10008000c90441002b6d4000cd9040002d6d400013
:100090002b6d40002b6d40002b6d40002b6d400000
:1000a0002b6d40002b6d40002b6d40002b6d4000f0
:1000b0002b6d40002b6d40002b6d4000d9fe4000a1
:1000c0002b6d40002b6d40002b6d40002b6d4000d0
:1000d0002b6d40002b6d40002b6d40002b6d4000c0
:1000e0002b6d40002b6d40002b6d40002b6d4000b0
:1000f0002b6d40002b6d40002b6d40002b6d4000a0
:100100002b6d40002b6d400011fa40002b6d40001c
:100110002b6d400000000000000000000000000007
:100120002b6d40002b6d400001d340002b6d400033
:100130002b6d40002b6d40002b6d40002b6d40005f
:100140002b6d40002b6d40002b6d40002b6d40004f
:100150002b6d40002b6d40002b6d40002b6d40003f
:080160002b6d40002b6d4000e7
:020000040000fa
:020000040040ba
:10016800f8b500bff8bc08bc9e46704771e840006f
:10017800f8b500bff8bc08bc9e4670474de8400083
:020000040000fa
:020000040040ba
:08018800945300000100000087
:020000040000fa
:020000040040ba
:100190002de9f04784b00746002303934ff45074d1
:1001a00004fb00f4b84d2e1904f54b731d444ff6b3
:1001b000ff7128460ff037fed6f8cc8296f8df3272
:1001c000102b01f22c83dfe813f01f0050006200b7
:1001d0009700e108390a730ab00add0a140b640bb0
:1001e000990bc60bf70b170c5d0c1100d6f8cc421f
:1001f000002c01f09f84a44b4ff4507808fb073883
:100200004ff0010901f084bc9f4a4ff4507303fb87
:1002100007239b789bb94ff4507303fb07239b681c
:100220009b6b9847002801f0fa82974b4ff450706f
:1002300000fb0730012380f8df3201f0f0ba924e64
:1002400004f12001314438460df062fb4ff4507048
:1002500000fb0767bb685b6898478c4bc7f8b432f4
:10026000032387f8df3201f0daba89492144fa2002
:100270000ef0ecf8002841f0d282834b4ff450701e
:1002800000fb0730022380f8df3201f0c8ba7e4a53
:100290004ff4507303fb0723d3f8e8020ff040ff3d
:1002a000002801f0bc82784a4ff4507303fb072307
:1002b0009b689b6b984748b9734b4ff4507000fb99
:1002c0000730002380f8df3201f0a9ba6e4e04f146
:1002d0002001314438460df01bfb4ff4507303fbf3
:1002e0000767bb685b689847684bc7f8b43203235d
:1002f00087f8df3201f093ba00230293624a4ff489
:10030000507303fb072393f8e032212b00f2d887c8
:10031000dfe813f022005d007d009300c000ea00da
:10032000600189018302c4025f0324054e057e0536
:1003300014042e0463048a04af04df04a405f50545
:100340003e066306aa060a075b077e07ac07c907d5
:10035000c907f7016e0218034b4a4ff4507303fbb1
:100360000723d3f8b422494b9a4215d0464a4ff49a
:10037000507303fb07239b689b68444898470028f9
:1003800000f04286404a4ff4507303fb07233f4a74
:10039000c3f8b42200f038be3b4a4ff4507303fb5d
:1003a00007239b78012b09d0374a4ff4507303fb86
:1003b0000723032283f8e02200f026be03f23f3336
:1003c00003fb0723012283f8e02200f01dbe2e4923
:1003d00004f53a724ff4507303fb07131144586845
:1003e0000ef034f848b9284a4ff4507303fb072342
:1003f000022283f8e02200f007be234a4ff4507334
:1004000003fb07231e2283f8e02200f0fdbd1e4af5
:100410004ff4507303fb0723d3f8e8020ff080fe7c
:10042000002800f0f185184a4ff4507303fb0723ae
:10043000032283f8e02200f0e7bddff84c8004f2ed
:10044000e3234344009300231a461946304608f03c
:10045000effb4ff4507303fb078393f8e232032b57
:1004600040f0d28508f53a71214402200df0eeffec
:10047000002840f0c9854ff4507303fb0783042222
:1004800083f8e02200f0c0bda0b04020801a060032
:1004900088b34020d44a4ff4507303fb0723d3f8aa
:1004a000e8020ff03dfe002800f0ae85ce4a4ff482
:1004b000507303fb072393f8f03243b903f55073ed
:1004c00003fb0723052283f8e02200f09dbdc64a06
:1004d0004ff4507303fb07231f2283f8e0221422fa
:1004e000a3f8fc2200f090bddff8fc8204f2e323c5
:1004f0004344009308234ff4d5721946304608f060
:1005000097fb4ff4507303fb078393f8e232032bfe
:1005100040f07a8503f23d3303fb0783062183f81d
:10052000e012072183f8e112002183f8a51204f5f7
:100530003b7141444ff4fa600df088ff012820d050
:10054000a94a4ff4507303fb072393f8dd325bbbda
:1005500003f5507303fb07239b681b6a02a9002065
:100560009847029bc3f30803b3f5d57f12d09e4a88
:100570004ff4507303fb07231e2283f8e02200f0a0
:1005800043bd4ff4507303fb07831e2283f8e02220
:1005900000f03abd944a03f5cb7303fb0723012215
:1005a00083f8ac2200f030bd022b09d08e4a4ff404
:1005b000507303fb07231e2283f8e02200f024bdc2
:1005c000894a03f23e3303fb0723002283f8ac225f
:1005d00000f01abd844b4ff4507808fb0738b8f888
:1005e000a22204f2e3210b440093012312043721d9
:1005f000304608f01dfb98f8e232032b40f00485ea
:1006000098f8dd322bb998f8e12288f8e02200f062
:10061000fbbc754a4ff4507303fb07231e2283f87b
:10062000e02200f0f1bc704b4ff4507808fb073823
:1006300098f8ac1298f8a522120404f2e3200344bf
:100640000093042342ea81722921304608f0f0fa2f
:1006500098f8e232032b40f0d784d8f8ec020ff080
:100660005ffd20b11e2288f8e02200f0cdbc5e4a7a
:100670004ff4507303fb072393f8dd32bbbb03f544
:10068000507303fb07239b681b6a02a9002098474d
:10069000029b13f4701f09d1534a4ff4507303fbac
:1006a00007231e2283f8e02200f0aebc002b0cdbf7
:1006b0004d4a4ff4507303fb07233c2283f8a522d5
:1006c000062283f8e02200f09fbc474a4ff45076a0
:1006d00006fb0726c3f3807386f8a632d6f8ec0231
:1006e0000ef08cfb082386f8e03200f08dbc3e4a09
:1006f0004ff4507303fb07231e2283f8e02200f01f
:1007000083bcdff8e48004f2e32343440093042332
:10071000364a0121304608f08bfa4ff4507303fb40
:10072000078393f8e232032b40f06e8403f23d33eb
:1007300003fb078393f8dd32002b4ad103f5507396
:1007400003fb07839b681b6a02a900209847029b52
:10075000002b11db244a4ff4507303fb0723b3f83b
:10076000fc32dbb9204a4ff4507303fb07231e22ef
:1007700083f8e02200f048bc4ff4507202fb07827d
:1007800003f0c043b3f1804f14bf0023012382f86c
:10079000a632082382f8e03200f036bc11464ff44e
:1007a000507202fb0712013ba2f8fc3204f53a73c7
:1007b000194432200df04afe002840f025840a4af0
:1007c0004ff4507303fb0723202283f8e02200f04c
:1007d0001bbc054a4ff4507303fb07231e2283f80a
:1007e000e02200f011bc00bfa0b040200000384063
:1007f000ce4a4ff4507303fb0723d3f8e8020ff0ff
:100800008ffc002800f00084c84a4ff4507303fbab
:1008100007231f2283f8e022f6e3dff8108304f2b7
:10082000e32343440093032300220221304608f0cf
:10083000fff94ff4507303fb078393f8e232032b65
:1008400040f0e28303f23d3303fb078393f8dd328c
:10085000dbb9414604f120034ff4507606fb0786ce
:10086000b268126a19440420904796f8f0321bb916
:10087000092286f8e022c7e3ac4a4ff4507303fb29
:100880000723212283f8e022bee3a84a4ff45073e5
:1008900003fb07231e2283f8e022b5e3dff88c82f6
:1008a00004f2e3234344009307230022032130464c
:1008b00008f0bef94ff4507303fb078393f8e2325c
:1008c000032b40f0a18303f23d3303fb078393f82e
:1008d000dd3273bb03f5507303fb07839b681b6a10
:1008e00002a900209847029b13f4604f07d04ff4f1
:1008f000507303fb07831e2283f8e02284e31b0c62
:100900008a494ff4507202fb0712a2f8a2323bb997
:1009100003f5507303fb0713092283f8e02273e306
:10092000824a4ff4507303fb07230a2283f8e02224
:100930006ae37e4a4ff4507303fb07231e2283f8b9
:10094000e02261e3dff8e48104f2e323434400930f
:1009500001234ff400320321304608f069f94ff4c7
:10096000507303fb078393f8e232032b40f04c8370
:1009700003f23d3303fb078393f8dd3203bb03f53a
:10098000507303fb07839b681b6a02a900209847ea
:10099000029b13f4590f07d04ff4507303fb0783e6
:1009a0001e2283f8e0222fe3604a4ff4507303fbca
:1009b00007230222a3f8a2220a2283f8e02223e3db
:1009c0005a4a4ff4507303fb07231e2283f8e02298
:1009d0001ae3564b4ff4507808fb0738b8f8a222b8
:1009e00004f2e3210b44009303231204092130464f
:1009f00008f01ef998f8e232032b40f005834b4ac9
:100a000098f8dd32002b40f0888004f1300616445f
:100a10004ff4507808fb0728d8f808301b6a314695
:100a20000420984798f8f032002b3bd1404ac8f890
:100a3000b822b37b9b09012b26d0337a9b0203f4a7
:100a400040607279520002f00602384b4ff4507148
:100a500001fb073196f807c0b3799b0943ea8c0381
:100a600003430133307942ead01202329340727a62
:100a700002f00f02a2f109000122824092b202fbb1
:100a800003f3c1f8a8323fe0f3791b0403f47c12ae
:100a9000b079737943ea0023134301339b02c8f80a
:100aa000a83231e0f37a214a4ff4507101fb07215b
:100ab000c3f3c20003f007031e4a52f820201e4869
:100ac00050f8233003fb02f30a22b3fbf2f3c1f820
:100ad000b832f279b3799b0943ea8203327a9202ff
:100ae00002f44062134301337279520002f00602ad
:100af000307942ead01202329340727a02f00f0249
:100b000093405b0ac1f8a832084a4ff4507303fbc4
:100b100007230e2283f8e02276e2044a4ff4507352
:100b200003fb07231e2283f8e0226de2a0b04020e1
:100b300040787d01cce8400024fc4000c64a4ff4d8
:100b4000507303fb07239a689268d3f8b802904762
:100b5000002800f05982c04a4ff4507303fb07236a
:100b6000d3f8b822c3f8b4220f2283f8e0224be274
:100b7000b94b4ff4507808fb0738b8f8a22204f2ba
:100b8000e3210b440093022312040721304608f0ae
:100b90004ff898f8e232032b40f0368298f8dd32b5
:100ba00093b998f8f03233b9062288f8e02210227f
:100bb00088f8e12228e2a84a4ff4507303fb072388
:100bc0000b2283f8e0221fe2a34a4ff4507303fb89
:100bd00007231e2283f8e02216e29f4a4ff4507347
:100be00003fb07239b681b6a02a900209847029b0e
:100bf00013f0007f0bd0984a4ff4507303fb072388
:100c0000012283f8ae221d2283f8e022fce113f4d6
:100c1000006f914a4ff4507303fb072314bf112256
:100c20001e2283f8e022efe18b4e4ff4507808fb50
:100c30000768d8f808309b6a082098474ff00109e8
:100c400088f8e39288f8e492002388f8e53204f10a
:100c500040031e44202130460ef028f9d8f8083011
:100c60005b6b4a46082130469847122388f8e032e9
:100c7000cae1dff8e48104f2e32343440093012353
:100c800000223321304607f0d3ff4ff4507303fbab
:100c9000078393f8e232032b40f0b68103f23d3331
:100ca00003fb0783002283f8e32293f8dd323bb98c
:100cb00003f5507303fb0783132283f8e022a3e1bb
:100cc000654a4ff4507303fb07231e2283f8e0228a
:100cd0009ae1614a4ff4507303fb072393f8af3254
:100ce000002b00f091814ff4507303fb0723b3f8fe
:100cf000b23223f4fb4323f00f031b041b0c3bb164
:100d00004ff4507303fb07231e2283f8e0227be19c
:100d1000514a4ff4507303fb072393f8413013f00b
:100d2000040f07d04ff4507303fb072393f8f232fc
:100d3000012b08d0484a4ff4507303fb07231522b8
:100d400083f8e02260e103f23f3303fb072306222e
:100d500083f8e022142283f8e12255e1dff8f880dd
:100d60004ff4507606fb07864ff0010986f8e392b0
:100d700086f8e492002086f8e502b3685b6a98473b
:100d8000b3689b6a4ff40070984704f1a00398443d
:100d90004ff4007140460ef089f8b3685b6b4a4629
:100da0004ff40071404698470c2386f8e0322be15f
:100db000dff8a48004f2e3234344009301230022dc
:100dc0000821304607f034ff4ff4507303fb0783cc
:100dd00093f8e232032b40f0178103f23d3303fb1b
:100de0000783002283f8e32293f8dd323bb903f551
:100df000507303fb07830d2283f8e02204e1164ab7
:100e00004ff4507303fb07231e2283f8e022fbe01c
:100e1000114a4ff4507303fb072393f8af32002bb2
:100e200000f0f28013464ff4507202fb073292f842
:100e3000771192f876311b0443ea016392f874113a
:100e40000b4392f8751143ea0123c2f8a832142328
:100e500082f8e032d8e000bfa0b04020d14a4ff481
:100e6000507303fb072393f8f0325bbb02f2e323da
:100e700023440093012302220621304607f0d8fec6
:100e8000c84a4ff4507303fb072393f8e232032b55
:100e900040f0ba8003f23d3303fb072393f8dd32c1
:100ea00023bb4ff4507606fb0726b368db6a96f83f
:100eb000f202984796f8f23286f8a132152386f8a6
:100ec000e032a1e0b74b4ff4507202fb073292f8c8
:100ed000f21204f2e322134400930223b24a42eadc
:100ee00001220621304607f0a3fec9e7ad4a4ff4c0
:100ef000507303fb07231e2283f8e02284e0a94af3
:100f00004ff4507303fb072393f8f03223bb03f530
:100f1000507303fb072393f8403013f00f0f07d0f3
:100f20004ff4507303fb072393f8f132012b08d0e1
:100f30009c4a4ff4507303fb07231b2283f8e022e3
:100f400062e003f23f3303fb0723002283f8a4226d
:100f5000162283f8e02257e0012be9d1914a03f2ef
:100f60003f3303fb072393f8643113f0010fdfd005
:100f70004ff4507303fb072393f8f132012bd7d1c1
:100f800003f23f3303fb0723192283f8e0223be0ff
:100f9000dff810924ff4507808fb0798d8f8083023
:100fa0009b6a402098474ff0010a88f8e3a288f82e
:100fb000e4a2002388f8e53204f16003994440215b
:100fc00048460df073ffd8f808305b6b524640215d
:100fd00048469847172388f8e032724b4ff4507810
:100fe00008fb073898f8a41204f2e3221344009394
:100ff00001236e4a42eac1720621304607f018fe0c
:1010000098f8e232032b1cd0664a4ff4507303fb6e
:10101000072393f8e0321d2b00f05b811e2b40f07c
:10102000fe83604a4ff4507303fb07239b78012b28
:1010300040f0f58302f12001214438460cf068fcb1
:10104000ede3002288f8e32298f8dd321bb918227c
:1010500088f8e022d8e7534a4ff4507303fb072384
:101060001e2283f8e022cfe74e4a4ff4507303fb71
:10107000072393f8af32002bc6d04ff4507303fb15
:101080000723b3f8b23223f4fb4323f00f031b040e
:101090001b0c3bb14ff4507303fb07231e2283f854
:1010a000e022b1e73f4a4ff4507303fb072393f864
:1010b000a432012b14d03b4a4ff4507303fb072397
:1010c00093f86d3013f0020f25d04ff4507303fbeb
:1010d0000723012283f8a422162283f8e02293e753
:1010e00003f23f3303fb072393f8703003f00f0341
:1010f000012b08d02b4a4ff4507303fb07231d220a
:1011000083f8e02280e703f23f3303fb07231a2230
:1011100083f8e02278e7234a4ff4507303fb072358
:101120001d2283f8e0226fe7dff8788004f2e323e2
:101130004344009302231e4a0621304607f078fdff
:101140004ff4507303fb078393f8e232032b7ff4d1
:101150005baf03f23d3303fb078393f8dd325bbbe8
:1011600003f5507303fb07839b689b6811489847fe
:1011700070b14ff4507606fb07860e4bc6f8b432ba
:10118000b3681b6b012098471b2386f8e0323be7ce
:10119000044a4ff4507303fb07231e2283f8e02216
:1011a00032e700bfa0b040200100b70301ffff00fd
:1011b0000101b90300751903c24a4ff4507303fbd0
:1011c00007231e2283f8e0221ee7be4a4ff4507325
:1011d00003fb07239b689b68bb48984778b1b94bd2
:1011e0004ff4507606fb0736b74bc6f8b432b368f7
:1011f0001b6b012098471b2386f8e03204e7b14ab5
:101200004ff4507303fb07231e2283f8e022fbe612
:10121000dff8b08204f2e3234344009301234ff448
:1012200000721021304607f003fd4ff4507303fbaa
:10123000078393f8e232032b7ff4e6ae03f23d33eb
:1012400003fb078393f8dd323bb903f5507303fbcf
:1012500007831c2283f8e022d6e69a4a4ff45073a3
:1012600003fb07231e2283f8e022cde6dff8548239
:1012700004f2e3234344009300231a460721304637
:1012800007f0d6fc4ff4507303fb078393f8e23268
:10129000032b7ff4b9ae03f23d3303fb07831d221a
:1012a00083f8e022b0e6874b4ff4507606fb073612
:1012b000d6f8ec020df0a2fd002386f8e032a3e69a
:1012c000804a4ff4507303fb0723002283f8e02287
:1012d0009ae64ff4507303fb0723002283f8fa22a7
:1012e00093f8dc3283b1774a4ff4507303fb072342
:1012f0009b68db6b83b19847724a4ff4507303fbd2
:10130000072383f8ad0207e06e4a4ff4507303fbe6
:101310000723002283f8ad226a4a4ff4507303fb7f
:101320000723d3f8a8124ff40070c3f81403c3f8ce
:101330001813c3f81c03c3f82013c3f82403c3f81d
:1013400028130121c3f80413c3f80813c3f80c13be
:1013500004f545742244c3f810239b788b420bd0cc
:10136000584b4ff4507000fb0730012380f8de32f9
:10137000042380f8df3252e2524a4ff4507303fbe9
:1013800007234ff0ff32c3f8ec22e9e7b8f1000f72
:1013900008d04c4a4ff4507303fb072393f8e23212
:1013a000032b28d0474a4ff4507303fb07239b7845
:1013b000022b00f00781012b40f03182414a4ff4ab
:1013c000507303fb0723d3f8ec02b0f1ff3f00f0aa
:1013d0001f810ef0a5fe002800f02182394b4ff44a
:1013e000507000fb07304ff0ff33c0f8ec3206239b
:1013f00080f8df3213e24ff4507303fb07239b782e
:10140000012b12d02f4a4ff4507303fb072393f89c
:10141000ae32bbb1ff2388f808304ff4507000fba8
:1014200007200e2380f8df32f9e14ff4507404fbfb
:101430000724d4f8ec020df0e1fc4ff0ff33c4f8c0
:10144000ec32dfe71f4a4ff4507303fb07239b780e
:1014500083b94ff4507303fb07239b689b6b98473a
:1014600040b9184b4ff4507000fb0730102380f840
:10147000df32d4e1022388f80830124a4ff4507367
:1014800003fb072393f8a63223b9d8f814305b0284
:10149000c8f8143098f81d30012b17d0094a4ff4c2
:1014a000507303fb072393f8ad32002b42d0ff2388
:1014b00088f808304ff4507000fb07200e2380f8a6
:1014c000df32ace1a0b0402080f0fa02ac4a4ff429
:1014d000507303fb0723012283f8e422d8f8183065
:1014e00093421bd0122388f81c30a54a4ff4507346
:1014f00003fb0723012283f8e522a14a4ff450732e
:1015000003fb07239b78022b38d09d4b4ff4507080
:1015100000fb0730072380f8df3280e1112388f8d1
:101520001c30974a03f22f3303fb0723002283f872
:10153000e522e2e7924a4ff4507303fb07230022af
:1015400083f8e422d8f81830012b0bd0192388f83f
:101550001c308b4a4ff4507303fb0723012283f89e
:10156000e522cae7182388f81c30854a03f54a7338
:1015700003fb0723002283f8e522bee74ff45073f4
:1015800003fb072393f8f032012b08d07c4b4ff478
:10159000507000fb0730072380f8df323fe103f291
:1015a0003f3303fb072393f8fa32012beed14ff4bc
:1015b000507000fb0720002380f8fa32052380f8e2
:1015c000df322ce14ff4507303fb072393f8f03222
:1015d000012b40f024814ff4507303fb072393f851
:1015e000f932002b00f01b814ff4507303fb0723eb
:1015f00093f8fa32002b40f012814ff4507000fb48
:101600000720012380f8fa32052380f8df3206e153
:1016100004f53b714ff4507303fb072311445868e2
:101620000cf014ff012840f0fa80554b4ff4507035
:1016300000fb07300e2380f8df32f0e0504b4ff410
:10164000507808fb0738002288f8e322b8f8a20295
:1016500098f8fa22d20304f2e324234400930223ed
:1016600042ea00420521304607f0e2fa98f8e232f9
:10167000032b40f0d48098f8dd3283b998f8fa3221
:10168000012b08d03e4b4ff4507000fb073007236e
:1016900080f8df32c3e0042388f8df32bfe0384b44
:1016a0004ff4507000fb0730102380f8df32b6e0b3
:1016b000334b4ff4507808fb0738002288f8e322b8
:1016c000b8f8a22204f2e324234400930123120475
:1016d0000d21304607f0acfa98f8e232032b40f0c7
:1016e0009e8098f8dd32bbb9d8f808301b6a03a990
:1016f00000209847039bc3f34323032b03d01023fd
:1017000088f8df328be01e4b4ff4507000fb07303f
:10171000042380f8df3282e0194b4ff4507000fb55
:101720000730102380f8df3279e0154b4ff4507802
:1017300008fb0738b8f8a22204f2e32423440093fc
:10174000022312040721304607f072fa98f8e232b9
:10175000032b64d198f8dd324bb9d8f808301b6af6
:1017600003a900209847082388f8df3257e0044b8c
:101770004ff4507000fb07300e2380f8df324ee04c
:10178000a0b04020b8f1000f4fd0d8f818000128c1
:10179000b94a4ff4507303fb07239b685b6a0cbf85
:1017a000002080b29847b44a4ff4507303fb0723dc
:1017b0009b689b6a4ff40070984798f81d30002b87
:1017c0003cd0012b42d0ac4b4ff4507909fb073988
:1017d000012389f8e332d8f81810d9f808305b6b88
:1017e00098f81d204902d8f810009847092389f875
:1017f000df32d8f8142098f81c10dff87c8204f24d
:10180000e324444400940123304607f011fa4ff4d6
:10181000507303fb078393f8e232032b1ed0284654
:101820000ef04dfc04b0bde8f087934b4ff45070c0
:1018300000fb07300e2380f8df32f0e7d8f81810ed
:101840004902d8f810000df04dfbbce7d8f818108d
:101850004902d8f810000df029fbb4e74ff450739b
:1018600003fb0783002283f8e32293f8dd323bb9c0
:101870004ff4507000fb07800a2380f8df32cee778
:101880007d4b4ff4507000fb07300e2380f8df32a1
:10189000c5e7794a4ff4507303fb072393f8af323f
:1018a000002bbcd04ff4507303fb0723b3f8b232c4
:1018b000724a1a4208d0704b4ff4507000fb073048
:1018c0000e2380f8df32aae7b8f1000f0dd0d8f868
:1018d0001830012b684b4ff4507000fb07308cbf61
:1018e0000b230c2380f8df3299e7634b4ff45070e1
:1018f00000fb07300e2380f8df3290e7dff87881b5
:1019000004f2e32444440094022300220c213046d4
:1019100007f08ef94ff4507303fb078393f8e2321c
:10192000032b7ff47caf4ff4507303fb078393f8d2
:10193000dd323bb94ff4507000fb07800c2380f878
:10194000df326ce74c4b4ff4507000fb07300e2336
:1019500080f8df3263e7484b4ff4507808fb0738d4
:10196000b8f8a22204f2e3242344009301231204d2
:101970000d21304607f05cf998f8e232032b7ff432
:101980004eaf98f8dd3273b9d8f808301b6a03a956
:1019900000209847039b13f4807f3ff440af0d2352
:1019a00088f8df323be7344b4ff4507000fb0730d0
:1019b0000e2380f8df3232e7dff8bc9004f2e32434
:1019c0004c44009400231a460721304607f030f9b2
:1019d0004ff4507303fb079393f8e232032b7ff429
:1019e0001eaf002388f808304ff4507000fb0790ba
:1019f0000f2380f8df3212e71f4a4ff4507303fbc6
:101a000007239b787bb94ff4507000fb0727bb6816
:101a10009b6b98471a4b1870ff2388f808300f23e8
:101a200087f8df32fbe6144b4ff4507909fb073996
:101a3000002289f8e322b9f8a22204f2e3241c442c
:101a40000094012312040d21304607f0f1f899f8b3
:101a5000e232032b7ff4e3aeff2388f808300f2334
:101a600089f8df3299f8dd32002b3ff4d8ae044b11
:101a700000221a70d3e600bfa0b040207082ffffa2
:101a800037c14020b8f1000f17d0d8f80410c8b201
:101a90002e4b4ff4507202fb0732d2f8d83203ebd0
:101aa0000013da68914214d0d6f8cc322bb11a6afe
:101ab000c6f8cc2200221a621a70254b1b78abb1f3
:101ac000224b4ff4507000fb0730042380f8df32c4
:101ad000a5e65c68002ce7d098f908009a68d8f869
:101ae0000c10003018bf0120a047dde7184b012281
:101af0001a70164b4ff4507000fb0730102380f81b
:101b0000df328ce6002323622370d6f8cc428cb1fe
:101b1000236ac6f8cc322279d8f8d83203eb021304
:101b2000d3f804a0baf1000fecd09a68e1684846f7
:101b3000d047e7e705484ff4507303fb0700002345
:101b400080f8de3280f8df3269e600bfa0b04020c6
:041b500037c1402039
:020000040000fa
:020000040040ba
:041b54000164704771
:020000040000fa
:020000040040ba
:101b58002de9f04f2ded0c8b9fb01f4600231a93f3
:101b6800a34b16921b680a93044618468b460ef040
:101b780027fd4ff0000805464ff00009cdf864b086
:101b8800199a13780d2b33d8092b37d2002b3fd055
:101b980000230e93199e3378302b40f0b28073786f
:101ba800582b01d0782b69d10e9b01931aab029761
:101bb8000093904a1bab19a9204602f019f810f0bf
:101bc8000705074605d0062d2dd1013600231996a5
:101bd8000e93169b002b40f05f850e9bf3b149ecea
:101be800178bb1ee470b1fb0bdec0c8bbde8f08f27
:101bf8002b2b06d02d2b14d0202bc9d101321992b2
:101c0800bee700230e93531c19935378002bc1d1c0
:101c1800169bcdf864b0002b40f03c8549ec108b46
:101c2800e1e70123eee71a9a3ab135211ca80df035
:101c3800cdfa1a9920460df0d3fb013d042d06d8a4
:101c4800dfe805f00a0314170a00dde91c893b07e1
:101c5800bfd549f00049bce7dde91c831b9a23f492
:101c6800801302f2334243ea0259f0e7dff8889121
:101c7800ede76ff000494ff0ff38e8e7199b5a1c71
:101c880019925b78302bf9d0002ba2d0012308934e
:101c9800199b0c930023049307931e460a22199854
:101ca80090f800a0aaf13003d9b209292bd92a4605
:101cb8000a990df027ff002835d0002052463346f8
:101cc80082460146652a01d0452a18d11bb9089bce
:101cd80003439dd00023ddf864b00bf10102199293
:101ce8009bf801202b2a77d02d2a7dd04ff0000eab
:101cf800a2f13005092d40f28580cdf864b00025a9
:101d0800a0e00023c3e7082ed5bf0799049902fb7a
:101d1800013302fb013300f10100d4bf07930493a0
:101d280001361990bbe7199b5a1919925a5daeb33f
:101d380082463346a2f13001092912d90121c1e7af
:101d4800199b5a1c19925a780130302af8d0a2f1fe
:101d58003103082b00f2a584199b0c9382460020be
:101d68000346303a00f1010112d08a4400eb030c1b
:101d780019460a25614513d11918082903f10103e9
:101d880003441ddc07980a2101fb00220792002169
:101d9800199a501c199052780846cbe73046d4e778
:101da800082904dc079f6f4307970131e2e701f137
:101db800010ebef1100fdebf049f6f430497f4e7d6
:101dc800102bdfbf04980a2101fb00220492dee7f2
:101dd8004ff0000a01217ae74ff0000e0bf10202e2
:101de80019929bf8022083e74ff0010ef6e700bf37
:101df800f4074100c40341000000f07f199a551c04
:101e080019955278302af9d0a2f13105082d3ff6fc
:101e180076afa2f1300c199a0a92199a551c1995a5
:101e28005278a2f13007092f30d90a9fed1b082def
:101e380044f61f6502dc6545a8bf6546bef1000f84
:101e480000d06d42002b4cd1089b03437ff4c1aef8
:101e580000297ff4ddae4e2a23d01ddc492a7ff409
:101e6800d7ae9b4919a80df023fd00283ff4d0ae4a
:101e7800199b9849013b19a819930df019fd10b940
:101e8800199b01331993dff86892a2e60a2505fb2e
:101e98000c25a5f1300cc0e7692ae2d06e2a7ff440
:101ea800b7ae8d4919a80df003fd00283ff4b0ae78
:101eb800199b1b78282b0ed11caa884919a807f052
:101ec80091f9052807d11d9bddf8708043f0ff4983
:101ed80049f4e0097de682480ef07afb59ec108b54
:101ee80077e6dded077ab8ee677ba5eb0a02002ef0
:101ef80008bf1e46102b08928ded0a7b1a46a8bf14
:101f08001022092bdde90a890edd7649dded047a18
:101f180001ebc20111ed126b9ded0a5bb8ee677b18
:101f2800a5ee067b59ec178b0f2b37dc0899002997
:101f38003ff44fae23dd16290bdc6a4b03ebc103dc
:101f480093ed007b49ec168b27ee067b59ec178b3b
:101f58003fe60898c3f1250181421fdb614ac3f1be
:101f68000f0302ebc30191ed007b49ec168bc31afa
:101f780002ebc30227ee067b92ed006be4e70899bb
:101f880016310bdb574baaeb050503ebc50595eda1
:101f9800007b49ec168b86ee077bd7e708999a1adf
:101fa8000a44002a74dd12f00f000ad04d4901ebf3
:101fb800c00191ed007b49ec168b27ee067b59ecae
:101fc800178b32f00f024fd0b2f59a7f22dd002531
:101fd8002f460a9507952223dff8149123604ff0c6
:101fe80000080a9b002b3ff4f4ad1a9920460df027
:101ff800f7f9079920460df0f3f9394620460df018
:10200800eff90a9920460df0ebf9294620460df024
:10201800e7f9dee5cde904890020334f12110146c6
:10202800012a24dc08b1dde904892f4a2f4802eb94
:10203800c101a9f1547991ed007b49ec168b27ee8b
:10204800067b8ded047b0599294a0a408242dde929
:102058000489bcd8a0f58010824286bfdff894902e
:102068004ff0ff3801f15479002204927fe012f01a
:10207800010f0ad007ebc10090ed007b9ded046bca
:1020880026ee077b8ded047b012001315210c7e756
:10209800ead0524212f00f000ad0124901ebc001f7
:1020a80091ed007b49ec168b86ee077b59ec178b7c
:1020b8001211d9d01f2a1fdd00252f460a95079532
:1020c80022234ff000084ff00009236089e700bf82
:1020d80004064100070641000d064100d8034100ef
:1020e8001006410068ad4000e0f840000000a07c08
:1020f8000000f07fffffef7f12f0100118bf6a2188
:10210800cde90a890491be490020d70708d59ded7d
:102118000a6b91ed007b26ee077b8ded0a7b012093
:10212800521001f10801f0d108b1dde90a89049ad9
:10213800b2b1c9f30a52c2f16b02002a10dd1f2a9c
:1021480040f33081342adebf203a4ff0ff3000fae6
:1021580002f24ff00008ccbf4ff05c7902ea09099f
:1021680049ec178bb5ee407bf1ee10faa4d0079a34
:1021780000920c99324620460af024fd0a90002865
:102188003ff425af089baaeb0505002bb4bf2b46ef
:1021980000230f93089b9fed949b9fed95ab9fedbc
:1021a80096bb23eae373002512932f460a9b204629
:1021b80059680bf013fa079000283ff40caf0a9bfc
:1021c8001a69023203f10c0192000c300df0fefe88
:1021d8001caa1ba949ec108b2046cde90c8909f0f3
:1021e800cbfd1a9000283ff4f6ae012120460ef0f0
:1021f8001ef9074600283ff4eeae1b9e1c9a002edf
:10220800abbf0f9b129bddf848a0ddf83cb0acbf1c
:1022180006eb030ba3eb060a049bf61a1644794b4c
:10222800013e9e42c2f1360280f2cf809b1b1f2bdb
:10223800a2eb03024ff0010100f3bb8001fa03f3a4
:102248001393002310930beb0206049bb3459244af
:102258009a445a46a8bf32465245a8bf52460f9bd9
:10226800002ac2bfb61aaaeb020aabeb020b002b7c
:1022780017dd39461a46204609f06afe0746002847
:102288003ff4a9ae01461a9a204606f0ddf91790e8
:1022980000283ff4a0ae1a9920460df0a1f8179a2d
:1022a8001a92002e00f39680089b002b08dd129ae4
:1022b8000799204609f04cfe079000283ff48baea2
:1022c800baf1000f08dd52460799204609f0c0fb15
:1022d800079000283ff47faebbf1000f08dd3946b8
:1022e8005a46204609f0b4fb074600283ff473ae6f
:1022f800079a1a99204608f0cffc054600283ff4b3
:102308006aae0023d0f80ca0c36039460cf044ff35
:1023180000287dda5aea080340f0a380c9f31303c2
:102328004a46002b40f09d80374b1340b3f1d66fdf
:1023380040f297806b691bb92b69012b40f39180a0
:1023480029460122204609f083fb394605460cf050
:1023580023ff002840f3858004992b4a4b46002927
:1023680000f0a08009ea0201b1f1d66f00f39a806b
:10237800b1f15c7f7ff7a4ae244a0023cde9143283
:102388009ded146b49ec178b27ee067b8ded047bd6
:10239800dde90432134308bf2223dde9048908bfbd
:1023a800236022e64ff0ff3101fa02f202ea080840
:1023b800d6e6c6f17f4606f57f0606f57b46e23689
:1023c80001fa06f3109313913de7002310930123bc
:1023d800139338e732461a99204609f039fb1a90c8
:1023e80000287ff461aff6e59535a094ffffcf3f55
:1023f8009535a094ffffdf3f35e5af350000e03f9e
:1024080090f8400002fcffff0000f07f0000503908
:10241800cb4665d1aa4a09ea0203baf1000f29d0ce
:1024280093422bd1049b4146fbb1a64a09ea02021a
:10243800b2f1d46f4ff0ff301ad8120dc2f16b030e
:1024480000fa03f3994219d19f4b9b4502d1013100
:102458003ff4c1ad9b4b0bea030303f580194ff022
:102468000008049b002b87d1bfe54ff0ff33e9e755
:102478000346e7e753ea08033ff46eaf109bdbb16e
:1024880013ea0b0fedd0049a40464946baf1000f03
:1024980016d00cf067fe9ded0c7b37ee007b59ecf7
:1024a800178bdee71340a3f580136fea13596fea21
:1024b80009594ff0ff38d4e7139b13ea080fe1e7f7
:1024c8000cf050fe9ded0c7b37ee407b8ded087bcc
:1024d800b5ee407bf1ee10fadde90889c1d1efe5f0
:1024e800394628460bf0aef9b0ee007bb4eec70bc8
:1024f800f1ee10fa65d8baf1000f42d0734b002202
:10250800b7ee008b6f4972480bea0106864240f02d
:102518008980dde90c01abf1547949ec108b43ec6f
:102528001c2bcde914010cf029f849ec1d8baceefd
:1025380000db8ded10db119b6249664a1940914220
:10254800dde9108947d90d9b02f15472934203d1fa
:102558000c9b01333ff43faddff86c914ff0ff382f
:102568001a9920460cf03cff079920460cf038ffda
:10257800394620460cf034ff294620460cf030ff3f
:1025880014e6b8f1000f12d1c9f31303b3b9b7eecb
:10259800007bb4eec70bf1ee10fab6ee008b01d457
:1025a80020ee088bb1ee487b53ec172baae7b8f165
:1025b800010f03d1b9f1000f3ff482ad0022464b61
:1025c8009ee7b6ee008b20ee088bbaf1000fe9d03b
:1025d80053ec182b96e703f15479049b002bbfd1d9
:1025e800384b09ea03039e42bad151ec180b0df09f
:1025f800bffa02f05dfcc9f3130341ec170b43ea81
:10260800080353ea0a0338ee478b3cd0b4eeca8b72
:10261800f1ee10fa3ff5e9acb4eecb8bf1ee10fa1f
:102628009edde2e40499f1b1b6f1d46f1bd89fedb9
:10263800227bb4eec78bf1ee10fa11d8fceec87b02
:1026480017ee903a002b08bf012307ee903ab8ee38
:10265800678bbaf1000f13d1b1ee487b53ec172bff
:1026680003f1d6618b1b9ded0c0b43ec1c2b0bf07f
:1026780085ff9ded0c7bacee007b59ec178bace72e
:1026880053ec182bece7b4eec98bf1ee10fa7ff59a
:1026980067afaae400230e93169a199b1360fff7fd
:1026a8009cba652a3ff494ab452a3ff491ab0121cb
:1026b800fff7cabbaff300800000c0ffffffdf4198
:1026c800ffff0f000000f07fffffef7f0000f03feb
:0c26d8000000e07fffff9f7c0000f0bfcf
:020000040000fa
:020000040040ba
:1026e40068c340201c0000000000000030c24020ed
:1026f4003800000000000000a0b0402040030000ab
:102704000000000037c1402001000000010000006b
:10271400010000002cbe4020f0000000000000007a
:1027240084c34020140000000000000078c440204e
:102734000600000001000000000102020404000081
:102744000000402030000000000000003000402065
:1027540008000000000000003800402008000000cd
:102764000000000020c340202800000000000000fa
:1027740040004020300000000000000070004020b5
:102784003000000000000000a000402030000000e5
:1027940000000000d00040201000000000000000f5
:1027a4008fc1402001000000000000006cc44020e4
:1027b400040000000000000024c4402010000000b9
:1027c4000000000022c440200200000000000000bd
:1027d400c0ba40200002000000000000a0b8402061
:1027e4002002000000000000e0004020780100000a
:1027f40000000000a0a84020000800000000000025
:1028040068c240201800000001000000600240205f
:10281400a004402054c4402000000000a002402036
:102824000000000098c340201400000001000000d4
:10283400ccfc4000d0fc4000d4fc4000dcfc400058
:10284400e0fc4000600240205c0200000000000048
:1028540080c240203800000000000000e0b34020a7
:10286400600200000000000040b64020600200004a
:1028740000000000e7c1402001000000000000004b
:10288400b8c2402038000000000000001cbf4020f7
:10289400a0000000000000007ec4402002000000f0
:1028a400010000000100000048c340202000000097
:1028b40000000000e8c140204800000000000000c3
:1028c40034c440201000000000000000f0c240208a
:1028d400300000000000000020c040206000000024
:1028e4000000000044c4402010000000000000006c
:1028f40054c440200c00000000000000bc04402030
:10290400180000000000000080c440200400000003
:1029140000000000d40440201c000000000000005f
:1029240084c440200400000001000000aaaaaaaa4e
:1029340088c440200400000000000000a0084020db
:1029440000a00000000000008cc44020040000002f
:102954000000000090c440200400000000000000bb
:1029640094c44020040000000000000098c44020eb
:102974000400000000000000bcbf40206400000010
:10298400000000009cc4402004000000000000007f
:10299400a0c440200400000000000000a4c44020a3
:1029a4000400000000000000a8c44020040000004f
:1029b40000000000acc4402004000000000000003f
:1029c400acc340201400000000000000c0c340203d
:1029d4001400000000000000b0c440200400000007
:1029e40000000000b4c44020040000000000000007
:1029f400b8c440200400000000000000bcc4402013
:102a04000400000000000000d4c3402014000000b3
:102a140000000000c0c440200400000000000000ca
:102a2400e8c340201400000000000000fcc3402064
:102a34001400000000000000c4c440200400000092
:102a440000000000c8c44020040000000000000092
:102a5400e0c040205700000000000000ccc440202b
:102a64000400000000000000d0c440200400000066
:102a740000000000d4c44020040000000000000056
:102a8400d8c440200400000000000000dcc4402042
:102a9400040000000000000038c14020570000007e
:102aa4000000000090c1402057000000000000001a
:102ab4006bc440200100000000000000e0c440207e
:102ac4000400000000000000e4c4402004000000f2
:102ad4000000000070c44020080000000000000056
:102ae40060c440200b00000001000000636f6e66ac
:102af40069726d65640a0000e8c4402004000000a7
:102b0400010000000400000010c440201200000076
:102b1400010000007369676e616c5f636f6e6669c4
:102b2400726d65640a000000f0044020500000004b
:102b34000000000050c5402001000000000000001b
:102b4400ecc440200400000000000000f0c4402059
:102b54000400000000000000f4c440200400000051
:102b640000000000f8c44020040000000000000041
:102b740051c540200100000000000000fcc44020ba
:102b840004000000010000000300000000c5402014
:102b940004000000010000000200000004c5402001
:102ba40004000000010000008700000040054020f0
:102bb400010000000000000008c5402004000000df
:102bc400000000000cc540200400000000000000cc
:102bd40010c54020040000000000000014c540207f
:102be40004000000010000000000204118c540203e
:102bf40004000000010000000000e0404405402003
:102c0400df000000000000001cc54020040000009c
:102c14000000000020c54020040000000000000067
:102c240052c54020010000000000000024c54020df
:102c3400040000000000000053c540200100000013
:102c4400010000000100000028c54020040000002d
:102c540001000000010000002cc540200400000019
:102c64000100000068290000240640203c00000008
:102c74000000000030c540200400000000000000f7
:102c840034c540200400000000000000600640201d
:102c9400c8000000000000004cc5402002000000f5
:102ca400010000004200000028074020b800000096
:102cb4000000000054c54020010000000000000096
:102cc400e0074020bc0000000000000038c54020a0
:102cd400040000000000000055c540200100000071
:102ce40001000000ff0000003cc54020040000007b
:102cf4000100000080c0402080c04020600000002f
:102d040001000000000000000000000000000000be
:102d140000000000000000000000000000000000af
:102d2400000000000000000000000000000000009f
:102d3400000000000000000000000000000000008f
:102d4400000000000000000000000000000000007f
:102d5400000000000000000000000000000000006f
:102d64000000000040c540200400000000000000f6
:102d740044c5402004000000000000004ec540206f
:102d84000200000001000000ff000000c0bc402061
:102d94006c0100000100000043000000000000007e
:102da400000000000000000000000000000000001f
:102db40000000000000000004300000000000000cc
:102dc40000000000000000000000000000000000ff
:102dd40000000000000000004300000000000000ac
:102de40000000000000000000000000000000000df
:102df400000000000000000043000000000000008c
:102e040000000000000000000000000000000000be
:102e1400000000000000000043000000000000006b
:102e2400000000000000000000000000000000009e
:102e3400000000000000000043000000000000004b
:102e4400000000000000000000000000000000007e
:102e5400000000000000000043000000000000002b
:102e6400000000000000000000000000000000005e
:102e740000000000000000007500410055fb400008
:102e84000000000072994000150841001408410038
:102e940014084100140841001408410014084100ba
:102ea40014084100140841001408410014084100aa
:102eb400ffffffffffffffffffffffffffff00001c
:102ec4000100415343494900000000000000000094
:102ed40000000000000000000000000000000000ee
:102ee4000000415343494900000000000000000075
:102ef40000000000000000000000000000000000ce
:102f0400000000009c0840200400000000000000b5
:102f140048c540200400000000000000000000003c
:102f24000000000022222222222222222222222205
:020000040000fa
:020000040040ba
:102f34002de9f04f95b00f900d46174600930fa85a
:102f44000af044fd0028c0f28d82bb4b53f82030b8
:102f54000bb100221a70b94b13f8106003eb400355
:102f640093f801a0b64b002d08bf1d4630460df066
:102f7400e9fa10f0010f40f0778210f0040f40f0ee
:102f840078826b681393002b5fd0139a531eb3f5aa
:102f9400004f64d30123139395f8019009f1ff3393
:102fa400dbb2022b28bf4ff00109d5f8088008f1e5
:102fb400ff33b3f5004f55d208f00f03002b18bfb1
:102fc4004ff40078ec68b4f1807f4ed8631e234040
:102fd400002b18bf0024002f00f04d82009bb3f596
:102fe400007fc0f048822b78029300231293baf139
:102ff400000f3cd0012300223946304608f09ef8e9
:10300400002840f03a8297f8ff2197f8fe3143ea0e
:1030140002231bb28b4a934240f0318207eb0a151c
:1030240005f5d775baf1040f00f22b822b79002b2a
:1030340000f0298205f108000df0f3f8019005f184
:103044000c000df0eef8129027e013aa032130468d
:103054000bf00dff002898d0012313939ce71a422c
:1030640098d199e74ff40078ace70024b3e712aaab
:10307400012130460bf0fbfe002840f00682029b43
:1030840013f0080f07d1129b3f2b5bd93f3b1293e0
:103094003f23019301e000230193ddf848c0bcf114
:1030a4007f0f40f2f481b4f5813f34bf630a80237b
:1030b400029a12f002010a9147d002f00102002a9a
:1030c4000cbf032202220992cb464fea1c3ec8f3ee
:1030d40016120692019901310b910a440592139a32
:1030e400511e0391524204924fea5c420c92cdf875
:1030f4003490c1460e96099e032e00f0dc81002b0d
:1031040040d01d46bcfbf5f240f6f5718a424ad91f
:103114000232520002f2ff12540a059a04fb0b21f8
:10312400039a0a4404980240521ab2fbfbf00bfbc8
:10313400102000283ed0013a0198023007904ff049
:1031440002083be000230193a7e7029a12f0010f63
:1031540000f09f8102220992b6e72b46cce73a4a57
:1031640094450dd9394a911c02252a460c9882426d
:1031740000f2a5816d0031f8022f002af7d19ee1fb
:1031840001259ce1bcf5805f0bd3314a911c0225db
:1031940004227245b6d86d0031f8022f002af8d106
:1031a400b0e70125aee702eb4202013252080332d6
:1031b4000126afe70b9807904ff00108b2fbfbf232
:1031c40022440698019c091b01eb05118c45c0f0b3
:1031d400648108eb0004aceb04040bfb1244b4fb65
:1031e400f5f44ff6f5718c4298bf032e0cbf012104
:1031f4000021089113d0022e3ad14ff6f5718c427a
:1032040028d9002b40f055816d00402da5d90a9a8c
:10321400002a40f05081802d0bd82b466ce7002b00
:1032240040f03d81012d02d96b08032664e70e238b
:103234001be10e2319e100bf6cc44020880240202a
:103244003805410055aaffffffff01002805410092
:103254001805410040f6f5718c4200f25f81002ba5
:1032640040f01f816b00802b7ff646af0e23fce0fd
:103274000590cdf81080c846ddf8349003923346ab
:1032840009960e9e012b14bf002301231a460893ae
:1032940040f6f5739c4202d90ab10e23e5e04ff4df
:1032a4000072002138460df043fa0b229549384646
:1032b4000df040f80023fb7202233b737d73049be3
:1032c400bb73c3f30723fb7387f81090099b032b8d
:1032d40008bf4ff0000841e107f120000df00af9a2
:1032e4004be10cf022fb014607f143000df002f91b
:1032f400039907f124000df0fdf8022107f12c00d9
:103304000df0f8f84ff0010887f83080002387f8b3
:103314003130062287f8322087f83330802387f84b
:103324004030292387f842301322774907f14700b8
:103334000df000f8552387f8fe31aa2387f8ff31f2
:103344004346019a3946304606f00cfe08b1012383
:103354008be00123019a06323946304606f002fe1c
:103364004ff40072002138460df0e2f967493846ff
:103374000df0c0f8664907f5f2700df0bbf8611e58
:1033840007f5f4700df0b6f8022107f5f6700df0ac
:10339400b1f8552387f8fe31aa2387f8ff310123ba
:1033a400019a07323946304606f0dcfd01230b9ab8
:1033b4003946304606f0d6fd564a009b13401a465d
:1033c400002138460df0b4f9bbf1000f40f01d8127
:1033d4005ae16ff0070138460df08cf84ff0ff31d9
:1033e40006980df087f86ff0704107f108000df0b2
:1033f40081f824e10c24baf1000f0ed1029b13f0e2
:10340400080f21d00022114630460bf030fd031c7a
:1034140018bf012329e00624ede7012300223946e1
:10342400304607f08bfe08b101231ee007eb0a1ab1
:103434008af8b241012300223946304606f092fd53
:103444000028dfd0012310e0129b10930023119376
:103454003b46224610a9304603f096ff0346002857
:10346400d0d002e00b2300e00323184615b0bde8da
:10347400f08f0a23f9e71123f7e70123f5e70e2379
:10348400f3e70e23f1e70e23efe70123ede70e2325
:10349400ebe71323e9e70e23e7e70e23e5e70e2323
:1034a400e3e70e23e1e70123dfe70123dde701235f
:1034b400dbe70a9a02b3002b3ff451ae1d46bcfb76
:1034c400f5f18a0002f20722520aa1f57f41f6398a
:1034d40011488142dfd8019901f1200402fb0b411c
:1034e40003980818049e3040401a00f12008204434
:1034f40007900020032665e60e23b6e7059dddf858
:103504001c80c9e020e240002ce24000525261419c
:103514007272416100fefffffffffe0f0590cdf8c0
:103524001080c846ddf83490039209960e9e4ff43d
:103534000072002138460df0fbf80b22654938462d
:103544000cf0f8fe0023fb7202233b737d73049b93
:10355400bb73c3f30723fb7387f8109087f81180bc
:10356400c8f3072887f812801299b1f5803fbff499
:10357400b3aef974c1f307213975009b4fea53299f
:10358400f8237b753f233b7600237b76ff22ba76b4
:10359400fb76019907f11c000cf0acff099b032b8f
:1035a4003ff49fae0cf0c1f9014607f127000cf07f
:1035b400a1ff039bbb75c3f30723fb75802387f827
:1035c4002430292387f826301322434907f12b009e
:1035d4000cf0b0fe552387f8fe31aa2387f8ff319b
:1035e4000123019a3946304606f0bcfc00287ff4da
:1035f4005aaf3a4a009b13401a46002138460df050
:1036040097f8bbf1000f3ff479af089b002b344bc4
:1036140008bf6ff007030193002300933b1d06933b
:103624000895ddf81c80cdf810b0cdf828a0099bd2
:10363400032b3ff4ceae019938460cf05bff039d9b
:103644004ff4007a4ff0000b2c464d4528bf4c46f2
:10365400234642463946304606f084fc00287ff46f
:1036640024af5246594638460df062f8a0442d1b4b
:10367400ead1009b01330093049a9a42d7d8089d5b
:10368400cdf81c80ddf828a0059b099a032a08bf01
:103694002b461d46ddf81c802c464d4528bf4c4664
:1036a400234642463946304606f05cfc00287ff447
:1036b400feaea0442d1befd1099a032a3ff49aae23
:1036c400129bb3f5803fbff4a6ae022a0cbf0424bc
:1036d400012490e620e2400040e2400000feffffab
:0436e400f8ffff00ec
:020000040000fa
:020000040040ba
:1036e8002de9f04f2ded068badf5117d0f460090bd
:1036f800d749a098ddf884e251f8209012f1140f10
:10370800a8bf182003f1ff31b8bf00206ff01704dd
:103718009fedc96ba4bfa2f1030a9afbf0f000fb6e
:103728000444461a144409eb010c0df1600a0eeb2f
:103738008608002262450fdd18aa02ebc3020df5c8
:10374800d07a4ff0000ccc4526dcddf80080164618
:103758009fedb97b002515e0d64209d458f82250d0
:1037680007ee905ab8eee77baaec027b0132e1e75c
:10377800b0ee467bf8e7b8ec025b96ed006b0135de
:10378800a5ee067b8d42a6f10806f4ddaaec027bc5
:103798000cf1010c0832d6e704aa9feda99b9fed16
:1037a800aaab02eb890201920eeb800a4e4690aa60
:1037b80002ebc6020df1100b12ed280b58463246eb
:1037c800002a51dc2046cde9021305f03dffb0ee9a
:1037d800408bb4ee000b28ee000b06f0adfdb2ee08
:1037e800007ba0ee478bfdeec87b002c17ee908a7d
:1037f800dde90213b8eee77b38ee478b49dd701e32
:1038080004aac4f1180c52f8205045fa0cf290445e
:1038180002fa0cf2ad1a04aa42f82050c4f11702b9
:103828001541002d44dd4ff0000c08f101086046f9
:103838006ff07f4e66456bdc002c04dd012c7cd0dc
:10384800022c00f08680022d32d1b7ee000b30ee4c
:10385800488b68b32046cde9021305f0f5fedde993
:10386800021338ee408b23e020ee097bbdeec77bc8
:10387800013ab8eec77b68ada7ee4a0bbdeec00ba8
:1038880005ebc205a0ec010a95ed000b37ee000b25
:1038980096e705d1721e04a850f82250ed15c0e72e
:1038a800b6ee007bb4eec78bf1ee10fa2eda0025e7
:1038b800b5ee408bf1ee10fa40f08e8006f1ff3b3a
:1038c80058464ff0000c48454bdabcf1000f75d054
:1038d80004ab183c53f82b30002b7ad0b7ee000b12
:1038e800204605f0b1fe9fed566b5b46002b80f23b
:1038f800b3805a460021002ac0f2d48068ab03eb9b
:10390800c200544c9fed4c7b0023bfe002258ae7a0
:10391800dbf8002058b922b1c2f18072cbf8002040
:1039280001220cf1010c0bf1040b104682e7aeebff
:103938000202cbf800200246f3e706f1ff3c04aa96
:1039480052f82c20c2f316020df1100e4ef82c205e
:1039580079e706f1ff3c04aa52f82c20c2f31502bd
:10396800f2e704aa52f8202001384cea020caae730
:10397800013552f8040d0028fad0f0180df1600c4a
:10398800721c0cebc0002e449642fff610af5af89a
:103998002250ddf800c007ee905ab8eee77b00250c
:1039a800a0ec027b9fed247b86468d4209dd68ad45
:1039b80005ebc20585ed007b0132e5e7019a01259b
:1039c800d7e7bcec025b3eed026b0135a5ee067b4a
:1039d800ebe70bf1ff3b7be76042b0ee480b05f0ed
:1039e80033fe9fed196bb4eec60bf1ee10fa18db3f
:1039f8009fed137b20ee077bbdeec77b04aab8eed4
:103a0800c75ba5ee460bbdeec00b06f1010b10ee31
:103a1800103a42f8263017ee103a183442f82b3094
:103a28005ce7bdeec00b04aa10ee103ab34642f8ac
:103a3800263053e7aff300800000000000000000cc
:103a4800000000000000703e00000000000070410f
:103a580088054100d0eb400004a968aa51f823105a
:103a6800009107ee901a02ebc302b8eee77b013b28
:103a780027ee007b20ee060b82ed007b36e7b4ece8
:103a8800025bb0ec026b0133a5ee067b4b4501dc13
:103a98009942f4da40ab03ebc10383ed007b013ab2
:103aa800013128e7a09b032b34d8dfe803f03b5b08
:103ab8005b0240ab03ebcb031a4659460029a2f13f
:103ac80008025cdc5a46012aa3f1080367dc9fed73
:103ad800467bbbf1010f72dc9ded405b9ded426bb7
:103ae800002d76d187ed005b87ed026b87ed047bb7
:103af80010e040ab03ebcb0393ed006b0bf1ff3b06
:103b080037ee067bbbf1000ff3da0db1b1ee477b60
:103b180087ed007b08f007000df5117dbdec068be5
:103b2800bde8f08f9fed307bece740aa02ebc302c3
:103b380092ed007b013b36ee076b002bf5daadb159
:103b4800b1ee467b87ed007b9ded407b42aa0123c9
:103b580037ee467b9b450cda0db1b1ee477b87ed1e
:103b6800027bd7e75b469fed206be6e7b0ee467b2e
:103b7800e8e7b2ec026b013337ee067beae792ed39
:103b8800007b92ed025b013937ee056b37ee467b21
:103b980082ed006b37ee057b82ed027b8ee793edbd
:103ba800007b93ed025b013a37ee056b37ee467bff
:103bb80083ed006b37ee057b83ed027b83e740ab3b
:103bc80003ebcb0393ed006b0bf1ff3b37ee067b6a
:103bd8007fe7b1ee455bb1ee466b87ed005bb1ee7a
:103be800477b87ed026b81e70000000000000000c2
:020000040000fa
:020000040040ba
:103bf8002de9f04f8bb08b460693b74b02901b68ac
:103c08000393184690460cf0dbfc039bdbf800207e
:103c18000190034413f8013c0793931cc2f1ff225f
:103c280002f57f02fe3202eb030a1f4613f8010b6e
:103c38003028f8d00bf035fd0446002868d1019ae9
:103c4800039938460bf05eff0546002863d1019bb7
:103c5800f85cfe180bf025fd00285ed03346187876
:103c680030281f4603f10103f9d00bf01afdb0fa12
:103c780080f4640935464ff0010a3a461646013287
:103c880030780bf00efd0028f8d1019a03993046e0
:103c98000bf038ff50b955b9019bf5182a4616465e
:103ca800013230780bf0fdfc0028f8d10db1ad1bc6
:103cb800ad003378502b01d0702b3cd173782b2b6f
:103cc8002dd02d2b2fd0711c4ff0000908780bf048
:103cd800e8fc431edbb2182b2dd8a0f1100211f816
:103ce800010f0bf0defc431edbb2182b1ed9b9f115
:103cf800000f00d052421544cbf80010ecb1baf1d5
:103d0800000f14bf0027062738460bb0bde8f08f18
:103d180000242546b1e73e4625460124c9e74ff071
:103d28000009b11cd2e74ff00109fae70a2303fba7
:103d38000202103ad3e73146dee7f31b013b214686
:103d4800072b4fdc029809f049fc019b00f114098c
:103d58004ff0000bc3f101030446cdf81090da468a
:103d68000893b74241d3049840f804aba0eb09008c
:103d780080102061470150460af046ffd8f80060dd
:103d88003f1ab74263ddbf1b394620460af038fdab
:103d98008246a8b17b1e591103f01f024ff0010a99
:103da80059f821100afa02f20a4209d0534505ddf2
:103db800b91e20460af024fd002845d14ff0020a1a
:103dc8003946204609f064f83d44d8f80830ab423b
:103dd8004bda214602980bf003fb149a0023136078
:103de800a32791e701315b10aae7731e0593079a91
:103df80016f8013c934217d0bbf1200f06d1049b63
:103e080043f804ab4ff0000a0493d34616f8010cac
:103e18000bf047fc00f00f0000fa0bf04aea000a2a
:103e28000bf1040b059b0de0059b089a1344bb425c
:103e3800e2d31846019a039909930bf063fe099b94
:103e48000028d9d11e468ce74ff0030ab8e709daf3
:103e5800f71b21463a46029807f0fafded1b044687
:103e680000f114094ff0000aafe7d8f80430ab426c
:103e78006ddd5d1bae4231dcd8f80c30022b22d050
:103e8800032b24d0012b15d1ae4213d1012e0bd117
:103e9800069ad8f80430136001232361c9f800306a
:103ea800149b62271c602fe7711e20460af0a8fcad
:103eb8000028edd1214602980bf092fa149a0023bb
:103ec8001360502720e7159b002bf3d1e0e7159be3
:103ed800002bddd1eee700bff40741006f1ebaf1f9
:103ee800000f31d127b1394620460af089fc8246b5
:103ef8007a11012307f01f0703fa07f759f8223050
:103f080029461f42204618bf4af0020a761b08f0cd
:103f1800bfffd8f804500227baf1000f48d0d8f8ec
:103f28000c30022b15d0032b17d0012b09d11af016
:103f3800020f06d0d9f800304aea030a1af0010f36
:103f48000ed147f0100733e04ff0010ad0e7012700
:103f5800e2e7159bc3f101031593159b002bf0d0e5
:103f6800d4f8109004f114034fea890a03eb0a010c
:103f78004ff0000c184653f8042bb2f1ff3f1cd049
:103f880001320260022f04f1140338d1d8f800205e
:103f9800013ab2420ad17111012206f01f0653f804
:103fa800213002fa06f61e4218bf174647f02007ce
:103fb800149b1c60069b1d60a6e6994243f804cc3e
:103fc800d8d8a368994512db61680298013109f0d5
:103fd80005fb2269023204f10c01834692000c3081
:103fe8000bf0f4ff214602980bf0faf95c462369be
:103ff8005a1c04eb8303226101225a61c2e7226939
:104008004a450bdd0121204608f042ffd8f8083068
:104018000135ab42fff6ddae0127c7e716f01f06f4
:10402800fad09a44c6f120065af8040c0af0ecfdbe
:08403800b042e7dbf0e700bf36
:020000040000fa
:020000040040ba
:104040002de9f04f83b09e4b1e68197d21b933785e
:104050004bbb03b0bde8f08f3378002b40f0e48118
:1040600030460022531cdbb29942f2d010f8284fa0
:104070000cb91a46f6e70232d2b2012a00f0d58115
:104080008f490a75ff2be4d003eb8303dc0035195d
:104090006b79012b09d02b7b042bdad8dfe803f0f6
:1040a0000a1d2e4f80000b46eee72b7b042b10d011
:1040b00000232b7395f82030012b00f08981002319
:1040c000335585f820306b71ab70eb706b702b71d2
:1040d000bfe77b4b00225a75eae7ab685b6a0321b6
:1040e000e88898476861b0f1ff3fb2d0ab681b69c0
:1040f0002a467449984702232b73aae7ab681b68ca
:104100006869984768b195f8203033b9ab685b6847
:1041100068699847686203232b73012385f8203070
:1041200097e795f82030012b03d0002385f8203045
:104130008fe728460bf0ecfe00232b71f5e7604b70
:104140005b7d012b85d05e4b01225a756b6a1b6922
:104150001b68b3f5007f1dd24ff40076b6fbf3f673
:10416000574c4ff40072002120690cf01dfa022315
:1041700085f821306869ab6800969e680023226943
:1041800005f11c01b047eb69b3f1ff3f04d00423f4
:104190002b735ee70126e3e7494b00225a7558e787
:1041a00095f92130022b06d06bb1454b00225a7590
:1041b00003232b734de7ab68db6a002b3ff449af59
:1041c0002869984745e73e4b1c6900236b7094f8bb
:1041d000fe31552b6cd04ff0000847464ff0ff09d9
:1041e000374b5c682378002b5cd1354bd3f810a09b
:1041f0002b7901332b712a7e334b53f822b058466a
:104200000cf0e2f9c6b232465946a01c0bf0e2feb1
:10421000aa78a3199a70731c54fa83f32a7930325e
:104220009a70b31c54fa83f300229a70a56184f843
:10423000019067b317f0010f00f0b4801746b9f191
:10424000ff0f24d0214b33f817301af80320627087
:104250009a449af80b209af80a301b0403eb026385
:104260009af8092003eb02239af8082013446361ab
:104270009af807209af806301b0403eb02639af8b9
:10428000052003eb02239af8042013442361b8f1bc
:10429000000f00f097800e4bea781a7001375f70bc
:1042a00001232370064b00225a7502232b73d0e69c
:1042b00094f8ff31aa2b0dd04ff000088de700bf16
:1042c00068c2402099f2400098c340208408410011
:1042d000880240202378eb2b2bd094f8c2010bf0fe
:1042e0005dfc00284cd16b7800276b7094f8d201ec
:1042f0000bf054fc20b147f002076b7801336b7070
:1043000094f8e2010bf04afc002840d047f0040783
:104310006b7801336b7094f8f2010bf03ffc90b3b3
:1043200047f008076b7801336b704ff00108c14606
:1043300056e76378582b18bf3c2b01d0fe2bccd10d
:10434000a378902bc9d101236b7094f85230462b7f
:1043500042d094f85330412b44d094f85430542b2d
:1043600046d094f83630462b48d094f83730412b5d
:104370004ad094f83830542b4cd04ff000082ce73a
:1043800001231f46b1e74ff00108c14628e794f822
:10439000f2010bf003fc0028c2d1002f40d14ff0f6
:1043a00001081ae717f0020f01d0012747e717f0bd
:1043b000040f01d0022742e707f00807002f18bfbb
:1043c00003273ce71b4bea781a7000225a7067e714
:1043d00028460bf09dfd72e64ff0000847464ff06f
:1043e0000b09fde64ff0000847464ff00b09f7e6d2
:1043f0004ff0000847464ff00b09f1e64ff0000878
:1044000047464ff00609ebe64ff0000847464ff0ed
:104410000609e5e64ff0000847464ff00609dfe6db
:104420004ff00108c146dbe60023034a0021117565
:0c4430002ae600bf8802402068c240203d
:020000040000fa
:020000040040ba
:10443c002de9f04f87b082468846036803930b78ca
:10444c002f2b0bd05c2b09d0039b9b69836098f8b6
:10445c0000301f2b10d9dff89c934be12f2b01d090
:10446c005c2b05d118f8013f2f2bfbd05c2bf9d01e
:10447c000023caf80830eae780238af82f3000219d
:10448c00504607f0dbf80346a1e183b22f2b18bf8f
:10449c001f2b27d95c2b25d07f2b14d9fe2c00f297
:1044ac009e8025f81430013405a80bf071f9b0f199
:1044bc00ff3f00f09480b0f5803fe6d3030c25f865
:1044cc0014300134e1e71846222b00f088802a22b0
:1044dc0009f10d01824200f0828011f8012f002aaf
:1044ec00f8d1dbe71f2b0ed9059b1a782f2a01d0a8
:1044fc005c2a51d1013305931a782f2afad05c2a01
:10450c00f8d0002700e00427ddf81480012c45d0fa
:10451c00022c59d0002c00f066816ff0004323442c
:10452c0005eb430235f81330202b01d02e2b07d18d
:10453c00013c50d032f8023d202bf9d02e2bf7d075
:10454c006100002325f814302b88202b40f04d817e
:10455c002a460026013632f8023f202bfad00eb93b
:10456c002e2b02d147f00307ffb28a1eab18aa5ab2
:10457c002e2a05d0013c03d033f8022d2e2af9d176
:10458c000b2220210af124000cf0cef80823009312
:10459c0000230193029328e00027b5e72b882e2bec
:1045ac00bbd1002325f814300af123029c428cbfa6
:1045bc002e21202102f8011f01330b2bf6d147f0dd
:1045cc0020078af82f7078e06b882e2ba5d12b88ca
:1045dc002e2ba2d1e5e7ab460023abf80030062327
:1045ec00f5e047f00307ffb25e4606f1010b35f824
:1045fc00160000283ad02028f3d02e2801d1a3454c
:10460c00efd1019b009a934226d2a34524d07f2858
:10461c0000f28c802b2800f0bd802c2309f11902ac
:10462c009bb2834200f0b88012f8013f002bf7d107
:10463c00a0f141039bb2192b40f2b080a0f16103b1
:10464c009bb2192b00f2b080029b43f00103029342
:10465c00203880b2019b80e0009b0b2b51d0a345ee
:10466c0002d047f00307ffb2a34555d99af824307e
:10467c00e52b4dd0009b082b00f09880029a02f09d
:10468c000c030c2b03d002f00303032b02d147f0d5
:10469c000207ffb217f0020f0dd1029b13f0010fae
:1046ac0002d047f01007ffb2029b13f0040f02d0a8
:1046bc0047f00807ffb28af82f70504602f07af8dc
:1046cc009af82f200346002875d112f0040f7ed1e2
:1046dc009af8063013f0100f00f08380039800f165
:1046ec004001daf81430c3f3080319440bf0c4fa90
:1046fc00caf80800cdf81480daf80030dd68002420
:10470c00d2e647f00307ffb29af82430e52bb5d177
:10471c0005238af82430ade7029b9b00dbb20293a1
:10472c0026460b230093082301935ee747f002060d
:10473c00f6b240f2b5110af0c3f910f0800f04d0b4
:10474c0000f07f002a4b185c01e0ff280cd8f8b968
:10475c0046f00307ffb2019b5f205a1c01925344a1
:10476c0083f824005e4640e7009b013b019a9a4285
:10477c0007d2019a531c5244010a82f8241037467e
:10478c00ebe747f00307ffb25e46009b01932ce773
:10479c0037463fe73e46dbe73e46d9e7029b43f010
:1047ac0002030293019bd8e7019bd6e7029b9b0077
:1047bc00dbb2029362e7042b09d112f0200f0ad06e
:1047cc0012f0040f96d080238af82f30002318465d
:1047dc0007b0bde8f08f02f00402002a08bf0523e1
:1047ec00f5e70523f3e7ab46f6e60026b7e600bf90
:0847fc0058c8400000e2400033
:020000040000fa
:020000040040ba
:104804002de9f04f85b00e46154600230b6009f0e4
:10481400ddf8b0f10008c0f21581a14b53f828402f
:10482400002c00f01481346005f0fe05237873b188
:10483400607801f0adfb10f0010f08d1002d00f0fd
:10484400028100f00405002d18bf0a25fbe00023b7
:104854002370944b13f8180060700bf073fe10f083
:10486400010740f0f6801db110f0040f40f0f38012
:104874008c4b03eb480898f801600021204605f0b2
:10488400f5fa022801d029d846b3042e00f2058196
:1048940004f2062504f24629e84628460bf0c1fc3a
:1048a40048f8040b10354d45f7d13eb1751e0deb9c
:1048b40085050df110084ff0030909e03546f6e7c8
:1048c400204605f0d3fa4eb9012807d9454505d04d
:1048d40055f8041b0029f3d14846f4e7042800f0f6
:1048e400bc80012800f2bb8094f84c2094f84b3033
:1048f40043ea02231bb2b3f5007f40f0b28094f880
:10490400575094f8563053ea052504d104f1640055
:104914000bf087fc0546d4f83490256294f8506077
:10492400a670731edbb2012b00f29d8094f84d80bb
:104934001ffa88f36381002b00f0978008f1ff339e
:1049440013ea080f40f0938094f8523094f851a081
:104954004aea032a0ffa8afa1ffa8afba4f808b073
:104964001bf00f0f40f0858094f8543094f85300f6
:1049740050ea032003d104f160000bf052fc94f8d8
:104984004f2094f84e3053ea022274d005fb06fc03
:1049940002eb1b13634498426fd3c01ab0fbf8f1c7
:1049a40040456cd34048814200f286804ff6f57052
:1049b400814236d840f6f570814200f2e3808e1cc5
:1049c400e661c4f824904a44a2624b442363bbf1d9
:1049d400000f5ed06244e2624ff0010806eb46022b
:1049e40006f0010303eb520303f2ff13b5eb532f5d
:1049f4004dd34ff0ff33636123618023237184f827
:104a040000802a4a138801339bb21380e380284b29
:104a1400e3600023a361274b1b689c420ed03d46f4
:104a240011e04ff0030849e0bbf1000f2dd06244c0
:104a3400e262b8f1020fd1d17300d5e71d4b002219
:104a44001a60ece70b25284605b0bde8f08f0c256d
:104a5400f9e70325f7e70a25f5e70125f3e70d252f
:104a6400f1e70d25efe70d25ede70d25ebe70d2526
:104a7400e9e70d25e7e70d25e5e70d25e3e70d2536
:104a8400e1e70d25dfe70d25dde70d25dbe70d2546
:104a9400d9e70d25d7e70d25d5e70d25d3e700bfc9
:104aa4006cc4402088024020f5ffff0f22c4402040
:104ab400c0ba402024c440204ff00008b8f1000fd1
:104ac400e9d08e1ce661c4f824904a44a2624b44a7
:104ad4002363b8f1030fa7d194f86b2094f86a30dc
:104ae40043ea02231ffa8afa5aea0303c9d104f1fa
:104af4006c000bf096fbe062b30003f2ff13b5eb1e
:104b0400532fc0d34ff0ff3363612361802323719c
:104b140094f8712094f8703043ea02231bb2012bfd
:104b24007ff46daf09f1010120460af0f5f9002880
:104b34007ff465af0023237194f83f2294f83e324a
:104b440043ea02231bb2114a93427ff458af04f1a3
:104b540040000bf066fb0e4b98427ff450af04f517
:104b640009700bf05efb0b4b98427ff448af04f5e1
:104b74000a700bf056fb606104f50b700bf051fbef
:104b840020613ce74ff002089be700bf55aafffff6
:084b940052526141727241614d
:020000040000fa
:020000040040ba
:104b9c0081f0004102e000bf83f0004330b54feae2
:104bac0041044fea430594ea050f08bf90ea020f4f
:104bbc001fbf54ea000c55ea020c7fea645c7feae2
:104bcc00655c00f0e2804fea5454d4eb5555b8bf05
:104bdc006d420cdd2c4480ea020281ea030382ea76
:104bec00000083ea010180ea020281ea0303362d08
:104bfc0088bf30bd11f0004f4fea01314ff4801cdb
:104c0c004cea113102d0404261eb410113f0004fec
:104c1c004fea03334cea133302d0524263eb4303a3
:104c2c0094ea050f00f0a780a4f10104d5f1200e41
:104c3c000ddb02fa0efc22fa05f2801841f100019c
:104c4c0003fa0ef2801843fa05f359410ee0a5f170
:104c5c0020050ef1200e012a03fa0efc28bf4cf0a1
:104c6c00020c43fa05f3c01851ebe37101f0004557
:104c7c0007d54ff0000edcf1000c7eeb00006eeb64
:104c8c000101b1f5801f1bd3b1f5001f0cd34908ee
:104c9c005fea30004fea3c0c04f101044fea445245
:104cac0012f5800f80f09a80bcf1004f08bf5feacc
:104cbc00500c50f1000041eb045141ea050130bdac
:104ccc005fea4c0c404141eb010111f4801fa4f14f
:104cdc000104e9d191f0000f04bf01460020b1faa4
:104cec0081f308bf2033a3f10b03b3f120020cdadc
:104cfc000c3208dd02f1140cc2f10c0201fa0cf0ba
:104d0c0021fa02f10ce002f11402d8bfc2f1200c1e
:104d1c0001fa02f120fa0cfcdcbf41ea0c019040d4
:104d2c00e41aa2bf01eb0451294330bd6fea04041d
:104d3c001f3c1cda0c340edc04f11404c4f1200208
:104d4c0020fa04f001fa02f340ea030021fa04f31a
:104d5c0045ea030130bdc4f10c04c4f1200220fa71
:104d6c0002f001fa04f340ea0300294630bd21faaf
:104d7c0004f0294630bd94f0000f83f4801306bf75
:104d8c0081f480110134013d4ee77fea645c18bf69
:104d9c007fea655c29d094ea050f08bf90ea020f00
:104dac0005d054ea000c04bf1946104630bd91eaf8
:104dbc00030f1ebf0021002030bd5fea545c05d1fb
:104dcc004000494128bf41f0004130bd14f580043a
:104ddc003cbf01f5801130bd01f0004545f0fe41ae
:104dec0041f470014ff0000030bd7fea645c1abfe3
:104dfc00194610467fea655c1cbf0b46024650ea1a
:104e0c00013406bf52ea033591ea030f41f4002145
:104e1c0030bd00bf90f0000f04bf0021704730b5cb
:104e2c004ff4806404f132044ff000054ff00001a0
:104e3c0050e700bf90f0000f04bf0021704730b561
:104e4c004ff4806404f1320410f0004548bf404236
:104e5c004ff000013ee700bf42004feae2014fea8b
:104e6c0031014fea02701fbf12f07f4393f07f4f66
:104e7c0081f06051704732f07f4208bf704793f069
:104e8c007f4f04bf41f40021704730b54ff460747c
:104e9c0001f0004521f000411ce700bf50ea01027f
:104eac0008bf704730b54ff000050ae050ea010228
:104ebc0008bf704730b511f0004502d5404261eb98
:104ecc0041014ff4806404f132045fea915c3ff4d9
:104edc00d8ae4ff003025feadc0c18bf03325fea76
:104eec00dc0c18bf033202ebdc02c2f1200300fa27
:104efc0003fc20fa02f001fa03fe40ea0e0021fa4c
:084f0c0002f11444bde600bff0
:020000040000fa
:020000040040ba
:104f14002de9f843954b1b78062b00f28880dfe8d7
:104f240003f07961423a1f880400914e4ff47a7578
:104f3400904c356028460af0e3f8122221468e4848
:104f44000af05dfe02468d4b18602146874b986837
:104f540007f0f0fe0028ecd0844b03221a7066e0c0
:104f6400834e4ff47a75834c356028460af0c8f8ae
:104f74000b22214682480af042fe02467f4b18600b
:104f840021467a4b986807f0d5fe0028ecd0774b81
:104f940005221a704be0764f4ff4c874794d734e66
:104fa400dff8148212e1724e4ff49675714c35603d
:104fb40028460af0a5f804222146734b18680af023
:104fc4001efe02466d4b18602146684b986807f038
:104fd400b1fe0028ebd06d4b00221a70634b032204
:104fe4001a7024e0624ec824664d346020460af0ec
:104ff40087f8572229465d4b586807f0d6fe0028eb
:1050040040f0b080614b1b78002beed0574b02224e
:105014001a700ce00021084603f04af9534c606012
:105024000021084603f044f9a06001232370bde881
:10503400f883574c214653480bf000f84f4b186047
:105044000c22214653480af05ffd18b9474b06224b
:105054001a70ece74e4b504a1360504a13601878ac
:105064002f2800f0db804c4901330b601a782f2a7b
:10507400fad14b4a1360252806d0454b47490133e2
:105084000b601a78252afad1444d454c454e13e05d
:105094009a784d2a21d0432a2bd0502a19d12a6834
:1050a4003a2120460af056f920684378442b24d04c
:1050b40020684378472b33d02a682368934208d06a
:1050c400242120460af046f918b123685a78432a65
:1050d400ded0264b01221a70a9e7da1c22601a7965
:1050e4004e2ae9d15b794d2be6d12f4b01221a7060
:1050f400e2e703332a4a1360ebe78378412bdbd1e1
:105104000430206031460bf075f8284b83ed000b1a
:1051140033682360bdeec00b254b83ed000ac7e75f
:105124008378432bc8d10430206031460bf062f8f9
:10513400dff8788088ed000b30681e4fbdeec00ba1
:10514400b8eec00a87ed000a0130206031460bf04a
:1051540051f888ed000bbdeec00bb8eec00a87ed28
:10516400000aa9e7014b04221a7060e708054020f1
:10517400ccc4402090c1402010c44020e0c4402052
:1051840060c4402038c14020f00440206bc440205b
:10519400e0c04020b8ff4000e4c44020d0c4402018
:1051a400dcc44020d8c440205405402070c44020b2
:1051b400ecc44020f4044020c8ff4000194a13689e
:1051c40001331360184a1268934220d03c60204691
:1051d40009f096ff57222946706807f0e6fd00287b
:1051e400ecd0dff85490494628460af027ff0f4bcd
:1051f40018600922494640460af086fc0028ddd1a1
:10520400084b00221a600a4b01221a700fe7054b63
:1052140000221a60064b02221a7008e7054b064a60
:105224001a602ae7d4c44020e8c44020e0c44020e7
:0c52340008054020dcc44020e0c0402001
:020000040000fa
:020000040040ba
:105240002de9f04f9db005460c4616464c22002134
:1052500009a80bf06ffa099501aff4e0013409a831
:1052600009f016fdefe0a17803344ff0010efae0eb
:10527000a17803344ff0020ef5e0a1f13003dbb268
:10528000092b0dd8002505eb850501eb4505303dc3
:1052900014f8011ba1f13003dbb2092bf3d9e9e0cb
:1052a0000025e7e00b46a3f14202162a5fd8dfe8ab
:1052b00012f00201570062005e005e005e005e00b8
:1052c0005e005e005e005e005e005e00f5005e0057
:1052d0005e005e0019005e0062005e005e00170066
:1052e0001020dce056f8048b98f80010002900f03c
:1052f000dc804346c8f1010000eb030913f8012fdd
:10530000002af9d11ef0020f00f0f38009a809f07d
:10531000bffc18f8011f0029f8d109f101084d451b
:1053200040f291804ff0200911e09a46202109a80f
:1053300009f0aefc0af101035545f6d1abeb0909c2
:10534000a94498f800100029e0d1e6e798464946bc
:1053500009a809f09dfc08f101034545f6d172e06a
:1053600056f8041bc9b209a809f092fc6be009a821
:1053700009f08efc67e01ef0040f05d1442b05d127
:1053800056f8042b0a209ce00a2098e00a2089e0c5
:1053900009f1010830330cf8013b924598bfb8f190
:1053a0001f0f94bf012300230a4653b1c146b2fb2d
:1053b000f0f100fb1123dbb2092be9d95b44dbb22e
:1053c000e6e71ef0080f06d01cab98442d2308f822
:1053d0006c3c09f102080ef00103002b14bf4ff0e2
:1053e00030094ff020091ef0020f04d0c24608f128
:1053f000ff38b84411e008f1010aa84501d3f6e7e7
:105400009a46494609a809f043fc0af101035545ab
:10541000f6d105f1010aeae7d846c3461bf801199f
:1054200009a809f035fc4745f6d10af101085545b0
:1054300001d808e09846494609a809f029fc08f176
:1054400001034545f6d12178002961d025297ff453
:1054500005af617830293ff406af2d293ff408af3e
:1054600002344ff0000e2a297ff407af56f8045b90
:1054700014f8011b01f0df034c2b03d14ef0040e96
:1054800014f8011b002943d0a1f16103dbb2192bf1
:105490003ff608afa1f12003dbb204e708201ef0bd
:1054a000040f0cd156f8042b12e01ef0020f26d088
:1054b0004ff0000931e71ef0040f14d0022056f817
:1054c000042b442b04d1002a02da52424ef0080e7b
:1054d00078290cbf4ff0270b4ff0070bbc464ff05d
:1054e0000009824663e70220dce798f80010d946fd
:1054f0000ce709f1010ba945f7d2da4616e725b109
:105500004ff000094ff0010bf7e74ff0010904e7f6
:0c55100009a809f091fc1db0bde8f08f67
:020000040000fa
:020000040040ba
:10551c002de9f047089e04468846002b40f0858014
:10552c008a42154648d9b2fa82f24ab1c2f1200732
:10553c0001fa02f320fa07f7954047ea0308944072
:10554c004fea154e230cb8fbfef71ffa85fc0efb39
:10555c00178843ea084307fb0cf1994209d9eb1869
:10556c0007f1ff3080f0e380994240f2e080023f87
:10557c002b445b1aa4b2b3fbfef00efb103344eacf
:10558c00034400fb0cfca44509d92c1900f1ff3392
:10559c0080f0cb80a44540f2c88002382c4440ea0d
:1055ac000740a4eb0c0400271eb1d4400023c6e92d
:1055bc0000433946bde8f087002a53d0b2fa82f294
:1055cc00002a40f0b680491b4fea154e1ffa85f8a9
:1055dc000127b1fbfefc230c0efb1c1143ea01431b
:1055ec0008fb0cf1994207d9eb180cf1ff3002d2f1
:1055fc00994200f2ec808446591aa3b2b1fbfef03a
:10560c000efb101443ea044408fb00f8a04507d92c
:10561c002c1900f1ff3302d2a04500f2dc801846b1
:10562c00a4eb080440ea0c40bee78b4208d9002edc
:10563c0078d00027c6e9000138463946bde8f08726
:10564c00b3fa83f77fb98b4202d3824200f2bd805a
:10565c00841a61eb030301209846002ea9d0c6e9f9
:10566c000048a6e7ffdec7f12005bb4022fa05fc87
:10567c004cea030c01fa07f420fa05f821fa05f3b9
:10568c004fea1c4e48ea0404b3fbfef9210c0efb56
:10569c0019331ffa8cf841ea034309fb08fa9a45bf
:1056ac0002fa07f200fa07f10bd91ceb030309f11c
:1056bc00ff3080f088809a4540f28580a9f102097c
:1056cc006344a3eb0a03a4b2b3fbfef00efb10334e
:1056dc0044ea034400fb08f8a04508d91ceb040479
:1056ec0000f1ff336bd2a04569d90238644440ea1b
:1056fc000940a4eb0804a0fb02894c45c6464b4666
:10570c0054d351d0002e69d0b1eb0e0264eb0304dc
:10571c0004fa05f522fa07f3fc401d43c6e90054d0
:10572c00002746e73746304643e7184637e7074633
:10573c001fe7c2f1200320fa03f7954001fa02f0ab
:10574c0021fa03f34fea154e3843010cb3fbfef775
:10575c001ffa85f80efb173341ea034107fb08f3e8
:10576c008b4204fa02f407d9691807f1ff3c28d2de
:10577c008b4226d9023f2944cb1a81b2b3fbfef0ef
:10578c000efb103341ea034100fb08f38b4207d9af
:10579c00691800f1ff3c10d28b420ed90238294413
:1057ac00c91a40ea074714e74145abd2b8eb020ee1
:1057bc0069eb0c0201381346a4e76046f0e7184683
:1057cc0095e76746d8e781467be7384645e7acf175
:1057dc00020c2b4410e702382c4421e73746e8e64c
:020000040000fa
:020000040040ba
:1057ec002de9f04f8bb090f82f3013f0a00f40f054
:1057fc000681d0f80080d8f80c301a883ab300270c
:10580c00013733f8022f002afad1044600f12403a1
:10581c001d4601930c22194607a80af087fd9df836
:10582c00273013f0010f00f08580402384f82f30cf
:10583c000b2207a928460af079fd01252b46a34621
:10584c006ff0220aaaeb040adff8449202e0002768
:10585c00dbe72b460df11b06072200e00b4603f09d
:10586c000f0000f13001392988bf00f13701013aee
:10587c0006f8011919090f2bf0d87e210aab134435
:10588c0003f8141cbab194f82430202b15d004f171
:10589c00240104f1230010440aeb0103814203d0dc
:1058ac0011f8016f202ef7d12433234420266ff0fa
:1058bc002300001b09e01346f6e70023f4e731460a
:1058cc0003f8011bc118072907d8072af7d80aa91a
:1058dc00114411f8141c0132f2e7584600f06aff2b
:1058ec000646f8b90135642d4ad0d8f80c600b2265
:1058fc0007a901980af01afd052daad9b01e2b464e
:10590c0030f8022f002aa5d0102102f0010606eb78
:10591c004303520813f4803f18bf83ea090301398b
:10592c00f3d1ede7642d6fd0042869d19df82730b1
:10593c0084f82f309df8273013f0020f00f081808f
:10594c000c37514ba3fb073b4fea9b0b0bf10101af
:10595c00204608f025fc0646002851d10c2f77d99b
:10596c006169a1eb4b11204605f068fe0646002844
:10597c0046d101980af060fa0290002303931ae0d2
:10598c0007263de0304648e04ff6ff72934202d0c6
:10599c003cf810300bb949f0400981f80090012314
:1059ac0088f803300021204605f0abf8064638bbda
:1059bc00bbf1010b4cd0e169404609f0a9fa06464f
:1059cc00f0b9d8f80cc0216a5ffa8bf9029b4b73c3
:1059dc004ff00f03cb724ff000030b738b76cb762b
:1059ec0009f1ff3000eb400300eb8300274a02f182
