:020000040000fa
:020000040040ba
:10000000f0ff4520416a4000c7854000efb0400046
:10001000afbd4000efbf4000f7c54000000000004a
:10002000000000000000000000000000d1f44000cb
:1000300013ba40000000000051d1400075ec4000b0
:100040001781400017814000178140001781400050
:100050001781400017814000178140001781400040
:10006000178140000000000091fe4000a1fe40000a
:100070001781400045824000198140007183400093
:10008000b1fe4000178140003d894000a968400052
:100090001781400017814000178140001781400000
:1000a00017814000178140001781400017814000f0
:1000b0001781400017814000178140007df8400003
:1000c00017814000178140001781400017814000d0
:1000d00017814000178140001781400017814000c0
:1000e00017814000178140001781400017814000b0
:1000f00017814000178140001781400017814000a0
:10010000178140001781400061f4400017814000d2
:100110001781400000000000000000000000000007
:100120001781400017814000a1d340001781400093
:10013000178140001781400017814000178140005f
:10014000178140001781400017814000178140004f
:10015000178140001781400017814000178140003f
:080160001781400017814000e7
:020000040000fa
:020000040040ba
:10016800f8b500bff8bc08bc9e46704765e2400081
:10017800f8b500bff8bc08bc9e46704741e2400095
:020000040000fa
:020000040040ba
:08018800e44a00000100000040
:020000040000fa
:020000040040ba
:100190002de9f04784b00746002303934ff45074d1
:1001a00004fb00f4b84d2e1904f54b731d444ff6b3
:1001b000ff7128460ff009fbd6f8cc8296f8df32a3
:1001c000102b01f22f83dfe813f01f0050006200b4
:1001d0009700e3083e0a780ab50ae00a170b6a0b93
:1001e000a10bce0bff0b1f0c5e0c1100d6f8cc42fe
:1001f000002c01f0a0844ff45078a34b08fb073883
:100200004ff0010901f089bc4ff450739e4a03fb83
:1002100007239b789bb94ff4507303fb07239b681c
:100220009b6b9847002801f0fd824ff45070964b6d
:1002300000fb0730012380f8df3201f0f3ba924e61
:1002400004f12001314438460df04af84ff4507063
:1002500000fb0767bb685b6898478c4bc7f8b432f4
:10026000032387f8df3201f0ddba89492144fa20ff
:100270000df02cfe002841f0d5824ff45070824bd7
:1002800000fb0730022380f8df3201f0cbba4ff4d5
:1002900050737d4a03fb0723d3f8e8020ff03afcc2
:1002a000002801f0bf824ff45073774a03fb072305
:1002b0009b689b6b984748b94ff45070724b00fb9a
:1002c0000730002380f8df3201f0acba6e4e04f143
:1002d0002001314438460df003f84ff4507303fb0e
:1002e0000767bb685b689847684bc7f8b43203235d
:1002f00087f8df3201f096ba002302934ff450736f
:10030000614a03fb072393f8e032212b00f2da87de
:10031000dfe813f022005d007d009300c000ea00da
:10032000600189018b02cc0267032905530583050f
:100330001a04340469049004b504e504a805f90519
:1003400042066706ae060d075d078007ae07cb07be
:10035000cb070002760220034ff450734a4a03fb96
:100360000723d3f8b422494b9a4215d04ff4507367
:10037000454a03fb07239b689b684448984700282d
:1003800000f046864ff450733f4a03fb07233f4a71
:10039000c3f8b42200f03cbe4ff450733a4a03fb5a
:1003a00007239b78012b09d04ff45073364a03fb87
:1003b0000723032283f8e02200f02abe4ff4507393
:1003c00003fb0723012283f8e02200f021be2e491f
:1003d00004f53a724ff4507303fb07131144586845
:1003e0000df074fd48b94ff45073274a03fb0723ff
:1003f000022283f8e02200f00bbe4ff45073224a31
:1004000003fb07231e2283f8e02200f001be4ff415
:1004100050731d4a03fb0723d3f8e8020ff07afb61
:10042000002800f0f5854ff45073174a03fb0723ab
:10043000032283f8e02200f0ebbddff84c8004f2e9
:10044000e3234344009300231a461946304607f03d
:100450002bfd4ff4507303fb078393f8e232032b19
:1004600040f0d68508f53a71214402200df02efdaa
:10047000002840f0cd854ff4507303fb078304221e
:1004800083f8e02200f0c4bda0b04020801a06002e
:1004900088b340204ff45073d74a03fb0723d3f8a7
:1004a000e8020ff037fb002800f0b2854ff45073dc
:1004b000d14a03fb072393f8f03243b94ff450734a
:1004c00003fb0723052283f8e02200f0a1bd4ff4cf
:1004d0005073c94a03fb07231f2283f8e02214222a
:1004e000a3f8fc2200f094bddff80c8304f2e323b0
:1004f0004344009308234ff4d5721946304607f061
:10050000d3fc4ff4507303fb078393f8e232032bc1
:1005100040f07e854ff4507303fb0783062183f878
:10052000e012072183f8e112002183f8a51204f5f7
:100530003b7141444ff4fa600df0c8fc012813d020
:100540004ff45073ac4a03fb072393f8dd32a3b199
:10055000022b35d14ff45073a74a03fb0723002227
:1005600083f8ac2200f054bd4ff4507303fb0783b3
:100570001e2283f8e02200f04bbd4ff4507303fbc2
:1005800007239b681b6a02a900209847029bc3f3bc
:100590000803b3f5d57f09d04ff45073964a03fb97
:1005a00007231e2283f8e02200f032bd4ff450737f
:1005b000914a03fb0723012283f8ac2200f028bdf7
:1005c0004ff450738c4a03fb07231e2283f8e0226a
:1005d00000f01ebd884b4ff4507808fb0738b8f880
:1005e000a22204f2e3210b440093012312043721d9
:1005f000304607f059fc98f8e232032b40f00885aa
:1006000098f8dd322bb998f8e12288f8e02200f062
:10061000ffbc4ff45073784a03fb07231e2283f874
:10062000e02200f0f5bc744b4ff4507808fb07381b
:1006300098f8ac1298f8a522120404f2e3200344bf
:100640000093042342ea81722921304607f02cfcf2
:1006500098f8e232032b40f0db84d8f8ec020ff07c
:1006600059fa88bb4ff45073634a03fb072393f88e
:10067000dd32002b44d14ff4507303fb07239b68fa
:100680001b6a02a900209847029b13f4701f20d018
:10069000002b28da13f0804f4ff45073564a03fbb7
:1006a000072314bf0122002283f8a6224ff45076bc
:1006b000514b06fb0736d6f8ec020ef077f808230c
:1006c00086f8e03200f0a4bc1e2288f8e02200f098
:1006d0009fbc4ff45073484a03fb07231e2283f844
:1006e000e02200f095bc4ff45073434a03fb07230c
:1006f0003c2283f8a522062283f8e02200f088bc81
:100700004ff450733c4a03fb07231e2283f8e02278
:1007100000f07ebcdff8e08004f2e3234344009362
:100720000423364a0121304607f0befb4ff45073d4
:1007300003fb078393f8e232032b40f069844ff404
:10074000507303fb078393f8dd324bb14ff45073c2
:10075000294a03fb07231e2283f8e02200f058bc3d
:100760004ff4507303fb07839b681b6a02a90020a8
:100770009847029b002b22db4ff450731e4a03fb69
:100780000723b3f8fc3263b311464ff4507202fbf7
:100790000712013ba2f8fc3204f53a7319443220e7
:1007a0000df094fb002840f033844ff45073124a4c
:1007b00003fb0723202283f8e02200f029bc4ff43a
:1007c000507202fb078203f0c043b3f1804f14bfa5
:1007d0000023012382f8a632082382f8e03200f0d9
:1007e00017bc4ff45073044a03fb07231e2283f8ff
:1007f000e02200f00dbc00bfa0b040200000384057
:100800004ff45073cc4a03fb0723d3f8e8020ff0f0
:1008100081f9002800f0fc834ff45073c64a03fbb3
:1008200007231f2283f8e022f2e3dff80c8304f2af
:10083000e32343440093032300220221304607f0c0
:1008400033fb4ff4507303fb078393f8e232032b1f
:1008500040f0de834ff4507303fb078393f8dd32df
:1008600043b14ff45073b44a03fb07231e2283f8ad
:10087000e022cde3414604f120034ff4507606fb1d
:100880000786b268126a19440420904796f8f0323d
:100890001bb9092286f8e022bae34ff45073a64a46
:1008a00003fb0723212283f8e022b1e3dff88882eb
:1008b00004f2e3234344009307230022032130463c
:1008c00007f0f2fa4ff4507303fb078393f8e23218
:1008d000032b40f09d834ff4507303fb078393f881
:1008e000dd3243b14ff45073934a03fb07231e22ba
:1008f00083f8e0228ce34ff4507303fb07839b687b
:100900001b6a02a900209847029b13f4604f07d08e
:100910004ff4507303fb07831e2283f8e02277e332
:100920001b0c4ff45072844902fb0712a2f8a2324a
:100930003bb94ff4507303fb0713092283f8e022fd
:1009400066e34ff450737c4a03fb07230a2283f8c3
:10095000e0225de3dff8e08104f2e3234344009307
:1009600001234ff400320321304607f09dfa4ff483
:10097000507303fb078393f8e232032b40f0488364
:100980004ff4507303fb078393f8dd3243b14ff408
:100990005073694a03fb07231e2283f8e02237e3e2
:1009a0004ff4507303fb07839b681b6a02a9002066
:1009b0009847029b13f4590f07d04ff4507303fb71
:1009c00007831e2283f8e02222e34ff450735a4a31
:1009d00003fb07230222a3f8a2220a2283f8e022c3
:1009e00016e3554b4ff4507808fb0738b8f8a222ad
:1009f00004f2e3210b44009303231204092130463f
:100a000007f052fa98f8e232032b40f001834a4a89
:100a100098f8dd3243b14ff45073474a03fb072384
:100a20001e2283f8e022f3e204f1300616444ff46c
:100a3000507808fb0728d8f808301b6a3146042094
:100a4000984798f8f032002b43d13c4ac8f8b822b6
:100a5000b37b9b09012b2ed0337a9b0203f44060b9
:100a60003279520002f006024ff45071324b01fb12
:100a7000073196f807e0b3799b0943ea8e030343f5
:100a80000133f07842ead01202329340727a02f0d7
:100a90000f02a2f109000122824092b202fb03f38d
:100aa000c1f8a8324ff45073234a03fb07230e22e8
:100ab00083f8e022ace2f3791b0403f47c12b079f2
:100ac000737943ea0023134301339b02c8f8a83229
:100ad000e8e7f37a4ff45071174a01fb0721c3f39b
:100ae000c20003f00703164a52f82020154850f8b8
:100af000233003fb02f30a22b3fbf2f3c1f8b8324e
:100b0000f279b3799b0943ea8203327a920202f4c2
:100b10004062134301337279520002f006023079c9
:100b200042ead01202329340727a02f00f029340ee
:100b30005b0ac1f8a832b5e7a0b0402040787d013b
:100b4000c0e2400010f640004ff45073c44a03fb6b
:100b500007239a689268d3f8b8029047002800f0fb
:100b600057824ff45073be4a03fb0723d3f8b822d1
:100b7000c3f8b4220f2283f8e02249e2b84b4ff4c5
:100b8000507808fb0738b8f8a22204f2e3210b449e
:100b90000093022312040721304607f085f998f8e4
:100ba000e232032b40f0348298f8dd3293b998f8a2
:100bb000f03233b9062288f8e022102288f8e122c8
:100bc00026e24ff45073a64a03fb07230b2283f857
:100bd000e0221de24ff45073a14a03fb07231e22bb
:100be00083f8e02214e24ff450739d4a03fb07237d
:100bf0009b681b6a02a900209847029b13f0007fa4
:100c00000cd113f4006f4ff45073954a03fb072384
:100c100014bf11221e2283f8e022f9e14ff4507331
:100c20008f4a03fb0723012283f8ae221d2283f89b
:100c3000e022ede18a4e4ff4507808fb0768d8f8bf
:100c400008309b6a082098474ff0010988f8e39222
:100c500088f8e492002388f8e53204f140031e444a
:100c6000202130460df0defdd8f808305b6b4a4697
:100c7000082130469847122388f8e032c8e1dff8af
:100c8000e08104f2e3234344009301230022332153
:100c9000304607f009f94ff4507303fb078393f8cc
:100ca000e232032b40f0b4814ff4507303fb07830f
:100cb000002283f8e32293f8dd323bb94ff45073fe
:100cc00003fb0783132283f8e022a1e14ff4507362
:100cd000634a03fb07231e2283f8e02298e14ff4c6
:100ce00050735f4a03fb072393f8af32002b00f0e9
:100cf0008f814ff4507303fb0723b3f8b23223f410
:100d0000fb4323f00f039bb2d3b94ff45073544a03
:100d100003fb072393f8413013f0040f07d04ff47f
:100d2000507303fb072393f8f232012b10d04ff4da
:100d300050734b4a03fb0723152283f8e02267e137
:100d40004ff4507303fb07231e2283f8e0225fe178
:100d50004ff4507303fb0723062283f8e02214228a
:100d600083f8e12254e1dff8f8804ff4507606fb77
:100d700007864ff0010986f8e39286f8e492002096
:100d800086f8e502b3685b6a9847b3689b6a4ff4dc
:100d90000070984704f1a00398444ff40071404656
:100da0000df040fdb3685b6b4a464ff4007140465e
:100db00098470c2386f8e0322ae1dff8a48004f299
:100dc000e32343440093012300220821304607f027
:100dd0006bf84ff4507303fb078393f8e232032b55
:100de00040f016814ff4507303fb0783002283f811
:100df000e32293f8dd323bb94ff4507303fb0783d2
:100e00000d2283f8e02203e14ff45073144a03fbf0
:100e100007231e2283f8e022fae04ff45073104ab1
:100e200003fb072393f8af32002b00f0f1804ff45f
:100e300050720b4b02fb073292f8771192f8763121
:100e40001b0443ea016392f874110b4392f8751185
:100e500043ea0123c2f8a832142382f8e032d7e033
:100e6000a0b040204ff45073cf4a03fb072393f800
:100e7000f0321bbb02f2e32323440093012302223e
:100e80000621304607f010f84ff45073c64a03fbb2
:100e9000072393f8e232032b40f0ba804ff45073eb
:100ea00003fb072393f8dd32e3b14ff45073be4ade
:100eb00003fb07231e2283f8e022a9e0ba4b4ff47c
:100ec000507202fb073292f8f21204f2e32213444a
:100ed00000930223b54a42ea01220621304606f079
:100ee000e3ffd1e74ff4507606fb0726b368db6ad1
:100ef00096f8f202984796f8f23286f8a132152356
:100f000086f8e03284e04ff45073a74a03fb0723ce
:100f100093f8f03223bb4ff4507303fb072393f88d
:100f2000403013f00f0f07d04ff4507303fb07232b
:100f300093f8f132012b08d04ff450739a4a03fb17
:100f400007231b2283f8e02262e04ff4507303fb77
:100f50000723002283f8a422162283f8e02257e018
:100f6000012be9d14ff450738f4a03fb072393f809
:100f7000643113f0010fdfd04ff4507303fb0723ec
:100f800093f8f132012bd7d14ff4507303fb0723b1
:100f9000192283f8e0223be0dff80c924ff45078fe
:100fa00008fb0798d8f808309b6a402098474ff014
:100fb000010a88f8e3a288f8e4a2002388f8e53261
:100fc00004f160039944402148460df02bfcd8f809
:100fd00008305b6b5246402148469847172388f8f3
:100fe000e032714b4ff4507808fb073898f8a412a0
:100ff00004f2e3221344009301236d4a42eac172d2
:101000000621304606f050ff98f8e232032b1cd040
:101010004ff45073644a03fb072393f8e0321d2b0f
:1010200000f059811e2b40f0fd834ff450735e4a4f
:1010300003fb07239b78012b40f0f48302f120018e
:10104000214438460cf04cf9ece3002288f8e32206
:1010500098f8dd321bb9182288f8e022d8e74ff45f
:101060005073514a03fb07231e2283f8e022cfe787
:101070004ff450734c4a03fb072393f8af32002b15
:10108000c6d04ff4507303fb0723b3f8b23223f4f6
:10109000fb4323f00f039bb2ebb94ff45073424a6a
:1010a00003fb072393f8a432012b1cd04ff4507399
:1010b0003d4a03fb072393f86d3013f0020f2dd048
:1010c0004ff4507303fb0723012283f8a422162256
:1010d00083f8e0229ce74ff4507303fb07231e22a2
:1010e00083f8e02294e74ff4507303fb072393f84f
:1010f000703003f00f03012b07d14ff4507303fb43
:1011000007231a2283f8e02282e74ff45073264a1d
:1011100003fb07231d2283f8e02279e74ff4507385
:10112000214a03fb07231d2283f8e02270e7dff842
:10113000788004f2e3234344009302231d4a0621ee
:10114000304606f0b1fe4ff4507303fb078393f86b
:10115000e232032b7ff45caf4ff4507303fb078341
:1011600093f8dd3243b14ff450730f4a03fb07236a
:101170001e2283f8e0224be74ff4507303fb0783f2
:101180009b689b680c489847c0b14ff4507606fbab
:101190000786094bc6f8b432b3681b6b0120984729
:1011a0001b2386f8e03233e7a0b040200100b703ec
:1011b00001ffff000101b903007519034ff45073db
:1011c000c84a03fb07231e2283f8e02220e74ff4de
:1011d0005073c44a03fb07239b689b68c248984727
:1011e00040b94ff45073bf4a03fb07231e2283f814
:1011f000e0220de74ff45076ba4b06fb0736ba4ba8
:10120000c6f8b432b3681b6b012098471b2386f8dd
:10121000e032fde6dff8cc8204f2e323434400939e
:1012200001234ff400721021304606f03dfe4ff4ca
:10123000507303fb078393f8e232032b7ff4e8ae8d
:101240004ff4507303fb078393f8dd323bb94ff43f
:10125000507303fb07831c2283f8e022d8e64ff487
:101260005073a04a03fb07231e2283f8e022cfe637
:10127000dff8708204f2e3234344009300231a460c
:101280000721304606f010fe4ff4507303fb07832e
:1012900093f8e232032b7ff4bbae4ff4507303fba1
:1012a00007831d2283f8e022b2e64ff450768d4b7f
:1012b00006fb0736d6f8ec020df078fa002386f824
:1012c000e032a5e64ff45073864a03fb0723002261
:1012d00083f8e0229ce64ff4507303fb07230022bf
:1012e00083f8fa2293f8dc3283b14ff450737d4acd
:1012f00003fb07239b68db6b83b198474ff4507364
:10130000784a03fb072383f8ad0207e04ff45073dc
:10131000744a03fb0723002283f8ad22714a4ff47d
:10132000507303fb0723d3f8a8124ff40070c3f8df
:101330001403c3f81813c3f81c03c3f82013c3f82d
:101340002403c3f828130121c3f80413c3f80813b6
:10135000c3f80c1304f545742244c3f810239b789a
:101360008b420bd04ff450705e4b00fb07300123d3
:1013700080f8de32042380f8df3253e24ff45073fa
:10138000584a03fb07234ff0ff32c3f8ec22e9e78a
:10139000b8f1000f08d04ff45073524a03fb0723f3
:1013a00093f8e232032b28d04ff450734d4a03fbdd
:1013b00007239b78022b00f00a81012b40f0328238
:1013c0004ff45073474a03fb0723d3f8ec02b0f104
:1013d000ff3f00f022810ef09dfb002800f02282ea
:1013e0004ff450703f4b00fb07304ff0ff33c0f815
:1013f000ec32062380f8df3214e24ff4507303fb23
:1014000007239b78012b55d04ff45073354a03fbcb
:10141000072393f8ae32002b59d14ff45073314a61
:1014200003fb07239b78002b60d0022388f8083049
:101430004ff450732b4a03fb072393f8a63223b9ca
:10144000d8f814305b02c8f8143098f81d30012b1e
:101450005ed04ff45073234a03fb072393f8ad3259
:10146000002b79d14ff450731e4a03fb072300224f
:1014700083f8e422d8f81830012b78d0192388f8a3
:101480001c304ff45073174a03fb0723012283f8e3
:10149000e5224ff45073134a03fb07239b78022b7a
:1014a00071d04ff450700f4b00fb0730072380f8ca
:1014b000df32b7e14ff4507404fb0724d4f8ec0298
:1014c0000df074f94ff0ff33c4f8ec329ce7ff23c2
:1014d00088f808304ff4507000fb07200e2380f886
:1014e000df329fe1a0b0402080f0fa024ff4507349
:1014f00003fb07239b689b6b9847002895d14ff40b
:101500005070d44b00fb0730102380f8df3289e1a4
:101510004ff45073cf4a03fb0723012283f8e422e0
:10152000d8f8183093420bd0122388f81c304ff4af
:101530005073c84a03fb0723012283f8e522a8e77a
:10154000112388f81c304ff45073c24a03fb072361
:10155000002283f8e5229ce7ff2388f808304ff447
:10156000507000fb07200e2380f8df325ae1182369
:1015700088f81c304ff45073b64a03fb072300224f
:1015800083f8e52285e74ff4507303fb072393f8b4
:10159000f032012b08d04ff45070ae4b00fb0730f7
:1015a000072380f8df323de14ff4507303fb07233c
:1015b00093f8fa32012beed14ff4507000fb072064
:1015c000002380f8fa32052380f8df322ae14ff455
:1015d000507303fb072393f8f032012b40f0228174
:1015e0004ff4507303fb072393f8f932002b00f0fc
:1015f00019814ff4507303fb072393f8fa32002b41
:1016000040f010814ff4507000fb0720012380f858
:10161000fa32052380f8df3204e104f53b714ff420
:10162000507303fb0723114458680cf04ffc01284a
:1016300040f0f8804ff45070864b00fb07300e23cb
:1016400080f8df32eee0834b4ff4507808fb073828
:10165000002288f8e322b8f8a20298f8fa22d2030e
:1016600004f2e32423440093022342ea00420521ca
:10167000304606f019fc98f8e232032b40f0d28095
:1016800098f8dd3283b998f8fa32012b08d04ff47c
:101690005070704b00fb0730072380f8df32c1e049
:1016a000042388f8df32bde04ff45070694b00fb33
:1016b0000730102380f8df32b4e0664b4ff45078e7
:1016c00008fb0738002288f8e322b8f8a22204f2c7
:1016d000e32423440093012312040d21304606f035
:1016e000e3fb98f8e232032b40f09c8098f8dd325f
:1016f00043b14ff45070574b00fb0730102380f874
:10170000df328fe0d8f808301b6a03a90020984721
:10171000039bc3f34323032b03d0102388f8df324a
:1017200080e04ff450704b4b00fb0730042380f8ef
:10173000df3277e0474b4ff4507808fb0738b8f8b2
:10174000a22204f2e324234400930223120407217b
:10175000304606f0a9fb98f8e232032b62d198f8e4
:10176000dd3243b14ff450703a4b00fb07300e238b
:1017700080f8df3256e0d8f808301b6a03a9002051
:101780009847082388f8df324ce0b8f1000f4fd0bb
:10179000d8f8180001284ff450732e4a03fb072392
:1017a0009b685b6a0cbf002080b298474ff450736f
:1017b000284a03fb07239b689b6a4ff400709847f5
:1017c00098f81d30002b3cd0012b45d04ff45079b8
:1017d000204b09fb0739012389f8e332d8f81810a8
:1017e000d9f808305b6b98f81d204902d8f8100032
:1017f0009847092389f8df32d8f8142098f81c108c
:10180000dff8508004f2e32444440094012330467e
:1018100006f04afb4ff4507303fb078393f8e23260
:10182000032b21d028460ef044f904b0bde8f08720
:101830004ff45070074b00fb07300e2380f8df3267
:10184000f0e7d8f818104902d8f810000df006f8a3
:10185000bce700bfa0b04020d8f818104902d8f863
:1018600010000cf0dfffb1e74ff4507303fb078368
:10187000002283f8e32293f8dd323bb94ff4507035
:1018800000fb07800a2380f8df32cbe74ff450706b
:10189000ae4b00fb07300e2380f8df32c2e74ff477
:1018a0005073aa4a03fb072393f8af32002bb9d039
:1018b0004ff4507303fb0723b3f8b23223f4fb4316
:1018c00023f00f039bb283b9b8f1000f15d0d8f8fd
:1018d0001830012b4ff450709c4b00fb07308cbf2d
:1018e0000b230c2380f8df329ce74ff4507000fb91
:1018f00007200e2380f8df3294e74ff45070934bab
:1019000000fb07300e2380f8df328be7dff83c82e4
:1019100004f2e32444440094022300220c213046c4
:1019200006f0c2fa4ff4507303fb078393f8e232d8
:10193000032b7ff477af4ff4507303fb078393f8c7
:10194000dd323bb94ff4507000fb07800c2380f868
:10195000df3267e74ff450707c4b00fb07300e23fb
:1019600080f8df325ee7794b4ff4507808fb073898
:10197000b8f8a22204f2e3242344009301231204c2
:101980000d21304606f090fa98f8e232032b7ff4ee
:1019900049af98f8dd3243b14ff450706b4b00fb08
:1019a00007300e2380f8df323ce7d8f808301b6a96
:1019b00003a900209847039b13f4807f3ff432afc4
:1019c0000d2388f8df322de7dff8809104f2e3245d
:1019d0004c44009400231a460721304606f064fa6e
:1019e0004ff4507303fb079393f8e232032b7ff419
:1019f00019af002388f808304ff4507000fb0790af
:101a00000f2380f8df320de74ff450734f4a03fb8a
:101a100007239b783bb34d4b4ff4507909fb0739b3
:101a2000002289f8e322b9f8a22204f2e3241c443c
:101a30000094012312040d21304606f035fa99f87e
:101a4000e232032b7ff4eeaeff2388f808300f2339
:101a500089f8df3299f8dd32002b3ff4e3ae002243
:101a60003b4b1a70dee64ff4507000fb0727bb6853
:101a70009b6b9847364b1870ff2388f808300f236c
:101a800087f8df32cee6b8f1000f17d0d8f804108f
:101a9000c8b24ff450722d4b02fb0732d2f8d83245
:101aa00003eb0013da68914214d0d6f8cc322bb194
:101ab0001a6ac6f8cc2200221a621a70244b1b78cc
:101ac000abb14ff45070214b00fb0730042380f87a
:101ad000df32a7e65c68002ce7d098f908009a6826
:101ae000d8f80c10003018bf0120a047dde7012214
:101af000174b1a704ff45070144b00fb0730102333
:101b000080f8df328ee69a68e1684846d0470023c5
:101b100023622370d6f8cc426cb1236ac6f8cc326b
:101b20002279d8f8d83203eb0213d3f804a0baf123
:101b3000000fe8d1ebe74ff45073044803fb0700b4
:101b4000002380f8de3280f8df326be6a0b0402060
:041b5000fec2402071
:020000040000fa
:020000040040ba
:041b54000164704771
:020000040000fa
:020000040040ba
:101b58002de9f04f2ded0c8b98469bb000230446e1
:101b680040460e461192169309f070fb81460068b4
:101b78000ef022fa4ff0000a07464ff0000b1596b8
:101b8800159b1a780d2a34d8092a38d2002a40d051
:101b980000230c93159d2b78302b40f00d816b782a
:101ba800582b01d0782b6cd10c9b019316ab00936a
:101bb800cdf8088017abb14a15a9204601f070ff8f
:101bc80010f00706074605d0062e2cd10135002354
:101bd80015950c93119b002b40f06d850c9bebb178
:101be8004bec17abb1ee470b1bb0bdec0c8bbde853
:101bf800f08f2b2a06d02d2a13d0202ac8d10133e2
:101c08001593bde700220c925a1c15925b78002ba5
:101c1800c0d1119b1596002b40f04b854bec10abb7
:101c2800e2e70122efe7169a3ab1352118a80cf03d
:101c380089ff169920460df079f8013e042e08d840
:101c4800dfe806f00c03171a0c00ddf860a0ddf8d9
:101c580064b03b07bed54bf0004bbbe7199b179a06
:101c6800ddf860a023f4801302f2334243ea025bfa
:101c7800efe7dff814b2ece76ff0004b4ff0ff3af4
:101c8800e7e7159b5a1c15925b78302bf9d0002b8f
:101c9800a0d001230d93159b0e9300230493069364
:101ca8001d460a22159890f80080a8f13003d9b291
:101cb800092940f283803a46d9f800100df04cfc0f
:101cc800002800f08b80002042462b4601460890f1
:101cd800652a02d0452a40f0008123b910b90d9b2e
:101ce800002b96d00023159e721c159272782b2a11
:101cf80000f0da802d2a00f0dd804ff0000ca2f110
:101d0800300ebef1090f00f2e780302a00f0d580ce
:101d1800a2f1310ebef1080f00f2df80a2f1300807
:101d2800159a0f92159a02f1010ecdf854e05278e7
:101d3800a2f13009b9f1090f40f2c6800f9faeeb4e
:101d4800070ebef1080f44f61f6e00f3c380f0457e
:101d5800a8bff046bcf1000f01d0c8f10008002b65
:101d680040f0e18000287ff435af0d9b002b7ff415
:101d780031af089b002b7ff44caf4e2a00f0b680a1
:101d880000f3ae80492a7ff444af3d4915a80df011
:101d980019fb00283ff43daf159b3a49013b15a8b4
:101da80015930df00ffb10b9159b01331593dff850
:101db800d8b04ff0000a0de700236be7082dd5bf18
:101dc8000699049902fb013302fb013300f101007b
:101dd800d4bf069304930135159063e7159bda1970
:101de8001592da5d002d59d12846302a2dd0a2f15e
:101df8003103082b00f26484159b0e9301460020e2
:101e08000346b2f1300900f1010712d0394400eb62
:101e1800030c1f464ff00a0e67451cd118440828ca
:101e280000f1010332dc069a0a2000fb02920692b6
:101e38000027159a501c159052783846a2f13007a1
:101e4800092fded90127089742e7159b5a1c1592de
:101e580001305a78c9e7013707f1ff38b8f1080fa0
:101e680004dc069a0efb02f20692d5e7102fdebfbd
:101e7800049a0efb02f20492cee700bfd0fd4000a8
:101e880000024100030241000000f07f102bdfbf79
:101e9800049a0a2000fb02920492c9e701462b46e5
:101ea800cce70123089319e74ff0000cb21c1592f8
:101eb800b27824e74ff0010cf8e7159a02f1010e09
:101ec800cdf854e0527820e70a2707fb0828a8f144
:101ed800300827e7f0463de715964ff000083ee743
:101ee800692a3ff452af6e2a7ff493ae884915a849
:101ef8000df068fa00283ff48cae159b1b78282b50
:101f08000ed118aa834915a806f0a4fd052807d103
:101f1800199bddf860a043f0ff4b4bf4e00b59e64a
:101f2800dff800b245e7dded067a002d08bf1d4653
:101f3800b8ee677b102b1a46a8bf10228ded087be0
:101f4800092aa8eb0108dde908ab0edd7249ddedd1
:101f5800047a01ebc20111ed126b9ded085bb8ee3e
:101f6800677ba5ee067b5bec17ab0f2b38dcb8f173
:101f7800000f3ff42fae24ddb8f1160f0bdc6649d5
:101f880001ebc80898ed007b4bec16ab27ee067bff
:101f98005bec17ab1ee6c3f12501884520dc5e4ae1
:101fa800c3f10f0302ebc30191ed007b4bec16abc1
:101fb800a8eb030302ebc30227ee067b92ed006b4e
:101fc800e4e718f1160f0bdb5349a1ebc80898edad
:101fd800007b4bec15ab85ee076b5bec16abf9e5bc
:101fe8009a1a4244002a73dd12f00f000ad04a49b7
:101ff80001ebc00191ed007b4bec16ab27ee067ba5
:102008005bec17ab32f00f024fd0b2f59a7f22ddae
:1020180000252f460495a8462223dff80cb123603b
:102028004ff0000a049b002b3ff4d4ad16992046cc
:102038000cf07cfe414620460cf078fe39462046de
:102048000cf074fe049920460cf070fe29462046d8
:102058000cf06cfebee53149cde904ab0027121146
:102068003e460846012a23dc0fb1dde904ab00eb4c
:10207800c600abf1547b90ed007b4bec16ab27ee22
:10208800067b5bec17ab2bf00042120d24481205bf
:1020980082425946bcd8a0f58010824286bfdff83c
:1020a8008cb04ff0ff3a01f1547b4ff0000970e01b
:1020b80012f0010f08d09ded046b91ed007b26ee28
:1020c800077b8ded047b0127013652100831c9e7e3
:1020d800ebd0524212f00f000ad00f4901ebc001b9
:1020e80091ed007b4bec15ab85ee076b5bec16ab0b
:1020f8001211dad01f2a1bdd00252f460495a846a9
:1021080022234ff0000a4ff0000b23608ae700bf3c
:1021180009024100e4fd400078a9400058f340005e
:102128000000a07c0000f8ff0000f07fffffef7fb9
:10213800cde904ab12f01009ad4918bf4ff06a0998
:102148000020002a00f30e8108b1dde904abb9f1e3
:10215800000f17d0cbf30a52c2f16b02002a59467e
:1021680010dd1f2a40f30c81342adebf203a4ff0dd
:10217800ff3000fa02f24ff0000accbf4ff05c7b50
:1021880002ea010b4bec17abb5ee407bf1ee10fa0f
:10219800b2d0069a00920e992a4620460af066faac
:1021a800049000283ff434afb8f1000fc8f10003e1
:1021b8009fed899ba8bf00239fed89ab9fed8abb4c
:1021c8000d93002528eae8730e932f46049b2046ba
:1021d80059680af01fff804600283ff41daf049b92
:1021e8001a69023203f10c0192000c300df05ffd08
:1021f80018aa17a94bec10ab2046cde908ab09f09b
:1022080067fb169000283ff407af012120460df028
:1022180001fe074600283ff4ffae179e189a002ecd
:10222800b1bf0e9b0d9b0e989b19babf981b0d9bb7
:102238000693a6eb0906b8bf069316446d4b013efc
:102248009e42c2f1360280f2ae809b1b1f2ba2eb8e
:1022580003024ff0010100f39a8001fa03f310938f
:1022680000230f93069b1344024409eb0206069ac7
:102278009a42a8bf1a46b242a8bf3246002a04ddd5
:1022880006999b1ab61a8a1a06920d9ac2b139464d
:102298002046139309f0bafb074600283ff4bcae6a
:1022a8000146169a204606f0f2fc129000283ff4e8
:1022b800b3ae169920460cf039fd129a139b16926c
:1022c800002b75dc0e9b002b7bd1002e08dd4146d0
:1022d8003246204609f00bfa804600283ff49caeaf
:1022e800069b002b08dd39461a46204609f0fff9ff
:1022f800074600283ff490ae42461699204608f05b
:10230800dbfd054600283ff487aec368069300232b
:10231800c36039460cf0fcfb00286dda069be3b974
:10232800baf1000f19d1cbf31303b3b92bf0004363
:102338001b0d1b05b3f1d66f0fd96b6913b92b6948
:10234800012b0add29460122204609f0d0f9394639
:1023580005460cf0ddfb00287ddcb9f1000f40f0ec
:10236800888063e6d60708d59ded046b91ed007b68
:1023780026ee077b8ded047b012052100831e0e644
:102388004ff0ff3101fa02f202ea0a0afae6c6f150
:102398007f4606f57f0606f57b46e23601fa06f328
:1023a8000f9310915ee700230f930123109359e7d1
:1023b8001a461699204609f09af91690002881d1f4
:1023c8002ae641460e9a204609f020fb804600285e
:1023d8007ff47baf20e600bf9535a094ffffdf3f79
:1023e80035e5af350000e03f9535a094ffffcf3fbe
:1023f80030f3400002fcffff40f08480069acbf3e4
:10240800130322b3b64a9342594652d15046b9f102
:10241800000f19d0b34b0b40b3f1d46f4ff0ff321c
:1024280003d81b0dc3f16b039a40824241d1ae4bd6
:10243800994202d101323ff4efadaa4b0b4003f5ac
:10244800801b4ff0000a88e74ff0ff32ede783bbaf
:10245800baf1000f2dd12bf000431b0d1b05b9f16c
:10246800000f1dd0b3f1d66f1adcb3f15c7f7ff794
:1024780047ae9e4b0b9300230a939ded0a6b4bece2
:1024880017ab27ee067b5bec17abbbf1000f7ff4b5
:10249800cdadbaf1000f7ff4c9ad22232360c5e5a5
:1024a800a3f580136fea135b6fea0b5b4ff0ff3afb
:1024b80053e70f9b8bb113ea0b0f3ff44eaf069b0c
:1024c8004a465046594663b10cf008fb9ded087b1f
:1024d80037ee007b5bec17ab3fe7109b13ea0a0f64
:1024e800ebe70cf0fbfa9ded087b37ee407b8dedba
:1024f800067bb5ee407bf1ee10fadde906ab3ff462
:10250800ffad2ae7394628460bf07afdb0ee007b8e
:10251800b4eec70bf1ee10fa64d8069b002b41d03d
:10252800734b0022b7ee008b6e48724900ea0b0627
:102538008e4240f086800f90dde90801abf1547bb4
:102548004bec10ab43ec1c2bcde90a010bf0e2fc81
:102558004bec1dab0f98acee00db5bec1dab664b98
:1025680000ea0b029a4247d90b9a03f154739a4234
:1025780003d10a9b01333ff44faddff86cb14ff044
:10258800ff3a169920460cf0d1fb414620460cf044
:10259800cdfb394620460cf0c9fb294620460cf0f5
:1025a800c5fb13e6baf1000f12d1cbf31303b3b98d
:1025b800b7ee007bb4eec70bf1ee10fab6ee008b67
:1025c80001d420ee088bb1ee487b53ec172babe718
:1025d800baf1010f03d1bbf1000f3ff491ad002216
:1025e800464b9fe7069bb6ee008b20ee088b002b30
:1025f800e9d053ec182b97e70bf1547bb9f1000f96
:10260800bfd12bf000431b0d1b059e42b9d1bdee77
:10261800c80b069bb8eec00b38ee408b2bb9baf14d
:10262800000f02d1cbf31302e2b3b4eec98bf1ee83
:1026380010fa3ff5fbacb4eeca8bf1ee10faa0dd50
:10264800f4e4b9f1000f1dd0b6f1d46f1ad89fed9c
:10265800227bb4eec78bf1ee10fa10d8fceec87be3
:1026680017ee903a002b08bf012307ee903a069b1d
:10267800b8ee678b9bb9b1ee487b53ec172b03f18f
:10268800d6618b1b9ded080b43ec1c2b0bf042fc19
:102698009ded087bacee007b5bec17abaee753ec33
:1026a800182bece7b4eecb8bf1ee10fa7ff569af9f
:1026b800bce400230c93119a159b1360fff78ebaa4
:1026c800652a4ff000013ff4ecab01270b46089751
:1026d800fff700bbaff300800000c0ffffffdf4142
:1026e800ffff0f000000f07fffffef7f0000503971
:1026f8000000f03f0000e07fffff9f7c0000f0bf7c
:020000040000fa
:020000040040ba
:10270800b8c340201c00000000000000bcc24020ec
:102718003800000000000000a0b040204003000086
:1027280000000000fec2402001000000010000007f
:10273800010000002cbe4020140100000000000031
:102748008ca840201400000000000000b0c4402005
:10275800060000000100000000010202040400005d
:102768000000402030000000000000003000402041
:1027780008000000000000003800402008000000a9
:102788000000000070c34020280000000000000086
:102798004000402030000000000000007000402091
:1027a8003000000000000000a000402030000000c1
:1027b80000000000d00040201000000000000000d1
:1027c800ffc240200100000000000000b8c4402003
:1027d800040000000000000064c440201000000055
:1027e800000000005ec04020020000000000000061
:1027f800c0ba40200002000000000000a0b840203d
:102808002002000000000000e000402078010000e5
:1028180000000000a0a84020000800000000000000
:10282800d4c34020180000000100000060024020ce
:10283800a0044020a001410000000000a0024020a8
:1028480000000000ecc3402014000000010000005c
:10285800b8f64000bcf64000c0f64000c8f640009c
:10286800ccf64000600240205c020000000000003e
:1028780000c340203800000000000000e0b3402002
:10288800600200000000000040b640206002000026
:1028980000000000aec4402001000000000000005d
:1028a80038c34020380000000000000040bf40202e
:1028b800a000000000000000dec040200200000070
:1028c800010000000100000074c440201000000056
:1028d8000000000074c24020480000000000000012
:1028e80084c44020100000000000000098c340206d
:1028f800200000000000000024c24020500000001a
:102908000000000094c440201000000000000000f7
:10291800bc0440202c00000000000000bcc4402083
:102928000400000000000000e80440201c00000033
:1029380000000000c0c440200400000001000000a6
:10294800aaaaaaaac4c440200400000000000000eb
:102958008c08402000a0000000000000c8c44020ef
:102968000400000000000000ccc440200400000067
:1029780000000000d0c44020040000000000000057
:10298800d4c44020040000000000000060c14020c2
:102998006400000000000000d8c4402004000000cb
:1029a80000000000dcc4402004000000000000001b
:1029b800e0c440200400000000000000e4c44020ff
:1029c8000400000000000000e8c4402004000000eb
:1029d8000000000000c440201400000000000000b7
:1029e80014c440201400000000000000ecc4402083
:1029f8000400000000000000f0c4402004000000b3
:102a080000000000f4c440200400000000000000a2
:102a1800f8c44020040000000000000028c4402042
:102a28001400000000000000fcc440200400000066
:102a3800000000003cc4402014000000000000001a
:102a480050c44020140000000000000000c54020d1
:102a5800040000000000000004c54020040000003d
:102a680000000000e0bf40207e00000000000000e1
:102a780008c5402004000000000000000cc54020ec
:102a8800040000000000000060c040207e0000003c
:102a980000000000e0c040207e00000000000000b0
:102aa80010c540200400000000000000f4c24020cf
:102ab8000a00000001000000636f6e6669726d65b0
:102ac8006400000014c5402004000000010000005c
:102ad80004000000a4c440200a0000000100000017
:102ae800626f61742073656e640000000405402005
:102af8003800000000000000afc4402001000000c2
:102b08000000000018c5402004000000000000007c
:102b18001cc54020040000000000000020c5402023
:102b2800040000000000000024c54020040000004c
:102b380000000000b6c440200100000000000000b2
:102b480028c5402004000000010000000200000029
:102b58002cc540200400000001000000aa0000006d
:102b68003c054020010000000000000030c5402066
:102b7800040000000000000034c5402004000000ec
:102b88000000000038c540200400000000000000dc
:102b98003cc5402004000000010000000000c040c7
:102ba80040054020d40000000000000040c540203f
:102bb800040000000000000044c54020040000009c
:102bc80000000000b7c44020010000000000000021
:102bd800140640203c0000000000000048c54020ca
:102be800040000000000000050064020c000000063
:102bf800000000005ec1402002000000010000004b
:102c08004200000010074020b8000000000000004b
:102c180060c5402001000000000000004cc54020b5
:102c28000400000000000000c8074020c0000000a9
:102c38000000000061c54020010000000100000004
:102c48000100000050c54020040000000100000001
:102c5800c4c14020c4c14020600000000100000041
:102c6800000000000000000000000000000000005c
:102c7800000000000000000000000000000000004c
:102c8800000000000000000000000000000000003c
:102c9800000000000000000000000000000000002c
:102ca800000000000000000000000000000000001c
:102cb800000000000000000000000000000000000c
:102cc800c0bc40206c01000001000000430000006f
:102cd80000000000000000000000000000000000ec
:102ce8000000000000000000000000004300000099
:102cf80000000000000000000000000000000000cc
:102d08000000000000000000000000004300000078
:102d180000000000000000000000000000000000ab
:102d28000000000000000000000000004300000058
:102d3800000000000000000000000000000000008b
:102d48000000000000000000000000004300000038
:102d5800000000000000000000000000000000006b
:102d68000000000000000000000000004300000018
:102d7800000000000000000000000000000000004b
:102d880000000000000000000000000043000000f8
:102d9800000000000000000000000000000000002b
:102da80000000000000000000000000069fa400078
:102db8003df5400000000000f09140002102410074
:102dc800200241002002410020024100200241006f
:102dd800200241002002410020024100200241005f
:102de80020024100ffffffffffffffffffffffff84
:102df800ffff000001004153434949000000000063
:102e080000000000000000000000000000000000ba
:102e18000000000000004153434949000000000041
:102e2800000000000000000000000000000000009a
:102e3800000000000000000054c54020040000000d
:102e48000000000058c540200400000000000000f9
:102e58008808402004000000000000005cc54020f5
:102e68000400000000000000000000000000000056
:020000040000fa
:020000040040ba
:102e78002de9f04f97b016ad45f8140d0c461646df
:102e88001f4628460af0b8fa0028c0f24883ab4b20
:102e980053f820300bb100221a70a94b13f81050c8
:102ea80003eb400393f80180a64b002c08bf1c4697
:102eb80028460df041f810f0010f01d003232fe34d
:102ec80010f0040f01d00a232ae363681593002b3e
:102ed80049d0159a531eb3f5004f4ed301231593cd
:102ee80094f801b00bf1ff33dbb2022b28bf4ff08f
:102ef800010ba3685a1eb2f5004f41d203f00f022e
:102f0800002a18bf4ff400730093e368b3f1807f81
:102f18003ad85a1e1a40002a0cbf99464ff00009a9
:102f28005fea572a00f00083002e00f0fd82237824
:102f3800019300231493b8f1000f41d0012300221c
:102f48003146284606f054fb002840f0ef8296f8f8
:102f5800ff2196f8fe3143ea02231bb27a4a9342d4
:102f680015d00e23dce215aa032128460bf08efcaf
:102f78000028aed001231593b2e71a42aed1afe7cd
:102f88004ff400730093c0e74ff00009c8e7b8f1a9
:102f9800040f01d90e23c3e206eb081494f8b231ea
:102fa80004f5d774002b00f0c38204f108000cf07c
:102fb8003cfe029004f10c000cf037fe149015e072
:102fc80014aa012128460bf061fc002840f0b282c7
:102fd800019b13f0080f07d1149b3f2b0bd93f3be4
:102fe80014933f23029301e00023029314997f294d
:102ff80004d80e2394e200230293f7e7019a12f013
:103008000203049324d002f00103002b0cbf032316
:1030180002230393cdf820b04fea5923802b28bf11
:1030280080234fea113e009ac2f3161210461092fe
:103038004fea514c159a541e0a94524206920b902c
:103048000c95039dcdf834800e965e460f9796e258
:10305800019b13f0010f08bf132300f061820223c4
:103068000393d7e79946032588e283b9bcf1000f9b
:103078002dd0364a901c4ff002094a46944507d392
:103088004fea490930f8022f002af7d100e09946a3
:10309800b1fbf9f2900000f207204fea5028a2f5a0
:1030a8007f42f63a2a48824200f24682029a02f1a8
:1030b800200708fb06700a9a0244069c2240121a4e
:1030c80000240794202414440594174449e04ff041
:1030d8000109dde79946b1fbf9f240f6f570824245
:1030e80020d90232520002f2ff124fea5228029a05
:1030f800571c08fb0670109a10440a9a8218069cfe
:103108002240121a032d14d0b2fbf6f406fb142445
:1031180004b3013a029ca71c022405941ce04ff05a
:103128000109d8e702eb42020132520803320125b5
:10313800d9e70b9c07940124c5e700bfb8c4402019
:103148008802402030ff400055aaffff20ff4000c2
:10315800fffffe0f01240594b2fbf6f290440b9a90
:103168000792029ac2eb091202449142c0f0e6812a
:10317800059a8c1a06fb1844079aa41ab4fbf9f4aa
:103188004ff6f572944298bf032d0cbf012200221e
:10319800099208d1002b40f0d3815fea590940f029
:1031a800ed810e23bce1022d26d14ff6f572944233
:1031b80012d9002b40f0de814fea4909b9f1400fde
:1031c80040f2dc81049a002a7ff44cafb9f1800ff9
:1031d80040f2d4810e23a3e140f6f572944200f246
:1031e8009480002b40f0ae814fea4909b9f1800f75
:1031f80040f2c4810e2393e12b46039504970c9d5e
:10320800cdf81880ddf834800e9e0f9f012b14bf77
:10321800002301231a46099340f6f5739c4202d90c
:10322800002a40f091814ff40072002130460cf0e2
:103238007dff0b22c84930460cf080fd0023f37255
:103248000223337386f80d90059ab273c2f30723ed
:10325800f37386f810b0039b032b009b08bf002371
:103268007374c3f30723b3741499b1f5803f56d22e
:10327800f174c1f307213175f82373753f23337651
:1032880000237376ff22b276f376029906f11c00ca
:103298000cf02afe039b032b46d10cf080f8014664
:1032a80006f143000cf020fe069906f124000cf00c
:1032b8001bfe022106f12c000cf016fe4ff0010b4c
:1032c80086f830b0002386f83130062286f832209e
:1032d80086f83330802386f84030292386f8423038
:1032e80013229e4906f147000cf028fd552386f865
:1032f800fe31aa2386f8ff315b46029a31462846fa
:1033080006f0f0fab8b301230ae1039504970c9d7f
:10331800cdf81880ddf834800e9e0f9f83e706f104
:1033280020000cf0e1fda7e70cf039f8014606f1a2
:1033380027000cf0d9fd069ab275c2f30723f3757e
:10334800802386f82430292386f8263013228449de
:1033580006f12b000cf0f2fc552386f8fe31aa2367
:1033680086f8ff310123029a3146284606f0bafa58
:10337800b0b30123d4e00123029a0632314628462d
:1033880006f0b0fa4ff40072002130460cf0cefe81
:10339800744930460cf0a8fd734906f5f2700cf03c
:1033a800a3fd611e06f5f4700cf09efd022106f5e2
:1033b800f6700cf099fd552386f8fe31aa2386f89d
:1033c800ff310123029c224607323146284606f087
:1033d80089fa012322461a443146284606f082fa21
:1033e800624a3a40002130460cf0a0fe099b002baf
:1033f8005f4b08bf6ff0070300934ff0000b331dbe
:103408000293089b9b453ad3079b039a032a18bf4c
:103418009946049f4c46d14528bf544623463a4610
:103428003146284606f05efa002840f0918027448d
:10343800b9eb0409eed1039a032a53d0149bb3f5d0
:10344800803f51d2022a0cbf04240124b8f1000f96
:103458004cd0012300223146284606f0c9f800283e
:1034680078d106eb081888f8b241012300223146ca
:10347800284606f037fa002848d0012350e0039b7d
:10348800032b2ad16ff0070130460cf02dfd4ff0c9
:10349800ff3102980cf028fd6ff0704106f108002a
:1034a8000cf022fd069c2746544528bf57463b464c
:1034b800049a3146284606f015fa002846d14ff4fa
:1034c8000072002130460cf031fe049b3b4404930b
:1034d800e41be8d10bf1010b93e7009930460cf09f
:1034e80003fddfe70c24b1e70624afe7019b13f0e7
:1034f800080f0bd1149b12930023139333462246d3
:1035080012a9284603f084fd034648b90022114653
:1035180028460bf0bbf9031c18bf012300e00b235e
:10352800184617b0bde8f08f1123f9e70123f7e734
:103538000e23f5e70123f3e70e23f1e70e23efe768
:103548000e23ede70e23ebe70e23e9e70123e7e778
:103558000123e5e70123e3e700dd40000cdd40003f
:1035680020dd4000525261417272416100feffff4e
:10357800f8ffff00049adab1994603254b46032d5c
:103588003ff473ad002b7ff4a5adbef1000f3ff4ff
:10359800c6ad084a901c4ff0020904229645fff474
:1035a8009aad4fea490930f8022f002af6d192e580
:0835b8000e23b5e710ff4000ef
:020000040000fa
:020000040040ba
:1035c0002de9f04f2ded068badf5137d8b46019364
:1035d000a299cf4b029053f821a0019ba39c013be1
:1035e000d01e18259fedc46b90fbf5f06ff017050a
:1035f00020eae07000fb0555c71a15440aeb030edc
:103600001aae04eb870c002272450fdd0df5d47e57
:103610000026564527dc019a029f32441aa901eb85
:10362000c2029fedb57b4ff0000c16e0d74209d4e3
:103630005cf8221007ee901ab8eee77ba6ec027b4e
:103640000132e1e7b0ee467bf8e7b7ec025b32ed22
:10365000026b0cf1010ca5ee067b9c45f5ddaeec92
:10366000027b0136d5e706aa02eb8a029feda49bf6
:103670009feda5ab049204eb80020392574692aaf9
:1036800007f1005802ebc70208f1ff3812ed280bd2
:103690004feac80892aa02eb080098380022bc1a28
:1036a000002c4cdc2846059306f026f8b0ee408b43
:1036b000b4ee000b28ee000b06f07afbb2ee007bb6
:1036c000a0ee478bfdeec87b002d17ee909a059b70
:1036d000b8eee77b38ee478b46dd781e06aac5f1cb
:1036e000180452f8206046fa04f29144a240b61a37
:1036f00006aa42f82060c5f117021641002e42dded
:10370000002409f1010920466ff07f4ea74275dcc5
:10371000002d05dd012d00f08680022d00f08d804a
:10372000022e30d1b7ee000b30ee488b58b328464e
:10373000059305f0e1ff059b38ee408b23e020ee7a
:10374000097bbdeec77b06acb8eec77ba7ee4a0b84
:10375000bdeec00b10ee101a30ed020b44f8221033
:1037600037ee000b01329ae705d17a1e06a951f80f
:103770002260f615c2e7b6ee007bb4eec78bf1ee21
:1037800010fa39da0026b5ee408bf1ee10fa40f06f
:103790008e807c1e20460022504555da002a64d1d6
:1037a00001246ff0030000fb04f204998a58002af8
:1037b00050d092aa9044019a1aa93a44781ca8f1d0
:1037c000900801ebc2022744b8423ff758af039973
:1037d000029e51f82010059107ee901ab8eee77b93
:1037e0000024a2ec027b9fed447b96469c4233dd95
:1037f000a8ec027b0130e7e7022681e706aa52f82f
:10380000242048b92ab106a9c2f1807241f82420c7
:1038100001220134104679e706a9aeeb020241f815
:1038200024200246f5e77c1e06aa52f82420c2f3a3
:10383000160206a941f8242072e77c1e06aa52f857
:103840002420c2f31502f4e706a951f8201001382c
:103850000a43a1e70134a6e7b6ec025b3eed026b3a
:103860000134a5ee067bc1e7013c06ab183d53f8d9
:103870002430002bf8d02846b7ee000b05f03cffb3
:10388000e3009fed1f6b6aaa0833d0182246002a76
:103890004bda0df5847e00227746a51a64d46aa817
:1038a00000ebc5051b499fed147b002054e06842e6
:1038b000b0ee480b05f020ff9fed136bb4eec60b86
:1038c000f1ee10fa28db9fed0e7b20ee077bbdeebc
:1038d000c77b06aab8eec75ba5ee460bbdeec00bd4
:1038e0007c1c10ee103a42f8273017ee103a1835cb
:1038f00042f82430bfe700bf0000000000000000d5
:10390000000000000000703e000000000000704158
:1039100080ff4000c0e54000bdeec00b06aa10eedf
:10392000103a3c4642f82730a5e706a951f8221084
:10393000019107ee901a013ab8eee77b27ee007b83
:1039400020ee060b20ed027ba1e7b1ec025bb5ecab
:10395000026b0130a5ee067b504501dc9042f4dda0
:10396000aeec027b013298e7a29a032a43d8dfe843
:1039700002f0371d1d0242aa13441a4620460028b1
:1039800056dc1a462046012862dc9fed457b012c5f
:103990006edc002e72d1dde94223cbe90023dde9a4
:1039a0004423cbe902238bed047b24e09fed3c6ba9
:1039b00042aa13442246002a2bda86b3b1ee467b94
:1039c0008bed007b9ded427b44aa012337ee467bc5
:1039d0009c4227da0eb1b1ee477b8bed027b0ae009
:1039e0009fed2f7b42aa1344002c0cda0eb1b1eeee
:1039f000477b8bed007b09f007000df5137dbdecd7
:103a0000068bbde8f08f33ed026b013c37ee067b91
:103a1000eae733ed027b013a36ee076bcbe7b0ee17
:103a2000467bcde7b2ec026b013337ee067bcfe786
:103a300012ed025b12ed047b37ee056b37ee467b31
:103a400037ee057b22ed027b013802ed026b96e733
:103a500012ed025b12ed047b37ee056b37ee467b11
:103a600037ee057b22ed027b013802ed026b8ae71f
:103a700033ed026b013c37ee067b88e797ed006b78
:103a8000b1ee477bb1ee466b8bed006b97ed026bb1
:103a9000b1ee466b8bed026b85e700bfaff30080a4
:083aa00000000000000000001e
:020000040000fa
:020000040040ba
:103aa8002de9f04f8bb08a460290169806939046ff
:103ab80007f0ccfb0368039318460cf07dfa039bd0
:103ac800019003444ff0000b13f8013c0793daf818
:103ad800003002331f4613f8010b30286cd00bf06e
:103ae800f3fa044600286ad1019a039938460bf084
:103af80033fd002866d1019bf85cfe180bf0e4fa50
:103b0800002862d03346187830281f4603f1010395
:103b1800f9d00bf0d9fab0fa80f56d0934464ff0b8
:103b2800010b3a461646013230780bf0cdfa0028e0
:103b3800f8d1019a039930460bf00efd50b954b9eb
:103b4800019bf41822461646013230780bf0bcfa75
:103b58000028f8d10cb1a41ba4003378502b01d055
:103b6800702b40d173782b2b35d02d2b2fd0711c77
:103b78004ff0000908780bf0a7fa431edbb2182ba8
:103b880031d8a0f1100211f8010f0bf09dfa431e75
:103b9800dbb2182b22d9b9f1000f00d052421444dd
:103ba800caf800100db3bbf1000f14bf0027062799
:103bb80038460bb0bde8f08f0bf1010b8ae7002502
:103bc8002c46aee73e460125c7e70446fbe74ff023
:103bd8000109b11ccee74ff00009fae70a2303fbfd
:103be8000202103acfe73146dae7f31b013b2946d8
:103bf800072b49dc029809f00dfa019b00f1140922
:103c08004ff0000bc3f101030546cdf81090da46da
:103c18000893b7423bd3049840f804aba0eb0900e3
:103c280080102861470150460af024fdd8f800604a
:103c38003f1ab74264ddbf1b394628460af0dafa54
:103c4800824678b17b1e591103f01f024ff0010a1a
:103c580059f821100afa02f20a4203d0534546dc09
:103c68004ff0020a3946284609f09af83c44d8f839
:103c780008309c4252dd294602980bf057f8149af6
:103c880000231360a32793e701315b10b0e7731e8d
:103c98000593079a16f8013c934218d0bbf1200f00
:103ca80007d1049bc3f800a004334ff0000a049323
:103cb800d34616f8010c0bf007fa00f00f0000fad3
:103cc8000bf04aea000a0bf1040b059b0de0059b7b
:103cd800089a13449f42e1d81846019a0399099318
:103ce8000bf03afc099b0028d8d11e4691e7b91e73
:103cf80028460af07ffa0028b2d04ff0030ab1e74d
:103d080009daf71b29463a46029807f0f0fce41b4b
:103d1800054600f114094ff0000aa8e7d8f8040096
:103d280084426ada041ba6422edcd8f80c30022b37
:103d380022d0032b24d0012b15d1a64213d1012e5a
:103d48000bdc069ad8f80430136001232b61c9f8fc
:103d58000030149b62271d602ae7711e28460af06e
:103d680049fa0028edd1294602980af0dfff149a93
:103d78000023136050271be7159b002be1d0f2e7c7
:103d8800159b002bddd1eee7671ebaf1000f31d18c
:103d980027b1394628460af02dfa82467a110123be
:103da80007f01f0703fa07f759f8223021461f4288
:103db800284618bf4af0020a361b08f0f1ffd8f867
:103dc80004400227baf1000f45d0d8f80c30022b76
:103dd80015d0032b17d0012b09d11af0020f06d0ea
:103de800d9f800304aea030a1af0010f0ed147f059
:103df800100730e04ff0010ad0e70127e2e7159bf2
:103e0800c3f101031593159b002bf0d0d5f8109042
:103e180005f114034fea890a03eb0a0100201a6826
:103e2800b2f1ff3f1cd001321a60022f05f11403d2
:103e380038d1d8f80020013a96420ad171110122ee
:103e480006f01f0653f8213002fa06f61e4218bf84
:103e5800174647f02007149b1d60069b1c60a7e6c9
:103e680043f8040b9942dad8ab68994512db6968c4
:103e78000298013109f0cef82a69023205f10c01e5
:103e8800834692000c300bf012ff294602980af084
:103e98004dff5d462b695a1c05eb83032a610122fd
:103ea8005a61c2e72a6991450bda0121284608f0d0
:103eb80077ffd8f8083001349c423ff7dcae012781
:103ec800c7e716f01f06fad09a44c6f120065af83a
:0c3ed800040c0af0cffbb042e7dbf0e77f
:020000040000fa
:020000040040ba
:103ee4002de9f04f83b09c4b1e68197d21b93378be
:103ef4004bbb03b0bde8f08f3378002b40f0c28198
:103f040030460022531cdbb29942f2d010f8284ffd
:103f14000cb91a46f6e70232d2b2012a08bf0022cf
:103f24008d490a75ff2be4d003eb8303dc003519bc
:103f34006b79012b09d02b7b042bdad8dfe803f053
:103f44000a1d2e5081000b46eee72b7b042b10d06c
:103f540000232b7395f82030012b00f06e81002391
:103f6400335585f820306b71ab70eb706b702b712f
:103f7400bfe70022784b5a75eae7ab685b6a032116
:103f8400e88898476861b0f1ff3fb2d0ab681b691d
:103f94002a467249984702232b73aae7ab681b6829
:103fa4006869984770b195f820301bb1012385f8f2
:103fb40020309ee7ab685b686869984768620323b2
:103fc4002b73f3e795f82030012b03d0002385f8f9
:103fd40020308ee728460bf06bfc00232b71f5e7ad
:103fe4005d4b5b7d012b84d001225b4b5a756b6a60
:103ff4001b691b68b3f5007f04d24ff40074b4fb53
:10400400f3f400e00124544e4ff4007200213069af
:104014000bf0c4ff022385f8213032696869ab686c
:1040240000949c68002305f11c01a047eb69b3f1df
:10403400ff3f02d004232b735be70022464b5a75e3
:1040440057e795f92130022b06d06bb10022424b81
:104054005a7503232b734ce7ab68db6a002b3ff4e0
:1040640048af2869984744e73b4b1e6900236b70af
:1040740096f8fe31552b0ed0002634464ff0ff083b
:10408400354b5f683b78002b6ad00022324b5a755f
:1040940002232b732de796f8ff31aa2b01d00026bb
:1040a400ebe73378eb2b2bd096f8c2010bf07afabe
:1040b40007460446687096f8d2010bf073fa20b1f3
:1040c40047f0020401376f70e4b296f8e2010bf096
:1040d40069fa28b144f00404e4b26b7801336b70dc
:1040e40096f8f2010bf05efa28b144f00804e4b249
:1040f4006b7801336b70002c40f0c1800126bce763
:104104007378582b18bf3c2b01d0fe2bccd1b3783d
:10411400902bc9d101236b7096f85230462b00f0d6
:10412400908096f85330412b00f0908096f85430ec
:10413400542b00f0908096f83630462b00f0908097
:1041440096f83730412b00f0908096f83830542b95
:1041540000f09080002690e7d4c3402049ea400054
:104164004a4bd3f810a02b7901332b712a7e484b8c
:1041740053f822b058460bf021ff5ffa80f94a4603
:104184005946b81c0af08dffaa7807eb09039a7008
:1041940009f1010357fa83f32a7930329a7009f14d
:1041a400020357fa83f300229a70bd6187f80180f5
:1041b4001cb314f0010f29d01446b8f1ff0f1cd022
:1041c400344b33f814301af803207a705344d97af4
:1041d4009a7a120402eb0162597a02eb0122197aeb
:1041e4000a447a61d9799a79120402eb0162597905
:1041f40002eb01221b7913443b61c6b1264bea78da
:104204001a7001345c7001233b703ee714f0020f16
:1042140001d00124d1e714f0040f01d00224cce72b
:1042240004f00804002c0cbf00240324c5e71a4b37
:10423400ea781a7000225a70e5e728460bf038fb3a
:104244008de6002634464ff00b0819e70026344665
:104254004ff00b0814e7002634464ff00b080fe725
:10426400002634464ff006080ae7002634464ff08d
:10427400060805e7002634464ff0060800e7012645
:10428400b046fde60023014a13754de6d4c3402031
:0c429400ecc34020900241008802402052
:020000040000fa
:020000040040ba
:1042a0002de9f04f87b083468946036802930b7867
:1042b0002f2b0bd05c2b09d0029b9b69836099f854
:1042c00000301f2b10d9dff874a38be12f2b01d006
:1042d0005c2b05d119f8013f2f2bfbd05c2bf9d0bb
:1042e0000023cbf80830eae780238bf82f30002139
:1042f000584606f0cbfc03462ce082b22f2a18bfaa
:104300001f2a2bd95c2a29d07f2a12d9fe2c20d82b
:1043100025f81420013405a80af054ffb0f1ff3f3e
:1043200017d0b0f5803fe8d3030c25f814300134e2
:10433000e3e71046222a00f07c812a230af10d01ce
:10434000984204d011f8013f002bf9d1dee7002b91
:10435000dcd00623184607b0bde8f08f1f2a0fd91e
:10436000059b1a782f2a01d05c2a52d1013305937c
:104370001a782f2afad05c2af8d04ff0000801e012
:104380004ff00408ddf81490012c45d0022c59d0d0
:10439000002c00f04c816ff00043234405eb4302f6
:1043a00035f81330202b01d02e2b08d1013c00f022
:1043b0003e8132f8023d202bf8d02e2bf6d0610042
:1043c000002325f814302b88202b42d12a460026c2
:1043d000013632f8023f202bfad02e2b00d00eb13e
:1043e00048f003088a1eab18aa5a2e2a05d0013cb1
:1043f00003d033f8022d2e2af9d10b2220210bf104
:1044000024000bf097fe08230193002300930393ed
:1044100024e04ff00008b5e72b882e2bbbd10023fa
:1044200025f814300bf123029c428cbf2e21202151
:1044300002f8011f01330b2bf6d148f020088bf84e
:104440002f80b3e06b882e2ba5d12b882e2ba2d1e9
:10445000e5e70026c1e748f003083e46771c35f83b
:104460001600002800f081802028f4d02e2801d1e9
:10447000a742f0d1009b019a93420fd2a7420dd0e0
:104480007f2828d8ff2849d9019a531e00999942bc
:104490003cd348f003083e460092dfe7019b0b2b1c
:1044a0000fd0a74218bf48f00308a7425dd8039b6e
:1044b0009b00dbb2039326460b2301930823009352
:1044c000cce748f003089bf82430e52b54d10523b2
:1044d0008bf824304de048f0020840f2b51109f0a5
:1044e000efff10f0800f03d000f07f00524b185cfc
:1044f000ff28c9d890b948f00308009b5f205a1cd8
:1045000000925b4483f824003e46a7e7009a1346d6
:1045100001335a44010a82f82410f0e72b28ead02c
:104520002c230af1190299b2814219d012f8013fe5
:10453000002bf8d1a0f141039bb2192b03d8039ba8
:1045400043f002030393a0f161039bb2192b0ad835
:10455000039b43f001030393203880b2009bcee716
:10456000002bc8d1e6e7009bc9e79bf82430e52b78
:10457000add0019b082b3cd0039a02f00c030c2b0e
:104580003cd002f00303032b38d018f0020f0bd1fc
:10459000039b13f0010f18bf48f01008039b13f0a2
:1045a000040f18bf48f008088bf82f80584601f018
:1045b00055fd9bf82f20034618bb12f0040f7ff423
:1045c000c9ae9bf8063013f0100f2ed0029800f100
:1045d0004001dbf81430c3f3080319440bf048f82a
:1045e000cbf80800cdf81490dbf80030dd6800242b
:1045f00091e6039b9b00dbb20393bde748f0020802
:10460000c3e7042b7ff4a6ae12f0200f07d012f000
:10461000040fe7d080238bf82f3000239ae602f0b6
:104620000402002a08bf052394e6052392e600232e
:104630002b8006238ee600bff8c24000e0dc40007d
:020000040000fa
:020000040040ba
:104640002de9f04385b00d46164600230b6008f0b7
:10465000d7fe071ec0f25381b84b53f82740002cf9
:1046600000f051812c6006f0fe0623787bb1607863
:1046700001f02cf910f0010f09d1002e00f0458156
:1046800000f0040000280cbf00200a2038e10023bd
:104690002370ab4b13f8170060700bf051fc10f057
:1046a000010f01d003202be126b110f0040f01d03f
:1046b0000a2025e1a24b03eb47077f780021204623
:1046c00005f084fa022801d029d847b3042f01d974
:1046d0000d2015e104f206256e4604f24628284610
:1046e0000bf0a7fa46f8040b1035a845f7d12fb107
:1046f0007d1e0deb85064ff003080ae03d46f8e706
:10470000204605f063fa57b9012808d90135032d71
:1047100005d856f8041b0029f2d14046f3e70428d7
:1047200000f0f580012801d90d20e9e094f84c2033
:1047300094f84b3043ea02231bb2b3f5007f01d05b
:104740000d20dde094f8573094f8567057ea0327af
:1047500004d104f164000bf06cfa0746666b276223
:1047600094f85050a5706b1edbb2012b01d90d20bf
:10477000c6e094f84d901ffa89f36381002b00f096
:10478000c88009f1ff3313ea090f01d00d20b7e00b
:1047900094f8523094f8518048ea0328a4f808802d
:1047a00018f00f0f40f0b78094f8543094f853008d
:1047b00050ea032003d104f160000bf03afa94f8b8
:1047c0004f2094f84e3053ea022300f0a68007fbf6
:1047d00005f203eb181111448842c0f0a080451a7d
:1047e000b5fbf9f5002d00f09c805648854294bf3a
:1047f0004ff003094ff000094ff6f570854298bf5e
:104800004ff0020940f6f570854240f2a980b9f1f7
:10481000000f00f088800235e56166623344a362d0
:1048200031442163b9f1030f40f0a38094f86b2069
:1048300094f86a3053ea022377d1b8f1000f74d1ab
:1048400004f16c000bf0f5f9e062ab0003f2ff132a
:10485000b7eb532f6bd34ff0ff336361236180239a
:10486000237194f8712094f8703043ea02231bb24c
:10487000012b28d1711c20460af062f818bb0023d6
:10488000237194f83f2294f83e3243ea02231bb28c
:104890002d4a934217d104f140000bf0caf92b4b7b
:1048a000984210d104f509700bf0c3f9284b9842d7
:1048b00009d104f50a700bf0bcf9606104f50b70c6
:1048c0000bf0b7f9206184f80090224a1388013375
:1048d0009bb21380e380204be3600023a3611f4b56
:1048e0001b689c4202d100221c4b1a60002007e08a
:1048f00005eb450305f0010505eb530542e00b20f0
:1049000005b0bde8f0830c20fae70020f8e70120ad
:10491000f6e70d20f4e70d20f2e70d20f0e70d207b
:10492000eee70d20ece70d20eae70d20e8e70d208b
:10493000e6e70d20e4e70d20e2e700bfb8c4402021
:1049400088024020f5ffff0f55aaffff5252614138
:10495000727241615ec04020c0ba402064c44020f1
:104960000235e56166623344a3620e4426634ff06c
:104970000109b8f1000fdcd01344e362b9f1020f72
:10498000b6d16d0005f2ff15b7eb552fd3d34ff01d
:0c499000ff33636123618023237194e7ef
:020000040000fa
:020000040040ba
:10499c002de9f04f9fb004460d4690464c22002165
:1049ac000ba80bf0c1fb0b944ff0000b0ae1d046a7
:1049bc0008e16978302947d02d294ad00235de46e6
:1049cc002a294dd0a1f13003dbb2092b46d85c4625
:1049dc0004eb840401eb4404303c15f8011ba1f1f9
:1049ec003003dbb2092bf3d901f0df034c2b03d1dd
:1049fc004ef0040e29780135002900f02b81a1f12d
:104a0c006103dbb2192b32d8a1f12003dbb2a3f185
:104a1c004202162a67d8dfe812f017015d006a001f
:104a2c00660066006600660066006600660066004a
:104a3c0066006600ea006600660066002e006600ee
:104a4c006a00660066002c00a97803354ff0010e51
:104a5c00b6e7a97803354ff0020eb1e75c46c3e721
:104a6c00d8f80040297808f104080135bce70b465a
:104a7c00cde71027bce008f1040ad8f800703978ab
:104a8c00002900f0aa803b465a4600e03246561cec
:104a9c0013f8010f0028f9d11ef0020f00f0bc80b2
:104aac000ba809f0a7fd17f8011f0029f8d1771cf6
:104abc00b4427ff67caf0134202631460ba809f0b6
:104acc0099fd0137bc42f8d1d0467be05e4601230c
:104adc000193a5e008f1040498f800100ba809f064
:104aec0089fda0466ee00ba809f084fd6ae01ef07b
:104afc00040f07d1442b14d1d8f8002008f1040876
:104b0c000a2706e00a2700e00227d8f8002008f15f
:104b1c000408442b73d1002a71da52424ef0080e6d
:104b2c006de00a2767e00cf10106303300f8013f15
:104b3c0069b11f2e0bd8b446b2fbf7f107fb11235a
:104b4c00dbb20a46092beed94b44dbb2ebe71ef085
:104b5c00080f06d01eab1e442d2306f86c3c0cf13e
:104b6c0002060ef00103002b14bf302720271ef085
:104b7c00020f10d106f10109a6420dd204f1010a6f
:104b8c0039460ba809f036fd09f10109ca45f7d1e0
:104b9c0004f1010900e0b14603ab1e449a4616f835
:104bac00011d0ba809f026fdb245f8d109f101064b
:104bbc004c4507d9013439460ba809f01bfd0136c9
:104bcc00a642f8d12978002944d025293ff4f1ae2a
:104bdc0001350ba809f00efdf4e71ef0020f04d10d
:104bec00002c7ff473af012661e75e465fe7082770
:104bfc001ef0040f89d1d8f8002008f10408782998
:104c0c000cbf4ff027094ff007090df10b00dc46e4
:104c1c0092e73978019e43e7931c0193b442f8d98b
:104c2c0004f10109ddf8048020210ba809f0e2fc55
:104c3c0008f10108c845f7d1019b9e1b2644397821
:104c4c0000297ff42daf32e71ef0040f7ff45caf28
:104c5c000227d0e70ba809f0c1fd1fb0bde8f08f0b
:020000040000fa
:020000040040ba
:104c6c002de9f04f099f15469c4604468846002bbb
:104c7c0040f0cd808a424cd9b2fa82febef1000fd0
:104c8c000bd0cef1200802fa0ef520fa08f801fa42
:104c9c000ef248ea020800fa0ef44fea1549abb2dc
:104cac00b8fbf9fa260c09fb1a820afb03fb46ea4d
:104cbc00024293451ed952190af1ff3004d2934592
:104ccc0002d9aaf102002a44a2eb0b02a4b2b2fb55
:104cdc00f9f609fb162206fb03f144ea024399425a
:104cec000ad95b1906f1ff3207d2994205d9b21ed7
:104cfc002b4402e05046e7e732465b1a42ea00409a
:104d0c0027b123fa0ef33b6000237b606146bde8bc
:104d1c00f08f12b90125b5fbf2f5b5fa85febef19f
:104d2c00000f2ed14a1b4ff0010c2e0cabb2b2fb74
:104d3c00f6f8210c06fb182208fb03f941ea0242a3
:104d4c00914560d9521908f1ff3004d2914502d92e
:104d5c00a8f102002a44a2eb0902a4b2b2fbf6f8b5
:104d6c0006fb182208fb03f144ea024399424cd992
:104d7c005b1908f1ff32c0d29942bed9a8f10202e8
:104d8c00b6e7cef1200421fa04fc01fa0ef220fa67
:104d9c0004f405fa0ef544ea02064fea154800fa47
:104dac000ef4bcfbf8f1aab208fb11cc300c01fbe1
:104dbc0002f940ea0c43994521d95b1901f1ff3006
:104dcc0003d2994501d9881e2b44a3eb0903b6b233
:104ddc00b3fbf8f908fb193309fb02f146ea03426d
:104dec0091420ed9521909f1ff3c04d2914202d9d9
:104dfc00a9f1020c2a44521a4cea004c95e70846d9
:104e0c00e3e7cc46f7e74046a5e7424675e78b4219
:104e1c0006d90fb187e803004ff0000c604675e728
:104e2c00b3fa83f68eb98b4201d382420bd8841a23
:104e3c0061eb030201209046002f6bd087e8100134
:104e4c004ff0000c62e73046f6e7c6f1200eb34097
:104e5c0022fa0ef51d4321fa0efb02fa06f401fab2
:104e6c0006f220fa0ef10a434fea15491ffa85f8ab
:104e7c00bbfbf9fa4fea124c09fb1abb0afb08f10f
:104e8c004cea0b4c614500fa06f33fd91ceb050cc0
:104e9c000af1ff3004d2614502d9aaf10200ac44f8
:104eac00aceb010c92b2bcfbf9fa09fb1acc0afb75
:104ebc0008f842ea0c4188452ad949190af1ff320f
:104ecc0004d2884502d9aaf10202294442ea0040e0
:104edc00a1eb0801a0fb04894945c246cc4602d38c
:104eec0006d1434504d2b8eb040a69eb050c013832
:104efc0087b1b3eb0a0261eb0c0303fa0efef2402e
:104f0c004eea0202f34087e80c0099e75046c7e7e7
:084f1c005246dbe7bc46f9e652
:020000040000fa
:020000040040ba
:104f24002de9f04f8bb090f82f3013f0a00f04d080
:104f3400062738460bb0bde8f08f0668f3681a8878
:104f440012b34ff0000a0af1010a33f8022f002ac3
:104f5400f9d1054600f124040c22214607a80af0e1
:104f6400effe9df8273013f0010f7bd0402385f826
:104f74002f300b2207a920460af0e2fe4ff0010968
:104f84004b46dff8448203e04ff0000ae1e74b466a
:104f94000df11b07072203f00f0000f1300139293e
:104fa40088bf00f13701013a07f801191b09f2d152
:104fb4007e200aa9114401f8140c62b195f824105a
:104fc40020290bd0214601339a4206d011f8010f53
:104fd4002028f8d102e0134600e0134623442020a1
:104fe40005e0014603f8011b191b072907d8072a06
:104ff400f7d80aa9114411f8141c0132f2e7284623
:1050040001f02af8074618bb09f10109b9f1640f48
:105014001cd0f7680b2207a920460af091feb9f1cb
:10502400050fb4d9023f4b4637f8022f002aafd000
:10503400102102f0010000eb4303520813f4803ff7
:1050440018bf83ea08030139f3d1ede7072770e7b6
:10505400b9f1640f74d004287ff46baf9df8273046
:1050640085f82f309df8273013f0020f00f085806b
:105074000af10c03524aa2fb03234fea930a0af1f2
:105084000101284608f000fe074600287ff451afce
:10509400baf1000f79d06969a1eb4a11284605f0ed
:1050a400f3fd074600287ff444af20460af09afb3c
:1050b400019000230293039419e0384649e04ff627
:1050c400ff72934202d03cf810300bb948f040080c
:1050d40081f800800123f3700021284605f036f89a
:1050e400074600287ff425afbaf1010a26d0e96902
:1050f400304609f023fc074600287ff41aafd6f89f
:105104000cc0296a5ffa8af89df804304b734ff09b
:105114000f03cb724ff000030b738b76cb7608f141
:10512400ff3000eb400300eb8300264a02f10d0e32
:10513400029b4ff6ff744ff0ff090de0039c24e03f
:105144000727f6e6177801eb070b01f807908bf8b1
:10515400019001329645b2d0a342f3d0471c3cf8eb
:105164001030107801eb000b0b54180a8bf8010077
:10517400002ba2d138462346ebe70121284608f04c
:1051840083fd074600287ff4d4aee969304609f070
:10519400d5fb074600287ff4ccae20220021286ae4
:1051a4000af0c6ff0b222146286a0af0c9fd2a6ac2
:1051b40095f82f3003f0180313730123f370b8e646
:0c51c4004fecc44e00ff40002110010021
:020000040000fa
:020000040040ba
:1051d0002de9f04391b00191002800f002810446ce
:1051e000154602f03f073a4602a901a8fff728fa40
:1051f000064610b100232360f4e0029b039301995b
:1052000003a8fff74df80346002840f0ef809df912
:105210003b30002bc0f2f38037f0010314bf0121b3
:10522000002103a808f0aafb034615f01c0f00f0ac
:10523000a68050b99df8123013f0110f40f0018193
:1052400015f0040f07d00826fce0042b4cd047f0e3
:105250000807002b52d117f0080f51d117f0080f93
:1052600001d047f04007029b5b6b63620b9ba3621c
:1052700037f0010314bf0121002103a807f064fbec
:105280002061002800f0ab80029dddf82c804146b3
:1052900028460af0edf9a06008f11c000af0c9fcec
:1052a000e0602560eb88a38027750021617521628d
:1052b000a16104f140084ff4007240460af03aff41
:1052c00017f0200f00f08e80e568002d00f08a8036
:1052d000a561029bb3f80a904fea4929a1684d45a0
:1052e00040f2928037465ce05a4b1b680bb11223a8
:1052f00098e003a8fff716fe0346a8e71e4679e7e5
:105300000af051f8054601460b980e300af0f0fd00
:1053100029460b9816300af0ebfd029dddf82c8033
:10532000414628460af0a4f98146202388f80b302c
:1053300000220b9928460af063fb00210b981c30d1
:105340000af0d6fd0122029bda70b9f1000f88d075
:10535000029b5d6b0022494603a806f003fe08b1dc
:10536000064647e72946029809f0eafa09f1ff33b1
:10537000029a136100283ff474af06463ae700280a
:1053800063d19df8123013f0100f60d115f0020fa9
:105390003ff464af13f0010f3ff460af072629e735
:1053a0001f46204605f086f80146012841d93b46b4
:1053b000b0f1ff3f40d0a5eb09050fb9a945efd3e8
:1053c000e16117b33e4615e700eb55222262012347
:1053d0004146787804f010f920b101260ae7022648
:1053e00008e70926304611b0bde8f08315f01c0f20
:1053f0007ff42baf002b3ff447af1e46fae615f0c3
:105400001c0f0ed10623f5e7e161c5f30803002b5d
:10541000e8d0029f38460af071fb0028d4d102265a
:10542000e8e6062347f00807e4e7a5eb09050227ad
:10543000c6e7b0f1ff3ff8d14ff0ff33e36101263b
:10544000d8e60726002ecdd0d4e60646d2e60426be
:08545000d0e600bf64c4402057
:020000040000fa
:020000040040ba
:10545800f0b5b0ee407b17ee905a974b25f000461a
:105468009e4289b0044607dc0022002384ed000b2d
:10547800c0e9022300201be0904b9e423bdca3f5d1
:105488001b23002d9fed7c6ba3f5f06319dd30ee37
:10549800467b9e420ed09fed7a6b37ee465b37ee29
:1054a800457b84ed005b37ee467b84ed027b012073
:1054b80009b0f0bd9fed746b37ee467b9fed746bc2
:1054c800ebe79e4230ee067b0ed09fed6d6b37ee1c
:1054d800065b37ee457b84ed005b37ee067b4ff0cd
:1054e800ff3084ed027be3e79fed676b37ee067bc9
:1054f8009fed676bebe7724b9e426edc0af072fd24
:10550800b6ee007b9fed646ba0ee067bfdeec77bdd
:10551800b8eee74b17ee900ab1ee445b9fed567b71
:10552800a5ee070b9fed567b1f2824ee077b30ee78
:10553800476b1bdc421e634b53f822309e4215d04a
:1055480084ed006b94ed006b002d30ee460b30eed1
:10555800477b84ed027babdab1ee466b84ed006be2
:10556800b1ee477b404284ed027ba1e716ee903a0c
:105578003615c3f30a53f31a102b84ed006be1dde3
:10558800b0ee406b9fed403ba5ee036b30ee467be3
:10559800a5ee037b9fed3e3b94ee037b36ee473b47
:1055a80013ee903ac3f30a53f61a312e84ed003bfa
:1055b80010ddb0ee460b9fed3a3ba5ee030b36ee41
:1055c800407b9fed396ba5ee037b94ee067b30eeb6
:1055d800476bb5e7b0ee460bb4e73b4b9e4206dda2
:1055e80030ee407b80ed027b80ed007b42e710eee1
:1055f800103a3215a2f216421846a6eb025141ecb7
:10560800170bbdeec76b9fed2a5bb8eec66b37ee86
:10561800467b8ded026b27ee057bbdeec76b08a9b7
:10562800b8eec66b37ee467b8ded046b27ee057b37
:105638008ded067b032331ed027bb5ee407bf1ee69
:1056480010fa03f1ff3013d0204901910221009193
:1056580002a82146fdf7b0ff002dbff629af94ed53
:10566800007bb1ee477b84ed007b94ed027b77e70e
:105678000346e0e7aff3008000004054fb21f93f08
:105688003163621a61b4d03d0000601a61b4d03d44
:105698007370032e8a19a33b83c8c96d305fe43f3a
:1056a8000000002e8a19a33bc14920259a837b3923
:1056b8000000000000007041fb21e93f7bd9024057
:1056c800fb213941f8c44000ffffef7fe89040001c
:020000040000fa
:020000040040ba
:1056d80061001a03e0001703f8000703ff00010048
:1056e80078010001300132010601390110014a0137
:1056f8002e017901060180014d00430281018201da
:1057080082018401840186018701870189018a0158
:105718008b018b018d018e018f0190019101910107
:1057280093019401f60196019701980198013d02b1
:105738009b019c019d0120029f01a001a001a201e3
:10574800a201a401a401a601a701a701a901aa0118
:10575800ab01ac01ac01ae01af01af01b101b201c7
:10576800b301b301b501b501b701b801b801ba0178
:10577800bb01bc01bc01be01f701c001c101c201ee
:10578800c301c401c501c401c701c801c701ca01d9
:10579800cb01ca01cd011001dd0101008e01de013e
:1057a8001201f3010300f101f401f401f8012801e9
:1057b800220212013a020900652c3b023b023d021b
:1057c800662c3f0240024102410246020a0153028e
:1057d800400081018601550289018a0158028f0122
:1057e8005a0290015c025d025e025f02930161024f
:1057f80062029401640265026602670297019601db
:105808006a02622c6c026d026e029c0170027102c7
:105818009d01730274029f01760277027802790271
:105828007a027b027c02642c7e027f02a60181023e
:105838008202a9018402850286028702ae0144021f
:10584800b101b20145028d028e028f0290029102cf
:10585800b7017b030300fd03fe03ff03ac03040051
:105868008603880389038a03b1031103c203020074
:10587800a303a303c4030803cc0303008c038e0310
:105888008f03d8031801f2030a00f903f303f403a2
:10589800f503f603f703f703f903fa03fa033004f1
:1058a800200350041007600422018a043601c10451
:1058b8000e01cf040100c004d00444016105260490
:0458c800000000bf1d
:020000040000fa
:020000040040ba
:0458cc000020704701
:020000040000fa
:020000040040ba
:1058d00038b5b0ee407b17ee905a714b25f000447e
:1058e0009c4214dd6f4a944210ee103a01dc05d15f
:1058f00023b137ee077bb0ee470b38bd9fed4c7bf5
:105900009fed4d6b002dc8bfb0ee467bf3e7664bb5
:105910009c4211dca3f1de739c420adcb7ee005b13
:105920009fed476b30ee066bb4eec56bf1ee10faef
:10593000e1dc4ff0ff3313e00af058fb5b4b9c4275
:105940004ddca3f550239c423fdcb0ee007bbfee64
:10595000006b0023a0ee076b30ee070b86ee007b9a
:105960009fed395b27ee074b24ee046b9fed383b30
:10597000a6ee053b9fed385ba6ee035b9fed383b43
:10598000a6ee053b9fed385ba6ee035b9fed383b33
:105990009fed392ba6ee053b9fed395ba6ee052b5f
:1059a0009fed395ba6ee025b9fed392ba6ee052b32
:1059b0009fed395b5a1ca6ee025b25ee066b03eeeb
:1059c000046b21d1a7ee467b95e7b7ee007b012360
