:020000040000fa
:020000040040ba
:10000000f0ff4520e58440008f9d400017a340008d
:10001000a7ba40004bbf4000dbce4000000000000c
:10002000000000000000000000000000c1104100be
:10003000ffb340000000000081e84000710841006b
:100040005380400053804000538040005380400064
:100050005380400053804000538040005380400054
:100060005380400000000000951b4100a51b41008b
:100070005380400071954000459440009d9640009b
:10008000b51b410053804000919d4000f579400030
:100090005380400053804000538040005380400014
:1000a0005380400053804000538040005380400004
:1000b000538040005380400053804000cd154100e4
:1000c00053804000538040005380400053804000e4
:1000d00053804000538040005380400053804000d4
:1000e00053804000538040005380400053804000c4
:1000f00053804000538040005380400053804000b4
:100100005380400053804000311041005380400034
:1001100053804000000000000000000000000000cc
:100120005380400053804000d1e4400053804000a1
:100130005380400053804000538040005380400073
:100140005380400053804000538040005380400063
:100150005380400053804000538040005380400053
:08016000538040005380400071
:020000040000fa
:020000040040ba
:10016800f8b500bff8bc08bc9e467047b9fc400013
:10017800f8b500bff8bc08bc9e46704795fc400027
:020000040000fa
:020000040040ba
:08018800b86200000100000054
:020000040000fa
:020000040040ba
:100190002de9f04784b00746002303934ff45074d1
:1001a00004fb00f4b84d2e1904f54b731d444ff6b3
:1001b000ff71284611f0bff9d6f8cc8296f8df32ed
:1001c000102b01f22c83dfe813f01f0050006200b7
:1001d0009700e108390a730ab00add0a140b640bb0
:1001e000990bc60bf70b170c5d0c1100d6f8cc421f
:1001f000002c01f09f84a44b4ff4507808fb073883
:100200004ff0010901f084bc9f4a4ff4507303fb87
:1002100007239b789bb94ff4507303fb07239b681c
:100220009b6b9847002801f0fa82974b4ff450706f
:1002300000fb0730012380f8df3201f0f0ba924e64
:1002400004f12001314438460ef044fc4ff4507064
:1002500000fb0767bb685b6898478c4bc7f8b432f4
:10026000032387f8df3201f0daba89492144fa2002
:100270000ff058fa002841f0d282834b4ff45070af
:1002800000fb0730022380f8df3201f0c8ba7e4a53
:100290004ff4507303fb0723d3f8e80211f0acfad4
:1002a000002801f0bc82784a4ff4507303fb072307
:1002b0009b689b6b984748b9734b4ff4507000fb99
:1002c0000730002380f8df3201f0a9ba6e4e04f146
:1002d0002001314438460ef0fdfb4ff4507303fb10
:1002e0000767bb685b689847684bc7f8b43203235d
:1002f00087f8df3201f093ba00230293624a4ff489
:10030000507303fb072393f8e032212b00f2d887c8
:10031000dfe813f022005d007d009300c000ea00da
:10032000600189018302c4025f0324054e057e0536
:1003300014042e0463048a04af04df04a405f50545
:100340003e066306aa060a075b077e07ac07c907d5
:10035000c907f7016e0218034b4a4ff4507303fbb1
:100360000723d3f8b422494b9a4215d0464a4ff49a
:10037000507303fb07239b689b68444898470028f9
:1003800000f04286404a4ff4507303fb07233f4a74
:10039000c3f8b42200f038be3b4a4ff4507303fb5d
:1003a00007239b78012b09d0374a4ff4507303fb86
:1003b0000723032283f8e02200f026be03f23f3336
:1003c00003fb0723012283f8e02200f01dbe2e4923
:1003d00004f53a724ff4507303fb07131144586845
:1003e0000ff0a0f948b9284a4ff4507303fb0723d4
:1003f000022283f8e02200f007be234a4ff4507334
:1004000003fb07231e2283f8e02200f0fdbd1e4af5
:100410004ff4507303fb0723d3f8e80211f0ecf913
:10042000002800f0f185184a4ff4507303fb0723ae
:10043000032283f8e02200f0e7bddff84c8004f2ed
:10044000e3234344009300231a461946304609f03b
:1004500051fa4ff4507303fb078393f8e232032bf6
:1004600040f0d28508f53a71214402200ff05af984
:10047000002840f0c9854ff4507303fb0783042222
:1004800083f8e02200f0c0bde0b04020801a0600f2
:10049000c8b34020d44a4ff4507303fb0723d3f86a
:1004a000e80211f0a9f9002800f0ae85ce4a4ff419
:1004b000507303fb072393f8f03243b903f55073ed
:1004c00003fb0723052283f8e02200f09dbdc64a06
:1004d0004ff4507303fb07231f2283f8e0221422fa
:1004e000a3f8fc2200f090bddff8fc8204f2e323c5
:1004f0004344009308234ff4d5721946304609f05f
:10050000f9f94ff4507303fb078393f8e232032b9e
:1005100040f07a8503f23d3303fb0783062183f81d
:10052000e012072183f8e112002183f8a51204f5f7
:100530003b7141444ff4fa600ff0f4f8012820d0e9
:10054000a94a4ff4507303fb072393f8dd325bbbda
:1005500003f5507303fb07239b681b6a02a9002065
:100560009847029bc3f30803b3f5d57f12d09e4a88
:100570004ff4507303fb07231e2283f8e02200f0a0
:1005800043bd4ff4507303fb07831e2283f8e02220
:1005900000f03abd944a03f5cb7303fb0723012215
:1005a00083f8ac2200f030bd022b09d08e4a4ff404
:1005b000507303fb07231e2283f8e02200f024bdc2
:1005c000894a03f23e3303fb0723002283f8ac225f
:1005d00000f01abd844b4ff4507808fb0738b8f888
:1005e000a22204f2e3210b440093012312043721d9
:1005f000304609f07ff998f8e232032b40f0048589
:1006000098f8dd322bb998f8e12288f8e02200f062
:10061000fbbc754a4ff4507303fb07231e2283f87b
:10062000e02200f0f1bc704b4ff4507808fb073823
:1006300098f8ac1298f8a522120404f2e3200344bf
:100640000093042342ea81722921304609f052f9cd
:1006500098f8e232032b40f0d784d8f8ec0211f07e
:10066000cbf820b11e2288f8e02200f0cdbc5e4a13
:100670004ff4507303fb072393f8dd32bbbb03f544
:10068000507303fb07239b681b6a02a9002098474d
:10069000029b13f4701f09d1534a4ff4507303fbac
:1006a00007231e2283f8e02200f0aebc002b0cdbf7
:1006b0004d4a4ff4507303fb07233c2283f8a522d5
:1006c000062283f8e02200f09fbc474a4ff45076a0
:1006d00006fb0726c3f3807386f8a632d6f8ec0231
:1006e0000ff0f0fd082386f8e03200f08dbc3e4aa2
:1006f0004ff4507303fb07231e2283f8e02200f01f
:1007000083bcdff8e48004f2e32343440093042332
:10071000364a0121304609f0edf84ff4507303fbdf
:10072000078393f8e232032b40f06e8403f23d33eb
:1007300003fb078393f8dd32002b4ad103f5507396
:1007400003fb07839b681b6a02a900209847029b52
:10075000002b11db244a4ff4507303fb0723b3f83b
:10076000fc32dbb9204a4ff4507303fb07231e22ef
:1007700083f8e02200f048bc4ff4507202fb07827d
:1007800003f0c043b3f1804f14bf0023012382f86c
:10079000a632082382f8e03200f036bc11464ff44e
:1007a000507202fb0712013ba2f8fc3204f53a73c7
:1007b000194432200ef0b6ff002840f025840a4a82
:1007c0004ff4507303fb0723202283f8e02200f04c
:1007d0001bbc054a4ff4507303fb07231e2283f80a
:1007e000e02200f011bc00bfe0b040200000384023
:1007f000ce4a4ff4507303fb0723d3f8e80210f0fe
:10080000fbff002800f00084c84a4ff4507303fb3c
:1008100007231f2283f8e022f6e3dff8108304f2b7
:10082000e32343440093032300220221304609f0ce
:1008300061f84ff4507303fb078393f8e232032b04
:1008400040f0e28303f23d3303fb078393f8dd328c
:10085000dbb9414604f120034ff4507606fb0786ce
:10086000b268126a19440420904796f8f0321bb916
:10087000092286f8e022c7e3ac4a4ff4507303fb29
:100880000723212283f8e022bee3a84a4ff45073e5
:1008900003fb07231e2283f8e022b5e3dff88c82f6
:1008a00004f2e3234344009307230022032130464c
:1008b00009f020f84ff4507303fb078393f8e232fa
:1008c000032b40f0a18303f23d3303fb078393f82e
:1008d000dd3273bb03f5507303fb07839b681b6a10
:1008e00002a900209847029b13f4604f07d04ff4f1
:1008f000507303fb07831e2283f8e02284e31b0c62
:100900008a494ff4507202fb0712a2f8a2323bb997
:1009100003f5507303fb0713092283f8e02273e306
:10092000824a4ff4507303fb07230a2283f8e02224
:100930006ae37e4a4ff4507303fb07231e2283f8b9
:10094000e02261e3dff8e48104f2e323434400930f
:1009500001234ff400320321304608f0cbff4ff45f
:10096000507303fb078393f8e232032b40f04c8370
:1009700003f23d3303fb078393f8dd3203bb03f53a
:10098000507303fb07839b681b6a02a900209847ea
:10099000029b13f4590f07d04ff4507303fb0783e6
:1009a0001e2283f8e0222fe3604a4ff4507303fbca
:1009b00007230222a3f8a2220a2283f8e02223e3db
:1009c0005a4a4ff4507303fb07231e2283f8e02298
:1009d0001ae3564b4ff4507808fb0738b8f8a222b8
:1009e00004f2e3210b44009303231204092130464f
:1009f00008f080ff98f8e232032b40f005834b4a61
:100a000098f8dd32002b40f0888004f1300616445f
:100a10004ff4507808fb0728d8f808301b6a314695
:100a20000420984798f8f032002b3bd1404ac8f890
:100a3000b822b37b9b09012b26d0337a9b0203f4a7
:100a400040607279520002f00602384b4ff4507148
:100a500001fb073196f807c0b3799b0943ea8c0381
:100a600003430133307942ead01202329340727a62
:100a700002f00f02a2f109000122824092b202fbb1
:100a800003f3c1f8a8323fe0f3791b0403f47c12ae
:100a9000b079737943ea0023134301339b02c8f80a
:100aa000a83231e0f37a214a4ff4507101fb07215b
:100ab000c3f3c20003f007031e4a52f820201e4869
:100ac00050f8233003fb02f30a22b3fbf2f3c1f820
:100ad000b832f279b3799b0943ea8203327a9202ff
:100ae00002f44062134301337279520002f00602ad
:100af000307942ead01202329340727a02f00f0249
:100b000093405b0ac1f8a832084a4ff4507303fbc4
:100b100007230e2283f8e02276e2044a4ff4507352
:100b200003fb07231e2283f8e0226de2e0b04020a1
:100b300040787d0114fd4000f8124100c64a4ff490
:100b4000507303fb07239a689268d3f8b802904762
:100b5000002800f05982c04a4ff4507303fb07236a
:100b6000d3f8b822c3f8b4220f2283f8e0224be274
:100b7000b94b4ff4507808fb0738b8f8a22204f2ba
:100b8000e3210b440093022312040721304608f0ae
:100b9000b1fe98f8e232032b40f0368298f8dd324d
:100ba00093b998f8f03233b9062288f8e02210227f
:100bb00088f8e12228e2a84a4ff4507303fb072388
:100bc0000b2283f8e0221fe2a34a4ff4507303fb89
:100bd00007231e2283f8e02216e29f4a4ff4507347
:100be00003fb07239b681b6a02a900209847029b0e
:100bf00013f0007f0bd0984a4ff4507303fb072388
:100c0000012283f8ae221d2283f8e022fce113f4d6
:100c1000006f914a4ff4507303fb072314bf112256
:100c20001e2283f8e022efe18b4e4ff4507808fb50
:100c30000768d8f808309b6a082098474ff00109e8
:100c400088f8e39288f8e492002388f8e53204f10a
:100c500040031e44202130460ff0c8fbd8f808306e
:100c60005b6b4a46082130469847122388f8e032e9
:100c7000cae1dff8e48104f2e32343440093012353
:100c800000223321304608f035fe4ff4507303fb49
:100c9000078393f8e232032b40f0b68103f23d3331
:100ca00003fb0783002283f8e32293f8dd323bb98c
:100cb00003f5507303fb0783132283f8e022a3e1bb
:100cc000654a4ff4507303fb07231e2283f8e0228a
:100cd0009ae1614a4ff4507303fb072393f8af3254
:100ce000002b00f091814ff4507303fb0723b3f8fe
:100cf000b23223f4fb4323f00f031b041b0c3bb164
:100d00004ff4507303fb07231e2283f8e0227be19c
:100d1000514a4ff4507303fb072393f8413013f00b
:100d2000040f07d04ff4507303fb072393f8f232fc
:100d3000012b08d0484a4ff4507303fb07231522b8
:100d400083f8e02260e103f23f3303fb072306222e
:100d500083f8e022142283f8e12255e1dff8f880dd
:100d60004ff4507606fb07864ff0010986f8e392b0
:100d700086f8e492002086f8e502b3685b6a98473b
:100d8000b3689b6a4ff40070984704f1a00398443d
:100d90004ff4007140460ff029fbb3685b6b4a4685
:100da0004ff40071404698470c2386f8e0322be15f
:100db000dff8a48004f2e3234344009301230022dc
:100dc0000821304608f096fd4ff4507303fb07836b
:100dd00093f8e232032b40f0178103f23d3303fb1b
:100de0000783002283f8e32293f8dd323bb903f551
:100df000507303fb07830d2283f8e02204e1164ab7
:100e00004ff4507303fb07231e2283f8e022fbe01c
:100e1000114a4ff4507303fb072393f8af32002bb2
:100e200000f0f28013464ff4507202fb073292f842
:100e3000771192f876311b0443ea016392f874113a
:100e40000b4392f8751143ea0123c2f8a832142328
:100e500082f8e032d8e000bfe0b04020d14a4ff441
:100e6000507303fb072393f8f0325bbb02f2e323da
:100e700023440093012302220621304608f03afd64
:100e8000c84a4ff4507303fb072393f8e232032b55
:100e900040f0ba8003f23d3303fb072393f8dd32c1
:100ea00023bb4ff4507606fb0726b368db6a96f83f
:100eb000f202984796f8f23286f8a132152386f8a6
:100ec000e032a1e0b74b4ff4507202fb073292f8c8
:100ed000f21204f2e322134400930223b24a42eadc
:100ee00001220621304608f005fdc9e7ad4a4ff45e
:100ef000507303fb07231e2283f8e02284e0a94af3
:100f00004ff4507303fb072393f8f03223bb03f530
:100f1000507303fb072393f8403013f00f0f07d0f3
:100f20004ff4507303fb072393f8f132012b08d0e1
:100f30009c4a4ff4507303fb07231b2283f8e022e3
:100f400062e003f23f3303fb0723002283f8a4226d
:100f5000162283f8e02257e0012be9d1914a03f2ef
:100f60003f3303fb072393f8643113f0010fdfd005
:100f70004ff4507303fb072393f8f132012bd7d1c1
:100f800003f23f3303fb0723192283f8e0223be0ff
:100f9000dff810924ff4507808fb0798d8f8083023
:100fa0009b6a402098474ff0010a88f8e3a288f82e
:100fb000e4a2002388f8e53204f16003994440215b
:100fc00048460ff013fad8f808305b6b52464021c0
:100fd00048469847172388f8e032724b4ff4507810
:100fe00008fb073898f8a41204f2e3221344009394
:100ff00001236e4a42eac1720621304608f07afcab
:1010000098f8e232032b1cd0664a4ff4507303fb6e
:10101000072393f8e0321d2b00f05b811e2b40f07c
:10102000fe83604a4ff4507303fb07239b78012b28
:1010300040f0f58302f12001214438460df04afdcd
:10104000ede3002288f8e32298f8dd321bb918227c
:1010500088f8e022d8e7534a4ff4507303fb072384
:101060001e2283f8e022cfe74e4a4ff4507303fb71
:10107000072393f8af32002bc6d04ff4507303fb15
:101080000723b3f8b23223f4fb4323f00f031b040e
:101090001b0c3bb14ff4507303fb07231e2283f854
:1010a000e022b1e73f4a4ff4507303fb072393f864
:1010b000a432012b14d03b4a4ff4507303fb072397
:1010c00093f86d3013f0020f25d04ff4507303fbeb
:1010d0000723012283f8a422162283f8e02293e753
:1010e00003f23f3303fb072393f8703003f00f0341
:1010f000012b08d02b4a4ff4507303fb07231d220a
:1011000083f8e02280e703f23f3303fb07231a2230
:1011100083f8e02278e7234a4ff4507303fb072358
:101120001d2283f8e0226fe7dff8788004f2e323e2
:101130004344009302231e4a0621304608f0dafb9e
:101140004ff4507303fb078393f8e232032b7ff4d1
:101150005baf03f23d3303fb078393f8dd325bbbe8
:1011600003f5507303fb07839b689b6811489847fe
:1011700070b14ff4507606fb07860e4bc6f8b432ba
:10118000b3681b6b012098471b2386f8e0323be7ce
:10119000044a4ff4507303fb07231e2283f8e02216
:1011a00032e700bfe0b040200100b70301ffff00bd
:1011b0000101b90300751903c24a4ff4507303fbd0
:1011c00007231e2283f8e0221ee7be4a4ff4507325
:1011d00003fb07239b689b68bb48984778b1b94bd2
:1011e0004ff4507606fb0736b74bc6f8b432b368f7
:1011f0001b6b012098471b2386f8e03204e7b14ab5
:101200004ff4507303fb07231e2283f8e022fbe612
:10121000dff8b08204f2e3234344009301234ff448
:1012200000721021304608f065fb4ff4507303fb49
:10123000078393f8e232032b7ff4e6ae03f23d33eb
:1012400003fb078393f8dd323bb903f5507303fbcf
:1012500007831c2283f8e022d6e69a4a4ff45073a3
:1012600003fb07231e2283f8e022cde6dff8548239
:1012700004f2e3234344009300231a460721304637
:1012800008f038fb4ff4507303fb078393f8e23206
:10129000032b7ff4b9ae03f23d3303fb07831d221a
:1012a00083f8e022b0e6874b4ff4507606fb073612
:1012b000d6f8ec020ff006f8002386f8e032a3e639
:1012c000804a4ff4507303fb0723002283f8e02287
:1012d0009ae64ff4507303fb0723002283f8fa22a7
:1012e00093f8dc3283b1774a4ff4507303fb072342
:1012f0009b68db6b83b19847724a4ff4507303fbd2
:10130000072383f8ad0207e06e4a4ff4507303fbe6
:101310000723002283f8ad226a4a4ff4507303fb7f
:101320000723d3f8a8124ff40070c3f81403c3f8ce
:101330001813c3f81c03c3f82013c3f82403c3f81d
:1013400028130121c3f80413c3f80813c3f80c13be
:1013500004f545742244c3f810239b788b420bd0cc
:10136000584b4ff4507000fb0730012380f8de32f9
:10137000042380f8df3252e2524a4ff4507303fbe9
:1013800007234ff0ff32c3f8ec22e9e7b8f1000f72
:1013900008d04c4a4ff4507303fb072393f8e23212
:1013a000032b28d0474a4ff4507303fb07239b7845
:1013b000022b00f00781012b40f03182414a4ff4ab
:1013c000507303fb0723d3f8ec02b0f1ff3f00f0aa
:1013d0001f8110f011fa002800f02182394b4ff4e0
:1013e000507000fb07304ff0ff33c0f8ec3206239b
:1013f00080f8df3213e24ff4507303fb07239b782e
:10140000012b12d02f4a4ff4507303fb072393f89c
:10141000ae32bbb1ff2388f808304ff4507000fba8
:1014200007200e2380f8df32f9e14ff4507404fbfb
:101430000724d4f8ec020ef045ff4ff0ff33c4f858
:10144000ec32dfe71f4a4ff4507303fb07239b780e
:1014500083b94ff4507303fb07239b689b6b98473a
:1014600040b9184b4ff4507000fb0730102380f840
:10147000df32d4e1022388f80830124a4ff4507367
:1014800003fb072393f8a63223b9d8f814305b0284
:10149000c8f8143098f81d30012b17d0094a4ff4c2
:1014a000507303fb072393f8ad32002b42d0ff2388
:1014b00088f808304ff4507000fb07200e2380f8a6
:1014c000df32ace1e0b0402080f0fa02ac4a4ff4e9
:1014d000507303fb0723012283f8e422d8f8183065
:1014e00093421bd0122388f81c30a54a4ff4507346
:1014f00003fb0723012283f8e522a14a4ff450732e
:1015000003fb07239b78022b38d09d4b4ff4507080
:1015100000fb0730072380f8df3280e1112388f8d1
:101520001c30974a03f22f3303fb0723002283f872
:10153000e522e2e7924a4ff4507303fb07230022af
:1015400083f8e422d8f81830012b0bd0192388f83f
:101550001c308b4a4ff4507303fb0723012283f89e
:10156000e522cae7182388f81c30854a03f54a7338
:1015700003fb0723002283f8e522bee74ff45073f4
:1015800003fb072393f8f032012b08d07c4b4ff478
:10159000507000fb0730072380f8df323fe103f291
:1015a0003f3303fb072393f8fa32012beed14ff4bc
:1015b000507000fb0720002380f8fa32052380f8e2
:1015c000df322ce14ff4507303fb072393f8f03222
:1015d000012b40f024814ff4507303fb072393f851
:1015e000f932002b00f01b814ff4507303fb0723eb
:1015f00093f8fa32002b40f012814ff4507000fb48
:101600000720012380f8fa32052380f8df3206e153
:1016100004f53b714ff4507303fb072311445868e2
:101620000ef080f8012840f0fa80554b4ff45070ce
:1016300000fb07300e2380f8df32f0e0504b4ff410
:10164000507808fb0738002288f8e322b8f8a20295
:1016500098f8fa22d20304f2e324234400930223ed
:1016600042ea00420521304608f044f998f8e23297
:10167000032b40f0d48098f8dd3283b998f8fa3221
:10168000012b08d03e4b4ff4507000fb073007236e
:1016900080f8df32c3e0042388f8df32bfe0384b44
:1016a0004ff4507000fb0730102380f8df32b6e0b3
:1016b000334b4ff4507808fb0738002288f8e322b8
:1016c000b8f8a22204f2e324234400930123120475
:1016d0000d21304608f00ef998f8e232032b40f065
:1016e0009e8098f8dd32bbb9d8f808301b6a03a990
:1016f00000209847039bc3f34323032b03d01023fd
:1017000088f8df328be01e4b4ff4507000fb07303f
:10171000042380f8df3282e0194b4ff4507000fb55
:101720000730102380f8df3279e0154b4ff4507802
:1017300008fb0738b8f8a22204f2e32423440093fc
:10174000022312040721304608f0d4f898f8e23258
:10175000032b64d198f8dd324bb9d8f808301b6af6
:1017600003a900209847082388f8df3257e0044b8c
:101770004ff4507000fb07300e2380f8df324ee04c
:10178000e0b04020b8f1000f4fd0d8f81800012881
:10179000b94a4ff4507303fb07239b685b6a0cbf85
:1017a000002080b29847b44a4ff4507303fb0723dc
:1017b0009b689b6a4ff40070984798f81d30002b87
:1017c0003cd0012b42d0ac4b4ff4507909fb073988
:1017d000012389f8e332d8f81810d9f808305b6b88
:1017e00098f81d204902d8f810009847092389f875
:1017f000df32d8f8142098f81c10dff87c8204f24d
:10180000e324444400940123304608f073f84ff475
:10181000507303fb078393f8e232032b1ed0284654
:101820000ff0baff04b0bde8f087934b4ff450704f
:1018300000fb07300e2380f8df32f0e7d8f81810ed
:101840004902d8f810000ef0edfdbce7d8f81810ea
:101850004902d8f810000ef0c9fdb4e74ff45073f8
:1018600003fb0783002283f8e32293f8dd323bb9c0
:101870004ff4507000fb07800a2380f8df32cee778
:101880007d4b4ff4507000fb07300e2380f8df32a1
:10189000c5e7794a4ff4507303fb072393f8af323f
:1018a000002bbcd04ff4507303fb0723b3f8b232c4
:1018b000724a1a4208d0704b4ff4507000fb073048
:1018c0000e2380f8df32aae7b8f1000f0dd0d8f868
:1018d0001830012b684b4ff4507000fb07308cbf61
:1018e0000b230c2380f8df3299e7634b4ff45070e1
:1018f00000fb07300e2380f8df3290e7dff87881b5
:1019000004f2e32444440094022300220c213046d4
:1019100007f0f0ff4ff4507303fb078393f8e232b4
:10192000032b7ff47caf4ff4507303fb078393f8d2
:10193000dd323bb94ff4507000fb07800c2380f878
:10194000df326ce74c4b4ff4507000fb07300e2336
:1019500080f8df3263e7484b4ff4507808fb0738d4
:10196000b8f8a22204f2e3242344009301231204d2
:101970000d21304607f0beff98f8e232032b7ff4ca
:101980004eaf98f8dd3273b9d8f808301b6a03a956
:1019900000209847039b13f4807f3ff440af0d2352
:1019a00088f8df323be7344b4ff4507000fb0730d0
:1019b0000e2380f8df3232e7dff8bc9004f2e32434
:1019c0004c44009400231a460721304607f092ff4a
:1019d0004ff4507303fb079393f8e232032b7ff429
:1019e0001eaf002388f808304ff4507000fb0790ba
:1019f0000f2380f8df3212e71f4a4ff4507303fbc6
:101a000007239b787bb94ff4507000fb0727bb6816
:101a10009b6b98471a4b1870ff2388f808300f23e8
:101a200087f8df32fbe6144b4ff4507909fb073996
:101a3000002289f8e322b9f8a22204f2e3241c442c
:101a40000094012312040d21304607f053ff99f84a
:101a5000e232032b7ff4e3aeff2388f808300f2334
:101a600089f8df3299f8dd32002b3ff4d8ae044b11
:101a700000221a70d3e600bfe0b040207082ffff62
:101a8000aec44020b8f1000f17d0d8f80410c8b287
:101a90002e4b4ff4507202fb0732d2f8d83203ebd0
:101aa0000013da68914214d0d6f8cc322bb11a6afe
:101ab000c6f8cc2200221a621a70254b1b78abb1f3
:101ac000224b4ff4507000fb0730042380f8df32c4
:101ad000a5e65c68002ce7d098f908009a68d8f869
:101ae0000c10003018bf0120a047dde7184b012281
:101af0001a70164b4ff4507000fb0730102380f81b
:101b0000df328ce6002323622370d6f8cc428cb1fe
:101b1000236ac6f8cc322279d8f8d83203eb021304
:101b2000d3f804a0baf1000fecd09a68e1684846f7
:101b3000d047e7e705484ff4507303fb0700002345
:101b400080f8de3280f8df3269e600bfe0b0402086
:041b5000aec44020bf
:020000040000fa
:020000040040ba
:041b54000164704771
:020000040000fa
:020000040040ba
:101b58002de9f04f2ded0c8b9fb01f4600231a93f3
:101b6800a34b16921b680a93044618468b4610f03e
:101b78009df84ff0000805464ff00009cdf864b015
:101b8800199a13780d2b33d8092b37d2002b3fd055
:101b980000230e93199e3378302b40f0b28073786f
:101ba800582b01d0782b69d10e9b01931aab029761
:101bb8000093904a1bab19a9204602f061ff10f070
:101bc8000705074605d0062d2dd1013600231996a5
:101bd8000e93169b002b40f05f850e9bf3b149ecea
:101be800178bb1ee470b1fb0bdec0c8bbde8f08f27
:101bf8002b2b06d02d2b14d0202bc9d101321992b2
:101c0800bee700230e93531c19935378002bc1d1c0
:101c1800169bcdf864b0002b40f03c8549ec108b46
:101c2800e1e70123eee71a9a3ab135211ca80ef034
:101c380089fd1a9920460ef08efe013d042d06d826
:101c4800dfe805f00a0314170a00dde91c893b07e1
:101c5800bfd549f00049bce7dde91c831b9a23f492
:101c6800801302f2334243ea0259f0e7dff8889121
:101c7800ede76ff000494ff0ff38e8e7199b5a1c71
:101c880019925b78302bf9d0002ba2d0012308934e
:101c9800199b0c930023049307931e460a22199854
:101ca80090f800a0aaf13003d9b209292bd92a4605
:101cb8000a990ff037fa002835d0002052463346eb
:101cc80082460146652a01d0452a18d11bb9089bce
:101cd80003439dd00023ddf864b00bf10102199293
:101ce8009bf801202b2a77d02d2a7dd04ff0000eab
:101cf800a2f13005092d40f28580cdf864b00025a9
:101d0800a0e00023c3e7082ed5bf0799049902fb7a
:101d1800013302fb013300f10100d4bf07930493a0
:101d280001361990bbe7199b5a1919925a5daeb33f
:101d380082463346a2f13001092912d90121c1e7af
:101d4800199b5a1c19925a780130302af8d0a2f1fe
:101d58003103082b00f2a584199b0c9382460020be
:101d68000346303a00f1010112d08a4400eb030c1b
:101d780019460a25614513d11918082903f10103e9
:101d880003441ddc07980a2101fb00220792002169
:101d9800199a501c199052780846cbe73046d4e778
:101da800082904dc079f6f4307970131e2e701f137
:101db800010ebef1100fdebf049f6f430497f4e7d6
:101dc800102bdfbf04980a2101fb00220492dee7f2
:101dd8004ff0000a01217ae74ff0000e0bf10202e2
:101de80019929bf8022083e74ff0010ef6e700bf37
:101df800e41e41009c1a41000000f07f199a551c0e
:101e080019955278302af9d0a2f13105082d3ff6fc
:101e180076afa2f1300c199a0a92199a551c1995a5
:101e28005278a2f13007092f30d90a9fed1b082def
:101e380044f61f6502dc6545a8bf6546bef1000f84
:101e480000d06d42002b4cd1089b03437ff4c1aef8
:101e580000297ff4ddae4e2a23d01ddc492a7ff409
:101e6800d7ae9b4919a80ff01ff800283ff4d0ae51
:101e7800199b9849013b19a819930ff015f810b947
:101e8800199b01331993dff86892a2e60a2505fb2e
:101e98000c25a5f1300cc0e7692ae2d06e2a7ff440
:101ea800b7ae8d4919a80ef0ffff00283ff4b0ae79
:101eb800199b1b78282b0ed11caa884919a807f052
:101ec800f3ff052807d11d9bddf8708043f0ff491b
:101ed80049f4e0097de682480ff0f2fe59ec108bd8
:101ee80077e6dded077ab8ee677ba5eb0a02002ef0
:101ef80008bf1e46102b08928ded0a7b1a46a8bf14
:101f08001022092bdde90a890edd7649dded047a18
:101f180001ebc20111ed126b9ded0a5bb8ee677b18
:101f2800a5ee067b59ec178b0f2b37dc0899002997
:101f38003ff44fae23dd16290bdc6a4b03ebc103dc
:101f480093ed007b49ec168b27ee067b59ec178b3b
:101f58003fe60898c3f1250181421fdb614ac3f1be
:101f68000f0302ebc30191ed007b49ec168bc31afa
:101f780002ebc30227ee067b92ed006be4e70899bb
:101f880016310bdb574baaeb050503ebc50595eda1
:101f9800007b49ec168b86ee077bd7e708999a1adf
:101fa8000a44002a74dd12f00f000ad04d4901ebf3
:101fb800c00191ed007b49ec168b27ee067b59ecae
:101fc800178b32f00f024fd0b2f59a7f22dd002531
:101fd8002f460a9507952223dff8149123604ff0c6
:101fe80000080a9b002b3ff4f4ad1a9920460ef026
:101ff800b2fc079920460ef0aefc394620460ef09a
:10200800aafc0a9920460ef0a6fc294620460ef0a6
:10201800a2fcdee5cde904890020334f1211014608
:10202800012a24dc08b1dde904892f4a2f4802eb94
:10203800c101a9f1547991ed007b49ec168b27ee8b
:10204800067b8ded047b0599294a0a408242dde929
:102058000489bcd8a0f58010824286bfdff894902e
:102068004ff0ff3801f15479002204927fe012f01a
:10207800010f0ad007ebc10090ed007b9ded046bca
:1020880026ee077b8ded047b012001315210c7e756
:10209800ead0524212f00f000ad0124901ebc001f7
:1020a80091ed007b49ec168b86ee077b59ec178b7c
:1020b8001211d9d01f2a1fdd00252f460a95079532
:1020c80022234ff000084ff00009236089e700bf82
:1020d800f61c4100f91c4100ff1c4100b01a4100e8
:1020e800021d410038bc4000d80e41000000a07c11
:1020f8000000f07fffffef7f12f0100118bf6a2188
:10210800cde90a890491be490020d70708d59ded7d
:102118000a6b91ed007b26ee077b8ded0a7b012093
:10212800521001f10801f0d108b1dde90a89049ad9
:10213800b2b1c9f30a52c2f16b02002a10dd1f2a9c
:1021480040f33081342adebf203a4ff0ff3000fae6
:1021580002f24ff00008ccbf4ff05c7902ea09099f
:1021680049ec178bb5ee407bf1ee10faa4d0079a34
:1021780000920c99324620460bf008fe0a9000287f
:102188003ff425af089baaeb0505002bb4bf2b46ef
:1021980000230f93089b9fed949b9fed95ab9fedbc
:1021a80096bb23eae373002512932f460a9b204629
:1021b80059680cf0c7fa079000283ff40caf0a9b47
:1021c8001a69023203f10c0192000c300ff06afa1e
:1021d8001caa1ba949ec108b2046cde90c890af0f2
:1021e800dbfd1a9000283ff4f6ae012120460ff0df
:1021f80094fc074600283ff4eeae1b9e1c9a002e66
:10220800abbf0f9b129bddf848a0ddf83cb0acbf1c
:1022180006eb030ba3eb060a049bf61a1644794b4c
:10222800013e9e42c2f1360280f2cf809b1b1f2bdb
:10223800a2eb03024ff0010100f3bb8001fa03f3a4
:102248001393002310930beb0206049bb3459244af
:102258009a445a46a8bf32465245a8bf52460f9bd9
:10226800002ac2bfb61aaaeb020aabeb020b002b7c
:1022780017dd39461a4620460af0c8fe07460028e8
:102288003ff4a9ae01461a9a204606f0a8ff179017
:1022980000283ff4a0ae1a9920460ef05cfb179a6e
:1022a8001a92002e00f39680089b002b08dd129ae4
:1022b800079920460af0aafe079000283ff48bae43
:1022c800baf1000f08dd5246079920460af07afb5a
:1022d800079000283ff47faebbf1000f08dd3946b8
:1022e8005a4620460af06efb074600283ff473aeb4
:1022f800079a1a99204609f037fc054600283ff44a
:102308006aae0023d0f80ca0c36039460ef000fa7c
:1023180000287dda5aea080340f0a380c9f31303c2
:102328004a46002b40f09d80374b1340b3f1d66fdf
:1023380040f297806b691bb92b69012b40f39180a0
:102348002946012220460af03dfb394605460ef093
:10235800dff9002840f3858004992b4a4b46002971
:1023680000f0a08009ea0201b1f1d66f00f39a806b
:10237800b1f15c7f7ff7a4ae244a0023cde9143283
:102388009ded146b49ec178b27ee067b8ded047bd6
:10239800dde90432134308bf2223dde9048908bfbd
:1023a800236022e64ff0ff3101fa02f202ea080840
:1023b800d6e6c6f17f4606f57f0606f57b46e23689
:1023c80001fa06f3109313913de7002310930123bc
:1023d800139338e732461a9920460af0f3fa1a900e
:1023e80000287ff461aff6e59535a094ffffcf3f55
:1023f8009535a094ffffdf3f35e5af350000e03f9e
:10240800880e410002fcffff0000f07f00005039f9
:10241800cb4665d1aa4a09ea0203baf1000f29d0ce
:1024280093422bd1049b4146fbb1a64a09ea02021a
:10243800b2f1d46f4ff0ff301ad8120dc2f16b030e
:1024480000fa03f3994219d19f4b9b4502d1013100
:102458003ff4c1ad9b4b0bea030303f580194ff022
:102468000008049b002b87d1bfe54ff0ff33e9e755
:102478000346e7e753ea08033ff46eaf109bdbb16e
:1024880013ea0b0fedd0049a40464946baf1000f03
:1024980016d00ef023f99ded0c7b37ee007b59ec3e
:1024a800178bdee71340a3f580136fea13596fea21
:1024b80009594ff0ff38d4e7139b13ea080fe1e7f7
:1024c8000ef00cf99ded0c7b37ee407b8ded087b13
:1024d800b5ee407bf1ee10fadde90889c1d1efe5f0
:1024e800394628460cf090fab0ee007bb4eec70be4
:1024f800f1ee10fa65d8baf1000f42d0734b002202
:10250800b7ee008b6f4972480bea0106864240f02d
:102518008980dde90c01abf1547949ec108b43ec6f
:102528001c2bcde914010df0bdf949ec1d8bacee67
:1025380000db8ded10db119b6249664a1940914220
:10254800dde9108947d90d9b02f15472934203d1fa
:102558000c9b01333ff43faddff86c914ff0ff382f
:102568001a9920460ef0f7f9079920460ef0f3f96c
:10257800394620460ef0eff9294620460ef0ebf9d1
:1025880014e6b8f1000f12d1c9f31303b3b9b7eecb
:10259800007bb4eec70bf1ee10fab6ee008b01d457
:1025a80020ee088bb1ee487b53ec172baae7b8f165
:1025b800010f03d1b9f1000f3ff482ad0022464b61
:1025c8009ee7b6ee008b20ee088bbaf1000fe9d03b
:1025d80053ec182b96e703f15479049b002bbfd1d9
:1025e800384b09ea03039e42bad151ec180b0ef09e
:1025f80029fe03f085fdc9f3130341ec170b43eae9
:10260800080353ea0a0338ee478b3cd0b4eeca8b72
:10261800f1ee10fa3ff5e9acb4eecb8bf1ee10fa1f
:102628009edde2e40499f1b1b6f1d46f1bd89fedb9
:10263800227bb4eec78bf1ee10fa11d8fceec87b02
:1026480017ee903a002b08bf012307ee903ab8ee38
:10265800678bbaf1000f13d1b1ee487b53ec172bff
:1026680003f1d6618b1b9ded0c0b43ec1c2b0df07d
:1026780019f99ded0c7bacee007b59ec178bace7a0
:1026880053ec182bece7b4eec98bf1ee10fa7ff59a
:1026980067afaae400230e93169a199b1360fff7fd
:1026a8009cba652a3ff494ab452a3ff491ab0121cb
:1026b800fff7cabbaff300800000c0ffffffdf4198
:1026c800ffff0f000000f07fffffef7f0000f03feb
:0c26d8000000e07fffff9f7c0000f0bfcf
:020000040000fa
:020000040040ba
:0426e400002070471b
:020000040000fa
:020000040040ba
:1026e8002de9f04f55ec104b95b0476a089181469b
:1026f8000c9211931e9ecde9044547b910200ff0a6
:10270800bdfac0e90177c9f824000760c760d9f8a5
:102718002430196859b15a684a60012393408b6084
:1027280048460ef018f9d9f8243000221a60002d16
:10273800bfbf0123336025f000430593a4bf0023e6
:102748003360059ca84ba3431ad1119a42f20f7328
:102758001360049bc4f31304234300f0ca841f9b33
:1027680053b9a24b20e0a24b029308331f9a13607f
:10277800029815b0bde8f08f9c4b02930333f5e740
:102788009ded047bb5ee407bf1ee10fa8ded0a7bf2
:102798000cd1119a012313601f9b002b00f0a68413
:1027a800944b1f9a1360013b0293e1e713a912aa05
:1027b8009ded0a0b48460af0effac4f30a5501905a
:1027c8001299002d46d00b98c0f31300dde90a23b7
:1027d80040f07f5343f44013a5f2ff3a002607ee7a
:1027e80090aa43ec162bb8eee75b9fed794bb7ee5a
:1027f800087b36ee477b9fed786ba7ee046bb0ee57
:10280800467b9fed776ba5ee067bfdeec76bb5eebd
:10281800c07bf1ee10fa16ee90ba08d5b8eee66b6a
:10282800b4ee476bf1ee10fa18bf0bf1ff3bbbf1aa
:10283800160f34d8704b03ebcb0393ed007b9ded63
:102848000a6bb4eec76bf1ee10fa01d50bf1ff3b42
:10285800002325e0139b01eb030a0af23243202be5
:1028680017ddc3f14003049a9c400af2124322fa8e
:1028780003f3234307ee903ab8ee677b0af1ff3a79
:102888008ded027b0398dde902230126a0f1f873a0
:10289800a5e7049ac3f1200302fa03f3eae7012348
:1028a800a1eb0a0a1093baf10103079343bf00236f
:1028b800caf1010a07934ff0000abbf1000f18dbb9
:1028c800079bcdf834b05b4407930027089b092b7e
:1028d80066d8052bc4bf043b0893089ba3f10203e9
:1028e800ccbf00240124032b65d8dfe803f0094b93
:1028f80049570023aaeb0b0acbf100070d93e5e734
:10290800002309930c9b002b59dc0123069398465e
:102918000c93d9f8245000226a60042202f11400b2
:10292800984269684fd948460bf00cffd9f8243013
:1029380028601b680293b8f10e0f00f2bc80002ccf
:1029480000f0b980bbf1000f40f3e3802a4a0bf096
:102958000f0302ebc3034fea2b1293ed007bd30660
:1029680040f1d580254b9ded0a5b93ed086b85ee14
:10297800066b8ded046b02f00f0203231f4948e03c
:102988000123bee7002309930c9b5b4403f1010874
:1029980006934346012bb8bf0123bae70123f2e7a8
:1029a80000230124cde90834013b00220693984610
:1029b8000c921223ade701230993023bf5e70c9b28
:1029c80006939846a5e7013169605200a6e700bf63
:1029d80061436f63a787d23fb3c8608b288ac63f1d
:1029e800fb799f501344d33f0000f07fe11c410066
:1029f800d81c4100e61c410038bc4000d80e4100fc
:102a0800d50704d591ed006b013327ee067b5210f4
:102a18000831002af4d19ded046b86ee077b8ded1d
:102a2800047b109a002a00f0a680b7ee006b9ded9b
:102a3800047bb4eec67bf1ee10fa40f19c80b8f14d
:102a4800000f00f09880069a002a30ddb2ee046b81
:102a580027ee067b8ded047b0bf1ff310133144625
:102a68009ded046bb1ee0c5b07ee903ab8eee77b98
:102a7800a7ee065b8ded045b0598dde90423a0f164
:102a88005073002c7ad1b1ee047b36ee476b43ece1
:102a9800172bb4eec76bf1ee10fa00f34282b1eed9
:102aa800477bb4eec76bf1ee10fa00f13882dde92e
:102ab8000a34cde90434139b002bc0f21b81bbf10f
:102ac8000e0f00f31781894b03ebcb0393ed006bdb
:102ad8000c9b002b80f2b880b8f1000f00f3b48093
:102ae80040f01c82b1ee047b26ee076b9ded047b63
:102af800b4eec76bf1ee10fa4446464680f2f68112
:102b0800029d312305f8013b0bf1010bf2e1022391
:102b180034e72ed0cbf10002744b02f00f0103eb27
:102b2800c10393ed007b9ded0a6b26ee077b8dedcf
:102b38000e7bdde90e346e49cde904341211002014
:102b480002233ab900283ff46cafdde90e12cde953
:102b5800041266e7d40709d59ded0e6b91ed007b55
:102b680026ee077b8ded0e7b0133012052100831d4
:102b7800e7e7022355e75946444671e743ec172b2c
:102b88005a4b03ebc40313ed024b029b1c44099bf5
:102b98004bb3b6ee003bb7ee002b029d83ee045b11
:102ba800b2ee043b35ee477bfdeec64b14ee903a91
:102bb800b8eee45b303336ee456bb4eec76bf1ee3e
:102bc80010fa05f8013b38d432ee465bb4eec75b29
:102bd800f1ee10fa6fd4a5423ff469af27ee037bfc
:102be80026ee036be0e7029a24ee077b2546b2ee59
:102bf800043bfdeec64b14ee903a303302f8013b2d
:102c0800a242b8eee45b36ee456b1ad1b6ee005b35
:102c180037ee054bb4eec46bf1ee10fa4bdc35ee33
:102c2800477bb4eec76bf1ee10fa7ff540af15f8ad
:102c3800013c302b05f1ff3201d08b462ae01546c6
:102c4800f5e726ee036bd4e79ded047bb2ee044b6b
:102c5800029d87ee065bbdeec55b15ee103a30337c
:102c680005f8013b029beb1a9845b8eec53ba3ee6d
:102c7800467b33d137ee077bb4eec67bf1ee10fa14
:102c880018dcb4ee467bf1ee10fa03d115ee103adb
:102c9800db070fd4019948460df05dfe0023119a19
:102ca8002b700bf1010313601f9b002b3ff460ade9
:102cb8001d605de5594615f8012c392a05f1ff33e9
:102cc80006d1029a9a4207d1029830220131027045
:102cd8001a7801321a70b0e71d46ece727ee047b3c
:102ce800b5ee407bf1ee10fab3d1d3e738bc400023
:102cf800d80e4100099a002a00f0bb80089a012ae0
:102d080000f3a280002e00f09b8003f233433c4680
:102d18005546079a01211a4448469a4407920ef0ec
:102d2800fcfe0646002d0bdd079b002b08ddab42a1
:102d3800079aa8bf2b46aaeb030aed1ad31a0793e2
:102d4800f7b1099b002b00f09880002c11dd31466b
:102d5800224648460af05af9019a0146064648466c
:102d680006f03dfa01990a9048460df0f4fd0a9bd9
:102d780001933a1b04d0019948460af047f901909b
:102d8800012148460ef0c9fe0d9b002b044676dd56
:102d98001a46014648460af039f9089b012b0446b1
:102da80070dd0027236904eb830318690df070f9bf
:102db800c0f12000079b184410f01f007dd0c0f11f
:102dc8002003042b77ddc0f11c00079b03448244d9
:102dd80005440793baf1000f05dd524601994846ac
:102de80009f0f0fd0190079b002b05dd21461a46ee
:102df800484609f0e7fd0446109b002b5fd02146aa
:102e080001980df085fc002859da00230a2201995f
:102e180048460af000ff099b01900bf1ff3b002b8d
:102e280000f06e81002331460a2248460af0f3fe7c
:102e3800069b002b06467ddc089b022b7add46e0cc
:102e4800129bc3f1360362e708f1ff34a742bfbf04
:102e58000d9be71bdb190d93b6bf27463c1b0024cf
:102e6800b8f1000fb9bfaaeb080500235546434641
:102e78004fe73c465546099e54e73a467be7089b90
:102e8800012b14dc049b93b9059bc3f3130282b98d
:102e9800aa4f1f402fb1079b01330af1010a07937c
:102ea80001270d9b002b7ff47daf012082e70027cf
:102eb800f7e7049ff5e78dd018461c3085e7b8f191
:102ec800000f31dc089b022b2eddcdf81880069b05
:102ed80063b92146052248460af09dfe014604468c
:102ee80001980df015fc00283ff70aae0c9b029dd7
:102ef8006fea030b0027214648460df02cfd002ef3
:102f08003ff4c8ae2fb1b74203d0394648460df05a
:102f180022fd314648460df01efdbbe6002426463c
:102f2800e4e78b462646ebe5099bcdf81880002b95
:102f380000f0ed80002d05dd31462a46484609f0af
:102f480041fd0646002f54d0716848460bf0fafb45
:102f5800326902320546920006f10c010c300ef07f
:102f6800a1fb01222946484609f02cfd029b029a42
:102f780003f10108069b13440c93049b03f001031f
:102f880037460993064608f1ff3321460198069310
:102f980006f0bdf93946049000f1300a01980df0a9
:102fa800b7fb324607902146484608f0ddfdc26867
:102fb800054602bb014601980df0aafb02462946c8
:102fc80048460a920df0c7fc089b0a9a43ea020198
:102fd800099b0b43454610d1baf1390f29d0079bfd
:102fe800002b02dd049b03f1310a069b83f800a045
:102ff80081e73046bae70122e1e7079b002b04dbb3
:1030080008990b4309990b431ed1002aeddd0122d3
:103018000199484609f0d6fc214601900df078fb4d
:10302800002803dce1d11af0010fded0baf1390f24
:10303800d8d1069a3923137015f8013c392b05f1bc
:10304800ff3249d0013307e0002a07ddbaf1390f12
:10305800efd0069a0af1010313704ce70c9b08f8ad
:1030680001ac984520d000230a22019948460af06d
:10307800d2fdb74201904ff000034ff00a023946e3
:10308800484606d10af0c7fd0746064608f101087a
:1030980079e70af0c0fd002307460a223146484670
:1030a8000af0b9fdf1e7002701220199484609f025
:1030b80089fc214601900df02bfb0028bcdc02d1d5
:1030c8001af0010fb8d115f8013c302b05f1ff3289
:1030d8007ff411af1546f6e7029b934204d10bf13a
:1030e800010b3123029ab7e71546a5e7144bfff702
:1030f8005bbb1f9b002b7ff436ab124bfff754bb17
:10310800069b002b03dc089b022b3ff7e0ae029dd9
:103118000198214606f0fbf800f1300a029b05f8f9
:1031280001abea1a069b9342bddd00230a220199ee
:1031380048460af070fd0190eae700bf0000f07f02
:08314800e51c4100d81c410008
:020000040000fa
:020000040040ba
:103150002de9f04f95b00f900d46174600930fa83c
:103160000bf018fd0028c0f28d82bb4b53f82030c5
:103170000bb100221a70b94b13f8106003eb400337
:1031800093f801a0b64b002d08bf1d4630460ef047
:1031900051fd10f0010f40f0778210f0040f40f065
:1031a00078826b681393002b5fd0139a531eb3f58c
:1031b000004f64d30123139395f8019009f1ff3375
:1031c000dbb2022b28bf4ff00109d5f8088008f1c7
:1031d000ff33b3f5004f55d208f00f03002b18bf93
:1031e0004ff40078ec68b4f1807f4ed8631e234022
:1031f000002b18bf0024002f00f04d82009bb3f578
:10320000007fc0f048822b78029300231293baf11a
:10321000000f3cd0012300223946304608f096fecc
:10322000002840f03a8297f8ff2197f8fe3143eaf0
:1032300002231bb28b4a934240f0318207eb0a15fe
:1032400005f5d775baf1040f00f22b822b79002b0c
:1032500000f0298205f108000ef051fb019005f104
:103260000c000ef04cfb129027e013aa032130460d
:103270000df09ff8002898d0012313939ce71a4281
:1032800098d199e74ff40078ace70024b3e712aa8d
:10329000012130460df08df8002840f00682029b97
:1032a00013f0080f07d1129b3f2b5bd93f3b1293c2
:1032b0003f23019301e000230193ddf848c0bcf1f6
:1032c0007f0f40f2f481b4f5813f34bf630a80235d
:1032d000029a12f002010a9147d002f00102002a7c
:1032e0000cbf032202220992cb464fea1c3ec8f3d0
:1032f00016120692019901310b910a440592139a14
:10330000511e0391524204924fea5c420c92cdf856
:103310003490c1460e96099e032e00f0dc81002bee
:1033200040d01d46bcfbf5f240f6f5718a424ad901
:103330000232520002f2ff12540a059a04fb0b21da
:10334000039a0a4404980240521ab2fbfbf00bfbaa
:10335000102000283ed0013a0198023007904ff02b
:1033600002083be000230193a7e7029a12f0010f45
:1033700000f09f8102220992b6e72b46cce73a4a39
:1033800094450dd9394a911c02252a460c9882424f
:1033900000f2a5816d0031f8022f002af7d19ee1dd
:1033a00001259ce1bcf5805f0bd3314a911c0225bd
:1033b00004227245b6d86d0031f8022f002af8d1e8
:1033c000b0e70125aee702eb4202013252080332b8
:1033d0000126afe70b9807904ff00108b2fbfbf214
:1033e00022440698019c091b01eb05118c45c0f095
:1033f000648108eb0004aceb04040bfb1244b4fb47
:10340000f5f44ff6f5718c4298bf032e0cbf0121e5
:103410000021089113d0022e3ad14ff6f5718c425b
:1034200028d9002b40f055816d00402da5d90a9a6e
:10343000002a40f05081802d0bd82b466ce7002be2
:1034400040f03d81012d02d96b08032664e70e236d
:103450001be10e2319e100bf08c440208802402070
:10346000241c410055aaffffffff0100141c41006e
:10347000041c410040f6f5718c4200f25f81002b84
:1034800040f01f816b00802b7ff646af0e23fce0df
:103490000590cdf81080c846ddf83490039233468d
:1034a00009960e9e012b14bf002301231a46089390
:1034b00040f6f5739c4202d90ab10e23e5e04ff4c1
:1034c0000072002138460ef0adfc0b2295493846bb
:1034d0000ef09efa0023fb7202233b737d73049b64
:1034e000bb73c3f30723fb7387f81090099b032b6f
:1034f00008bf4ff0000841e107f120000ef072fb19
:103500004be10df024fd014607f143000ef06afb8c
:10351000039907f124000ef065fb022107f12c004e
:103520000ef060fb4ff0010887f83080002387f829
:103530003130062287f8322087f83330802387f82d
:103540004030292387f842301322774907f147009a
:103550000ef05efa552387f8fe31aa2387f8ff3173
:103560004346019a3946304607f074fc08b10123fe
:103570008be00123019a06323946304607f06afc97
:103580004ff40072002138460ef04cfc6749384673
:103590000ef028fb664907f5f2700ef023fb611e62
:1035a00007f5f4700ef01efb022107f5f6700ef021
:1035b00019fb552387f8fe31aa2387f8ff31012331
:1035c000019a07323946304607f044fc01230b9a32
:1035d0003946304607f03efc564a009b13401a46d7
:1035e000002138460ef01efcbbf1000f40f01d819b
:1035f0005ae16ff0070138460ef0f4fa4ff0ff3150
:1036000006980ef0effa6ff0704107f108000ef027
:10361000e9fa24e10c24baf1000f0ed1029b13f059
:10362000080f21d00022114630460cf0c2fe031cc8
:1036300018bf012329e00624ede7012300223946c3
:10364000304608f083fc08b101231ee007eb0a1a9c
:103650008af8b241012300223946304607f0fafbce
:103660000028dfd0012310e0129b10930023119358
:103670003b46224610a9304604f0ecfc03460028e5
:10368000d0d002e00b2300e00323184615b0bde8bc
:10369000f08f0a23f9e71123f7e70123f5e70e235b
:1036a000f3e70e23f1e70e23efe70123ede70e2307
:1036b000ebe71323e9e70e23e7e70e23e5e70e2305
:1036c000e3e70e23e1e70123dfe70123dde7012341
:1036d000dbe70a9a02b3002b3ff451ae1d46bcfb58
:1036e000f5f18a0002f20722520aa1f57f41f6396c
:1036f00011488142dfd8019901f1200402fb0b41fe
:1037000003980818049e3040401a00f12008204415
:1037100007900020032665e60e23b6e7059dddf839
:103720001c80c9e0fcf4400008f5400052526141a1
:103730007272416100fefffffffffe0f0590cdf8a2
:103740001080c846ddf83490039209960e9e4ff41f
:103750000072002138460ef065fb0b2265493846a1
:103760000ef056f90023fb7202233b737d73049b1a
:10377000bb73c3f30723fb7387f8109087f811809e
:10378000c8f3072887f812801299b1f5803fbff47b
:10379000b3aef974c1f307213975009b4fea532981
:1037a000f8237b753f233b7600237b76ff22ba7696
:1037b000fb76019907f11c000ef014fa099b032b0c
:1037c0003ff49fae0df0c3fb014607f127000ef05a
:1037d00009fa039bbb75c3f30723fb75802387f8a6
:1037e0002430292387f826301322434907f12b0080
:1037f0000ef00ef9552387f8fe31aa2387f8ff3122
:103800000123019a3946304607f024fb00287ff453
:103810005aaf3a4a009b13401a46002138460ef030
:1038200001fbbbf1000f3ff479af089b002b344b39
:1038300008bf6ff007030193002300933b1d06931d
:103840000895ddf81c80cdf810b0cdf828a0099bb4
:10385000032b3ff4ceae019938460ef0c3f9039d19
:103860004ff4007a4ff0000b2c464d4528bf4c46d4
:10387000234642463946304607f0ecfa00287ff4ea
:1038800024af5246594638460ef0ccfaa0442d1bc0
:10389000ead1009b01330093049a9a42d7d8089d3d
:1038a000cdf81c80ddf828a0059b099a032a08bfe3
:1038b0002b461d46ddf81c802c464d4528bf4c4646
:1038c000234642463946304607f0c4fa00287ff4c2
:1038d000feaea0442d1befd1099a032a3ff49aae05
:1038e000129bb3f5803fbff4a6ae022a0cbf04249e
:1038f000012490e6fcf440001cf5400000feffffb0
:04390000f8ffff00cd
:020000040000fa
:020000040040ba
:1039040018c340201c00000000000000b8c1402083
:103914003800000000000000e0b040204003000038
:1039240000000000aec440200100000001000000bf
:10393400010000006cbe4020f00000000000000008
:103944004cc34020140000000000000000c44020cc
:10395400060000000100000000010202040400004f
:103964000000402030000000000000003000402033
:10397400080000000000000038004020080000009b
:103984000000000070c24020280000000000000079
:103994004000402030000000000000007000402083
:1039a4003000000000000000a000402030000000b3
:1039b40000000000d00040201000000000000000c3
:1039c400afc44020010000000000000008c44020f3
:1039d4000400000000000000f0c1402010000000be
:1039e4000000000006c440200200000000000000a7
:1039f40000bb40200002000000000000e0b84020ae
:103a04002002000000000000e000402078010000d7
:103a140000000000e0a840200008000000000000b2
:103a240034c3402018000000010000006002402060
:103a3400a0044020d4a8402000000000a0024020a0
:103a44000000000060c340201400000001000000da
:103a5400a0134100a4134100a8134100b013410076
:103a6400b4134100600240205c020000000000002a
:103a740000c24020380000000000000020b44020b4
:103a8400600200000000000080b6402060020000d8
:103a940000000000b0c4402001000000000000004d
:103aa40038c2402038000000000000005cbf402005
:103ab400a000000000000000a8c440200200000094
:103ac400010000000100000098c240202000000016
:103ad4000000000070c14020480000000000000009
:103ae400d8c34020100000000000000020c1402086
:103af400500000000000000060c040206000000092
:103b040000000000e8c34020100000000000000096
:103b1400d4a840200c00000000000000bc04402099
:103b240018000000000000000cc440200400000045
:103b340000000000d40440201c000000000000002d
:103b440010c440200400000001000000aaaaaaaa90
:103b540014c440200400000000000000d4084020e9
:103b640000a000000000000018c440200400000071
:103b7400000000001cc440200400000000000000fd
:103b840020c44020040000000000000024c44020a1
:103b94000400000000000000fcbf4020640000009e
:103ba4000000000028c440200400000000000000c1
:103bb4002cc44020040000000000000030c4402059
:103bc400040000000000000034c440200400000091
:103bd4000000000038c44020040000000000000081
:103be40074c34020140000000000000088c340207b
:103bf40014000000000000003cc440200400000049
:103c04000000000040c44020040000000000000048
:103c140044c44020040000000000000048c44020c8
:103c240004000000000000009cc3402014000000b9
:103c3400000000004cc4402004000000000000000c
:103c4400b0c340201400000000000000c4c34020a2
:103c5400140000000000000050c4402004000000d4
:103c64000000000054c440200400000000000000d4
:103c7400f0044020080000000000000058c4402068
:103c84000400000000000000f80440203c00000094
:103c940000000000b1c4402001000000000000004a
:103ca4005cc44020040000000000000060c4402008
:103cb400040000000000000064c440200400000070
:103cc4000000000068c44020040000000000000060
:103cd4006cc4402004000000010000000200000049
:103ce40070c44020040000000100000087000000b0
:103cf40034054020010000000000000074c440208e
:103d0400040000000000000078c44020040000000b
:103d140000000000b2c440200100000000000000c8
:103d24007cc440200400000000000000b3c4402014
:103d340001000000010000000100000080c44020d8
:103d440004000000010000006829000084c4402031
:103d54000400000001000000c02b000088c44020c3
:103d64000400000001000000010000008cc4402099
:103d7400040000000100000068290000380540200c
:103d84003c00000000000000f8c3402008000000d0
:103d94000100000000000000004050407405402075
:103da400b000000000000000aac44020020000008f
:103db400010000004200000024064020bc00000076
:103dc40000000000b4c44020010000000000000016
:103dd400e0064020bc0000000000000090c4402029
:103de40004000000000000009c0740203201000095
:103df4000000000094c44020040000000000000003
:103e040098c4402004000000000000009cc440202e
:103e14000400000000000000b8c2402020000000a0
:103e240000000000d8c24020200000000000000074
:103e3400f8c240202000000000000000a0c4402080
:103e44000400000001000000c0c04020c0c04020a9
:103e5400600000000100000000000000d8c2402003
:103e6400f8c24020b8c2402000000000000000005a
:103e7400000000000000000000000000000000003e
:103e8400000000000000000000000000000000002e
:103e9400000000000000000000000000000000001e
:103ea400000000000000000000000000000000000e
:103eb4000000000000000000acc44020020000002c
:103ec40001000000ff00000000bd40206c01000064
:103ed400010000004300000000000000000000009a
:103ee40000000000000000000000000000000000ce
:103ef400000000004300000000000000000000007b
:103f040000000000000000000000000000000000ad
:103f1400000000004300000000000000000000005a
:103f2400000000000000000000000000000000008d
:103f3400000000004300000000000000000000003a
:103f4400000000000000000000000000000000006d
:103f5400000000004300000000000000000000001a
:103f6400000000000000000000000000000000004d
:103f740000000000430000000000000000000000fa
:103f8400000000000000000000000000000000002d
:103f940000000000430000000000000000000000da
:103fa400000000000000000000000000000000000d
:103fb400000000004f17410075114100000000008f
:103fc4005ea840001d1f41001c1f41001c1f410032
:103fd4001c1f41001c1f41001c1f41001c1f4100ed
:103fe4001c1f41001c1f41001c1f4100ffffffff5d
:103ff400ffffffffffffffffffff00000100415332
:1040040043494900000000000000000000000000d7
:104014000000000000000000000000000000415308
:1040240043494900000000000000000000000000b7
:10403400000000000000000000000000000000007c
:10404400d00840200400000000000000a4c4402068
:104054000400000000000000000000000000000058
:020000040000fa
:020000040040ba
:044064000020704781
:020000040000fa
:020000040040ba
:104068002de9f04f2ded068badf5117d0f46009033
:10407800d749a098ddf884e251f8209012f1140f86
:10408800a8bf182003f1ff31b8bf00206ff0170454
:104098009fedc96ba4bfa2f1030a9afbf0f000fbe5
:1040a8000444461a144409eb010c0df1600a0eeba6
:1040b8008608002262450fdd18aa02ebc3020df53f
:1040c800d07a4ff0000ccc4526dcddf8008016468f
:1040d8009fedb97b002515e0d64209d458f8225047
:1040e80007ee905ab8eee77baaec027b0132e1e7d3
:1040f800b0ee467bf8e7b8ec025b96ed006b013555
:10410800a5ee067b8d42a6f10806f4ddaaec027b3b
:104118000cf1010c0832d6e704aa9feda99b9fed8c
:10412800aaab02eb890201920eeb800a4e4690aad6
:1041380002ebc6020df1100b12ed280b5846324661
:10414800002a51dc2046cde9021306f06df9b0eee5
:10415800408bb4ee000b28ee000b06f0e9ffb2ee40
:10416800007ba0ee478bfdeec87b002c17ee908af3
:10417800dde90213b8eee77b38ee478b49dd701ea8
:1041880004aac4f1180c52f8205045fa0cf29044d5
:1041980002fa0cf2ad1a04aa42f82050c4f1170230
:1041a8001541002d44dd4ff0000c08f10108604670
:1041b8006ff07f4e66456bdc002c04dd012c7cd053
:1041c800022c00f08680022d32d1b7ee000b30eec3
:1041d800488b68b32046cde9021306f025f9dde9de
:1041e800021338ee408b23e020ee097bbdeec77b3f
:1041f800013ab8eec77b68ada7ee4a0bbdeec00b1f
:1042080005ebc205a0ec010a95ed000b37ee000b9b
:1042180096e705d1721e04a850f82250ed15c0e7a4
:10422800b6ee007bb4eec78bf1ee10fa2eda00255d
:10423800b5ee408bf1ee10fa40f08e8006f1ff3bb0
:1042480058464ff0000c48454bdabcf1000f75d0ca
:1042580004ab183c53f82b30002b7ad0b7ee000b88
:10426800204606f0e1f89fed566b5b46002b80f286
:10427800b3805a460021002ac0f2d48068ab03eb11
:10428800c200544c9fed4c7b0023bfe002258ae717
:10429800dbf8002058b922b1c2f18072cbf80020b7
:1042a80001220cf1010c0bf1040b104682e7aeeb76
:1042b8000202cbf800200246f3e706f1ff3c04aa0d
:1042c80052f82c20c2f316020df1100e4ef82c20d5
:1042d80079e706f1ff3c04aa52f82c20c2f3150234
:1042e800f2e704aa52f8202001384cea020caae7a7
:1042f800013552f8040d0028fad0f0180df1600cc1
:10430800721c0cebc0002e449642fff610af5af810
:104318002250ddf800c007ee905ab8eee77b002582
:10432800a0ec027b9fed247b86468d4209dd68adbb
:1043380005ebc20585ed007b0132e5e7019a012511
:10434800d7e7bcec025b3eed026b0135a5ee067bc0
:10435800ebe70bf1ff3b7be76042b0ee480b06f062
:1043680063f89fed196bb4eec60bf1ee10fa18db8b
:104378009fed137b20ee077bbdeec77b04aab8ee4a
:10438800c75ba5ee460bbdeec00b06f1010b10eea8
:10439800103a42f8263017ee103a183442f82b300b
:1043a8005ce7bdeec00b04aa10ee103ab34642f823
:1043b800263053e7aff30080000000000000000043
:1043c800000000000000703e000000000000704186
:1043d800741c41005800410004a968aa51f8231030
:1043e800009107ee901a02ebc302b8eee77b013b9f
:1043f80027ee007b20ee060b82ed007b36e7b4ec5f
:10440800025bb0ec026b0133a5ee067b4b4501dc89
:104418009942f4da40ab03ebc10383ed007b013a28
:10442800013128e7a09b032b34d8dfe803f03b5b7e
:104438005b0240ab03ebcb031a4659460029a2f1b5
:1044480008025cdc5a46012aa3f1080367dc9fede9
:10445800467bbbf1010f72dc9ded405b9ded426b2d
:10446800002d76d187ed005b87ed026b87ed047b2d
:1044780010e040ab03ebcb0393ed006b0bf1ff3b7c
:1044880037ee067bbbf1000ff3da0db1b1ee477bd7
:1044980087ed007b08f007000df5117dbdec068b5c
:1044a800bde8f08f9fed307bece740aa02ebc3023a
:1044b80092ed007b013b36ee076b002bf5daadb1d0
:1044c800b1ee467b87ed007b9ded407b42aa012340
:1044d80037ee467b9b450cda0db1b1ee477b87ed95
:1044e800027bd7e75b469fed206be6e7b0ee467ba5
:1044f800e8e7b2ec026b013337ee067beae792edb0
:10450800007b92ed025b013937ee056b37ee467b97
:1045180082ed006b37ee057b82ed027b8ee793ed33
:10452800007b93ed025b013a37ee056b37ee467b75
:1045380083ed006b37ee057b83ed027b83e740abb1
:1045480003ebcb0393ed006b0bf1ff3b37ee067be0
:104558007fe7b1ee455bb1ee466b87ed005bb1eef0
:10456800477b87ed026b81e7000000000000000038
:020000040000fa
:020000040040ba
:104578002de9f04f2ded028b8bb00c461646ddf879
:1045880058901f4605460df061fd036803931846d1
:104598000df08cfbd9f800300490073323f00703a3
:1045a80003f1080294f818b0d4f80080c9f8002084
:1045b800d3e90023c4e912239fedb37b94ed128b5a
:1045c800b0eec86bb4ee476bf1ee10fa27ddb5ee2e
:1045d800c08bf1ee10fa02d52d2384f84330ac4b92
:1045e8001a1dbbf1470f88bf1346029303232361ab
:1045f8004ff0000a28f004032360d04600973346a2
:1046080008aa2146284606f081fe013040f0fb80ca
:104618004ff0ff300bb0bdec028bbde8f08fb4ee6d
:10462800488bf1ee10fa01d79a4bd9e763685a1c08
:104638000bf0df0919d10623636048f48063236017
:1046480018ee903a002bb6bf2d230023b1ee488b0d
:10465800b9f1460fd4f804a005930dd0b9f1450f70
:1046680001d10af1010a022107e0b9f1470fe4d1ab
:10467800002be2d10123dfe7032108ab019307ab4d
:104688000093524606abb0ee480b2846fef728f8d2
:10469800b9f1470f029053d118f0010f50d1029a87
:1046a800089bb9f1470fa3eb020a069a6cd1d31cf9
:1046b80003db6368934280f29580abf1020b5ffaeb
:1046c8008bfb531e002b0693b6bfc2f101032b22ae
:1046d8002d22092b04f1500884f850b084f8512099
:1046e8006fdd0df127024ff00a0e93fbfef10efb72
:1046f80011303030632b02f1ff3c02f8010c58dc1a
:104708003031023a0cf8011c04f152030df1270074
:104718008242194650d3a1eb08080aeb0803baf104
:10472800010f236102dc2268d00701d50133236120
:10473800059b002b3ff462af2d2384f843305de7df
:10474800029bb9f1460f03eb0a020cd11b78302b00
:1047580007d1b5ee408bf1ee10fa1cbfcaf1010388
:104768000693069b1a44b5ee408bf1ee10fa00d181
:104778000892089b9a4292d93021581c08901970c7
:10478800089b9a42f9d88ae7bbf1650f99d9bbf122
:10479800660f29d1002a63681cdd226113b92168dc
:1047a800c90702d5013313442361a2654ff00008fd
:1047b800bee762460b4698e712f8011b03f8011b97
:1047c800a6e73022134484f8522004f1540184f8f7
:1047d8005330a0e713b92168c80701d50233e3e7ce
:1047e8000123e1e74ff0670b524505db236822619f
:1047f800d907dad5531cd7e7002ad4bfc2f1020380
:1048080001235344d0e723685a0507d42369029a41
:1048180031462846b847013029d1f9e6bbf1650f82
:1048280040f2d78094ed127bb5ee407bf1ee10faa2
:104838003fd10123184a31462846b84701303ff492
:10484800e7ae069b534502db2368d8070fd5dde9a1
:10485800032331462846b84701303ff4d9ae0af160
:10486800ff394ff0000804f11a0ac14516dc236825
:104878009b0700f1fd80e068089b9842b8bf184686
:10488800c8e600bfaff30080ffffffffffffef7f29
:1048980082fb40008afb400092fb40000123524605
:1048a80031462846b84701303ff4b2ae08f1010856
:1048b800dbe7069b002b2bdc0123704a3146284698
:1048c800b84701303ff4a4ae069b5aea030302d16d
:1048d8002368d907cbd5dde9032331462846b847f5
:1048e80001303ff495ae4ff0000804f11a09069b19
:1048f8005b42434501dc534689e701234a4631467a
:104908002846b84701303ff483ae08f10108eee7c6
:10491800a36d5345a8bf5346002b984606dd029a5f
:1049280031462846b84701303ff472ae04f11a0305
:104938004ff0000b28eae878059309e00123059a6f
:1049480031462846b84701303ff462ae0bf1010bff
:10495800d4f85890a9eb08035b45efdc069b534558
:104968001adb2368da0717d4069b99451cdbaaebe8
:104978000908b8f1000f08dd029a43464a44314657
:104988002846b84701303ff443ae4ff0000928ea03
:10499800e87804f11a0b14e0dde9032331462846d0
:1049a800b8470130e0d133e6aaeb0308e1e7012379
:1049b8005a4631462846b84701303ff429ae09f136
:1049c8000109069baaeb0303a3eb08034b45eedca6
:1049d8004de7baf1010f01dcdb0736d50123029a56
:1049e80031462846b84701303ff412aedde90323cb
:1049f80031462846b84701303ff40aae94ed127ba1
:104a0800b5ee407bf1ee10fa0af1ff3b18d0029a9e
:104a18005b46013231462846b84701300cd1f7e5ec
:104a28000123524631462846b84701303ff4f0addd
:104a380009f10109cb45f3dc434604f15002e7e6ee
:104a48004ff0000904f11a0af4e70123029ae1e79a
:104a580001234a4631462846b84701303ff4d8adcd
:104a680008f10108e368089a9b1a4345f0dc02e75d
:104a78004ff0000804f11909f4e700bf92fb400069
:020000040000fa
:020000040040ba
:104a88002de9f04f8bb08b460693b74b02901b680d
:104a98000393184690460df009f9039bdbf80020b4
:104aa8000190034413f8013c0793931cc2f1ff22c1
:104ab80002f57f02fe3202eb030a1f4613f8010bd0
:104ac8003028f8d00cf0e9f80446002868d1019a9b
:104ad800039938460cf026fb0546002863d1019b54
:104ae800f85cfe180cf0d9f800285ed03346187828
:104af80030281f4603f10103f9d00cf0cef8b0fac4
:104b080080f4640935464ff0010a3a4616460132e8
:104b180030780cf0c2f80028f8d1019a0399304691
:104b28000cf000fb50b955b9019bf5182a461646fa
:104b3800013230780cf0b1f80028f8d10db1ad1b76
:104b4800ad003378502b01d0702b3cd173782b2bd0
:104b58002dd02d2b2fd0711c4ff0000908780cf0a8
:104b68009cf8431edbb2182b2dd8a0f1100211f8c7
:104b7800010f0cf092f8431edbb2182b1ed9b9f1c5
:104b8800000f00d052421544cbf80010ecb1baf136
:104b9800000f14bf0027062738460bb0bde8f08f7a
:104ba80000242546b1e73e4625460124c9e74ff0d3
:104bb8000009b11cd2e74ff00109fae70a2303fb09
:104bc8000202103ad3e73146dee7f31b013b2146e8
:104bd800072b4fdc029809f0b5fd019b00f1140981
:104be8004ff0000bc3f101030446cdf81090da46ec
:104bf8000893b74241d3049840f804aba0eb0900ee
:104c080080102061470150460bf042fad8f8006046
:104c18003f1ab74263ddbf1b394620460bf014f834
:104c28008246a8b17b1e591103f01f024ff0010afa
:104c380059f821100afa02f20a4209d0534505dd53
:104c4800b91e20460bf000f8002845d14ff0020aa3
:104c58003946204609f03cfa3d44d8f80830ab42c2
:104c68004bda214602980bf076fe149a0023136063
:104c7800a32791e701315b10aae7731e0593079af2
:104c880016f8013c934217d0bbf1200f06d1049bc4
:104c980043f804ab4ff0000a0493d34616f8010c0e
:104ca8000bf0fbff00f00f0000fa0bf04aea000ad5
:104cb8000bf1040b059b0de0059b089a1344bb42be
:104cc800e2d31846019a039909930cf02bfa099b31
:104cd8000028d9d11e468ce74ff0030ab8e709da55
:104ce800f71b21463a46029807f06cfeed1b044676
:104cf80000f114094ff0000aafe7d8f80430ab42ce
:104d08006ddd5d1bae4231dcd8f80c30022b22d0b1
:104d1800032b24d0012b15d1ae4213d1012e0bd178
:104d2800069ad8f80430136001232361c9f80030cb
:104d3800149b62271c602fe7711e20460af084ff2f
:104d48000028edd1214602980bf005fe149a0023a5
:104d58001360502720e7159b002bf3d1e0e7159b44
:104d6800002bddd1eee700bfe41e41006f1ebaf153
:104d7800000f31d127b1394620460af065ff824637
:104d88007a11012307f01f0703fa07f759f82230b1
:104d980029461f42204618bf4af0020a761b09f02e
:104da80097f9d8f804500227baf1000f48d0d8f87c
:104db8000c30022b15d0032b17d0012b09d11af078
:104dc800020f06d0d9f800304aea030a1af0010f98
:104dd8000ed147f0100733e04ff0010ad0e7012762
:104de800e2e7159bc3f101031593159b002bf0d047
:104df800d4f8109004f114034fea890a03eb0a016e
:104e08004ff0000c184653f8042bb2f1ff3f1cd0aa
:104e180001320260022f04f1140338d1d8f80020bf
:104e2800013ab2420ad17111012206f01f0653f865
:104e3800213002fa06f61e4218bf174647f020072f
:104e4800149b1c60069b1d60a6e6994243f804cc9f
:104e5800d8d8a368994512db61680298013109f036
:104e680071fc2269023204f10c01834692000c3075
:104e78000cf018fc214602980bf06dfd5c46236986
:104e88005a1c04eb8303226101225a61c2e722699a
:104e98004a450bdd0121204609f01af9d8f80830f7
:104ea8000135ab42fff6ddae0127c7e716f01f0656
:104eb800fad09a44c6f120065af8040c0bf0e8f828
:084ec800b042e7dbf0e700bf98
:020000040000fa
:020000040040ba
:104ed0002de9f04f83b09e4b1e68197d21b93378c0
:104ee0004bbb03b0bde8f08f3378002b40f0e4817a
:104ef00030460022531cdbb29942f2d010f8284f02
:104f00000cb91a46f6e70232d2b2012a00f0d58176
:104f10008f490a75ff2be4d003eb8303dc003519be
:104f20006b79012b09d02b7b042bdad8dfe803f057
:104f30000a1d2e4f80000b46eee72b7b042b10d072
:104f400000232b7395f82030012b00f0898100237a
:104f5000335585f820306b71ab70eb706b702b7133
:104f6000bfe77b4b00225a75eae7ab685b6a032117
:104f7000e88898476861b0f1ff3fb2d0ab681b6921
:104f80002a467449984702232b73aae7ab681b682b
:104f90006869984768b195f8203033b9ab685b68a9
:104fa00068699847686203232b73012385f82030d2
:104fb00097e795f82030012b03d0002385f82030a7
:104fc0008fe728460cf01efb00232b71f5e7604ba2
:104fd0005b7d012b85d05e4b01225a756b6a1b6984
:104fe0001b68b3f5007f1dd24ff40076b6fbf3f6d5
:104ff000574c4ff40072002120690cf04bfe022345
:1050000085f821306869ab6800969e6800232269a4
:1050100005f11c01b047eb69b3f1ff3f04d0042355
:105020002b735ee70126e3e7494b00225a7558e7e8
:1050300095f92130022b06d06bb1454b00225a75f1
:1050400003232b734de7ab68db6a002b3ff449afba
:105050002869984745e73e4b1c6900236b7094f81c
:10506000fe31552b6cd04ff0000847464ff0ff093a
:10507000374b5c682378002b5cd1354bd3f810a0fc
:105080002b7901332b712a7e334b53f822b05846cb
:105090000cf010fec6b232465946a01c0cf006fbbe
:1050a000aa78a3199a70731c54fa83f32a793032c0
:1050b0009a70b31c54fa83f300229a70a56184f8a5
:1050c000019067b317f0010f00f0b4801746b9f1f3
:1050d000ff0f24d0214b33f817301af803206270e9
:1050e0009a449af80b209af80a301b0403eb0263e7
:1050f0009af8092003eb02239af80820134463610d
:105100009af807209af806301b0403eb02639af81a
:10511000052003eb02239af8042013442361b8f11d
:10512000000f00f097800e4bea781a7001375f701d
:1051300001232370064b00225a7502232b73d0e6fd
:1051400094f8ff31aa2b0dd04ff000088de700bf77
:1051500034c340201108410060c340208c1f41002f
:10516000880240202378eb2b2bd094f8c2010cf05e
:105170007ff800284cd16b7800276b7094f8d2012f
:105180000cf076f820b147f002076b7801336b70b2
:1051900094f8e2010cf06cf8002840d047f00407c6
:1051a0006b7801336b7094f8f2010cf061f890b3f6
:1051b00047f008076b7801336b704ff00108c14668
:1051c00056e76378582b18bf3c2b01d0fe2bccd16f
:1051d000a378902bc9d101236b7094f85230462be1
:1051e00042d094f85330412b44d094f85430542b8f
:1051f00046d094f83630462b48d094f83730412bbf
:105200004ad094f83830542b4cd04ff000082ce79b
:1052100001231f46b1e74ff00108c14628e794f883
:10522000f2010cf025f80028c2d1002f40d14ff038
:1052300001081ae717f0020f01d0012747e717f01e
:10524000040f01d0022742e707f00807002f18bf1c
:1052500003273ce71b4bea781a7000225a7067e775
:1052600028460cf0cff972e64ff0000847464ff0a1
:105270000b09fde64ff0000847464ff00b09f7e633
:105280004ff0000847464ff00b09f1e64ff00008d9
:1052900047464ff00609ebe64ff0000847464ff04f
:1052a0000609e5e64ff0000847464ff00609dfe63d
:1052b0004ff00108c146dbe60023034a00211175c7
:0c52c0002ae600bf8802402034c34020d2
:020000040000fa
:020000040040ba
:1052cc002de9f04f87b082468846036803930b782c
:1052dc002f2b0bd05c2b09d0039b9b69836098f818
:1052ec0000301f2b10d9dff89c934be12f2b01d0f2
:1052fc005c2b05d118f8013f2f2bfbd05c2bf9d080
:10530c000023caf80830eae780238af82f300021fe
:10531c00504607f0f7f80346a1e183b22f2b18bfd4
:10532c001f2b27d95c2b25d07f2b14d9fe2c00f2f8
:10533c009e8025f81430013405a80bf025fdb0f142
:10534c00ff3f00f09480b0f5803fe6d3030c25f8c6
:10535c0014300134e1e71846222b00f088802a2211
:10536c0009f10d01824200f0828011f8012f002a10
:10537c00f8d1dbe71f2b0ed9059b1a782f2a01d009
:10538c005c2a51d1013305931a782f2afad05c2a62
:10539c00f8d0002700e00427ddf81480012c45d05c
:1053ac00022c59d0002c00f066816ff0004323448e
:1053bc0005eb430235f81330202b01d02e2b07d1ef
:1053cc00013c50d032f8023d202bf9d02e2bf7d0d7
:1053dc006100002325f814302b88202b40f04d81e0
:1053ec002a460026013632f8023f202bfad00eb99d
:1053fc002e2b02d147f00307ffb28a1eab18aa5a14
:10540c002e2a05d0013c03d033f8022d2e2af9d1d7
:10541c000b2220210af124000cf0fefc082300933f
:10542c0000230193029328e00027b5e72b882e2b4d
:10543c00bbd1002325f814300af123029c428cbf07
:10544c002e21202102f8011f01330b2bf6d147f03e
:10545c0020078af82f7078e06b882e2ba5d12b882b
:10546c002e2ba2d1e5e7ab460023abf80030062388
:10547c00f5e047f00307ffb25e4606f1010b35f885
:10548c00160000283ad02028f3d02e2801d1a345ad
:10549c00efd1019b009a934226d2a34524d07f28ba
:1054ac0000f28c802b2800f0bd802c2309f119020e
:1054bc009bb2834200f0b88012f8013f002bf7d169
:1054cc00a0f141039bb2192b40f2b080a0f1610313
:1054dc009bb2192b00f2b080029b43f001030293a4
:1054ec00203880b2019b80e0009b0b2b51d0a34550
:1054fc0002d047f00307ffb2a34555d99af82430e0
:10550c00e52b4dd0009b082b00f09880029a02f0fe
:10551c000c030c2b03d002f00303032b02d147f036
:10552c000207ffb217f0020f0dd1029b13f0010f0f
:10553c0002d047f01007ffb2029b13f0040f02d009
:10554c0047f00807ffb28af82f70504601f096ff1b
:10555c009af82f200346002875d112f0040f7ed143
:10556c009af8063013f0100f00f08380039800f1c6
:10557c004001daf81430c3f3080319440bf0e6fecb
:10558c00caf80800cdf81480daf80030dd68002481
:10559c00d2e647f00307ffb29af82430e52bb5d1d9
:1055ac0005238af82430ade7029b9b00dbb2029303
:1055bc0026460b230093082301935ee747f002066f
:1055cc00f6b240f2b5110af09ffc10f0800f04d037
:1055dc0000f07f002a4b185c01e0ff280cd8f8b9ca
:1055ec0046f00307ffb2019b5f205a1c0192534403
:1055fc0083f824005e4640e7009b013b019a9a42e7
:10560c0007d2019a531c5244010a82f824103746df
:10561c00ebe747f00307ffb25e46009b01932ce7d4
:10562c0037463fe73e46dbe73e46d9e7029b43f071
:10563c0002030293019bd8e7019bd6e7029b9b00d8
:10564c00dbb2029362e7042b09d112f0200f0ad0cf
:10565c0012f0040f96d080238af82f3000231846be
:10566c0007b0bde8f08f02f00402002a08bf052342
:10567c00f5e70523f3e7ab46f6e60026b7e600bff1
:08568c0020da4000dcf44000cc
:020000040000fa
:020000040040ba
:105694002de9f04f9fb00d4614460393064618b10a
:1056a40083690bb909f064fbaf4b9d425fd1756808
:1056b400ab891f0765d52b69002b62d000230b93a0
:1056c400dff8a88220238df8313030238df8323072
:1056d4004ff0ff3708f1060923469a4613f8012bc9
:1056e4000ab1252af9d1baeb040b0bd05b4622464a
:1056f400294630460af0fef8013000f09e810b9beb
:105704005b440b939af80030002b00f09681002341
:10571400cde907730af1010a069309938df85b300a
:105724001c934ff0010b5446052214f8011b8f48bb
:1057340007f094fa069b78bbd80644bf20228df864
:105744005b20190744bf2b228df85b209af80020b8
:105754002a2a29d0099a544600204ff00a0c2146df
:1057640011f8013b303b092b61d918bb29e0804b70
:105774009d4201d1b5689be77e4b9d4208bff56809
:1057840096e72946304605f0abfe002896d04ff048
:10579400ff301fb0bde8f08fa0eb08000bfa00f05b
:1057a40018430690a246bee7039a111d126803919e
:1057b400002a01db099204e0524243f002030992f9
:1057c400069323782e2b0bd163782a2b34d1039b99
:1057d4001a1d1b680392002bb8bf3b460234079383
:1057e40003222178644807f039fa40b14023a0eb42
:1057f400090003fa00f0069b03430134069314f8ee
:10580400011b5e488df83010062207f027fa40b3da
:1058140003ab00932a465a4b06a93046fef7aafe6c
:10582400421c00f00a810b9b18440b9054e70cfbbc
:10583400023201200c4692e70023013407931946f3
:105844004ff00a0c204610f8012b303a092a03d9ec
:10585400002bc5d00791c3e70cfb012101230446ab
:10586400f0e79df83020692a0fd01fd8582a00f09d
:10587400ab8005d8002a00f0c8808df85a2093e048
:10588400632a00f08b80642af7d1039a069952f8b0
:10589400043b03920a0640f18f80002b03da2d2289
:1058a4005b428df85b2037480a2214e0702a00f02e
:1058b400a18069d86f2ae0d10399069851f8043b76
:1058c400039101067cd56f2a2e480cbf08220a22b8
:1058d40000218df85b10ddf81cc0cdf820c0bcf1b0
:1058e400000fa2bf069921f0040106910df15b019e
:1058f4008a4613b9bcf1000f09d0b3fbf2fc02fbda
:105904001c3e9a4210f80ee00af801ed7bd9082af1
:105914000bd1069bd80708d50a9b079a9a42debf8b
:1059240030230af8013c0af1ff3aa1eb0a010a917b
:10593400134b009305aa2b4606a9304605f0e8fc54
:1059440001307ad00a9b52462946304609f0d2ffec
:10595400013072d0069b99076cd40998059b984234
:10596400b8bf18465ce700bfd8c24020b6fb400071
:10597400f8c24020b8c24020bcfb4000c0fb40003d
:10598400f9f8400094fb4000752a95d0782a7ff4fa
:1059940074af78238df85d302b4818e0039b1a1df3
:1059a4001b6803928df85a3001230a9300238df863
:1059b4005b300df15a0abbe7480648bf1bb26ce7df
:1059c400400648bf9bb27ee720488df85d200399ce
:1059d400069a51f8043b0391110610d5d10744bf30
:1059e40042f0200206921bb9069a22f02002069287
:1059f40010226de7069b43f020030693c9e7510686
