:020000040000fa
:020000040040ba
:10000000f0ff4520e94b40002b604000cb714000e1
:10001000637e40000f8040009f8140000000000090
:100020000000000000000000000000009b5a40009b
:10003000d3784000000000009b5a40009b5a4000cb
:100040009b5a40009b5a40009b5a40009b5a4000dc
:100050009b5a40009b5a40009b5a40009b5a4000cc
:100060009b5a4000000000009b5a40009b5a4000f1
:100070009b5a4000d95c4000bd5b4000f55d4000ec
:100080009b5a40009b5a40009d5a4000514a4000f4
:100090009b5a40009b5a40009b5a400005a44000d8
:1000a0009b5a40009b5a40009b5a40009b5a40007c
:1000b0009b5a40009b5a40009b5a40009b5a40006c
:1000c0009b5a40009b5a40009b5a40009b5a40005c
:1000d0009b5a40009b5a40009b5a40009b5a40004c
:1000e0009b5a40009b5a40009b5a40009b5a40003c
:1000f0009b5a40009b5a40009b5a40009b5a40002c
:100100009b5a40009b5a40009b5a40009b5a40001b
:100110009b5a4000000000000000000000000000aa
:100120009b5a40009b5a4000d58940009b5a400092
:100130009b5a40009b5a40009b5a40009b5a4000eb
:100140009b5a40009b5a40009b5a40009b5a4000db
:100150009b5a40009b5a40009b5a40009b5a4000cb
:080160009b5a40009b5a40002d
:020000040000fa
:020000040040ba
:10016800f8b500bff8bc08bc9e4670472197400010
:10017800f8b500bff8bc08bc9e467047fd96400025
:020000040000fa
:020000040040ba
:08018800d43400000100000066
:020000040000fa
:020000040040ba
:100190002de9f04385b00446002303934ff45075d6
:1001a00005fb00f5ba4e2e4496f82833012b1dd0de
:1001b0004ff45073b64a03fb0423d3f8cc7293f880
:1001c000df320f2b01f27a82dfe813f022005300b6
:1001d00065009a00d408ce090a0a340a650ab30aef
:1001e000e70a150b450b640ba10b1400002286f8df
:1001f0002823dde7d6f8cc52002d01f0dc834ff444
:100200005077a34b07fb04374ff0010801f0c5bb43
:100210004ff450739e4a03fb04239b789bb94ff421
:10022000507303fb04239b689b6b9847002801f0e5
:1002300045824ff45073964a03fb0423012283f84e
:10024000df2201f03bba924e05f1200131442046f5
:1002500008f0e0fc4ff4507505fb0465ab685b6883
:1002600098478c4bc5f8b432032385f8df3201f090
:1002700025ba89492944fa2009f016f8002841f0e6
:100280001d824ff45073824a03fb0423022283f839
:10029000df2201f013ba4ff450737d4a03fb0423ad
:1002a000d3f8e8020af042fb002801f007824ff47d
:1002b0005073774a03fb04239b689b6b984748b9ac
:1002c0004ff45073724a03fb0423002283f8df22a9
:1002d00001f0f4b96e4e05f120013144204608f0da
:1002e00099fc4ff4507505fb0465ab685b68984753
:1002f000684bc5f8b432032385f8df3201f0deb96c
:10030000002302934ff45073614a03fb042393f8d4
:10031000e032212b00f2cc87dfe813f022005d00f1
:100320007d009300c000ea005f0188018902c902d4
:10033000620320054905780514042e0463048a0429
:10034000ad04dc049e05ef0538065c06a306020733
:1003500051077407a107bd07bd07ff0174021c0305
:100360004ff450734a4a03fb0423d3f8b422494b99
:100370009a4215d04ff45073454a03fb04239b68ff
:100380009b6844489847002800f03b864ff4507320
:100390003f4a03fb04233f4ac3f8b42200f031beb6
:1003a0004ff450733a4a03fb04239b78012b09d086
:1003b0004ff45073364a03fb0423032283f8e022f0
:1003c00000f01fbe4ff4507303fb0423012283f897
:1003d000e02200f016be2e4905f53a724ff4507334
:1003e00003fb04131144586808f05eff48b94ff44a
:1003f0005073274a03fb0423022283f8e02200f013
:1004000000be4ff45073224a03fb04231e2283f8dc
:10041000e02200f0f6bd4ff450731d4a03fb0423a5
:10042000d3f8e8020af082fa002800f0ea854ff4d7
:100430005073174a03fb0423032283f8e02200f0e1
:10044000e0bd134f05f2e3233b44009300231a461b
:100450001946304605f0c2f84ff4507303fb04739d
:1004600093f8e232032b40f0cc8507f53a7129442a
:10047000022008f019ff002840f0c3854ff45073a4
:1004800003fb0473042283f8e02200f0babd00bf2e
:10049000e00c4020801a0600c80f40204ff4507333
:1004a000d64a03fb0423d3f8e8020af03ffa0028f7
:1004b00000f0a7854ff45073d04a03fb042393f850
:1004c000f03243b94ff4507303fb0423052283f841
:1004d000e02200f096bd4ff45073c84a03fb04239a
:1004e0001f2283f8e0221422a3f8fa2200f089bd2b
:1004f000c24f05f2e3233b44009308234ff4d57227
:100500001946304605f06af84ff4507303fb047344
:1005100093f8e232032b40f074854ff4507303fbe1
:100520000473062183f8e012072183f8e112002109
:1005300083f8a51205f53b7139444ff4fa6008f0d1
:10054000b3fe012813d04ff45073ac4a03fb0423cd
:1005500093f8dd32a3b1022b35d14ff45073a74a83
:1005600003fb0423002283f8ac2200f04abd4ff4c1
:10057000507303fb04731e2283f8e02200f041bd98
:100580004ff4507303fb04239b681b6a02a90020ed
:100590009847029bc3f30803b3f5d57f09d04ff406
:1005a0005073964a03fb04231e2283f8e02200f0d6
:1005b00028bd4ff45073914a03fb0423012283f8b2
:1005c000ac2200f01ebd4ff450738c4a03fb042391
:1005d0001e2283f8e02200f014bd884b4ff45077c0
:1005e00007fb0437b7f8a22205f2e3210b4400937e
:1005f000012312043721304604f0f0ff97f8e2326d
:10060000032b40f0fe8497f8dd322bb997f8e122f6
:1006100087f8e02200f0f5bc4ff45073774a03fbf3
:1006200004231e2283f8e02200f0ebbc734b4ff44e
:10063000507707fb043797f8ac1297f8a5221204fd
:1006400005f2e32003440093042342ea8172292146
:10065000304604f0c3ff97f8e232032b40f0d18418
:10066000d7f8ec020af062f988bb4ff45073634a82
:1006700003fb042393f8dd32002b44d14ff4507375
:1006800003fb04239b681b6a02a900209847029b76
:1006900013f4701f20d0002b28da13f0804f4ff492
:1006a0005073564a03fb042314bf0122002283f82f
:1006b000a6224ff45076514b06fb0436d6f8ec02d6
:1006c00009f038f9082386f8e03200f09abc1e22bf
:1006d00087f8e02200f095bc4ff45073474a03fbc3
:1006e00004231e2283f8e02200f08bbc4ff45073e9
:1006f000424a03fb04233c2283f8a522062283f806
:10070000e02200f07ebc4ff450733c4a03fb04230c
:100710001e2283f8e02200f074bc384f05f2e32378
:100720003b4400930423364a0121304604f056ff2f
:100730004ff4507303fb047393f8e232032b40f041
:1007400060844ff4507303fb047393f8dd324bb1b4
:100750004ff45073294a03fb04231e2283f8e0223e
:1007600000f04fbc4ff4507303fb04739b681b6a8b
:1007700002a900209847029b002b22db4ff4507304
:100780001e4a03fb0423b3f8fa3263b311464ff455
:10079000507202fb0412013ba2f8fa3205f53a73db
:1007a0001944322008f080fd002840f02a844ff4dc
:1007b0005073124a03fb0423202283f8e02200f046
:1007c00020bc4ff4507202fb047203f0c043b3f13b
:1007d000804f14bf0023012382f8a632082382f839
:1007e000e03200f00ebc4ff45073044a03fb0423c4
:1007f0001e2283f8e02200f004bc00bfe00c402081
:10080000000038404ff45073ca4a03fb0423d3f866
:10081000e8020af08bf8002800f0f3834ff45073dd
:10082000c44a03fb04231f2283f8e022e9e3c14ffb
:1008300005f2e3233b4400930323002202213046c8
:1008400004f0ccfe4ff4507303fb047393f8e232d0
:10085000032b40f0d6834ff4507303fb047393f8db
:10086000dd3243b14ff45073b24a03fb04231e221e
:1008700083f8e022c5e3394605f120034ff45076b2
:1008800006fb0476b268126a19440420904796f871
:10089000f0321bb9092286f8e022b2e34ff450731c
:1008a000a44a03fb0423212283f8e022a9e3a14ff9
:1008b00005f2e3233b440093072300220321304643
:1008c00004f08cfe4ff4507303fb047393f8e23290
:1008d000032b40f096834ff4507303fb047393f89b
:1008e000dd3243b14ff45073924a03fb04231e22be
:1008f00083f8e02285e34ff4507303fb04739b6895
:100900001b6a02a900209847029b13f4604f10d184
:100910001b0c4ff45072874902fb0412a2f8a2325a
:100920007bb94ff4507303fb0413092283f8e022d0
:1009300067e34ff4507303fb04731e2283f8e02235
:100940005fe34ff450737b4a03fb04230a2283f8ce
:10095000e02256e3774f05f2e3233b440093012363
:100960004ff400320321304604f038fe4ff4507348
:1009700003fb047393f8e232032b40f042834ff4fd
:10098000507303fb047393f8dd3243b14ff450739b
:10099000684a03fb04231e2283f8e02231e34ff46c
:1009a000507303fb04739b681b6a02a900209847dd
:1009b000029b13f4590f07d04ff4507303fb0473d9
:1009c0001e2283f8e0221ce34ff45073594a03fbc4
:1009d00004230222a3f8a2220a2283f8e02210e3d1
:1009e000544b4ff4507707fb0437b7f8a22205f2b7
:1009f000e3210b440093032312040921304604f041
:100a0000edfd97f8e232032b40f0fb82494a97f85c
:100a1000dd3243b14ff45073464a03fb04231e22d8
:100a200083f8e022ede205f1300616444ff45077ea
:100a300007fb0427bb681b6a31460420984797f8d8
:100a4000f032002b42d13c4ac7f8b822b37b9b0955
:100a5000012b2dd0337a9b0203f44060327952008f
:100a600002f006024ff45071324b01fb0431f7796a
:100a7000b3799b0943ea870303430133f07842eae1
:100a8000d01202329340727a02f00f02a2f10900f2
:100a90000122824092b202fb03f3c1f8a8324ff464
:100aa0005073244a03fb04230e2283f8e022a8e2b9
:100ab000f3791b0403f47c12b079737943ea0023c1
:100ac000134301339b02c7f8a832e8e7f37a4ff4e7
:100ad0005071184a01fb0421c3f3c20003f007035d
:100ae000164a52f82020164850f8233003fb02f330
:100af0000a22b3fbf2f3c1f8b832f279b3799b0959
:100b000043ea8203327a920202f4406213430133d1
:100b10007279520002f00602307942ead0120232b3
:100b20009340727a02f00f0293405b0ac1f8a83238
:100b3000b5e700bfe00c402040787d01fc97400005
:100b400050a640004ff45073c24a03fb04239a6836
:100b50009268d3f8b8029047002800f052824ff410
:100b60005073bc4a03fb0423d3f8b822c3f8b42261
:100b70000f2283f8e02244e2b64b4ff4507707fb94
:100b80000437b7f8a22205f2e3210b4400930223b5
:100b900012040721304604f021fd97f8e232032bbe
:100ba00040f02f8297f8dd3293b997f8f03233b9dd
:100bb000062287f8e022102287f8e12221e24ff492
:100bc0005073a44a03fb04230b2283f8e02218e2ab
:100bd0004ff450739f4a03fb04231e2283f8e02244
:100be0000fe24ff450739b4a03fb04239b681b6a7c
:100bf00002a900209847029b13f0007f0cd113f448
:100c0000006f4ff45073934a03fb042314bf112267
:100c10001e2283f8e022f4e14ff450738d4a03fb67
:100c20000423012283f8ae221d2283f8e022e8e1aa
:100c3000884e4ff4507707fb0467bb689b6a082017
:100c400098474ff0010887f8e38287f8e482002391
:100c500087f8e53205f140031e442021304609f0b3
:100c600041f8bb685b6b4246082130469847122327
:100c700087f8e032c5e1774f05f2e3233b44009368
:100c8000012300223321304604f0a8fc4ff45073b6
:100c900003fb047393f8e232032b40f0b2814ff46c
:100ca000507303fb0473002283f8e32293f8dd32d0
:100cb0003bb94ff4507303fb0473132283f8e02213
:100cc0009fe14ff45073634a03fb04231e2283f811
:100cd000e02296e14ff450735e4a03fb042393f83d
:100ce000af32002b00f08d814ff4507303fb0423cf
:100cf000b3f8b23223f4fb4323f00f039bb2d3b912
:100d00004ff45073534a03fb042393f8413013f01c
:100d1000040f07d04ff4507303fb042393f8f2320f
:100d2000012b10d04ff450734a4a03fb04231522c1
:100d300083f8e02265e14ff4507303fb04231e2285
:100d400083f8e0225de14ff4507303fb0423062295
:100d500083f8e022142283f8e12252e13d4f4ff460
:100d6000507606fb04764ff0010886f8e38286f899
:100d7000e482002086f8e502b3685b6a9847b368ae
:100d80009b6a4ff40070984705f1a0031f444ff48d
:100d90000071384608f0a6ffb3685b6b42464ff41b
:100da0000071384698470c2386f8e03229e1294f34
:100db00005f2e3233b44009301230022082130463f
:100dc00004f00cfc4ff4507303fb047393f8e2320d
:100dd000032b40f016814ff4507303fb0473002281
:100de00083f8e32293f8dd323bb94ff4507303fbf1
:100df00004730d2283f8e02203e14ff45073154a87
:100e000003fb04231e2283f8e022fae04ff4507320
:100e1000104a03fb042393f8af32002b00f0f1805b
:100e20004ff450720b4b02fb043292f8771192f898
:100e300076311b0443ea016392f874110b4392f874
:100e4000751143ea0123c2f8a832142382f8e03274
:100e5000d7e000bfe00c40204ff45073cb4a03fbb7
:100e6000042393f8f0321bbb02f2e3232b440093dc
:100e7000012302220621304604f0b0fb4ff45073e8
:100e8000c24a03fb042393f8e232032b40f0b980fb
:100e90004ff4507303fb042393f8dd32e3b14ff4b6
:100ea0005073ba4a03fb04231e2283f8e022a8e011
:100eb000b64b4ff4507202fb043292f8f21205f274
:100ec000e322134400930223b14a42ea012206219d
:100ed000304604f083fbd1e74ff4507606fb04263e
:100ee000b368db6a96f8f202984796f8f23286f811
:100ef000a132152386f8e03283e04ff45073a34a01
:100f000003fb042393f8f03223bb4ff4507303fb2d
:100f1000042393f8403013f00f0f07d04ff45073b1
:100f200003fb042393f8f132012b08d04ff45073e4
:100f3000964a03fb04231b2283f8e02261e04ff46e
:100f4000507303fb0423002283f8a422162283f8a3
:100f5000e02256e0012be9d14ff450738b4a03fb9a
:100f6000042393f8643113f0010fdfd04ff4507372
:100f700003fb042393f8f132012bd7d14ff45073c4
:100f800003fb0423192283f8e0223ae07f4f4ff459
:100f9000507808fb0478d8f808309b6a40209847be
:100fa0004ff0010988f8e39288f8e492002388f86a
:100fb000e53205f160031f444021384608f092fef7
:100fc000d8f808305b6b4a464021384698471723cb
:100fd00088f8e0326d4b4ff4507707fb043797f8f1
:100fe000a41205f2e322134400930123694a42ea62
:100ff000c1720621304604f0f1fa97f8e232032b71
:101000001cd04ff45073614a03fb042393f8e03281
:101010001d2b00f056811e2b40f050834ff450736f
:101020005a4a03fb04239b78012b40f0478302f1cb
:1010300020012944204607f0edfd3fe3002287f818
:10104000e32297f8dd321bb9182287f8e022d8e7af
:101050004ff450734d4a03fb04231e2283f8e02211
:10106000cfe74ff45073494a03fb042393f8af32a0
:10107000002bc6d04ff4507303fb0423b3f8b232f5
:1010800023f4fb4323f00f039bb2ebb94ff45073ef
:101090003e4a03fb042393f8a432012b1cd04ff4e7
:1010a00050733a4a03fb042393f86d3013f0020f98
:1010b0002dd04ff4507303fb0423012283f8a422a4
:1010c000162283f8e0229ce74ff4507303fb0423bd
:1010d0001e2283f8e02294e74ff4507303fb0423ad
:1010e00093f8703003f00f03012b07d14ff45073c6
:1010f00003fb04231a2283f8e02282e74ff45073a3
:10110000224a03fb04231d2283f8e02279e74ff4ef
:1011100050731e4a03fb04231d2283f8e02270e76c
:101120001a4f05f2e3233b44009302231a4a062197
:10113000304604f053fa4ff4507303fb047393f8f2
:10114000e232032b7ff45daf4ff4507303fb047363
:1011500093f8dd3243b14ff450730c4a03fb042380
:101160001e2283f8e0224ce74ff4507303fb047314
:101170009b689b680948984790b94ff45073034a9d
:1011800003fb04231e2283f8e0223ae7e00c402010
:101190000100b70301ffff000101b9030075190346
:1011a0004ff4507606fb0476c64bc6f8b432b368eb
:1011b0001b6b012098471b2386f8e03221e74ff490
:1011c0005073c14a03fb04239b689b68bf48984740
:1011d00040b94ff45073bc4a03fb04231e2283f82a
:1011e000e0220ee74ff45076b74b06fb0436b74bc0
:1011f000c6f8b432b3681b6b012098471b2386f8ee
:10120000e032fee6b04f05f2e3233b4400930123b6
:101210004ff400721021304604f0e0f94ff450739f
:1012200003fb047393f8e232032b7ff4eaae4ff42e
:10123000507303fb047393f8dd323bb94ff45073e2
:1012400003fb04731c2283f8e022dae64ff45073a8
:101250009d4a03fb04231e2283f8e022d1e69a4f25
:1012600005f2e3233b44009300231a46072130464e
:1012700004f0b4f94ff4507303fb047393f8e232b3
:10128000032b7ff4beae4ff4507303fb04731d2297
:1012900083f8e022b5e64ff450768b4b06fb04361c
:1012a000d6f8ec0208f046fb002386f8e032a8e608
:1012b0004ff45073844a03fb0423002283f8e02296
:1012c0009fe64ff4507303fb042393f8dc327bb1a9
:1012d0004ff4507303fb04239b68db6b83b1984787
:1012e0004ff45073784a03fb042383f8ad0207e000
:1012f0004ff45073744a03fb0423002283f8ad2299
:10130000714a4ff4507303fb0423d3f8a8124ff42f
:101310000070c3f81003c3f81413c3f81803c3f81c
:101320001c13c3f82003c3f824130121c3f80013ce
:10133000c3f80413c3f8081305f544752a44c3f829
:101340000c239b788b420bd04ff450735e4a03fb07
:101350000423012283f8de22042283f8df22ade198
:101360004ff45073584a03fb04234ff0ff32c3f885
:10137000ec22e9e747b14ff45073534a03fb0423cf
:1013800093f8e232032b24d04ff450734e4a03fb00
:1013900004239b78012b40f091814ff4507303fba1
:1013a0000423d3f8ec02b0f1ff3f00f0c78009f04e
:1013b000bdfa002800f082814ff45073424a03fbcb
:1013c00004234ff0ff32c3f8ec22052283f8df221a
:1013d00074e14ff4507303fb04239b78012b47d037
:1013e0004ff45073384a03fb042393f8ae32002bba
:1013f0004bd14ff45073344a03fb04239b78002bea
:101400004dd002233b724ff450732f4a03fb042349
:1014100093f8a63213b97b695b027b617b7f012b5a
:1014200056d04ff45073284a03fb042393f8ad328f
:10143000002b6ed14ff45073234a03fb0423002288
:1014400083f8e422bb69012b6dd019233b774ff45d
:1014500050731d4a03fb0423012283f8e5224ff455
:101460005073194a03fb0423062283f8df2225e187
:101470004ff4507505fb0425d5f8ec0208f05afa34
:101480004ff0ff33c5f8ec32aae7ff233b724ff46d
:10149000507303fb04230d2283f8df220ee14ff487
:1014a000507303fb04239b689b6b98470028a8d1cb
:1014b0004ff45073044a03fb04230f2283f8df2206
:1014c000fce000bf00751903e00c402080f0fa0238
:1014d0004ff45073c24a03fb0423012283f8e42231
:1014e000bb6993420ad012233b774ff45073bc4a36
:1014f00003fb0423012283f8e522b0e711233b77a5
:101500004ff45073b64a03fb0423002283f8e5220c
:10151000a5e7ff233b724ff4507303fb04230d2216
:1015200083f8df22cae018233b774ff45073ac4aac
:1015300003fb0423002283f8e52290e705f53b71c5
:101540004ff4507303fb04231144586807f0acfeba
:10155000012840f0b3804ff45073a14a03fb0423e9
:101560000d2283f8df22a9e09d4b4ff4507707fb53
:101570000437002287f8e322b7f8a22205f2e32518
:101580002b440093012312040d21304604f026f869
:1015900097f8e232032b40f0918097f8dd3243b1a7
:1015a0004ff450738e4a03fb04230f2283f8df228b
:1015b00084e0bb681b6a03a900209847039bc3f320
:1015c0004323032b03d00f2287f8df2276e04ff46a
:1015d0005073834a03fb0423042283f8df226de067
:1015e0007f4b4ff4507707fb0437b7f8a22205f280
:1015f000e3252b440093022312040721304603f015
:10160000edff97f8e232032b58d197f8dd3243b162
:101610004ff45073724a03fb04230d2283f8df2238
:101620004ce0bb681b6a03a900209847072387f892
:10163000df3243e0002f4cd0b86901284ff45073db
:10164000674a03fb04239b685b6a0cbf002080b2df
:1016500098474ff45073624a03fb04239b689b6acc
:101660004ff4007098477b7f002b3bd0012b3fd07d
:101670004ff450785a4b08fb0438012388f8e332c2
:10168000b969d8f808305b6b7a7f490238699847a6
:10169000082388f8df327a69397f514f05f2e32554
:1016a0003d4400950123304603f098ff4ff45073fa
:1016b00003fb047393f8e232032b1fd04ff45072f4
:1016c000474b02fb0434012384f8283305b0bde8fe
:1016d000f0834ff45073424a03fb04230d2283f836
:1016e000df22ebe7b9694902386908f017fbbfe769
:1016f000b9694902386908f0f5fab9e74ff450734f
:1017000003fb0473002283f8e32293f8dd323bb934
:101710004ff4507303fb0473092283f8df22cde7f3
:101720004ff450732e4a03fb04230d2283f8df226b
:10173000c4e74ff450732a4a03fb042393f8af32f3
:10174000002bbbd04ff4507303fb0423b3f8b23229
:1017500023f4fb4323f00f039bb26bb9a7b1bb6922
:10176000012b4ff450731e4a03fb04238cbf0a2243
:101770000b2283f8df22a1e74ff4507303fb04230d
:101780000d2283f8df2299e74ff45073144a03fbcc
:1017900004230d2283f8df2290e7114f05f2e325a1
:1017a0003d440095022300220c21304603f016ff31
:1017b0004ff4507303fb047393f8e232032b7ff46e
:1017c0007daf4ff4507303fb047393f8dd324bb9d4
:1017d0004ff4507303fb04730b2283f8df226de791
:1017e000e00c40204ff45073784a03fb04230d2291
:1017f00083f8df2262e7754b4ff4507707fb04371d
:10180000b7f8a22205f2e3252b440093012312042a
:101810000d21304603f0e2fe97f8e232032b7ff40d
:101820004daf97f8dd3243b14ff45073674a03fb75
:1018300004230d2283f8df2240e7bb681b6a03a95b
:1018400000209847039b13f4807f3ff437af0c22ae
:1018500087f8df2232e7dff8748105f2e32545449b
:10186000009500231a460721304603f0b7fe4ff4d7
:10187000507303fb048393f8e232032b7ff41eaf13
:1018800000233b724ff4507303fb04830e2283f852
:10189000df2213e74ff450734c4a03fb04239b7879
:1018a00033b34a4b4ff4507808fb0438002288f8d1
:1018b000e322b8f8a22205f2e3251d440095012396
:1018c00012040d21304603f089fe98f8e232032b12
:1018d0007ff4f4aeff233b720e2288f8df2298f8e3
:1018e000dd32002b3ff4eaae0022394b1a70e5e6f8
:1018f0004ff4507505fb0425ab689b6b9847344b40
:101900001870ff233b720e2385f8df32d6e6b7b19d
:101910007968c8b24ff450722c4b02fb0432d2f8f3
:10192000d83203eb0013da68914214d0d6f8cc32e7
:101930002bb11a6ac6f8cc2200221a621a70244b04
:101940001b78a3b14ff45073204a03fb04230422f5
:1019500083f8df22b2e65d68002de7d097f9080032
:101960009a68f968003018bf0120a847dee7012215
:10197000174b1a704ff45073144a03fb04230f22c1
:1019800083f8df229ae69a68e9684046c847002350
:101990002b622b70d6f8cc526db12b6ac6f8cc32c4
:1019a0002a79d7f8d83203eb0213d3f80490b9f1af
:1019b000000fe8d1ebe74ff45073044a03fb042314
:1019c000002283f8de2283f8df2277e6e00c402055
:0419d000b61c4020e1
:020000040000fa
:020000040040ba
:1019d4002de9f04f97b016ad45f8140d0c46164698
:1019e4001f46284607f084f80028c0f24883ab4b12
:1019f40053f820300bb100221a70a94b13f8105081
:101a040003eb400393f80180a64b002c08bf1c464f
:101a1400284609f08df810f0010f01d003232fe3bd
:101a240010f0040f01d00a232ae363681593002bf6
:101a340049d0159a531eb3f5004f4ed30123159385
:101a440094f801b00bf1ff33dbb2022b28bf4ff047
:101a5400010ba3685a1eb2f5004f41d203f00f02e6
:101a6400002a18bf4ff400730093e368b3f1807f3a
:101a74003ad85a1e1a40002a0cbf99464ff0000962
:101a84005fea572a00f00083002e00f0fd822378dd
:101a9400019300231493b8f1000f41d001230022d5
:101aa4003146284605f06cfd002840f0ef8296f898
:101ab400ff2196f8fe3143ea02231bb27a4a93428d
:101ac40015d00e23dce215aa0321284608f0ecf811
:101ad4000028aed001231593b2e71a42aed1afe786
:101ae4004ff400730093c0e74ff00009c8e7b8f162
:101af400040f01d90e23c3e206eb081494f8b231a3
:101b040004f5d774002b00f0c38204f1080008f038
:101b140047ff029004f10c0008f042ff149015e016
:101b240014aa0121284608f0bff8002840f0b28228
:101b3400019b13f0080f07d1149b3f2b0bd93f3b9c
:101b440014933f23029301e00023029314997f2905
:101b540004d80e2394e200230293f7e7019a12f0cb
:101b64000203049324d002f00103002b0cbf0323cf
:101b740002230393cdf820b04fea5923802b28bfca
:101b840080234fea113e009ac2f3161210461092b7
:101b94004fea514c159a541e0a94524206920b90e5
:101ba4000c95039dcdf834800e965e460f9796e211
:101bb400019b13f0010f08bf132300f0618202237d
:101bc4000393d7e79946032588e283b9bcf1000f54
:101bd4002dd0364a901c4ff002094a46944507d34b
:101be4004fea490930f8022f002af7d100e099465c
:101bf400b1fbf9f2900000f207204fea5028a2f559
:101c04007f42f63a2a48824200f24682029a02f160
:101c1400200708fb06700a9a0244069c2240121a06
:101c240000240794202414440594174449e04ff0f9
:101c34000109dde79946b1fbf9f240f6f5708242fd
:101c440020d90232520002f2ff124fea5228029abd
:101c5400571c08fb0670109a10440a9a8218069cb6
:101c64002240121a032d14d0b2fbf6f406fb1424fe
:101c740004b3013a029ca71c022405941ce04ff013
:101c84000109d8e702eb420201325208033201256e
:101c9400d9e70b9c07940124c5e700bfd804402072
:101ca4000802402024ab400055aaffff14ab4000bb
:101cb400fffffe0f01240594b2fbf6f290440b9a49
:101cc4000792029ac2eb091202449142c0f0e681e3
:101cd400059a8c1a06fb1844079aa41ab4fbf9f463
:101ce4004ff6f572944298bf032d0cbf01220022d7
:101cf400099208d1002b40f0d3815fea590940f0e2
:101d0400ed810e23bce1022d26d14ff6f5729442eb
:101d140012d9002b40f0de814fea4909b9f1400f96
:101d240040f2dc81049a002a7ff44cafb9f1800fb1
:101d340040f2d4810e23a3e140f6f572944200f2fe
:101d44009480002b40f0ae814fea4909b9f1800f2d
:101d540040f2c4810e2393e12b46039504970c9d16
:101d6400cdf81880ddf834800e9e0f9f012b14bf30
:101d7400002301231a46099340f6f5739c4202d9c5
:101d8400002a40f091814ff400720021304608f09f
:101d940059ff0b22c849304608f042fe0023f37273
:101da4000223337386f80d90059ab273c2f30723a6
:101db400f37386f810b0039b032b009b08bf00232a
:101dc4007374c3f30723b3741499b1f5803f56d2e7
:101dd400f174c1f307213175f82373753f2333760a
:101de40000237376ff22b276f376029906f11c0083
:101df40008f076fe039b032b46d108f0cafa01468d
:101e040006f1430008f06cfe069906f1240008f080
:101e140067fe022106f12c0008f062fe4ff0010b70
:101e240086f830b0002386f83130062286f8322056
:101e340086f83330802386f84030292386f84230f0
:101e440013229e4906f1470008f0eafd552386f85f
:101e5400fe31aa2386f8ff315b46029a31462846b2
:101e640005f03cfcb8b301230ae1039504970c9deb
:101e7400cdf81880ddf834800e9e0f9f83e706f1bd
:101e8400200008f02dfea7e708f083fa014606f1ca
:101e9400270008f025fe069ab275c2f30723f375ee
:101ea400802386f82430292386f826301322844997
:101eb40006f12b0008f0b4fd552386f8fe31aa2361
:101ec40086f8ff310123029a3146284605f006fcc4
:101ed400b0b30123d4e00123029a063231462846e6
:101ee40005f0fcfb4ff400720021304608f0aafe16
:101ef4007449304608f0f4fd734906f5f27008f0b1
:101f0400effd611e06f5f47008f0eafd022106f506
:101f1400f67008f0e5fd552386f8fe31aa2386f80d
:101f2400ff310123029c224607323146284605f040
:101f3400d5fb012322461a443146284605f0cefb40
:101f4400624a3a400021304608f07cfe099b002b8f
:101f54005f4b08bf6ff0070300934ff0000b331d76
:101f64000293089b9b453ad3079b039a032a18bf05
:101f74009946049f4c46d14528bf544623463a46c9
:101f84003146284605f0aafb002840f091802744fa
:101f9400b9eb0409eed1039a032a53d0149bb3f589
:101fa400803f51d2022a0cbf04240124b8f1000f4f
:101fb4004cd0012300223146284605f0e1fa0028de
:101fc40078d106eb081888f8b24101230022314683
:101fd400284605f083fb002848d0012350e0039bea
:101fe400032b2ad16ff00701304608f079fd4ff03a
:101ff400ff31029808f074fd6ff0704106f108009b
:1020040008f06efd069c2746544528bf57463b46bc
:10201400049a3146284605f061fb002846d14ff466
:1020240000720021304608f00dfe049b3b440493eb
:10203400e41be8d10bf1010b93e70099304608f05b
:102044004ffddfe70c24b1e70624afe7019b13f053
:10205400080f0bd1149b129300231393334622468b
:1020640012a9284603f0b2f8034648b900221146e3
:10207400284607f019fe031c18bf012300e00b23b8
:10208400184617b0bde8f08f1123f9e70123f7e7ed
:102094000e23f5e70123f3e70e23f1e70e23efe721
:1020a4000e23ede70e23ebe70e23e9e70123e7e731
:1020b4000123e5e70123e3e7289140003491400040
:1020c40048914000525261417272416100feffff2b
:1020d400f8ffff00049adab1994603254b46032d15
:1020e4003ff473ad002b7ff4a5adbef1000f3ff4b8
:1020f400c6ad084a901c4ff0020904229645fff42d
:102104009aad4fea490930f8022f002af6d192e538
:082114000e23b5e704ab400007
:020000040000fa
:020000040040ba
:10211c00a41b40201c000000000000000000402018
:10212c003000000000000000201c402024000000b3
:10213c0000000000841c4020100000000000000083
:10214c003000402008000000000000003800402053
:10215c001000000000000000d40440200400000027
:10216c0000000000480040200800000000000000b3
:10217c006c1b402038000000000000006c1a40204e
:10218c00a000000000000000b01c40200200000075
:10219c0001000000010000006000402074010000fc
:1021ac0000000000e00440200008000000000000d7
:1021bc00441c40201800000001000000e0014020f9
:1021cc0020044020d0ab4000000000002002402042
:1021dc00000000005c1c4020140000000100000006
:1021ec0018a640001ca6400020a6400028a64000cf
:1021fc002ca64000e00140205c0200000000000022
:10220c00c01b4020380000000000000020104020bf
:10221c0060020000000000008012402060020000fc
:10222c0000000000b41c4020010000000000000071
:10223c00b51c40200100000000000000d804402024
:10224c000400000000000000941c4020100000005e
:10225c0000000000b21c4020020000000000000042
:10226c00001740200002000000000000e014402095
:10227c002002000000000000f81b40202800000095
:10228c0000000000e00c40204003000000000000b3
:10229c00b61c4020010000000100000001000000fd
:1022ac003c04402030000000000000006c04402082
:1022bc003000000000000000701c402014000000e2
:1022cc00000000009c044020010000000000000001
:1022dc00a004402030000000000000000019402045
:1022ec006c01000001000000430000000000000031
:1022fc0000000000000000000000000000000000d2
:10230c00000000000000000043000000000000007e
:10231c0000000000000000000000000000000000b1
:10232c00000000000000000043000000000000005e
:10233c000000000000000000000000000000000091
:10234c00000000000000000043000000000000003e
:10235c000000000000000000000000000000000071
:10236c00000000000000000043000000000000001e
:10237c000000000000000000000000000000000051
:10238c0000000000000000004300000000000000fe
:10239c000000000000000000000000000000000031
:1023ac0000000000000000004300000000000000de
:1023bc000000000000000000000000000000000011
:1023cc00000000000000000013a940004da44000d4
:1023dc00000000006465400081ac400080ac40000f
:1023ec0080ac400080ac400080ac400080ac400031
:1023fc0080ac400080ac400080ac400080ac400021
:10240c00ffffffffffffffffffffffffffff0000ce
:10241c000100415343494900000000000000000046
:10242c0000000000000000000000000000000000a0
:10243c000000415343494900000000000000000027
:10244c000000000000000000000000000000000080
:10245c0000000000dc04402004000000000000002c
:10246c00a41c40200400000000000000a81c402018
:10247c0004000000010000000c1b40200c1b40203d
:10248c00600000000100000000000000d0a6400029
:10249c00f0a64000b0a640000000000000000000c4
:1024ac000000000000000000000000000000000020
:1024bc000000000000000000000000000000000010
:1024cc000000000000000000000000000000000000
:1024dc0000000000000000000000000000000000f0
:1024ec000000000000000000d004402004000000a8
:1024fc0000000000ac1c40200400000000000000a4
:10250c0000000000000000002222222222222222af
:020000040000fa
:020000040040ba
:10251c002de9f04f83b09c4b1e68197d21b933789f
:10252c004bbb03b0bde8f08f3378002b40f0c28179
:10253c0030460022531cdbb29942f2d010f8284fdf
:10254c000cb91a46f6e70232d2b2012a08bf0022b1
:10255c008d490a75ff2be4d003eb8303dc0035199e
:10256c006b79012b09d02b7b042bdad8dfe803f035
:10257c000a1d2e5081000b46eee72b7b042b10d04e
:10258c0000232b7395f82030012b00f06e81002373
:10259c00335585f820306b71ab70eb706b702b7111
:1025ac00bfe70022784b5a75eae7ab685b6a0321f8
:1025bc00e88898476861b0f1ff3fb2d0ab681b69ff
:1025cc002a467249984702232b73aae7ab681b680b
:1025dc006869984770b195f820301bb1012385f8d4
:1025ec0020309ee7ab685b68686998476862032394
:1025fc002b73f3e795f82030012b03d0002385f8db
:10260c0020308ee7284608f0f5f800232b71f5e70b
:10261c005d4b5b7d012b84d001225b4b5a756b6a41
:10262c001b691b68b3f5007f04d24ff40074b4fb34
:10263c00f3f400e00124544e4ff400720021306991
:10264c0008f0a2fa022385f8213032696869ab6878
:10265c0000949c68002305f11c01a047eb69b3f1c1
:10266c00ff3f02d004232b735be70022464b5a75c5
:10267c0057e795f92130022b06d06bb10022424b63
:10268c005a7503232b734ce7ab68db6a002b3ff4c2
:10269c0048af2869984744e73b4b1e6900236b7091
:1026ac0096f8fe31552b0ed0002634464ff0ff081d
:1026bc00354b5f683b78002b6ad00022324b5a7541
:1026cc0002232b732de796f8ff31aa2b01d000269d
:1026dc00ebe73378eb2b2bd096f8c20107f02effeb
:1026ec0007460446687096f8d20107f027ff20b120
:1026fc0047f0020401376f70e4b296f8e20107f07c
:10270c001dff28b144f00404e4b26b7801336b7004
:10271c0096f8f20107f012ff28b144f00804e4b275
:10272c006b7801336b70002c40f0c1800126bce744
:10273c007378582b18bf3c2b01d0fe2bccd1b3781f
:10274c00902bc9d101236b7096f85230462b00f0b8
:10275c00908096f85330412b00f0908096f85430ce
:10276c00542b00f0908096f83630462b00f0908079
:10277c0096f83730412b00f0908096f83830542b77
:10278c0000f09080002690e7441c4020f99d40000a
:10279c004a4bd3f810a02b7901332b712a7e484b6e
:1027ac0053f822b0584608f0f7f95ffa80f94a4618
:1027bc005946b81c07f00dfdaa7807eb09039a706f
:1027cc0009f1010357fa83f32a7930329a7009f12f
:1027dc00020357fa83f300229a70bd6187f80180d7
:1027ec001cb314f0010f29d01446b8f1ff0f1cd004
:1027fc00344b33f814301af803207a705344d97ad6
:10280c009a7a120402eb0162597a02eb0122197acc
:10281c000a447a61d9799a79120402eb01625979e6
:10282c0002eb01221b7913443b61c6b1264bea78bb
:10283c001a7001345c7001233b703ee714f0020ff8
:10284c0001d00124d1e714f0040f01d00224cce70d
:10285c0004f00804002c0cbf00240324c5e71a4b19
:10286c00ea781a7000225a70e5e7284607f0c2ff92
:10287c008de6002634464ff00b0819e70026344647
:10288c004ff00b0814e7002634464ff00b080fe707
:10289c00002634464ff006080ae7002634464ff06f
:1028ac00060805e7002634464ff0060800e7012627
:1028bc00b046fde60023014a13754de6441c40204a
:0c28cc005c1c402000ad400008024020d1
:020000040000fa
:020000040040ba
:1028d8002de9f04f0d4697b090461c46074618b1b3
:1028e80083690bb906f0c2f98f4b9d4258d17d68b8
:1028f800ab8918075ed52b69002b5bd000230993a1
:1029080020238df8293030238df82a304ff0010a22
:10291800c1464e4616f8013b002b56d1b9eb080bc1
:102928000bd05b4642462946384606f07ffd01300b
:1029380000f05981099b5b44099399f80030002bfa
:1029480000f0518100234ff0ff3204930793059262
:1029580006938df8533005223178744805f05cf8f9
:1029680006f10109049b002833d1d90644bf20226f
:102978008df853201a0744bf2b228df85320327844
:102988002a2a2ed0079a00210a20b146013699f842
:102998000030303b092b72d900292fd007922de047
:1029a800634b9d4201d1bd68a2e7624b9d4208bfbf
:1029b800fd689de72946384604f08cf900289dd02b
:1029c8004ff0ff3017b0bde8f08f252ba6d0b146e9
:1029d8009fe7564a801a0afa00f0184304904e46b8
:1029e800b9e72268002a04f10401bbbf524243f050
:1029f800020307920792b8bf04930c4699f8003077
:102a08002e2b10d199f801302a2b09f101013ad166
:102a18002268002a04f10403b8bf4ff0ff3209f11d
:102a2800020905921c46444e99f8001003223046cc
:102a380004f0f2ff40b14023801b03fa00f0049b2e
:102a48000343049309f1010999f800103b488df8f4
:102a58002810062204f0e0ff9df82820692a09f1d1
:102a6800010827d037d8582a00f0c3801ed8002a7a
:102a780000f0ec8001238df85220089348e000fb19
:102a88000232012181e70023059318460a26894668
:102a9800013199f80020303a092a03d9002bc2d015
:102aa8000590c0e706fb00200123f0e7632a29d040
:102ab800642adfd1049b13f0800f04f104022dd0a7
:102ac8002368002b144603da2d225b428df853202d
:102ad8001b490a2244e0702a00f0968009d86f2a20
:102ae800c8d1049b13f0800f04f104012cd0236893
:102af8002de0752af5d0782abcd178238df8553089
:102b0800104979e023688df8523001230893043482
:102b180000238df853300df1520642e013f0400fb8
:102b2800236818bf1bb2cce7d0a640001e9f400008
:102b3800f0a64000b0a64000249f4000289f400017
:102b4800fc9e40000d9f40005806d0d523886f2a70
:102b58000c464b490cbf08220a2200208df853006e
:102b6800059e0696002e0df1530ec0f28280049841
:102b780020f004000490002b5cd1002e7bd1764617
:102b8800082a0bd1049bd80708d5089b059a9a42b6
:102b9800debf302306f8013c06f1ff36aeeb060334
:102ba8000893384b009303aa2b4604a9384603f030
:102bb8003dff013017d0089b32462946384606f0bb
:102bc80035fc01300fd0049b990705d50026039ae0
:102bd800079b9b1a9e423ddb039a079b9342b8bf13
:102be80013465a1c41d1ab895b063ff5e9ae0998fb
:102bf800e8e623498df85520049a12f0800f04f175
:102c0800040006d0236807e0049b43f020030493e4
:102c180073e75306f6d52388d60748bf42f020024b
:102c2800044648bf04921bb9049a22f02002049279
:102c3800102292e77646b3fbf2f002fb1033cb5c2e
:102c480006f8013d03460028f5d199e708920df1f1
:102c58005306a6e701230df129022946384606f056
:102c6800e5fb0130bfd00136b1e7099a1344099357
:102c78004ee6002bded116ae0b7806f8063d7fe750
:082c8800fc9e40003594400061
:020000040000fa
:020000040040ba
:102c90002de9f04f87b083468946036802930b788d
:102ca0002f2b0bd05c2b09d0029b9b69836099f87a
:102cb00000301f2b10d9dff874a38be12f2b01d02c
:102cc0005c2b05d119f8013f2f2bfbd05c2bf9d0e1
:102cd0000023cbf80830eae780238bf82f3000215f
:102ce000584604f0d7fa03462ce082b22f2a18bfc8
:102cf0001f2a2bd95c2a29d07f2a12d9fe2c20d852
:102d000025f81420013405a807f0cefab0f1ff3ff2
:102d100017d0b0f5803fe8d3030c25f81430013408
:102d2000e3e71046222a00f07c812a230af10d01f4
:102d3000984204d011f8013f002bf9d1dee7002bb7
:102d4000dcd00623184607b0bde8f08f1f2a0fd944
:102d5000059b1a782f2a01d05c2a52d101330593a2
:102d60001a782f2afad05c2af8d04ff0000801e038
:102d70004ff00408ddf81490012c45d0022c59d0f6
:102d8000002c00f04c816ff00043234405eb43021c
:102d900035f81330202b01d02e2b08d1013c00f048
:102da0003e8132f8023d202bf8d02e2bf6d0610068
:102db000002325f814302b88202b42d12a460026e8
:102dc000013632f8023f202bfad02e2b00d00eb164
:102dd00048f003088a1eab18aa5a2e2a05d0013cd7
:102de00003d033f8022d2e2af9d10b2220210bf12a
:102df000240007f029ff0823019300230093039385
:102e000024e04ff00008b5e72b882e2bbbd1002320
:102e100025f814300bf123029c428cbf2e21202177
:102e200002f8011f01330b2bf6d148f020088bf874
:102e30002f80b3e06b882e2ba5d12b882e2ba2d10f
:102e4000e5e70026c1e748f003083e46771c35f861
:102e50001600002800f081802028f4d02e2801d10f
:102e6000a742f0d1009b019a93420fd2a7420dd006
:102e70007f2828d8ff2849d9019a531e00999942e2
:102e80003cd348f003083e460092dfe7019b0b2b42
:102e90000fd0a74218bf48f00308a7425dd8039b94
:102ea0009b00dbb2039326460b2301930823009378
:102eb000cce748f003089bf82430e52b54d10523d8
:102ec0008bf824304de048f0020840f2b51106f0ce
:102ed00075fc10f0800f03d000f07f00524b185c9f
:102ee000ff28c9d890b948f00308009b5f205a1cfe
:102ef00000925b4483f824003e46a7e7009a1346fd
:102f000001335a44010a82f82410f0e72b28ead052
:102f10002c230af1190299b2814219d012f8013f0b
:102f2000002bf8d1a0f141039bb2192b03d8039bce
:102f300043f002030393a0f161039bb2192b0ad85b
:102f4000039b43f001030393203880b2009bcee73c
:102f5000002bc8d1e6e7009bc9e79bf82430e52b9e
:102f6000add0019b082b3cd0039a02f00c030c2b34
:102f70003cd002f00303032b38d018f0020f0bd122
:102f8000039b13f0010f18bf48f01008039b13f0c8
:102f9000040f18bf48f008088bf82f80584601f03e
:102fa00037f99bf82f20034618bb12f0040f7ff46b
:102fb000c9ae9bf8063013f0100f2ed0029800f126
:102fc0004001dbf81430c3f30803194407f030fb69
:102fd000cbf80800cdf81490dbf80030dd68002451
:102fe00091e6039b9b00dbb20393bde748f0020828
:102ff000c3e7042b7ff4a6ae12f0200f07d012f027
:10300000040fe7d080238bf82f3000239ae602f0dc
:103010000402002a08bf052394e6052392e6002354
:103020002b8006238ee600bfa0814000089140005f
:020000040000fa
:020000040040ba
:103030002de9f04385b00d46164600230b6005f0e0
:1030400059fd071ec0f25381b84b53f82740002c9e
:1030500000f051812c6006f0fe0623787bb1607889
:1030600007f08efe10f0010f09d1002e00f045810f
:1030700000f0040000280cbf00200a2038e10023e3
:103080002370ab4b13f81700607007f053fd10f07e
:10309000010f01d003202be126b110f0040f01d065
:1030a0000a2025e1a24b03eb47077f780021204649
:1030b00005f0b2f9022801d029d847b3042f01d96d
:1030c0000d2015e104f206256e4604f24628284636
:1030d00007f068fc46f8040b1035a845f7d12fb16e
:1030e0007d1e0deb85064ff003080ae03d46f8e72c
:1030f000204605f091f957b9012808d90135032d6b
:1031000005d856f8041b0029f2d14046f3e70428fd
:1031100000f0f580012801d90d20e9e094f84c2059
:1031200094f84b3043ea02231bb2b3f5007f01d081
:103130000d20dde094f8573094f8567057ea0327d5
:1031400004d104f1640007f02dfc0746666b27628a
:1031500094f85050a5706b1edbb2012b01d90d20e5
:10316000c6e094f84d901ffa89f36381002b00f0bc
:10317000c88009f1ff3313ea090f01d00d20b7e031
:1031800094f8523094f8518048ea0328a4f8088053
:1031900018f00f0f40f0b78094f8543094f85300b3
:1031a00050ea032003d104f1600007f0fbfb94f820
:1031b0004f2094f84e3053ea022300f0a68007fb1c
:1031c00005f203eb181111448842c0f0a080451aa3
:1031d000b5fbf9f5002d00f09c805648854294bf60
:1031e0004ff003094ff000094ff6f570854298bf84
:1031f0004ff0020940f6f570854240f2a980b9f11e
:10320000000f00f088800235e56166623344a362f6
:1032100031442163b9f1030f40f0a38094f86b208f
:1032200094f86a3053ea022377d1b8f1000f74d1d1
:1032300004f16c0007f0b6fbe062ab0003f2ff1391
:10324000b7eb532f6bd34ff0ff33636123618023c0
:10325000237194f8712094f8703043ea02231bb272
:10326000012b28d1711c204606f090fd18bb0023cd
:10327000237194f83f2294f83e3243ea02231bb2b2
:103280002d4a934217d104f1400007f08bfb2b4be2
:10329000984210d104f5097007f084fb284b98423e
:1032a00009d104f50a7007f07dfb606104f50b702d
:1032b00007f078fb206184f80090224a13880133dc
:1032c0009bb21380e380204be3600023a3611f4b7c
:1032d0001b689c4202d100221c4b1a60002007e0b0
:1032e00005eb450305f0010505eb530542e00b2016
:1032f00005b0bde8f0830c20fae70020f8e70120d4
:10330000f6e70d20f4e70d20f2e70d20f0e70d20a1
:10331000eee70d20ece70d20eae70d20e8e70d20b1
:10332000e6e70d20e4e70d20e2e700bfd8044020e7
:1033300008024020f5ffff0f55aaffff52526141de
:1033400072724161b21c402000174020941c402042
:103350000235e56166623344a3620e4426634ff092
:103360000109b8f1000fdcd01344e362b9f1020f98
:10337000b6d16d0005f2ff15b7eb552fd3d34ff043
:0c338000ff33636123618023237194e715
:020000040000fa
:020000040040ba
:10338c002de9f04f9fb004460d4690464c2200218b
:10339c000ba807f053fc0b944ff0000b0ae1d0463e
:1033ac0008e16978302947d02d294ad00235de460c
:1033bc002a294dd0a1f13003dbb2092b46d85c464b
:1033cc0004eb840401eb4404303c15f8011ba1f11f
:1033dc003003dbb2092bf3d901f0df034c2b03d103
:1033ec004ef0040e29780135002900f02b81a1f153
:1033fc006103dbb2192b32d8a1f12003dbb2a3f1ac
:10340c004202162a67d8dfe812f017015d006a0045
:10341c006600660066006600660066006600660070
:10342c0066006600ea006600660066002e00660014
:10343c006a00660066002c00a97803354ff0010e77
:10344c00b6e7a97803354ff0020eb1e75c46c3e747
:10345c00d8f80040297808f104080135bce70b4680
:10346c00cde71027bce008f1040ad8f800703978d1
:10347c00002900f0aa803b465a4600e03246561c12
:10348c0013f8010f0028f9d11ef0020f00f0bc80d8
:10349c000ba806f00cfa17f8011f0029f8d1771cbd
:1034ac00b4427ff67caf0134202631460ba806f0df
:1034bc00fef90137bc42f8d1d0467be05e460123d1
:1034cc000193a5e008f1040498f800100ba806f08d
:1034dc00eef9a0466ee00ba806f0e9f96ae01ef0e2
:1034ec00040f07d1442b14d1d8f8002008f104089c
:1034fc000a2706e00a2700e00227d8f8002008f186
:10350c000408442b73d1002a71da52424ef0080e93
:10351c006de00a2767e00cf10106303300f8013f3b
:10352c0069b11f2e0bd8b446b2fbf7f107fb112380
:10353c00dbb20a46092beed94b44dbb2ebe71ef0ab
:10354c00080f06d01eab1e442d2306f86c3c0cf164
:10355c0002060ef00103002b14bf302720271ef0ab
:10356c00020f10d106f10109a6420dd204f1010a95
:10357c0039460ba806f09bf909f10109ca45f7d1a8
:10358c0004f1010900e0b14603ab1e449a4616f85b
:10359c00011d0ba806f08bf9b245f8d109f1010613
:1035ac004c4507d9013439460ba806f080f9013691
:1035bc00a642f8d12978002944d025293ff4f1ae50
:1035cc0001350ba806f073f9f4e71ef0020f04d1d5
:1035dc00002c7ff473af012661e75e465fe7082796
:1035ec001ef0040f89d1d8f8002008f104087829be
:1035fc000cbf4ff027094ff007090df10b00dc460b
:10360c0092e73978019e43e7931c0193b442f8d9b1
:10361c0004f10109ddf8048020210ba806f047f91c
:10362c0008f10108c845f7d1019b9e1b2644397847
:10363c0000297ff42daf32e71ef0040f7ff45caf4e
:10364c000227d0e70ba806f0b9fa1fb0bde8f08f3f
:020000040000fa
:020000040040ba
:10365c002de9f04f099f15469c4604468846002be1
:10366c0040f0cd808a424cd9b2fa82febef1000ff6
:10367c000bd0cef1200802fa0ef520fa08f801fa68
:10368c000ef248ea020800fa0ef44fea1549abb202
:10369c00b8fbf9fa260c09fb1a820afb03fb46ea73
:1036ac00024293451ed952190af1ff3004d29345b8
:1036bc0002d9aaf102002a44a2eb0b02a4b2b2fb7b
:1036cc00f9f609fb162206fb03f144ea0243994280
:1036dc000ad95b1906f1ff3207d2994205d9b21efd
:1036ec002b4402e05046e7e732465b1a42ea0040c0
:1036fc0027b123fa0ef33b6000237b606146bde8e3
:10370c00f08f12b90125b5fbf2f5b5fa85febef1c5
:10371c00000f2ed14a1b4ff0010c2e0cabb2b2fb9a
:10372c00f6f8210c06fb182208fb03f941ea0242c9
:10373c00914560d9521908f1ff3004d2914502d954
:10374c00a8f102002a44a2eb0902a4b2b2fbf6f8db
:10375c0006fb182208fb03f144ea024399424cd9b8
:10376c005b1908f1ff32c0d29942bed9a8f102020e
:10377c00b6e7cef1200421fa04fc01fa0ef220fa8d
:10378c0004f405fa0ef544ea02064fea154800fa6d
:10379c000ef4bcfbf8f1aab208fb11cc300c01fb07
:1037ac0002f940ea0c43994521d95b1901f1ff302c
:1037bc0003d2994501d9881e2b44a3eb0903b6b259
:1037cc00b3fbf8f908fb193309fb02f146ea034293
:1037dc0091420ed9521909f1ff3c04d2914202d9ff
:1037ec00a9f1020c2a44521a4cea004c95e70846ff
:1037fc00e3e7cc46f7e74046a5e7424675e78b4240
:10380c0006d90fb187e803004ff0000c604675e74e
:10381c00b3fa83f68eb98b4201d382420bd8841a49
:10382c0061eb030201209046002f6bd087e810015a
:10383c004ff0000c62e73046f6e7c6f1200eb340bd
:10384c0022fa0ef51d4321fa0efb02fa06f401fad8
:10385c0006f220fa0ef10a434fea15491ffa85f8d1
:10386c00bbfbf9fa4fea124c09fb1abb0afb08f135
:10387c004cea0b4c614500fa06f33fd91ceb050ce6
:10388c000af1ff3004d2614502d9aaf10200ac441e
:10389c00aceb010c92b2bcfbf9fa09fb1acc0afb9b
:1038ac0008f842ea0c4188452ad949190af1ff3235
:1038bc0004d2884502d9aaf10202294442ea004006
:1038cc00a1eb0801a0fb04894945c246cc4602d3b2
:1038dc0006d1434504d2b8eb040a69eb050c013858
:1038ec0087b1b3eb0a0261eb0c0303fa0efef24054
:1038fc004eea0202f34087e80c0099e75046c7e70e
:08390c005246dbe7bc46f9e678
:020000040000fa
:020000040040ba
:103914002de9f04f8bb090f82f3013f0a00f04d0a6
:10392400062738460bb0bde8f08f0668f3681a889e
:1039340012b34ff0000a0af1010a33f8022f002ae9
:10394400f9d1054600f124040c22214607a807f00a
:1039540067f89df8273013f0010f7bd0402385f8da
:103964002f300b2207a9204607f05af84ff001091f
:103974004b46dff8448203e04ff0000ae1e74b4690
:103984000df11b07072203f00f0000f13001392964
:1039940088bf00f13701013a07f801191b09f2d178
:1039a4007e200aa9114401f8140c62b195f8241080
:1039b40020290bd0214601339a4206d011f8010f79
:1039c4002028f8d102e0134600e0134623442020c7
:1039d40005e0014603f8011b191b072907d8072a2c
:1039e400f7d80aa9114411f8141c0132f2e7284649
:1039f40000f00cfc074618bb09f10109b9f1640f8a
:103a04001cd0f7680b2207a9204607f009f8b9f182
:103a1400050fb4d9023f4b4637f8022f002aafd026
:103a2400102102f0010000eb4303520813f4803f1d
:103a340018bf83ea08030139f3d1ede7072770e7dc
:103a4400b9f1640f74d004287ff46baf9df827306c
:103a540085f82f309df8273013f0020f00f0858091
:103a64000af10c03524aa2fb03234fea930a0af118
:103a74000101284605f01cfb074600287ff451afde
:103a8400baf1000f79d06969a1eb4a11284603f015
:103a9400fffb074600287ff444af204606f074fe7f
:103aa400019000230293039419e0384649e04ff64d
:103ab400ff72934202d03cf810300bb948f0400832
:103ac40081f800800123f3700021284603f096f862
:103ad400074600287ff425afbaf1010a26d0e96928
:103ae400304606f051f9074600287ff41aafd6f89d
:103af4000cc0296a5ffa8af89df804304b734ff0c2
:103b04000f03cb724ff000030b738b76cb7608f167
:103b1400ff3000eb400300eb8300264a02f10d0e58
:103b2400029b4ff6ff744ff0ff090de0039c24e065
:103b34000727f6e6177801eb070b01f807908bf8d7
:103b4400019001329645b2d0a342f3d0471c3cf811
:103b54001030107801eb000b0b54180a8bf801009d
:103b6400002ba2d138462346ebe70121284605f075
:103b74009ffa074600287ff4d4aee969304606f080
:103b840003f9074600287ff4ccae20220021286ade
:103b940007f058f80b222146286a06f041ff2a6aea
:103ba40095f82f3003f0180313730123f370b8e66c
:0c3bb4004fecc44ef4aa400021100100a8
:020000040000fa
:020000040040ba
:103bc0002de9f04391b00191002800f0fa800446fd
:103bd000154602f03f073a4602a901a8fff728fa66
:103be000064610b100232360ece0029b0393019989
:103bf00003a8fff74df80346002840f0e7809df941
:103c00003b30002bc0f2eb8037f0010314bf0121e1
:103c1000002103a805f0a0f9034615f01c0f00f0e1
:103c20009e8050b99df8123013f0110f40f0f980ca
:103c300015f0040f07d00826f4e0042b4cd047f011
:103c40000807002b52d117f0080f51d117f0080fb9
:103c500001d047f04007029b5b6b63620b9ba36242
:103c600037f0010314bf0121002103a804f002fd75
:103c70002061002800f0a380029dddf82c804146e1
:103c8000284606f0d5fca06008f11c0006f08afe6c
:103c9000e0602560eb88a3802775002161752162b3
:103ca000a16104f140084ff40072404606f0ccffd9
:103cb00017f0200f00f08680e568002d00f082806c
:103cc000a561029bb3f80a904fea4929a1684d45c6
:103cd00040f28a80374654e0564b1b680bb11223e2
:103ce00090e003a8fff716fe0346a8e71e4679e713
:103cf0000b9d2946029806f09bfc804606f04bfb84
:103d0000014605f10e0006f0edfe20220b9bda7253
:103d100000220b99029806f0e2fd00210b981c305e
:103d200006f0e0fe0122029bda70b8f1000f90d09d
:103d3000029b5d6b0022414603a804f023f908b101
:103d400006464fe72946029806f020f808f1ff33af
:103d5000029a136100283ff47caf064642e7002830
:103d600063d19df8123013f0100f60d115f0020fdf
:103d70003ff46caf13f0010f3ff468af072631e753
:103d80001f46204603f0eef80146012841d93b4684
:103d9000b0f1ff3f40d0a5eb09050fb9a945efd31e
:103da000e16117b33e461de700eb55222262012375
:103db0004146787803f0e6fb20b1012612e702269f
:103dc00010e70926304611b0bde8f08315f01c0f4e
:103dd0007ff433af002b3ff44faf1e4602e715f0e0
:103de0001c0f0ed10623f5e7e161c5f30803002b94
:103df000e8d0029f384606f0a5fd0028d4d102265f
:103e0000f0e6062347f00807e4e7a5eb09050227db
:103e1000c6e7b0f1ff3ff8d14ff0ff33e361012671
:103e2000e0e60726002ecdd0dce60646dae60426dc
:083e3000d8e600bf941c4020fd
:020000040000fa
:020000040040ba
:103e380061001a03e0001703f8000703ff00010000
:103e480078010001300132010601390110014a01ef
:103e58002e017901060180014d0043028101820192
:103e680082018401840186018701870189018a0111
:103e78008b018b018d018e018f01900191019101c0
:103e880093019401f60196019701980198013d026a
:103e98009b019c019d0120029f01a001a001a2019c
:103ea800a201a401a401a601a701a701a901aa01d1
:103eb800ab01ac01ac01ae01af01af01b101b20180
:103ec800b301b301b501b501b701b801b801ba0131
:103ed800bb01bc01bc01be01f701c001c101c201a7
:103ee800c301c401c501c401c701c801c701ca0192
:103ef800cb01ca01cd011001dd0101008e01de01f7
:103f08001201f3010300f101f401f401f8012801a1
:103f1800220212013a020900652c3b023b023d02d3
:103f2800662c3f0240024102410246020a01530246
:103f3800400081018601550289018a0158028f01da
:103f48005a0290015c025d025e025f029301610207
:103f58006202940164026502660267029701960193
:103f68006a02622c6c026d026e029c017002710280
:103f78009d01730274029f0176027702780279022a
:103f88007a027b027c02642c7e027f02a6018102f7
:103f98008202a9018402850286028702ae014402d8
:103fa800b101b20145028d028e028f029002910288
:103fb800b7017b030300fd03fe03ff03ac0304000a
:103fc8008603880389038a03b1031103c20302002d
:103fd800a303a303c4030803cc0303008c038e03c9
:103fe8008f03d8031801f2030a00f903f303f4035b
:103ff800f503f603f703f703f903fa03fa033004aa
:10400800200350041007600422018a043601c10409
:104018000e01cf040100c004d00444016105260448
:04402800000000bfd5
:020000040000fa
:020000040040ba
:10402c0070b590b006f0d4fd724b1b78092b00f0e4
:10403c00d480062b00f0d1806e4c6f4d05f14806f4
:10404c0074e0002300930122e16aa06a00f08cfe68
:10405c0010b90123237062e01321304605f052faa7
:10406c005de00f2105f15c0005f04cfae06a03f00d
:10407c006ffdb0f1ff3f04d0237a2bb102232370e4
:10408c004de0042323704ae00323237047e00f2103
:10409c0005f16c0005f036fae2682369013b2361f7
:1040ac00022152f8230002f043f86060b0f1ff3fa8
:1040bc0017d004f02ff9132105f17c0005f022fa3a
:1040cc00e269a169606804f063f92062b0f1ff3f16
:1040dc000ad023695bb906232370606804f06efb79
:1040ec001de0042323701ae004232370f5e70f214d
:1040fc0005f1900005f006fa02232370ede7e26863
:10410c002369013b2361002152f8230002f010f8cf
:10411c006060b0f1ff3f0cbf04230723237006f04f
:10412c002ffc2378092b58d0062b56d0092bf6d808
:10413c0001a252f823f000bf4f4040006f404000f6
:10414c009b4040000b414000b14140002b414000de
:10415c00cb4140006d41400083414000db414000b9
:10416c00606804f063fb6061b0f1ff3f0cbf042397
:10417c0008232370d3e7e269a169606804f084f92d
:10418c002062b0f1ff3f07d0236943b906232370a7
:10419c00606804f013fbc2e704232370f8e70323e1
:1041ac002370f5e706f038fd024605f1a00103a8df
:1041bc0005f07cfa322103a805f0a4f9afe71a2127
:1041cc0005f1b40005f09ef905232370a7e71a2129
:1041dc0005f1d00005f096f9a1e7062b4ff01a0176
:1041ec000cbf0648064805f08df90522014b1a70e4
:1041fc0010b070bd000040205c68400010694000a9
:04420c002c694000d9
:020000040000fa
:020000040040ba
:104210002de9f04f87b004460768002103f03af813
:104220008346002840f0b4804ff0ff3323634ff003
:10423000ff0ad14698460be0c4f830804ff0ff09e2
:104240000021204602f0dcfc8346002840f0a080dc
:10425000e169384605f09afd8346002840f09880d1
:10426000256a2e78002e00f09180ea7a02f03f0352
:10427000a371e52ee0d012f0080f01d00f2bdbd197
:104280000f2b19d0b9f1000f04d1284606f07efaa1
:1042900082457dd094f82f3013f0010f07d10b2207
:1042a00004f12401284606f0d5fa002870d0c4f89d
:1042b00030804ff0ff09c3e794f82f3013f0400f20
:1042c000bed116f0400f0cd095f80da006f0bf0639
:1042d0006369236395f80db0d34507d04ff0ff090c
:1042e000aee7b145f6d04ff0ff09a9e7ea7eab7e15
:1042f00053ea022354d1fb68184604932b7803f049
:104300003f03013b03eb430203eb8203dff8b0a062
:10431000012101970596cdf808b01f460394044685
:1043200006e04ff6ff739e4243d1244b9a4519d0c5
:104330001af8013bea185278ee5c46ea0226002998
:10434000efd0ff2f28d8304602f040ff834607f118
:10435000010934f8170002f039ff834524d13146b2
:104360004f46e2e7059eddf808b03a46019f039c00
:104370002b7813f0400f04d019b1049b33f812309e
:1043800073b9013e5ffa86f9da4659e74ff0040b3c
:10439000584607b0bde8f08f019fddf808b0039cd8
:1043a000da464ff0ff094be7019fddf808b0039ca8
:1043b000f6e7019fddf808b0039cf1e701ab400090
:0443c000f4aa40001b
:020000040000fa
:020000040040ba
:1043c4002de9f04f87b004468b46164698460023e5
:1043d400c8f80030019005a905f0a8fd074630b9da
:1043e400677d27b9237d13f0020f04d107273846d0
:1043f40007b0bde8f08fa369f34228bfde43002e67
:1044040000f0b18004f14003029303975fe00021c0
:10441400019802f021f803e0e169019802f01cf828
:10442400002864d1039f9ee002276775dfe7012718
:104434006775dce70123226a02990598407803f046
:104444004df920b9237d03f07f0323755ce0012738
:104454006775cce702276775c9e701276775c6e763
:104464004ff400720beb4121029806f0d9fa237d38
:1044740003f07f03237567e0236a994503d0a2699b
:10448400e3689a4262d3c4f82090a069c0f308009c
:10449400c0f50075b54228bf35462a465946029be9
:1044a400184406f0bdfa237d63f07f032375d8f822
:1044b40000302b44c8f80030ab44a3692b44a361fb
:1044c400e268934238bf1346e360761b4ad0a3697f
:1044d400c3f30802002ad8d1059a5789013f17ea85
:1044e40053270dd1002b97d1a06800288fd0012825
:1044f4009ad0b0f1ff3f9ad0e061a36803b9a060fd
:1045040094f91430002b95dbddf814a0e1695046d2
:1045140006f016fa814600289cd0b944750aabd03f
:10452400baf80a307a199a4288bfdd1b2b464a46ec
:1045340059469af8010003f0d1f800288dd1216a78
:10454400a1eb09018d428bd86d02b0e701234a46e5
:1045540002999af8010003f013f8002893d0012778
:10456400677544e7039f237d43f0400323753ee7cb
:020000040000fa
:020000040040ba
:104574002de9f0479df824600c4611b14ff0ff314e
:10458400216092b1089981b11f461546804604f016
:1045940087f9034648b101884ff450725c4802fb26
:1045a400010292f8de22012a01d0bde8f087012e33
:1045b40000f09780da7812f0020ff6d0089ad0193a
:1045c4004ff45072dff848e102fb01e2d2f81c23f9
:1045d4009042ead84ff450724d4802fb010292f81f
:1045e4002823012ae1d14ff4507202fb010e4ff04f
:1045f400000c8ef828c3b3f800a002fb0a02d2f81c
:10460400c492b9f1000f63d04ff4507202fb0a0256
:10461400d2f8c8229446107850b1243200200130d8
:10462400484555d0944612f824ebbef1000ff6d15c
:1046340001228cf800200022ccf820204ff4507e78
:10464400334a0efb0a22b2f8c2e21b781b0243ea89
:104654000e43c0b20343ccf80c30b2f8c23201337b
:104664009bb24ff6ff72934208bf01234ff450727e
:10467400274802fb0a0aaaf8c232bcf1000f27d06d
:10468400ccf80480ccf81050ccf81470089bccf80b
:1046940018308cf81d6001238cf8083014b1dcf854
:1046a4000c3023604ff4507303fb01f3184ad01805
:1046b40003f53373d0f8cc423cb3d35843b11a6af0
:1046c40022b11b6a23b11a6a002afad1c3f820c0a6
:1046d4004ff450720e4b02fb0131012381f8283351
:1046e40063e7da7812f0010f3ff45faf089ad0194c
:1046f4004ff45072dff818e002fb01e2d2f8142301
:1047040090427ff667afbde8f087c0f8ccc2dfe720
:04471400e00c402055
:020000040000fa
:020000040040ba
:1047180010b14ff0ff3070472de9f04f87b00f46ca
:1047280093461e465f4b1c686069b0f1ff3f00f07e
:10473800b380636a1b699b680593b3f5007f11d941
:104748004fea53280023b8f1010f1ad0cbb9012240
:10475800544b9a75002e00f08a8004f11c030493d0
:10476800029655e0059ab2f5007f0ad04ff400731f
:10477800b3fbf2f303fb07f703fb06f64ff0000861
:10478800e1e7022384f82130a3680096dd683b4600
:104798005a4604f11c01a847e0697fe0029622bb53
:1047a8006a025946404b03eb4a2006f00df93e4b8e
:1047b8000393029eb5425dd04ff0020384f8213086
:1047c8006069a36801220092d3f80ca04b46039ab3
:1047d8000499d04794f92120022a0fd1a368db6af3
:1047e800002bf9d020699847f4e700222d4b9a75e1
:1047f8004ff0ff3052e0cdf80cb0dae70296002a0d
:104808002fd12f440beb452b029b5b1b029331d01e
:10481800b7fbf8f908fb197aa8eb0a05029b9d4239
:1048280028bf1d46a845e6d04ff0020384f8213082
:104838006069a3684ff4006200929b681e46059b5e
:1048480009fb03f3184a0499b047029e94f9212002
:10485800022aa3d1a368db6a002bf9d02069984704
:10486800f4e700220f4b9a754ff0ff3016e0b1467f
:10487800cdf80cb000220b4b9a75022384f8213036
:104888006069a36801220092dd684b46039a04f12f
:104898001c01a847e06901e04ff0ff3007b0bde810
:0c48a800f08f00bf441c4020e0044020c2
:020000040000fa
:020000040040ba
:1048b4002de9f04196b00190022208a901a8fef763
:1048c400b5fb044618b1204616b0bde8f0810b22b2
:1048d400202102a806f0b6f9019b1b781f2b40f299
:1048e4009280002540f2b517574e1ee00624eae7f1
:1048f400002b7cd10a2d00f28280a8460ae0ff2c0e
:10490400f8d9092d79d805f1010816ab1d44230afd
:1049140005f8503c08f10105e4b216ab434403f832
:10492400504c019b1b781f2b19d901a805f0bafc28
:10493400b0f5803f57d202f047fc394604f03cff03
:104944000446002851d02b28d0d02e23721c99b2b3
:10495400a142cdd012f8013f002bf8d1cfe79df84a
:104964000830e52b45d075b1202c0ed102ab434461
:10497400b8f1000f4dd008f1ff3213f8011d2029c2
:1049840047d19046f4e7a84643e0a84641e0e52233
:10499400119b1a700122089bda70089803f0aafa96
:1049a400044690e7042826d1b8f1000f8bd00121ea
:1049b40009a804f07dfb0446002884d120220021ac
:1049c400119806f03ff90822119bda720b2202a912
:1049d400119806f025f80122089bda70089803f074
:1049e40089fa04466fe706246de706246be706247c
:1049f40069e7062467e7044665e7062463e70624b7
:104a040061e706245fe79df80830e52bf9d04ff005
:104a14000008089b099300210b9109a802f038fcb7
:104a2400044600287ff44faf012109a800f036fda9
:104a34000028b7d1b8f1000fa9d00b2202a9119810
:0c4a440005f0eeffa6e700bf38aa400016
:020000040000fa
:020000040040ba
:104a500010b5634b1b6a13f4807f04d0614aff21b9
:104a600011770121517713f0010106d05c4a08202b
:104a70001060042010600720906213f4007f02d0c1
:104a80000120584a1077574a527f8ab9554a127ff7
:104a900052b2013a032a0bd8dfe802f002551c7922
:104aa000504bdb6883b100214e4b188802f06efe3c
:104ab0004c4b1b7f5bb2b3f1ff3f6ed0494b1b7f6a
:104ac0005bb2052b79d010bd0121464b188802f04e
:104ad0005dfeede713f0040fead0424a5369d26855
:104ae000511e8b4209d03f4a5168581c5061ca5c24
:104af0003b4b5a633a4b1b6adae73a49096981b979
:104b0000384948684a61c25c354b5a6302221a60d0
:104b100004229a621b6a13f0010f10d005220a7753
:104b2000e8e772b62e4a042393622e4b58685969ff
:104b30004c1c5c61435c536305f0c6f9dae7042260
:104b4000284b1a77d6e713f0020fb1d0254a136924
:104b5000023b92699a4216d0224b986899694a1c86
:104b60009a611f4c246b44541b699a42a0d11c4b80
:104b700002229a621b6a13f0010f14bf052204225d
:104b8000184b1a7794e70222154b1a60e4e70029c4
:104b90008ed00522134b1a778ae7124a0023137727
:104ba0000f4b072199620821196004211960136acb
:104bb000002b83d0506a984780e70a4b00225a772f
:104bc0001a77074a072191620821116004211160b8
:104bd0001b6a002b3ff477af024a506a984772e78e
:084be00000800140f81b402099
:020000040000fa
:020000040040ba
:104be800f8b5544b03b19847534b03b19847eff3cb
:104bf800108172b6514ad2f8883043f47003c2f873
:104c08008830bff34f8fbff36f8f01b962b64c4a3c
:104c18004c4b5a609a6812f0010ffbd0494bdb6885
:104c280013f4c07f13d00c22474b1a60474a454bf8
:104c38005a609a6812f0010ffbd0454a414b5a60fe
:104c48009a6812f0010ffbd0424a434b1a60bff337
:104c58004f8fbff36f8f394cd4f8903223f0010394
:104c6800c4f89032d4f8943223f00103c4f8943293
:104c7800bff34f8fbff36f8f03f00efb374b23f05b
:104c88007f03a360364b9847636913f4003f12d142
:104c9800bff34f8fbff36f8f0022c4f85022bff3ca
:104ca8004f8fbff36f8f626942f400326261bff3c6
:104cb8004f8fbff36f8f214b5b6913f4803f2fd168
:104cc8001e4b0022c3f88420bff34f8fd3f88050c7
:104cd800c5f34e36c5f3c90577014fea857c43f61f
:104ce800e07e184607ea0e0462462b4642ea0401b3
:104cf800c0f86012013b02f14042b3f1ff3ff5d129
:104d0800013e203fb6f1ff3fecd1bff34f8f0b4a76
:104d1800536943f480335361bff34f8fbff36f8ff1
:104d2800104b03b19847104b03b1984704f066ff46
:104d3800fee700bf000000000000000000ed00e0fa
:104d48000d00005a000c0e40d40440200c08005af4
:104d58000c07005a010000a500180e400000400092
:0c4d680059954000000000000000000011
:020000040000fa
:020000040040ba
:104d7400002800f0a88070b582b00446a9b1531e83
:104d8400dbb2012b11d815460e4604f02df890b174
:104d94000022504b1a70504b1b78ab4252d0152254
:104da4004c4b1a704ff0ff3040e01322494b1a70fd
:104db4004ff0ff303ae00322464b1a704ff0ff30b9
:104dc40034e00122434b1a704ff0ff302ee01622dc
:104dd400404b1a704ff0ff3028e000223f4b1a700e
:104de4003f4b1b78002b42d001223c4b1a701422fb
:104df400384b1a704ff0ff3018e00022384b9a738a
:104e0400a36cabb19847364b5b681b68a3b1344abb
:104e1400507b98472f4b18700d2808bf00200122a3
:104e24002f4b9a73003018bf0120404202b070bd6e
:104e34001722284b1a70e6e71722264b1a704ff0f8
:104e4400ff30ece76946204604f012ff0028b8d092
:104e54009df804300bb19d42b9d1204b1b78012b36
:104e6400bbd007221b4b1a704ff0ff30dee71c4b00
:104e74005d70194a54685c6000221a73701d73795e
:104e84002f2b0bd053b10146154a137b01331373f7
:104e940011f8013f2f2b01d0002bf6d1104b986055
:104ea4009df80000587301221a700e490a704b6075
:104eb4000a490a709b7b93429fd00722054b1a70c4
:104ec4004ff0ff30b2e71322024b1a704ff0ff305d
:104ed400704700bfc0014020b8014020600040205e
:084ee400c4014020b001402090
:020000040000fa
:020000040040ba
:104eec002de9f04f87b004468b46154698460023b3
:104efc00c8f80030019005a905f014f8074630b940
:104f0c00677d27b9237d13f0010f04d1072738469d
:104f1c0007b0bde8f08fe668a369f61aae4228bf69
:104f2c002e46002ef3d004f140030293039748e081
:104f3c00e169019802f010f851e002276775e6e785
:104f4c0001276775e3e702276775e0e701276775b7
:104f5c00dde7206aa0eb0900854265d94ff40072a9
:104f6c0002990beb402005f057fd5de0226a91455c
:104f7c000cd094f91430002b58db01234a460299cb
:104f8c000598407802f0f8fa00285ed1c4f8209019
:104f9c00a169c1f30801c1f50075b54228bf3546ba
:104fac002a46029b1944584605f036fdd8f80030c5
:104fbc002b44c8f80030ab44a3692b44a361761b87
:104fcc0046d0a369c3f30802002ae1d1059a578998
:104fdc00013f17ea532708d1002ba9d1a06801285b
:104fec00abd9b0f1ff3fabd0e061ddf814a0e169c3
:104ffc00504605f0a1fc81460028a4d0b944750a9e
:10500c00b4d0baf80a307a199a4288bfdd1b2b4605
:10501c004a4659469af8010002f0aefa002895d19a
:10502c0094f91430002b94db6d02bfe70123029935
:10503c009af8010002f04efb20b9237d03f07f03a8
:10504c0023759ae70127677561e7012767755ee7a6
:04505c00039f5ce76b
:020000040000fa
:020000040040ba
:105060002de9f04182b004460d46804601a904f0c6
:105070005fff0746002840f09280677d002f40f0d8
:105080008e80e368ab4205d2227d02f00202002a44
:1050900008bf1d46a3690022a261002d7fd0019a9e
:1050a000568976026bb1013b6a1eb2fbf6f2b3fb86
:1050b000f6f18a4205d372421340a361ed1ae16909
:1050c00002e0a16899b1e16100294ad0b5422fd828
:1050d000a3692b44a361c5f30803002b63d0019897
:1050e00005f030fc002839d10227677557e02046cb
:1050f00001f0b4f90146012804d0b0f1ff3f04d01b
:10510000a060e0e70227677549e00127677546e080
:10511000404601f027ff0146b1f1ff3f18d00129b9
:1051200019d9019bdb69994215d2e161ae42cfd218
:10513000ad1ba3693344a361237d13f0020fe7d0b5
:10514000404601f08bf901460028e5d1002509e031
:105150000127677523e00227677520e000eb5525de
:1051600000e00025a369e268934204d9e360227d50
:1051700042f040022275c3f3080383b1226a9542cc
:105180000dd094f91430002b0fdb01232a4604f1d3
:1051900040010198407802f0f5f9b0b9256238462f
:1051a00002b0bde8f0810025dce7012304f14001f5
:1051b0000198407802f094fa20b9237d03f07f0330
:1051c0002375e2e701276775e9e701276775e6e7d9
:020000040000fa
:020000040040ba
:1051d0002de9f04f87b003908a460092029305aa0a
:1051e000012104f063fd002840f09f80ddf8148069
:1051f0004f4b984524d910274ff63e42b8fbf7f3a2
:10520000934204d97f0017f0ff07f7d1ff274ff42f
:1052100000720021029c204605f016fdb8f13f0ff8
:1052200071d9444ba3fb08235b090193aaf1040a3b
:1052300004f5e3753f244ff00009dff8fcb055e0ba
:105240000827e4e7464659e0a8eb0406002e5ad0aa
:105250002146284605f046fc3146281d05f042fc53
:105260009df8003005f8043cabfb0423e21a03eb85
:1052700052035b09b3fbf7f207fb123105f8071c79
:10528000c3eb8313e31a0133910821f03f010b4371
:1052900005f8063c05f8052c3444621eabfb0213ee
:1052a000d11a03eb51035b09b3fbf7f107fb113094
:1052b00005f8030cc3eb8313d31a01338a0822f0d9
:1052c0003f02134305f8023c05f8011c09f10109ee
:1052d000002c18bfa0458cbf01230023b9f1030f98
:1052e0008cbf002303f00103103563b15af8046f3b
:1052f000642e03d8a6d0019b03fb06f63319a3d274
:105300009845a3d2a0e75523029981f8fe31aa233c
:1053100081f8ff3101230022039802f0e1f9003007
:1053200018bf012007b0bde8f08f0120fae700bfe9
:0c533000f7e107001f85eb510541100458
:020000040000fa
:020000040040ba
:10533c002de9f84fd0f800a000238b75c369002b22
:10534c0000f0a6800d468046036bb3f1ff3f37d0cb
:10535c0000242746264640f2b51b09e048b3b9f1b4
:10536c00000f26d0ab19987501231e440027023478
:10537c00daf80c30185be8b12fb900f520539bb26a
:10538c00b3f5006f11d3c6f1ff09594640ea074047
:10539c0004f00efaff28e1d9b9f1010f07d9ab19c6
:1053ac00020a9a75d8750223dfe70746dfe7002665
:1053bc0000e00026002f18bf00262e440023b375f2
:1053cc00002213462e2405e0a818437201320b4626
:1053dc000b2910d0591cd8f82000c35c202bf6d018
:1053ec00052b08bfe5230929eed10b2aecd8a81808
:1053fc0044720132e8e7ab1800215972ab7db3b9a6
:10540c004ab16b7a5bb105f1090405f11500082668
:10541c00002110272de0511c2a443f239375294469
:10542c0000238b75d8f820301b7b03b96b72d8f82e
:10543c002030db7a2b72d8f820001c3005f0acfa47
:10544c002860d8f82020d17d937d43ea0123eb809e
:10545c00d8f82020517e137e43ea0123ab80bde8af
:10546c00f88f3e4600f8013f013114f8013f002b44
:10547c00d5d09bb22e2bf4d0a3f1410292b2192ab3
:10548c00f0d8d8f82020127b1642ebd02033e9e775
:04549c00bde8f88fe0
:020000040000fa
:020000040040ba
:1054a0002de9f04f83b00446894607684ff0ff0aa4
:1054b00055460426d0464ff6ff7b64e00f2a52d1b2
:1054c00013f0400f0bd090f80da003f0bf036269fa
:1054d000226390f80de0d64505d045464de09d424b
:1054e000f7d0454649e0c17e827e52ea012268d16a
:1054f000fa6811460192067826f04006013e06eb56
:10550000460206eb8206344d05f10d0a4ff0010c00
:10551000009363468c4603e05a4552d1aa450fd00a
:1055200015f8012b81184978825c42ea0122002b90
:10553000f2d0ff2e45d82cf8162013460136ede7a1
:105540009c46009b027812f0400f08d0bcf1000f7f
:1055500005d0ff2e35d80022019921f81620013bf5
:10556000ddb2f24609e01db905f010f982452ed0f2
:105570004ff0ff3323632ae045460021204601f027
:105580003ffb064608bbe169c9b1384604f0fefba3
:105590000646d0b9206a0378b3b1c27a02f03f025e
:1055a000a271e52be8d02e2be6d022f020010829ad
:1055b00014bf00210121494580d04546dde736b1c1
:1055c00003e0f2464546d8e704260023e36130466f
:0c55d00003b0bde8f08f00bff4aa40005b
:020000040000fa
:020000040040ba
:1055dc002de9f04104460d4616461f4690f8e2327e
:1055ec00012b41d09bb1022b5bd0002380f8f83209
:1055fc004ff4fa6200f53e71414803f015fac4f815
:10560c00f402b0f1ff3f78d0002384f8e232a368b3
:10561c001b69984780b1a3689b690bb1022098471e
:10562c0094f8f832002b68d0022384f8dd3203237f
:10563c0084f8e232bde8f081a3685b69984780b1d9
:10564c0094f8f832002b58d0a3689b690bb1042056
:10565c009847022384f8dd32032384f8e232bde854
:10566c00f081012384f8e232002384f8b03284f80c
:10567c00af32a4f8b232a168069b1b78069a527816
:10568c0043ea0223069a9278d1f81c8043ea02433b
:10569c003a4631462846c047022384f8e232bde838
:1056ac00f08190f8b032fbb1b0f8b232154a134227
:1056bc000ed013f0010f03d0022380f8dd320ae084
:1056cc0013f0020f14bf0323012380f8dd3202e034
:1056dc00002380f8dd32d4f8f40204f025f903231a
:1056ec0084f8e232bde8f08190f8f8322bb1022355
:1056fc0080f8dd32032380f8e232bde8f08100bf90
:08570c006fad40000f80ffffac
:020000040000fa
:020000040040ba
:105714002de9f047d6b00190884606460022027073
:1057240048a901a8fdf782fc074600285dd1489be3
:105734004993d3f818a0cdf82ca1baf1000f65d085
:1057440045464ff02009002422e00b46591c12f86c
:10575400010f0028f9d19a1caa4263d879b156aa3c
:105764001344a3f239130df11e0c2a46013a13f81f
:1057740001ed019800f802e09c45f7d16d1a013d56
:10578400019b2f225a55ddf82ca1baf1000f32d01b
:10579400494649a801f07cfd00283dd1509948981c
:1057a40004f0f2fa002839d15199489804f03effe8
:1057b4004b90214649a801f06bfd88bb214649a8be
:1057c400fff76cfe034660b95199489804f02eff28
:1057d400504529d0214649a801f010fa0346002873
:1057e400ecd0042b14bf1f46022700233370384625
:1057f40056b0bde8f087a84509d06b1c019a525dec
:1058040006f8012b1d469845f7d8eee74546013dbd
:10581400019b2f225a55f0e70746e6e70746e4e7df
:105824000746e2e71127e0e702a949a8fff784fd4c
:105834009df81e301bb10df11e02234686e7002d94
:065844009dd11127d1e700
:020000040000fa
:020000040040ba
:10584a0030b5a7b0019026a840f8981d03f04df98d
:10585a0002220ba901a8fdf7e6fb034610b1184680
:10586a0027b030bd0b9b1993019919a8fdf70bfac4
:10587a0003460028f3d19df8933013f0a00f72d19c
:10588a00022119a803f063fb03460028e7d120226e
:10589a00219903a805f0c1f8342219a90ca805f02a
:1058aa00bcf800990ca8fdf7eef9034650bb1b9b08
:1058ba000e9a9a4201d00823d1e71e9b119a9a4266
:1058ca0022d00823cbe7284604f05bfa03460028d7
:1058da00c5d10b9890f861302e2b0ad019a803f085
:1058ea0062fb03460028bad10b9802f000fb03467c
:1058fa00b5e70e9a00f1600104f0ecff01220b9b60
:10590a00da70ebe70428aad10ca8fdf7feff0346dc
:10591a000028a4d1149c13220df1190104f10d00e1
:10592a0005f07bf89df8173013f0100f08bf43f00d
