:020000040000fa
:020000040040ba
:10000000f0ff45202d564000eb644000b7784000db
:10001000ab86400057884000cb8c400000000000b9
:100020000000000000000000000000001f5c400015
:1000300007834000000000001f5c40001f5c400080
:100040001f5c40001f5c40001f5c40001f5c4000c4
:100050001f5c40001f5c40001f5c40001f5c4000b4
:100060001f5c4000000000001f5c40001f5c40005f
:100070001f5c4000496840002d67400065694000f2
:100080001f5c40001f5c4000ed6440009554400040
:100090001f5c40001f5c40001f5c400045a8400002
:1000a0001f5c40001f5c40001f5c40001f5c400064
:1000b0001f5c40001f5c40001f5c40001f5c400054
:1000c0001f5c40001f5c40001f5c40001f5c400044
:1000d0001f5c40001f5c40001f5c40001f5c400034
:1000e0001f5c40001f5c40001f5c40001f5c400024
:1000f0001f5c40001f5c40001f5c40001f5c400014
:100100001f5c40001f5c40001f5c40001f5c400003
:100110001f5c400000000000000000000000000024
:100120001f5c40001f5c4000859040001f5c400049
:100130001f5c40001f5c40001f5c40001f5c4000d3
:100140001f5c40001f5c40001f5c40001f5c4000c3
:100150001f5c40001f5c40001f5c40001f5c4000b3
:080160001f5c40001f5c400021
:020000040000fa
:020000040040ba
:10016800f8b500bff8bc08bc9e467047859c4000a7
:10017800f8b500bff8bc08bc9e467047619c4000bb
:020000040000fa
:020000040040ba
:08018800fc4000000100000032
:020000040000fa
:020000040040ba
:100190002de9f04385b00446002303934ff45075d6
:1001a00005fb00f5ba4e2e4496f82833012b1dd0de
:1001b0004ff45073b64a03fb0423d3f8cc7293f880
:1001c000df320f2b01f27a82dfe813f022005300b6
:1001d00065009a00d408ce090a0a340a650ab30aef
:1001e000e70a150b450b640ba10b1400002286f8df
:1001f0002823dde7d6f8cc52002d01f0dc834ff444
:100200005077a34b07fb04374ff0010801f0c5bb43
:100210004ff450739e4a03fb04239b789bb94ff421
:10022000507303fb04239b689b6b9847002801f0e5
:1002300045824ff45073964a03fb0423012283f84e
:10024000df2201f03bba924e05f1200131442046f5
:1002500008f0e8fe4ff4507505fb0465ab685b6879
:1002600098478c4bc5f8b432032385f8df3201f090
:1002700025ba89492944fa2009f03afb002841f0bf
:100280001d824ff45073824a03fb0423022283f839
:10029000df2201f013ba4ff450737d4a03fb0423ad
:1002a000d3f8e8020af00cfd002801f007824ff4b1
:1002b0005073774a03fb04239b689b6b984748b9ac
:1002c0004ff45073724a03fb0423002283f8df22a9
:1002d00001f0f4b96e4e05f120013144204608f0da
:1002e000a1fe4ff4507505fb0465ab685b68984749
:1002f000684bc5f8b432032385f8df3201f0deb96c
:10030000002302934ff45073614a03fb042393f8d4
:10031000e032212b00f2cc87dfe813f022005d00f1
:100320007d009300c000ea005f0188018902c902d4
:10033000620320054905780514042e0463048a0429
:10034000ad04dc049e05ef0538065c06a306020733
:1003500051077407a107bd07bd07ff0174021c0305
:100360004ff450734a4a03fb0423d3f8b422494b99
:100370009a4215d04ff45073454a03fb04239b68ff
:100380009b6844489847002800f03b864ff4507320
:100390003f4a03fb04233f4ac3f8b42200f031beb6
:1003a0004ff450733a4a03fb04239b78012b09d086
:1003b0004ff45073364a03fb0423032283f8e022f0
:1003c00000f01fbe4ff4507303fb0423012283f897
:1003d000e02200f016be2e4905f53a724ff4507334
:1003e00003fb04131144586809f082fa48b94ff42a
:1003f0005073274a03fb0423022283f8e02200f013
:1004000000be4ff45073224a03fb04231e2283f8dc
:10041000e02200f0f6bd4ff450731d4a03fb0423a5
:10042000d3f8e8020af04cfc002800f0ea854ff40b
:100430005073174a03fb0423032283f8e02200f0e1
:10044000e0bd134f05f2e3233b44009300231a461b
:100450001946304605f0eafd4ff4507303fb047370
:1004600093f8e232032b40f0cc8507f53a7129442a
:10047000022009f03dfa002840f0c3854ff4507384
:1004800003fb0473042283f8e02200f0babd00bf2e
:10049000c00c4020801a0600a80f40204ff4507373
:1004a000d64a03fb0423d3f8e8020af009fc00282b
:1004b00000f0a7854ff45073d04a03fb042393f850
:1004c000f03243b94ff4507303fb0423052283f841
:1004d000e02200f096bd4ff45073c84a03fb04239a
:1004e0001f2283f8e0221422a3f8fa2200f089bd2b
:1004f000c24f05f2e3233b44009308234ff4d57227
:100500001946304605f092fd4ff4507303fb047317
:1005100093f8e232032b40f074854ff4507303fbe1
:100520000473062183f8e012072183f8e112002109
:1005300083f8a51205f53b7139444ff4fa6009f0d0
:10054000d7f9012813d04ff45073ac4a03fb0423ae
:1005500093f8dd32a3b1022b35d14ff45073a74a83
:1005600003fb0423002283f8ac2200f04abd4ff4c1
:10057000507303fb04731e2283f8e02200f041bd98
:100580004ff4507303fb04239b681b6a02a90020ed
:100590009847029bc3f30803b3f5d57f09d04ff406
:1005a0005073964a03fb04231e2283f8e02200f0d6
:1005b00028bd4ff45073914a03fb0423012283f8b2
:1005c000ac2200f01ebd4ff450738c4a03fb042391
:1005d0001e2283f8e02200f014bd884b4ff45077c0
:1005e00007fb0437b7f8a22205f2e3210b4400937e
:1005f000012312043721304605f018fd97f8e23246
:10060000032b40f0fe8497f8dd322bb997f8e122f6
:1006100087f8e02200f0f5bc4ff45073774a03fbf3
:1006200004231e2283f8e02200f0ebbc734b4ff44e
:10063000507707fb043797f8ac1297f8a5221204fd
:1006400005f2e32003440093042342ea8172292146
:10065000304605f0ebfc97f8e232032b40f0d184f2
:10066000d7f8ec020af02cfb88bb4ff45073634ab6
:1006700003fb042393f8dd32002b44d14ff4507375
:1006800003fb04239b681b6a02a900209847029b76
:1006900013f4701f20d0002b28da13f0804f4ff492
:1006a0005073564a03fb042314bf0122002283f82f
:1006b000a6224ff45076514b06fb0436d6f8ec02d6
:1006c00009f0befc082386f8e03200f09abc1e2236
:1006d00087f8e02200f095bc4ff45073474a03fbc3
:1006e00004231e2283f8e02200f08bbc4ff45073e9
:1006f000424a03fb04233c2283f8a522062283f806
:10070000e02200f07ebc4ff450733c4a03fb04230c
:100710001e2283f8e02200f074bc384f05f2e32378
:100720003b4400930423364a0121304605f07efc09
:100730004ff4507303fb047393f8e232032b40f041
:1007400060844ff4507303fb047393f8dd324bb1b4
:100750004ff45073294a03fb04231e2283f8e0223e
:1007600000f04fbc4ff4507303fb04739b681b6a8b
:1007700002a900209847029b002b22db4ff4507304
:100780001e4a03fb0423b3f8fa3263b311464ff455
:10079000507202fb0412013ba2f8fa3205f53a73db
:1007a0001944322009f0a4f8002840f02a844ff4bc
:1007b0005073124a03fb0423202283f8e02200f046
:1007c00020bc4ff4507202fb047203f0c043b3f13b
:1007d000804f14bf0023012382f8a632082382f839
:1007e000e03200f00ebc4ff45073044a03fb0423c4
:1007f0001e2283f8e02200f004bc00bfc00c4020a1
:10080000000038404ff45073ca4a03fb0423d3f866
:10081000e8020af055fa002800f0f3834ff4507311
:10082000c44a03fb04231f2283f8e022e9e3c14ffb
:1008300005f2e3233b4400930323002202213046c8
:1008400005f0f4fb4ff4507303fb047393f8e232aa
:10085000032b40f0d6834ff4507303fb047393f8db
:10086000dd3243b14ff45073b24a03fb04231e221e
:1008700083f8e022c5e3394605f120034ff45076b2
:1008800006fb0476b268126a19440420904796f871
:10089000f0321bb9092286f8e022b2e34ff450731c
:1008a000a44a03fb0423212283f8e022a9e3a14ff9
:1008b00005f2e3233b440093072300220321304643
:1008c00005f0b4fb4ff4507303fb047393f8e2326a
:1008d000032b40f096834ff4507303fb047393f89b
:1008e000dd3243b14ff45073924a03fb04231e22be
:1008f00083f8e02285e34ff4507303fb04739b6895
:100900001b6a02a900209847029b13f4604f10d184
:100910001b0c4ff45072874902fb0412a2f8a2325a
:100920007bb94ff4507303fb0413092283f8e022d0
:1009300067e34ff4507303fb04731e2283f8e02235
:100940005fe34ff450737b4a03fb04230a2283f8ce
:10095000e02256e3774f05f2e3233b440093012363
:100960004ff400320321304605f060fb4ff4507322
:1009700003fb047393f8e232032b40f042834ff4fd
:10098000507303fb047393f8dd3243b14ff450739b
:10099000684a03fb04231e2283f8e02231e34ff46c
:1009a000507303fb04739b681b6a02a900209847dd
:1009b000029b13f4590f07d04ff4507303fb0473d9
:1009c0001e2283f8e0221ce34ff45073594a03fbc4
:1009d00004230222a3f8a2220a2283f8e02210e3d1
:1009e000544b4ff4507707fb0437b7f8a22205f2b7
:1009f000e3210b440093032312040921304605f040
:100a000015fb97f8e232032b40f0fb82494a97f836
:100a1000dd3243b14ff45073464a03fb04231e22d8
:100a200083f8e022ede205f1300616444ff45077ea
:100a300007fb0427bb681b6a31460420984797f8d8
:100a4000f032002b42d13c4ac7f8b822b37b9b0955
:100a5000012b2dd0337a9b0203f44060327952008f
:100a600002f006024ff45071324b01fb0431f7796a
:100a7000b3799b0943ea870303430133f07842eae1
:100a8000d01202329340727a02f00f02a2f10900f2
:100a90000122824092b202fb03f3c1f8a8324ff464
:100aa0005073244a03fb04230e2283f8e022a8e2b9
:100ab000f3791b0403f47c12b079737943ea0023c1
:100ac000134301339b02c7f8a832e8e7f37a4ff4e7
:100ad0005071184a01fb0421c3f3c20003f007035d
:100ae000164a52f82020164850f8233003fb02f330
:100af0000a22b3fbf2f3c1f8b832f279b3799b0959
:100b000043ea8203327a920202f4406213430133d1
:100b10007279520002f00602307942ead0120232b3
:100b20009340727a02f00f0293405b0ac1f8a83238
:100b3000b5e700bfc00c402040787d01a09c40007c
:100b40003ca940004ff45073c24a03fb04239a6847
:100b50009268d3f8b8029047002800f052824ff410
:100b60005073bc4a03fb0423d3f8b822c3f8b42261
:100b70000f2283f8e02244e2b64b4ff4507707fb94
:100b80000437b7f8a22205f2e3210b4400930223b5
:100b900012040721304605f049fa97f8e232032b98
:100ba00040f02f8297f8dd3293b997f8f03233b9dd
:100bb000062287f8e022102287f8e12221e24ff492
:100bc0005073a44a03fb04230b2283f8e02218e2ab
:100bd0004ff450739f4a03fb04231e2283f8e02244
:100be0000fe24ff450739b4a03fb04239b681b6a7c
:100bf00002a900209847029b13f0007f0cd113f448
:100c0000006f4ff45073934a03fb042314bf112267
:100c10001e2283f8e022f4e14ff450738d4a03fb67
:100c20000423012283f8ae221d2283f8e022e8e1aa
:100c3000884e4ff4507707fb0467bb689b6a082017
:100c400098474ff0010887f8e38287f8e482002391
:100c500087f8e53205f140031e442021304609f0b3
:100c60002bfabb685b6b424608213046984712233b
:100c700087f8e032c5e1774f05f2e3233b44009368
:100c8000012300223321304605f0d0f94ff4507390
:100c900003fb047393f8e232032b40f0b2814ff46c
:100ca000507303fb0473002283f8e32293f8dd32d0
:100cb0003bb94ff4507303fb0473132283f8e02213
:100cc0009fe14ff45073634a03fb04231e2283f811
:100cd000e02296e14ff450735e4a03fb042393f83d
:100ce000af32002b00f08d814ff4507303fb0423cf
:100cf000b3f8b23223f4fb4323f00f039bb2d3b912
:100d00004ff45073534a03fb042393f8413013f01c
:100d1000040f07d04ff4507303fb042393f8f2320f
:100d2000012b10d04ff450734a4a03fb04231522c1
:100d300083f8e02265e14ff4507303fb04231e2285
:100d400083f8e0225de14ff4507303fb0423062295
:100d500083f8e022142283f8e12252e13d4f4ff460
:100d6000507606fb04764ff0010886f8e38286f899
:100d7000e482002086f8e502b3685b6a9847b368ae
:100d80009b6a4ff40070984705f1a0031f444ff48d
:100d90000071384609f090f9b3685b6b42464ff436
:100da0000071384698470c2386f8e03229e1294f34
:100db00005f2e3233b44009301230022082130463f
:100dc00005f034f94ff4507303fb047393f8e232e7
:100dd000032b40f016814ff4507303fb0473002281
:100de00083f8e32293f8dd323bb94ff4507303fbf1
:100df00004730d2283f8e02203e14ff45073154a87
:100e000003fb04231e2283f8e022fae04ff4507320
:100e1000104a03fb042393f8af32002b00f0f1805b
:100e20004ff450720b4b02fb043292f8771192f898
:100e300076311b0443ea016392f874110b4392f874
:100e4000751143ea0123c2f8a832142382f8e03274
:100e5000d7e000bfc00c40204ff45073cb4a03fbd7
:100e6000042393f8f0321bbb02f2e3232b440093dc
:100e7000012302220621304605f0d8f84ff45073c2
:100e8000c24a03fb042393f8e232032b40f0b980fb
:100e90004ff4507303fb042393f8dd32e3b14ff4b6
:100ea0005073ba4a03fb04231e2283f8e022a8e011
:100eb000b64b4ff4507202fb043292f8f21205f274
:100ec000e322134400930223b14a42ea012206219d
:100ed000304605f0abf8d1e74ff4507606fb042618
:100ee000b368db6a96f8f202984796f8f23286f811
:100ef000a132152386f8e03283e04ff45073a34a01
:100f000003fb042393f8f03223bb4ff4507303fb2d
:100f1000042393f8403013f00f0f07d04ff45073b1
:100f200003fb042393f8f132012b08d04ff45073e4
:100f3000964a03fb04231b2283f8e02261e04ff46e
:100f4000507303fb0423002283f8a422162283f8a3
:100f5000e02256e0012be9d14ff450738b4a03fb9a
:100f6000042393f8643113f0010fdfd04ff4507372
:100f700003fb042393f8f132012bd7d14ff45073c4
:100f800003fb0423192283f8e0223ae07f4f4ff459
:100f9000507808fb0478d8f808309b6a40209847be
:100fa0004ff0010988f8e39288f8e492002388f86a
:100fb000e53205f160031f444021384609f07cf812
:100fc000d8f808305b6b4a464021384698471723cb
:100fd00088f8e0326d4b4ff4507707fb043797f8f1
:100fe000a41205f2e322134400930123694a42ea62
:100ff000c1720621304605f019f897f8e232032b4a
:101000001cd04ff45073614a03fb042393f8e03281
:101010001d2b00f056811e2b40f050834ff450736f
:101020005a4a03fb04239b78012b40f0478302f1cb
:1010300020012944204607f0f5ff3fe3002287f80e
:10104000e32297f8dd321bb9182287f8e022d8e7af
:101050004ff450734d4a03fb04231e2283f8e02211
:10106000cfe74ff45073494a03fb042393f8af32a0
:10107000002bc6d04ff4507303fb0423b3f8b232f5
:1010800023f4fb4323f00f039bb2ebb94ff45073ef
:101090003e4a03fb042393f8a432012b1cd04ff4e7
:1010a00050733a4a03fb042393f86d3013f0020f98
:1010b0002dd04ff4507303fb0423012283f8a422a4
:1010c000162283f8e0229ce74ff4507303fb0423bd
:1010d0001e2283f8e02294e74ff4507303fb0423ad
:1010e00093f8703003f00f03012b07d14ff45073c6
:1010f00003fb04231a2283f8e02282e74ff45073a3
:10110000224a03fb04231d2283f8e02279e74ff4ef
:1011100050731e4a03fb04231d2283f8e02270e76c
:101120001a4f05f2e3233b44009302231a4a062197
:10113000304604f07bff4ff4507303fb047393f8c5
:10114000e232032b7ff45daf4ff4507303fb047363
:1011500093f8dd3243b14ff450730c4a03fb042380
:101160001e2283f8e0224ce74ff4507303fb047314
:101170009b689b680948984790b94ff45073034a9d
:1011800003fb04231e2283f8e0223ae7c00c402030
:101190000100b70301ffff000101b9030075190346
:1011a0004ff4507606fb0476c64bc6f8b432b368eb
:1011b0001b6b012098471b2386f8e03221e74ff490
:1011c0005073c14a03fb04239b689b68bf48984740
:1011d00040b94ff45073bc4a03fb04231e2283f82a
:1011e000e0220ee74ff45076b74b06fb0436b74bc0
:1011f000c6f8b432b3681b6b012098471b2386f8ee
:10120000e032fee6b04f05f2e3233b4400930123b6
:101210004ff400721021304604f008ff4ff4507371
:1012200003fb047393f8e232032b7ff4eaae4ff42e
:10123000507303fb047393f8dd323bb94ff45073e2
:1012400003fb04731c2283f8e022dae64ff45073a8
:101250009d4a03fb04231e2283f8e022d1e69a4f25
:1012600005f2e3233b44009300231a46072130464e
:1012700004f0dcfe4ff4507303fb047393f8e23286
:10128000032b7ff4beae4ff4507303fb04731d2297
:1012900083f8e022b5e64ff450768b4b06fb04361c
:1012a000d6f8ec0208f0ccfe002386f8e032a8e67f
:1012b0004ff45073844a03fb0423002283f8e02296
:1012c0009fe64ff4507303fb042393f8dc327bb1a9
:1012d0004ff4507303fb04239b68db6b83b1984787
:1012e0004ff45073784a03fb042383f8ad0207e000
:1012f0004ff45073744a03fb0423002283f8ad2299
:10130000714a4ff4507303fb0423d3f8a8124ff42f
:101310000070c3f81003c3f81413c3f81803c3f81c
:101320001c13c3f82003c3f824130121c3f80013ce
:10133000c3f80413c3f8081305f544752a44c3f829
:101340000c239b788b420bd04ff450735e4a03fb07
:101350000423012283f8de22042283f8df22ade198
:101360004ff45073584a03fb04234ff0ff32c3f885
:10137000ec22e9e747b14ff45073534a03fb0423cf
:1013800093f8e232032b24d04ff450734e4a03fb00
:1013900004239b78012b40f091814ff4507303fba1
:1013a0000423d3f8ec02b0f1ff3f00f0c78009f04e
:1013b00087fc002800f082814ff45073424a03fbff
:1013c00004234ff0ff32c3f8ec22052283f8df221a
:1013d00074e14ff4507303fb04239b78012b47d037
:1013e0004ff45073384a03fb042393f8ae32002bba
:1013f0004bd14ff45073344a03fb04239b78002bea
:101400004dd002233b724ff450732f4a03fb042349
:1014100093f8a63213b97b695b027b617b7f012b5a
:1014200056d04ff45073284a03fb042393f8ad328f
:10143000002b6ed14ff45073234a03fb0423002288
:1014400083f8e422bb69012b6dd019233b774ff45d
:1014500050731d4a03fb0423012283f8e5224ff455
:101460005073194a03fb0423062283f8df2225e187
:101470004ff4507505fb0425d5f8ec0208f0e0fdab
:101480004ff0ff33c5f8ec32aae7ff233b724ff46d
:10149000507303fb04230d2283f8df220ee14ff487
:1014a000507303fb04239b689b6b98470028a8d1cb
:1014b0004ff45073044a03fb04230f2283f8df2206
:1014c000fce000bf00751903c00c402080f0fa0258
:1014d0004ff45073c24a03fb0423012283f8e42231
:1014e000bb6993420ad012233b774ff45073bc4a36
:1014f00003fb0423012283f8e522b0e711233b77a5
:101500004ff45073b64a03fb0423002283f8e5220c
:10151000a5e7ff233b724ff4507303fb04230d2216
:1015200083f8df22cae018233b774ff45073ac4aac
:1015300003fb0423002283f8e52290e705f53b71c5
:101540004ff4507303fb04231144586808f0d0f99a
:10155000012840f0b3804ff45073a14a03fb0423e9
:101560000d2283f8df22a9e09d4b4ff4507707fb53
:101570000437002287f8e322b7f8a22205f2e32518
:101580002b440093012312040d21304604f04efd3c
:1015900097f8e232032b40f0918097f8dd3243b1a7
:1015a0004ff450738e4a03fb04230f2283f8df228b
:1015b00084e0bb681b6a03a900209847039bc3f320
:1015c0004323032b03d00f2287f8df2276e04ff46a
:1015d0005073834a03fb0423042283f8df226de067
:1015e0007f4b4ff4507707fb0437b7f8a22205f280
:1015f000e3252b440093022312040721304604f014
:1016000015fd97f8e232032b58d197f8dd3243b13c
:101610004ff45073724a03fb04230d2283f8df2238
:101620004ce0bb681b6a03a900209847072387f892
:10163000df3243e0002f4cd0b86901284ff45073db
:10164000674a03fb04239b685b6a0cbf002080b2df
:1016500098474ff45073624a03fb04239b689b6acc
:101660004ff4007098477b7f002b3bd0012b3fd07d
:101670004ff450785a4b08fb0438012388f8e332c2
:10168000b969d8f808305b6b7a7f490238699847a6
:10169000082388f8df327a69397f514f05f2e32554
:1016a0003d4400950123304604f0c0fc4ff45073d4
:1016b00003fb047393f8e232032b1fd04ff45072f4
:1016c000474b02fb0434012384f8283305b0bde8fe
:1016d000f0834ff45073424a03fb04230d2283f836
:1016e000df22ebe7b9694902386908f001fdbfe77d
:1016f000b9694902386908f0dffcb9e74ff4507363
:1017000003fb0473002283f8e32293f8dd323bb934
:101710004ff4507303fb0473092283f8df22cde7f3
:101720004ff450732e4a03fb04230d2283f8df226b
:10173000c4e74ff450732a4a03fb042393f8af32f3
:10174000002bbbd04ff4507303fb0423b3f8b23229
:1017500023f4fb4323f00f039bb26bb9a7b1bb6922
:10176000012b4ff450731e4a03fb04238cbf0a2243
:101770000b2283f8df22a1e74ff4507303fb04230d
:101780000d2283f8df2299e74ff45073144a03fbcc
:1017900004230d2283f8df2290e7114f05f2e325a1
:1017a0003d440095022300220c21304604f03efc0b
:1017b0004ff4507303fb047393f8e232032b7ff46e
:1017c0007daf4ff4507303fb047393f8dd324bb9d4
:1017d0004ff4507303fb04730b2283f8df226de791
:1017e000c00c40204ff45073784a03fb04230d22b1
:1017f00083f8df2262e7754b4ff4507707fb04371d
:10180000b7f8a22205f2e3252b440093012312042a
:101810000d21304604f00afc97f8e232032b7ff4e6
:101820004daf97f8dd3243b14ff45073674a03fb75
:1018300004230d2283f8df2240e7bb681b6a03a95b
:1018400000209847039b13f4807f3ff437af0c22ae
:1018500087f8df2232e7dff8748105f2e32545449b
:10186000009500231a460721304604f0dffb4ff4b1
:10187000507303fb048393f8e232032b7ff41eaf13
:1018800000233b724ff4507303fb04830e2283f852
:10189000df2213e74ff450734c4a03fb04239b7879
:1018a00033b34a4b4ff4507808fb0438002288f8d1
:1018b000e322b8f8a22205f2e3251d440095012396
:1018c00012040d21304604f0b1fb98f8e232032bec
:1018d0007ff4f4aeff233b720e2288f8df2298f8e3
:1018e000dd32002b3ff4eaae0022394b1a70e5e6f8
:1018f0004ff4507505fb0425ab689b6b9847344b40
:101900001870ff233b720e2385f8df32d6e6b7b19d
:101910007968c8b24ff450722c4b02fb0432d2f8f3
:10192000d83203eb0013da68914214d0d6f8cc32e7
:101930002bb11a6ac6f8cc2200221a621a70244b04
:101940001b78a3b14ff45073204a03fb04230422f5
:1019500083f8df22b2e65d68002de7d097f9080032
:101960009a68f968003018bf0120a847dee7012215
:10197000174b1a704ff45073144a03fb04230f22c1
:1019800083f8df229ae69a68e9684046c847002350
:101990002b622b70d6f8cc526db12b6ac6f8cc32c4
:1019a0002a79d7f8d83203eb0213d3f80490b9f1af
:1019b000000fe8d1ebe74ff45073044a03fb042314
:1019c000002283f8de2283f8df2277e6c00c402075
:0419d0008c1c40200b
:020000040000fa
:020000040040ba
:0419d4000020704738
:020000040000fa
:020000040040ba
:1019d8002de9f04f2ded0c8b98469bb00023044663
:1019e80040460e461192169309f04afb814600685c
:1019f80009f070fa4ff0000a07464ff0000b1596f1
:101a0800159b1a780d2a34d8092a38d2002a40d0d2
:101a180000230c93159d2b78302b40f00d816b78ab
:101a2800582b01d0782b6cd10c9b019316ab0093eb
:101a3800cdf8088017abb14a15a9204601f044f942
:101a480010f00706074605d0062e2cd101350023d5
:101a580015950c93119b002b40f06d850c9bebb1f9
:101a68004bec17abb1ee470b1bb0bdec0c8bbde8d4
:101a7800f08f2b2a06d02d2a13d0202ac8d1013363
:101a88001593bde700220c925a1c15925b78002b27
:101a9800c0d1119b1596002b40f04b854bec10ab39
:101aa800e2e70122efe7169a3ab1352118a808f0c3
:101ab8005bfc1699204608f0ebfc013e042e08d882
:101ac800dfe806f00c03171a0c00ddf860a0ddf85b
:101ad80064b03b07bed54bf0004bbbe7199b179a88
:101ae800ddf860a023f4801302f2334243ea025b7c
:101af800efe7dff814b2ece76ff0004b4ff0ff3a76
:101b0800e7e7159b5a1c15925b78302bf9d0002b10
:101b1800a0d001230d93159b0e93002304930693e5
:101b28001d460a22159890f80080a8f13003d9b212
:101b3800092940f283803a46d9f8001008f0b4fe2b
:101b4800002800f08b80002042462b460146089072
:101b5800652a02d0452a40f0008123b910b90d9baf
:101b6800002b96d00023159e721c159272782b2a92
:101b780000f0da802d2a00f0dd804ff0000ca2f191
:101b8800300ebef1090f00f2e780302a00f0d58050
:101b9800a2f1310ebef1080f00f2df80a2f1300889
:101ba800159a0f92159a02f1010ecdf854e0527869
:101bb800a2f13009b9f1090f40f2c6800f9faeebd0
:101bc800070ebef1080f44f61f6e00f3c380f04500
:101bd800a8bff046bcf1000f01d0c8f10008002be7
:101be80040f0e18000287ff435af0d9b002b7ff497
:101bf80031af089b002b7ff44caf4e2a00f0b68023
:101c080000f3ae80492a7ff444af3d4915a808f097
:101c1800ddfd00283ff43daf159b3a49013b15a86f
:101c2800159308f0d3fd10b9159b01331593dff810
:101c3800d8b04ff0000a0de700236be7082dd5bf99
:101c48000699049902fb013302fb013300f10100fc
:101c5800d4bf069304930135159063e7159bda19f1
:101c68001592da5d002d59d12846302a2dd0a2f1df
:101c78003103082b00f26484159b0e930146002063
:101c88000346b2f1300900f1010712d0394400ebe4
:101c9800030c1f464ff00a0e67451cd1184408284c
:101ca80000f1010332dc069a0a2000fb0292069238
:101cb8000027159a501c159052783846a2f1300723
:101cc800092fded90127089742e7159b5a1c159260
:101cd80001305a78c9e7013707f1ff38b8f1080f22
:101ce80004dc069a0efb02f20692d5e7102fdebf3f
:101cf800049a0efb02f20492cee700bfacad40009e
:101d080080af400083af40000000f07f102bdfbfa2
:101d1800049a0a2000fb02920492c9e701462b4666
:101d2800cce70123089319e74ff0000cb21c159279
:101d3800b27824e74ff0010cf8e7159a02f1010e8a
:101d4800cdf854e0527820e70a2707fb0828a8f1c5
:101d5800300827e7f0463de715964ff000083ee7c4
:101d6800692a3ff452af6e2a7ff493ae884915a8ca
:101d780008f02cfd00283ff48cae159b1b78282b0f
:101d88000ed118aa834915a804f03cfc052807d1f0
:101d9800199bddf860a043f0ff4b4bf4e00b59e6cc
:101da800dff800b245e7dded067a002d08bf1d46d5
:101db800b8ee677b102b1a46a8bf10228ded087b62
:101dc800092aa8eb0108dde908ab0edd7249dded53
:101dd800047a01ebc20111ed126b9ded085bb8eec0
:101de800677ba5ee067b5bec17ab0f2b38dcb8f1f5
:101df800000f3ff42fae24ddb8f1160f0bdc664957
:101e080001ebc80898ed007b4bec16ab27ee067b80
:101e18005bec17ab1ee6c3f12501884520dc5e4a62
:101e2800c3f10f0302ebc30191ed007b4bec16ab42
:101e3800a8eb030302ebc30227ee067b92ed006bcf
:101e4800e4e718f1160f0bdb5349a1ebc80898ed2e
:101e5800007b4bec15ab85ee076b5bec16abf9e53d
:101e68009a1a4244002a73dd12f00f000ad04a4938
:101e780001ebc00191ed007b4bec16ab27ee067b26
:101e88005bec17ab32f00f024fd0b2f59a7f22dd30
:101e980000252f460495a8462223dff80cb12360bd
:101ea8004ff0000a049b002b3ff4d4ad169920464e
:101eb80008f0eefa4146204608f0eafa394620468c
:101ec80008f0e6fa0499204608f0e2fa2946204686
:101ed80008f0defabee53149cde904ab002712115e
:101ee8003e460846012a23dc0fb1dde904ab00ebce
:101ef800c600abf1547b90ed007b4bec16ab27eea4
:101f0800067b5bec17ab2bf00042120d2448120540
:101f180082425946bcd8a0f58010824286bfdff8bd
:101f28008cb04ff0ff3a01f1547b4ff0000970e09c
:101f380012f0010f08d09ded046b91ed007b26eea9
:101f4800077b8ded047b0127013652100831c9e764
:101f5800ebd0524212f00f000ad00f4901ebc0013a
:101f680091ed007b4bec15ab85ee076b5bec16ab8c
:101f78001211dad01f2a1bdd00252f460495a8462a
:101f880022234ff0000a4ff0000b23608ae700bfbe
:101f980089af4000c0ad40008079400060a7400094
:101fa8000000a07c0000f8ff0000f07fffffef7f3b
:101fb800cde904ab12f01009ad4918bf4ff06a091a
:101fc8000020002a00f30e8108b1dde904abb9f165
:101fd800000f17d0cbf30a52c2f16b02002a594600
:101fe80010dd1f2a40f30c81342adebf203a4ff05f
:101ff800ff3000fa02f24ff0000accbf4ff05c7bd2
:1020080002ea010b4bec17abb5ee407bf1ee10fa90
:10201800b2d0069a00920e992a46204606f09cfdf8
:10202800049000283ff434afb8f1000fc8f1000362
:102038009fed899ba8bf00239fed89ab9fed8abbcd
:102048000d93002528eae8730e932f46049b20463b
:10205800596806f04bff804600283ff41daf049beb
:102068001a69023203f10c0192000c3008f052fe9a
:1020780018aa17a94bec10ab2046cde908ab06f01f
:10208800eff8169000283ff407af0121204608f02a
:10209800affe074600283ff4ffae179e189a002ea1
:1020a800b1bf0e9b0d9b0e989b19babf981b0d9b39
:1020b8000693a6eb0906b8bf069316446d4b013e7e
:1020c8009e42c2f1360280f2ae809b1b1f2ba2eb10
:1020d80003024ff0010100f39a8001fa03f3109311
:1020e80000230f93069b1344024409eb0206069a49
:1020f8009a42a8bf1a46b242a8bf3246002a04dd57
:1021080006999b1ab61a8a1a06920d9ac2b13946ce
:102118002046139306f0def9074600283ff4bcaecc
:102128000146169a204604f034fd129000283ff428
:10213800b3ae1699204608f0abf9129a139b169283
:10214800002b75dc0e9b002b7bd1002e08dd414651
:102158003246204605f093ff804600283ff49caea7
:10216800069b002b08dd39461a46204605f087fff6
:10217800074600283ff490ae42461699204605f0df
:1021880079fd054600283ff487aec368069300230f
:10219800c360394608f0cef800286dda069be3b92b
:1021a800baf1000f19d1cbf31303b3b92bf00043e5
:1021b8001b0d1b05b3f1d66f0fd96b6913b92b69ca
:1021c800012b0add29460122204605f058ff394631
:1021d800054608f0aff800287ddcb9f1000f40f0a3
:1021e800888063e6d60708d59ded046b91ed007bea
:1021f80026ee077b8ded047b012052100831e0e6c6
:102208004ff0ff3101fa02f202ea0a0afae6c6f1d1
:102218007f4606f57f0606f57b46e23601fa06f3a9
:102228000f9310915ee700230f930123109359e752
:102238001a461699204605f022ff1690002881d1eb
:102248002ae641460e9a204606f044f980460028c0
:102258007ff47baf20e600bf9535a094ffffdf3ffa
:1022680035e5af350000e03f9535a094ffffcf3f3f
:1022780038a7400002fcffff40f08480069acbf3a9
:10228800130322b3b64a9342594652d15046b9f184
:10229800000f19d0b34b0b40b3f1d46f4ff0ff329e
:1022a80003d81b0dc3f16b039a40824241d1ae4b58
:1022b800994202d101323ff4efadaa4b0b4003f52e
:1022c800801b4ff0000a88e74ff0ff32ede783bb31
:1022d800baf1000f2dd12bf000431b0d1b05b9f1ee
:1022e800000f1dd0b3f1d66f1adcb3f15c7f7ff716
:1022f80047ae9e4b0b9300230a939ded0a6b4bec64
:1023080017ab27ee067b5bec17abbbf1000f7ff436
:10231800cdadbaf1000f7ff4c9ad22232360c5e526
:10232800a3f580136fea135b6fea0b5b4ff0ff3a7c
:1023380053e70f9b8bb113ea0b0f3ff44eaf069b8d
:102348004a465046594663b107f0daff9ded087bcf
:1023580037ee007b5bec17ab3fe7109b13ea0a0fe5
:10236800ebe707f0cdff9ded087b37ee407b8ded69
:10237800067bb5ee407bf1ee10fadde906ab3ff4e3
:10238800ffad2ae73946284607f04afbb0ee007b46
:10239800b4eec70bf1ee10fa64d8069b002b41d0bf
:1023a800734b0022b7ee008b6e48724900ea0b06a9
:1023b8008e4240f086800f90dde90801abf1547b36
:1023c8004bec10ab43ec1c2bcde90a0107f0b4fa37
:1023d8004bec1dab0f98acee00db5bec1dab664b1a
:1023e80000ea0b029a4247d90b9a03f154739a42b6
:1023f80003d10a9b01333ff44faddff86cb14ff0c6
:10240800ff3a1699204608f043f84146204608f05e
:102418003ff83946204608f03bf82946204608f0a0
:1024280037f813e6baf1000f12d1cbf31303b3b99f
:10243800b7ee007bb4eec70bf1ee10fab6ee008be8
:1024480001d420ee088bb1ee487b53ec172babe799
:10245800baf1010f03d1bbf1000f3ff491ad002297
:10246800464b9fe7069bb6ee008b20ee088b002bb1
:10247800e9d053ec182b97e70bf1547bb9f1000f17
:10248800bfd12bf000431b0d1b059e42b9d1bdeef9
:10249800c80b069bb8eec00b38ee408b2bb9baf1cf
:1024a800000f02d1cbf31302e2b3b4eec98bf1ee05
:1024b80010fa3ff5fbacb4eeca8bf1ee10faa0ddd2
:1024c800f4e4b9f1000f1dd0b6f1d46f1ad89fed1e
:1024d800227bb4eec78bf1ee10fa10d8fceec87b65
:1024e80017ee903a002b08bf012307ee903a069b9f
:1024f800b8ee678b9bb9b1ee487b53ec172b03f111
:10250800d6618b1b9ded080b43ec1c2b07f014face
:102518009ded087bacee007b5bec17abaee753ecb4
:10252800182bece7b4eecb8bf1ee10fa7ff569af20
:10253800bce400230c93119a159b1360fff78eba25
:10254800652a4ff000013ff4ecab01270b460897d2
:10255800fff700bbaff300800000c0ffffffdf41c3
:10256800ffff0f000000f07fffffef7f00005039f2
:102578000000f03f0000e07fffff9f7c0000f0bffd
:020000040000fa
:020000040040ba
:102588002de9f04f97b016ad45f8140d0c461646d8
:102598001f46284606f0a2fd0028c0f24883ab4b30
:1025a80053f820300bb100221a70a94b13f81050c1
:1025b80003eb400393f80180a64b002c08bf1c4690
:1025c800284608f06ffc10f0010f01d003232fe319
:1025d80010f0040f01d00a232ae363681593002b37
:1025e80049d0159a531eb3f5004f4ed301231593c6
:1025f80094f801b00bf1ff33dbb2022b28bf4ff088
:10260800010ba3685a1eb2f5004f41d203f00f0226
:10261800002a18bf4ff400730093e368b3f1807f7a
:102628003ad85a1e1a40002a0cbf99464ff00009a2
:102638005fea572a00f00083002e00f0fd8223781d
:10264800019300231493b8f1000f41d00123002215
:102658003146284605f06cfb002840f0ef8296f8da
:10266800ff2196f8fe3143ea02231bb27a4a9342cd
:1026780015d00e23dce215aa0321284607f050fde9
:102688000028aed001231593b2e71a42aed1afe7c6
:102698004ff400730093c0e74ff00009c8e7b8f1a2
:1026a800040f01d90e23c3e206eb081494f8b231e3
:1026b80004f5d774002b00f0c38204f1080008f079
:1026c8001efb029004f10c0008f019fb149015e0b1
:1026d80014aa0121284607f023fd002840f0b28201
:1026e800019b13f0080f07d1149b3f2b0bd93f3bdd
:1026f80014933f23029301e00023029314997f2946
:1027080004d80e2394e200230293f7e7019a12f00b
:102718000203049324d002f00103002b0cbf03230f
:1027280002230393cdf820b04fea5923802b28bf0a
:1027380080234fea113e009ac2f3161210461092f7
:102748004fea514c159a541e0a94524206920b9025
:102758000c95039dcdf834800e965e460f9796e251
:10276800019b13f0010f08bf132300f061820223bd
:102778000393d7e79946032588e283b9bcf1000f94
:102788002dd0364a901c4ff002094a46944507d38b
:102798004fea490930f8022f002af7d100e099469c
:1027a800b1fbf9f2900000f207204fea5028a2f599
:1027b8007f42f63a2a48824200f24682029a02f1a1
:1027c800200708fb06700a9a0244069c2240121a47
:1027d80000240794202414440594174449e04ff03a
:1027e8000109dde79946b1fbf9f240f6f57082423e
:1027f80020d90232520002f2ff124fea5228029afe
:10280800571c08fb0670109a10440a9a8218069cf6
:102818002240121a032d14d0b2fbf6f406fb14243e
:1028280004b3013a029ca71c022405941ce04ff053
:102838000109d8e702eb42020132520803320125ae
:10284800d9e70b9c07940124c5e700bf701c402002
:10285800680240209cae400055aaffff8cae4000a5
:10286800fffffe0f01240594b2fbf6f290440b9a89
:102878000792029ac2eb091202449142c0f0e68123
:10288800059a8c1a06fb1844079aa41ab4fbf9f4a3
:102898004ff6f572944298bf032d0cbf0122002217
:1028a800099208d1002b40f0d3815fea590940f022
:1028b800ed810e23bce1022d26d14ff6f57294422c
:1028c80012d9002b40f0de814fea4909b9f1400fd7
:1028d80040f2dc81049a002a7ff44cafb9f1800ff2
:1028e80040f2d4810e23a3e140f6f572944200f23f
:1028f8009480002b40f0ae814fea4909b9f1800f6e
:1029080040f2c4810e2393e12b46039504970c9d56
:10291800cdf81880ddf834800e9e0f9f012b14bf70
:10292800002301231a46099340f6f5739c4202d905
:10293800002a40f091814ff400720021304608f0df
:10294800fdfa0b22c849304608f00efa0023f3724c
:102958000223337386f80d90059ab273c2f30723e6
:10296800f37386f810b0039b032b009b08bf00236a
:102978007374c3f30723b3741499b1f5803f56d227
:10298800f174c1f307213175f82373753f2333764a
:1029980000237376ff22b276f376029906f11c00c3
:1029a80008f058fa039b032b46d107f0fcfe0146ba
:1029b80006f1430008f04efa069906f1240008f0e3
:1029c80049fa022106f12c0008f044fa4ff0010bf5
:1029d80086f830b0002386f83130062286f8322097
:1029e80086f83330802386f84030292386f8423031
:1029f80013229e4906f1470008f0b6f9552386f8d8
:102a0800fe31aa2386f8ff315b46029a31462846f2
:102a180005f0e6f9b8b301230ae1039504970c9d84
:102a2800cdf81880ddf834800e9e0f9f83e706f1fd
:102a3800200008f00ffaa7e707f0b5fe014606f1f7
:102a4800270008f007fa069ab275c2f30723f37550
:102a5800802386f82430292386f8263013228449d7
:102a680006f12b0008f080f9552386f8fe31aa23d9
:102a780086f8ff310123029a3146284605f0b0f95d
:102a8800b0b30123d4e00123029a06323146284626
:102a980005f0a6f94ff400720021304608f04efa0e
:102aa8007449304608f0d6f9734906f5f27008f013
:102ab800d1f9611e06f5f47008f0ccf9022106f58b
:102ac800f67008f0c7f9552386f8fe31aa2386f870
:102ad800ff310123029c224607323146284605f081
:102ae8007ff9012322461a443146284605f078f931
:102af800624a3a400021304608f020fa099b002b30
:102b08005f4b08bf6ff0070300934ff0000b331db6
:102b18000293089b9b453ad3079b039a032a18bf45
:102b28009946049f4c46d14528bf544623463a4609
:102b38003146284605f054f9002840f09180274492
:102b4800b9eb0409eed1039a032a53d0149bb3f5c9
:102b5800803f51d2022a0cbf04240124b8f1000f8f
:102b68004cd0012300223146284605f0e1f8002820
:102b780078d106eb081888f8b241012300223146c3
:102b8800284605f02df9002848d0012350e0039b82
:102b9800032b2ad16ff00701304608f05bf94ff09c
:102ba800ff31029808f056f96ff0704106f10800fd
:102bb80008f050f9069c2746544528bf57463b461f
:102bc800049a3146284605f00bf9002846d14ff4ff
:102bd80000720021304608f0b1f9049b3b4404938d
:102be800e41be8d10bf1010b93e70099304608f09c
:102bf80031f9dfe70c24b1e70624afe7019b13f0b6
:102c0800080f0bd1149b12930023139333462246cb
:102c180012a9284603f000f8034648b900221146d5
:102c2800284607f07dfa031c18bf012300e00b2398
:102c3800184617b0bde8f08f1123f9e70123f7e72d
:102c48000e23f5e70123f3e70e23f1e70e23efe761
:102c58000e23ede70e23ebe70e23e9e70123e7e771
:102c68000123e5e70123e3e7c8974000d497400034
:102c7800e8974000525261417272416100feffffc5
:102c8800f8ffff00049adab1994603254b46032d55
:102c98003ff473ad002b7ff4a5adbef1000f3ff4f8
:102ca800c6ad084a901c4ff0020904229645fff46d
:102cb8009aad4fea490930f8022f002af6d192e579
:082cc8000e23b5e77cae4000cd
:020000040000fa
:020000040040ba
:102cd0002de9f04f8bb08a460290169806939046e5
:102ce00008f0d2f903680393184608f0f7f8039b3d
:102cf000019003444ff0000b13f8013c0793daf8fe
:102d0000003002331f4613f8010b30286cd007f057
:102d10005dfc044600286ad1019a0399384607f001
:102d2000c7fd002866d1019bf85cfe1807f04efc39
:102d3000002862d03346187830281f4603f101037b
:102d4000f9d007f043fcb0fa80f56d0934464ff036
:102d5000010b3a4616460132307807f037fc00285e
:102d6000f8d1019a0399304607f0a2fd50b954b941
:102d7000019bf418224616460132307807f026fcf3
:102d80000028f8d10cb1a41ba4003378502b01d03b
:102d9000702b40d173782b2b35d02d2b2fd0711c5d
:102da0004ff00009087807f011fc431edbb2182b26
:102db00031d8a0f1100211f8010f07f007fc431ef3
:102dc000dbb2182b22d9b9f1000f00d052421444c3
:102dd000caf800100db3bbf1000f14bf002706277f
:102de00038460bb0bde8f08f0bf1010b8ae70025e8
:102df0002c46aee73e460125c7e70446fbe74ff009
:102e00000109b11ccee74ff00009fae70a2303fbe2
:102e10000202103acfe73146dae7f31b013b2946bd
:102e2000072b49dc029806f065f8019b00f11409b4
:102e30004ff0000bc3f101030546cdf81090da46c0
:102e40000893b7423bd3049840f804aba0eb0900c9
:102e5000801028614701504607f000f8d8f800605c
:102e60003f1ab74264ddbf1b3946284606f0d6fe3e
:102e7000824678b17b1e591103f01f024ff0010a00
:102e800059f821100afa02f20a4203d0534546dcef
:102e90004ff0020a3946284605f0c2ff3c44d8f8f4
:102ea00008309c4252dd2946029807f0f5fa149a40
:102eb00000231360a32793e701315b10b0e7731e73
:102ec0000593079a16f8013c934218d0bbf1200fe6
:102ed00007d1049bc3f800a004334ff0000a049309
:102ee000d34616f8010c07f071fb00f00f0000fa52
:102ef0000bf04aea000a0bf1040b059b0de0059b61
:102f0000089a13449f42e1d81846019a03990993fd
:102f100007f0cefc099b0028d8d11e4691e7b91ec8
:102f2000284606f07bfe0028b2d04ff0030ab1e736
:102f300009daf71b29463a46029805f0a4f8e41b83
:102f4000054600f114094ff0000aa8e7d8f804007c
:102f500084426ada041ba6422edcd8f80c30022b1d
:102f600022d0032b24d0012b15d1a64213d1012e40
:102f70000bdc069ad8f80430136001232b61c9f8e2
:102f80000030149b62271d602ae7711e284606f058
:102f900045fe0028edd12946029807f07dfa149ae3
:102fa0000023136050271be7159b002be1d0f2e7ad
:102fb000159b002bddd1eee7671ebaf1000f31d172
:102fc00027b13946284606f029fe82467a110123a8
:102fd00007f01f0703fa07f759f8223021461f426e
:102fe000284618bf4af0020a361b05f019ffd8f828
:102ff00004400227baf1000f45d0d8f80c30022b5c
:1030000015d0032b17d0012b09d11af0020f06d0cf
:10301000d9f800304aea030a1af0010f0ed147f03e
:10302000100730e04ff0010ad0e70127e2e7159bd7
:10303000c3f101031593159b002bf0d0d5f8109028
:1030400005f114034fea890a03eb0a0100201a680c
:10305000b2f1ff3f1cd001321a60022f05f11403b8
:1030600038d1d8f80020013a96420ad171110122d4
:1030700006f01f0653f8213002fa06f61e4218bf6a
:10308000174647f02007149b1d60069b1c60a7e6af
:1030900043f8040b9942dad8ab68994512db6968aa
:1030a0000298013105f026ff2a69023205f10c0170
:1030b000834692000c3007f031fe2946029807f053
:1030c000ebf95d462b695a1c05eb83032a6101224b
:1030d0005a61c2e72a6991450bda0121284605f0b9
:1030e0009ffed8f8083001349c423ff7dcae012740
:1030f000c7e716f01f06fad09a44c6f120065af820
:0c310000040c06f0abfeb042e7dbf0e789
:020000040000fa
:020000040040ba
:10310c001c1c40201c00000000000000c00c4020d3
:10311c0040030000000000008c1c40200100000057
:10312c000100000001000000ac044020140000006d
:10313c00000000000000402008000000000000001b
:10314c00d01b402028000000000000000800402098
:10315c00300000000000000038004020300000006b
:10316c00000000006800402030000000000000005b
:10317c009800402010000000000000008d1c402032
:10318c000100000000000000701c40200400000042
:10319c0000000000501c4020100000000000000047
:1031ac00881c40200200000000000000e0164020b7
:1031bc000002000000000000c014402020020000ab
:1031cc0000000000c000402074010000000000005e
:1031dc00c00440200008000000000000381c402003
:1031ec001800000001000000400240208004402034
:1031fc0068af40000000000080024020000000008a
:10320c004c1b40201400000001000000e4a9400009
:10321c00e8a94000eca94000f4a94000f8a940003e
:10322c00400240205c02000000000000601b4020b7
:10323c003800000000000000001040206002000078
:10324c00000000006012402060020000000000003e
:10325c008e1c40200100000000000000981b402044
:10326c0038000000000000004c1a4020a0000000b4
:10327c00000000008a1c4020020000000100000039
:10328c0001000000f81b402024000000000000009a
:10329c00601c402010000000000000009c04402036
:1032ac000800000000000000741c40200400000016
:1032bc0000000000a40440200100000000000000f9
:1032cc00e01840206c0100000100000043000000e9
:1032dc0000000000000000000000000000000000e2
:1032ec00000000000000000000000000430000008f
:1032fc0000000000000000000000000000000000c2
:10330c00000000000000000000000000430000006e
:10331c0000000000000000000000000000000000a1
:10332c00000000000000000000000000430000004e
:10333c000000000000000000000000000000000081
:10334c00000000000000000000000000430000002e
:10335c000000000000000000000000000000000061
:10336c00000000000000000000000000430000000e
:10337c000000000000000000000000000000000041
:10338c0000000000000000000000000043000000ee
:10339c000000000000000000000000000000000021
:1033ac000000000000000000000000005fac4000c6
:1033bc008da8400000000000d06f4000a1af40007d
:1033cc00a0af4000a0af4000a0af4000a0af4000b5
:1033dc00a0af4000a0af4000a0af4000a0af4000a5
:1033ec00a0af4000ffffffffffffffffffffffff4e
:1033fc00ffff000001004153434949000000000059
:10340c0000000000000000000000000000000000b0
:10341c000000000000004153434949000000000037
:10342c000000000000000000000000000000000090
:10343c000000000000000000781c40200400000088
:10344c00000000007c1c4020040000000000000074
:10345c00801c40200400000001000000ec1a4020f9
:10346c00ec1a402060000000010000000000000089
:10347c005caa40007caa40003caa4000000000006e
:10348c000000000000000000000000000000000030
:10349c000000000000000000000000000000000020
:1034ac000000000000000000000000000000000010
:1034bc000000000000000000000000000000000000
:1034cc00000000000000000000000000a8044020e4
:1034dc000400000000000000841c402004000000d8
:1034ec000000000000000000000000002222222248
:020000040000fa
:020000040040ba
:1034fc002de9f04f83b09c4b1e68197d21b93378b0
:10350c004bbb03b0bde8f08f3378002b40f0c28189
:10351c0030460022531cdbb29942f2d010f8284fef
:10352c000cb91a46f6e70232d2b2012a08bf0022c1
:10353c008d490a75ff2be4d003eb8303dc003519ae
:10354c006b79012b09d02b7b042bdad8dfe803f045
:10355c000a1d2e5081000b46eee72b7b042b10d05e
:10356c0000232b7395f82030012b00f06e81002383
:10357c00335585f820306b71ab70eb706b702b7121
:10358c00bfe70022784b5a75eae7ab685b6a032108
:10359c00e88898476861b0f1ff3fb2d0ab681b690f
:1035ac002a467249984702232b73aae7ab681b681b
:1035bc006869984770b195f820301bb1012385f8e4
:1035cc0020309ee7ab685b686869984768620323a4
:1035dc002b73f3e795f82030012b03d0002385f8eb
:1035ec0020308ee7284607f0abfa00232b71f5e765
:1035fc005d4b5b7d012b84d001225b4b5a756b6a52
:10360c001b691b68b3f5007f04d24ff40074b4fb44
:10361c00f3f400e00124544e4ff4007200213069a1
:10362c0007f04efc022385f8213032696869ab68db
:10363c0000949c68002305f11c01a047eb69b3f1d1
:10364c00ff3f02d004232b735be70022464b5a75d5
:10365c0057e795f92130022b06d06bb10022424b73
:10366c005a7503232b734ce7ab68db6a002b3ff4d2
:10367c0048af2869984744e73b4b1e6900236b70a1
:10368c0096f8fe31552b0ed0002634464ff0ff082d
:10369c00354b5f683b78002b6ad00022324b5a7551
:1036ac0002232b732de796f8ff31aa2b01d00026ad
:1036bc00ebe73378eb2b2bd096f8c20107f016f919
:1036cc0007460446687096f8d20107f00ff920b14e
:1036dc0047f0020401376f70e4b296f8e20107f08c
:1036ec0005f928b144f00404e4b26b7801336b7033
:1036fc0096f8f20107f0faf828b144f00804e4b2a5
:10370c006b7801336b70002c40f0c1800126bce754
:10371c007378582b18bf3c2b01d0fe2bccd1b3782f
:10372c00902bc9d101236b7096f85230462b00f0c8
:10373c00908096f85330412b00f0908096f85430de
:10374c00542b00f0908096f83630462b00f0908089
:10375c0096f83730412b00f0908096f83830542b87
:10376c0000f09080002690e7381c4020a1a2400079
:10377c004a4bd3f810a02b7901332b712a7e484b7e
:10378c0053f822b0584607f0a3fb5ffa80f94a467b
:10379c005946b81c06f0fffeaa7807eb09039a708d
:1037ac0009f1010357fa83f32a7930329a7009f13f
:1037bc00020357fa83f300229a70bd6187f80180e7
:1037cc001cb314f0010f29d01446b8f1ff0f1cd014
:1037dc00344b33f814301af803207a705344d97ae6
:1037ec009a7a120402eb0162597a02eb0122197add
:1037fc000a447a61d9799a79120402eb01625979f7
:10380c0002eb01221b7913443b61c6b1264bea78cb
:10381c001a7001345c7001233b703ee714f0020f08
:10382c0001d00124d1e714f0040f01d00224cce71d
:10383c0004f00804002c0cbf00240324c5e71a4b29
:10384c00ea781a7000225a70e5e7284607f078f9f2
:10385c008de6002634464ff00b0819e70026344657
:10386c004ff00b0814e7002634464ff00b080fe717
:10387c00002634464ff006080ae7002634464ff07f
:10388c00060805e7002634464ff0060800e7012637
:10389c00b046fde60023014a13754de6381c402066
:0c38ac004c1b402008b040006802402087
:020000040000fa
:020000040040ba
:1038b8002de9f04f87b083468946036802930b7859
:1038c8002f2b0bd05c2b09d0029b9b69836099f846
:1038d80000301f2b10d9dff874a38be12f2b01d0f8
:1038e8005c2b05d119f8013f2f2bfbd05c2bf9d0ad
:1038f8000023cbf80830eae780238bf82f3000212b
:10390800584604f09df803462ce082b22f2a18bfcf
:103918001f2a2bd95c2a29d07f2a12d9fe2c20d81d
:1039280025f81420013405a806f076feb0f1ff3f13
:1039380017d0b0f5803fe8d3030c25f814300134d4
:10394800e3e71046222a00f07c812a230af10d01c0
:10395800984204d011f8013f002bf9d1dee7002b83
:10396800dcd00623184607b0bde8f08f1f2a0fd910
:10397800059b1a782f2a01d05c2a52d1013305936e
:103988001a782f2afad05c2af8d04ff0000801e004
:103998004ff00408ddf81490012c45d0022c59d0c2
:1039a800002c00f04c816ff00043234405eb4302e8
:1039b80035f81330202b01d02e2b08d1013c00f014
:1039c8003e8132f8023d202bf8d02e2bf6d0610034
:1039d800002325f814302b88202b42d12a460026b4
:1039e800013632f8023f202bfad02e2b00d00eb130
:1039f80048f003088a1eab18aa5a2e2a05d0013ca3
:103a080003d033f8022d2e2af9d10b2220210bf1f5
:103a1800240007f093fa08230193002300930393eb
:103a280024e04ff00008b5e72b882e2bbbd10023ec
:103a380025f814300bf123029c428cbf2e21202143
:103a480002f8011f01330b2bf6d148f020088bf840
:103a58002f80b3e06b882e2ba5d12b882e2ba2d1db
:103a6800e5e70026c1e748f003083e46771c35f82d
:103a78001600002800f081802028f4d02e2801d1db
:103a8800a742f0d1009b019a93420fd2a7420dd0d2
:103a98007f2828d8ff2849d9019a531e00999942ae
:103aa8003cd348f003083e460092dfe7019b0b2b0e
:103ab8000fd0a74218bf48f00308a7425dd8039b60
:103ac8009b00dbb2039326460b2301930823009344
:103ad800cce748f003089bf82430e52b54d10523a4
:103ae8008bf824304de048f0020840f2b51106f09a
:103af80013f910f0800f03d000f07f00524b185cd0
:103b0800ff28c9d890b948f00308009b5f205a1cc9
:103b180000925b4483f824003e46a7e7009a1346c8
:103b280001335a44010a82f82410f0e72b28ead01e
:103b38002c230af1190299b2814219d012f8013fd7
:103b4800002bf8d1a0f141039bb2192b03d8039b9a
:103b580043f002030393a0f161039bb2192b0ad827
:103b6800039b43f001030393203880b2009bcee708
:103b7800002bc8d1e6e7009bc9e79bf82430e52b6a
:103b8800add0019b082b3cd0039a02f00c030c2b00
:103b98003cd002f00303032b38d018f0020f0bd1ee
:103ba800039b13f0010f18bf48f01008039b13f094
:103bb800040f18bf48f008088bf82f80584601f00a
:103bc80045f89bf82f20034618bb12f0040f7ff42a
:103bd800c9ae9bf8063013f0100f2ed0029800f1f2
:103be8004001dbf81430c3f30803194406f0d2fe91
:103bf800cbf80800cdf81490dbf80030dd6800241d
:103c080091e6039b9b00dbb20393bde748f00208f3
:103c1800c3e7042b7ff4a6ae12f0200f07d012f0f2
:103c2800040fe7d080238bf82f3000239ae602f0a8
:103c38000402002a08bf052394e6052392e6002320
:103c48002b8006238ee600bfe4894000a897400039
:020000040000fa
:020000040040ba
:103c58002de9f04385b00d46164600230b6005f0ac
:103c68003dfa071ec0f25381b84b53f82740002c89
:103c780000f051812c6006f0fe0623787bb1607855
:103c8800fdf7a4fe10f0010f09d1002e00f04581c8
:103c980000f0040000280cbf00200a2038e10023af
:103ca8002370ab4b13f81700607007f0fbf810f0a7
:103cb800010f01d003202be126b110f0040f01d031
:103cc8000a2025e1a24b03eb47077f780021204615
:103cd80004f004ff022801d029d847b3042f01d9e2
:103ce8000d2015e104f206256e4604f24628284602
:103cf80007f005f846f8040b1035a845f7d12fb1a1
:103d08007d1e0deb85064ff003080ae03d46f8e7f7
:103d1800204604f0e3fe57b9012808d90135032de0
:103d280005d856f8041b0029f2d14046f3e70428c9
:103d380000f0f580012801d90d20e9e094f84c2025
:103d480094f84b3043ea02231bb2b3f5007f01d04d
:103d58000d20dde094f8573094f8567057ea0327a1
:103d680004d104f1640006f0caff0746666b2762b7
:103d780094f85050a5706b1edbb2012b01d90d20b1
:103d8800c6e094f84d901ffa89f36381002b00f088
:103d9800c88009f1ff3313ea090f01d00d20b7e0fd
:103da80094f8523094f8518048ea0328a4f808801f
:103db80018f00f0f40f0b78094f8543094f853007f
:103dc80050ea032003d104f1600006f098ff94f84c
:103dd8004f2094f84e3053ea022300f0a68007fbe8
:103de80005f203eb181111448842c0f0a080451a6f
:103df800b5fbf9f5002d00f09c805648854294bf2c
:103e08004ff003094ff000094ff6f570854298bf4f
:103e18004ff0020940f6f570854240f2a980b9f1e9
:103e2800000f00f088800235e56166623344a362c2
:103e380031442163b9f1030f40f0a38094f86b205b
:103e480094f86a3053ea022377d1b8f1000f74d19d
:103e580004f16c0006f053ffe062ab0003f2ff13bd
:103e6800b7eb532f6bd34ff0ff336361236180238c
:103e7800237194f8712094f8703043ea02231bb23e
:103e8800012b28d1711c204606f082f918bb0023ab
:103e9800237194f83f2294f83e3243ea02231bb27e
:103ea8002d4a934217d104f1400006f028ff2b4b0e
:103eb800984210d104f5097006f021ff284b98426a
:103ec80009d104f50a7006f01aff606104f50b7059
:103ed80006f015ff206184f80090224a1388013308
:103ee8009bb21380e380204be3600023a3611f4b48
:103ef8001b689c4202d100221c4b1a60002007e07c
:103f080005eb450305f0010505eb530542e00b20e1
:103f180005b0bde8f0830c20fae70020f8e701209f
:103f2800f6e70d20f4e70d20f2e70d20f0e70d206d
:103f3800eee70d20ece70d20eae70d20e8e70d207d
:103f4800e6e70d20e4e70d20e2e700bf701c402003
:103f580068024020f5ffff0f55aaffff525261414a
:103f680072724161881c4020e0164020501c40209d
:103f78000235e56166623344a3620e4426634ff05e
:103f88000109b8f1000fdcd01344e362b9f1020f64
:103f9800b6d16d0005f2ff15b7eb552fd3d34ff00f
:0c3fa800ff33636123618023237194e7e1
:020000040000fa
:020000040040ba
:103fb4002de9f04f9fb004460d4690464c22002157
:103fc4000ba806f0bdff0b944ff0000b0ae1d0469e
:103fd40008e16978302947d02d294ad00235de46d8
:103fe4002a294dd0a1f13003dbb2092b46d85c4617
:103ff40004eb840401eb4404303c15f8011ba1f1eb
:104004003003dbb2092bf3d901f0df034c2b03d1ce
:104014004ef0040e29780135002900f02b81a1f11e
:104024006103dbb2192b32d8a1f12003dbb2a3f177
:104034004202162a67d8dfe812f017015d006a0011
:10404400660066006600660066006600660066003c
:1040540066006600ea006600660066002e006600e0
:104064006a00660066002c00a97803354ff0010e43
:10407400b6e7a97803354ff0020eb1e75c46c3e713
:10408400d8f80040297808f104080135bce70b464c
:10409400cde71027bce008f1040ad8f8007039789d
:1040a400002900f0aa803b465a4600e03246561cde
:1040b40013f8010f0028f9d11ef0020f00f0bc80a4
:1040c4000ba805f08bfe17f8011f0029f8d1771c07
:1040d400b4427ff67caf0134202631460ba805f0ac
:1040e4007dfe0137bc42f8d1d0467be05e46012319
:1040f4000193a5e008f1040498f800100ba805f05a
:104104006dfea0466ee00ba805f068fe6ae01ef0a6
:10411400040f07d1442b14d1d8f8002008f1040867
:104124000a2706e00a2700e00227d8f8002008f151
:104134000408442b73d1002a71da52424ef0080e5f
:104144006de00a2767e00cf10106303300f8013f07
:1041540069b11f2e0bd8b446b2fbf7f107fb11234c
:10416400dbb20a46092beed94b44dbb2ebe71ef077
:10417400080f06d01eab1e442d2306f86c3c0cf130
:1041840002060ef00103002b14bf302720271ef077
:10419400020f10d106f10109a6420dd204f1010a61
:1041a40039460ba805f01afe09f10109ca45f7d1f1
:1041b40004f1010900e0b14603ab1e449a4616f827
:1041c400011d0ba805f00afeb245f8d109f101065c
:1041d4004c4507d9013439460ba805f0fffd0136db
:1041e400a642f8d12978002944d025293ff4f1ae1c
:1041f40001350ba805f0f2fdf4e71ef0020f04d11f
:10420400002c7ff473af012661e75e465fe7082761
:104214001ef0040f89d1d8f8002008f10408782989
:104224000cbf4ff027094ff007090df10b00dc46d6
:1042340092e73978019e43e7931c0193b442f8d97d
:1042440004f10109ddf8048020210ba805f0c6fd66
:1042540008f10108c845f7d1019b9e1b2644397813
:1042640000297ff42daf32e71ef0040f7ff45caf1a
:104274000227d0e70ba805f0fffe1fb0bde8f08fc2
:020000040000fa
:020000040040ba
:104284002de9f04f099f15469c4604468846002bad
:1042940040f0cd808a424cd9b2fa82febef1000fc2
:1042a4000bd0cef1200802fa0ef520fa08f801fa34
:1042b4000ef248ea020800fa0ef44fea1549abb2ce
:1042c400b8fbf9fa260c09fb1a820afb03fb46ea3f
:1042d400024293451ed952190af1ff3004d2934584
:1042e40002d9aaf102002a44a2eb0b02a4b2b2fb47
:1042f400f9f609fb162206fb03f144ea024399424c
:104304000ad95b1906f1ff3207d2994205d9b21ec8
:104314002b4402e05046e7e732465b1a42ea00408b
:1043240027b123fa0ef33b6000237b606146bde8ae
:10433400f08f12b90125b5fbf2f5b5fa85febef191
:10434400000f2ed14a1b4ff0010c2e0cabb2b2fb66
:10435400f6f8210c06fb182208fb03f941ea024295
:10436400914560d9521908f1ff3004d2914502d920
:10437400a8f102002a44a2eb0902a4b2b2fbf6f8a7
:1043840006fb182208fb03f144ea024399424cd984
:104394005b1908f1ff32c0d29942bed9a8f10202da
:1043a400b6e7cef1200421fa04fc01fa0ef220fa59
:1043b40004f405fa0ef544ea02064fea154800fa39
:1043c4000ef4bcfbf8f1aab208fb11cc300c01fbd3
:1043d40002f940ea0c43994521d95b1901f1ff30f8
:1043e40003d2994501d9881e2b44a3eb0903b6b225
:1043f400b3fbf8f908fb193309fb02f146ea03425f
:1044040091420ed9521909f1ff3c04d2914202d9ca
:10441400a9f1020c2a44521a4cea004c95e70846ca
:10442400e3e7cc46f7e74046a5e7424675e78b420b
:1044340006d90fb187e803004ff0000c604675e71a
:10444400b3fa83f68eb98b4201d382420bd8841a15
:1044540061eb030201209046002f6bd087e8100126
:104464004ff0000c62e73046f6e7c6f1200eb34089
:1044740022fa0ef51d4321fa0efb02fa06f401faa4
:1044840006f220fa0ef10a434fea15491ffa85f89d
:10449400bbfbf9fa4fea124c09fb1abb0afb08f101
:1044a4004cea0b4c614500fa06f33fd91ceb050cb2
:1044b4000af1ff3004d2614502d9aaf10200ac44ea
:1044c400aceb010c92b2bcfbf9fa09fb1acc0afb67
:1044d40008f842ea0c4188452ad949190af1ff3201
:1044e40004d2884502d9aaf10202294442ea0040d2
:1044f400a1eb0801a0fb04894945c246cc4602d37e
:1045040006d1434504d2b8eb040a69eb050c013823
:1045140087b1b3eb0a0261eb0c0303fa0efef2401f
:104524004eea0202f34087e80c0099e75046c7e7d9
:084534005246dbe7bc46f9e644
:020000040000fa
:020000040040ba
:10453c002de9f04f8bb090f82f3013f0a00f04d072
:10454c00062738460bb0bde8f08f0668f3681a886a
:10455c0012b34ff0000a0af1010a33f8022f002ab5
:10456c00f9d1054600f124040c22214607a806f0d7
:10457c00f9fb9df8273013f0010f7bd0402385f811
:10458c002f300b2207a9204606f0ecfb4ff0010957
:10459c004b46dff8448203e04ff0000ae1e74b465c
:1045ac000df11b07072203f00f0000f13001392930
:1045bc0088bf00f13701013a07f801191b09f2d144
:1045cc007e200aa9114401f8140c62b195f824104c
:1045dc0020290bd0214601339a4206d011f8010f45
:1045ec002028f8d102e0134600e013462344202093
:1045fc0005e0014603f8011b191b072907d8072af8
:10460c00f7d80aa9114411f8141c0132f2e7284614
:10461c0000f01afb074618bb09f10109b9f1640f48
:10462c001cd0f7680b2207a9204606f09bfbb9f1ba
:10463c00050fb4d9023f4b4637f8022f002aafd0f2
:10464c00102102f0010000eb4303520813f4803fe9
:10465c0018bf83ea08030139f3d1ede7072770e7a8
:10466c00b9f1640f74d004287ff46baf9df8273038
:10467c0085f82f309df8273013f0020f00f085805d
:10468c000af10c03524aa2fb03234fea930a0af1e4
:10469c000101284605f058f8074600287ff451af71
:1046ac00baf1000f79d06969a1eb4a11284603f0e1
:1046bc00c5f9074600287ff444af204606f0e8f918
:1046cc00019000230293039419e0384649e04ff619
:1046dc00ff72934202d03cf810300bb948f04008fe
:1046ec0081f800800123f3700021284602f0ccfef3
:1046fc00074600287ff425afbaf1010a26d0e969f4
:10470c00304605f043fd074600287ff41aafd6f873
:10471c000cc0296a5ffa8af89df804304b734ff08d
:10472c000f03cb724ff000030b738b76cb7608f133
:10473c00ff3000eb400300eb8300264a02f10d0e24
:10474c00029b4ff6ff744ff0ff090de0039c24e031
:10475c000727f6e6177801eb070b01f807908bf8a3
:10476c00019001329645b2d0a342f3d0471c3cf8dd
:10477c001030107801eb000b0b54180a8bf8010069
:10478c00002ba2d138462346ebe70121284604f042
:10479c00dbff074600287ff4d4aee969304605f00c
:1047ac00f5fc074600287ff4ccae20220021286ab5
:1047bc0006f0c2fb0b222146286a06f0d3fa2a6abd
:1047cc0095f82f3003f0180313730123f370b8e638
:0c47dc004fecc44e6cae400021100100f8
:020000040000fa
:020000040040ba
:1047e8002de9f04391b00191002800f0fa800446c9
:1047f800154602f03f073a4602a901a8fff728fa32
:10480800064610b100232360ece0029b0393019954
:1048180003a8fff74df80346002840f0e7809df90c
:104828003b30002bc0f2eb8037f0010314bf0121ad
:10483800002103a804f086fe034615f01c0f00f0c3
:104848009e8050b99df8123013f0110f40f0f98096
:1048580015f0040f07d00826f4e0042b4cd047f0dd
:104868000807002b52d117f0080f51d117f0080f85
:1048780001d047f04007029b5b6b63620b9ba3620e
:1048880037f0010314bf0121002103a804f01afa2c
:104898002061002800f0a380029dddf82c804146ad
:1048a800284606f077f8a06008f11c0006f027fa01
:1048b800e0602560eb88a38027750021617521627f
:1048c800a16104f140084ff40072404606f036fb3f
:1048d80017f0200f00f08680e568002d00f0828038
:1048e800a561029bb3f80a904fea4929a1684d4592
:1048f80040f28a80374654e0564b1b680bb11223ae
:1049080090e003a8fff716fe0346a8e71e4679e7de
:104918000b9d2946029806f03df8804605f043ffb6
:10492800014605f10e0006f095fa20220b9bda727b
:1049380000220b99029806f074f900210b981c309c
:1049480006f088fa0122029bda70b8f1000f90d0c5
:10495800029b5d6b0022414603a803f033ff08b1b8
:1049680006464fe72946029805f012fc08f1ff3386
:10497800029a136100283ff47caf064642e70028fc
:1049880063d19df8123013f0100f60d115f0020fab
:104998003ff46caf13f0010f3ff468af072631e71f
:1049a8001f46204602f0b6fe0146012841d93b4683
:1049b800b0f1ff3f40d0a5eb09050fb9a945efd3ea
:1049c800e16117b33e461de700eb55222262012341
:1049d8004146787803f0acf920b1012612e70226a7
:1049e80010e70926304611b0bde8f08315f01c0f1a
:1049f8007ff433af002b3ff44faf1e4602e715f0ac
:104a08001c0f0ed10623f5e7e161c5f30803002b5f
:104a1800e8d0029f384606f043f90028d4d1022690
:104a2800f0e6062347f00807e4e7a5eb09050227a7
:104a3800c6e7b0f1ff3ff8d14ff0ff33e36101263d
:104a4800e0e60726002ecdd0dce60646dae60426a8
:084a5800d8e600bf501c40200d
:020000040000fa
:020000040040ba
:104a600061001a03e0001703f8000703ff000100cc
:104a700078010001300132010601390110014a01bb
:104a80002e017901060180014d004302810182015e
:104a900082018401840186018701870189018a01dd
:104aa0008b018b018d018e018f019001910191018c
:104ab00093019401f60196019701980198013d0236
:104ac0009b019c019d0120029f01a001a001a20168
:104ad000a201a401a401a601a701a701a901aa019d
:104ae000ab01ac01ac01ae01af01af01b101b2014c
:104af000b301b301b501b501b701b801b801ba01fd
:104b0000bb01bc01bc01be01f701c001c101c20172
:104b1000c301c401c501c401c701c801c701ca015d
:104b2000cb01ca01cd011001dd0101008e01de01c2
:104b30001201f3010300f101f401f401f80128016d
:104b4000220212013a020900652c3b023b023d029f
:104b5000662c3f0240024102410246020a01530212
:104b6000400081018601550289018a0158028f01a6
:104b70005a0290015c025d025e025f0293016102d3
:104b8000620294016402650266026702970196015f
:104b90006a02622c6c026d026e029c01700271024c
:104ba0009d01730274029f017602770278027902f6
:104bb0007a027b027c02642c7e027f02a6018102c3
:104bc0008202a9018402850286028702ae014402a4
:104bd000b101b20145028d028e028f029002910254
:104be000b7017b030300fd03fe03ff03ac030400d6
:104bf0008603880389038a03b1031103c2030200f9
:104c0000a303a303c4030803cc0303008c038e0394
:104c10008f03d8031801f2030a00f903f303f40326
:104c2000f503f603f703f703f903fa03fa03300475
:104c3000200350041007600422018a043601c104d5
:104c40000e01cf040100c004d00444016105260414
:044c5000000000bfa1
:020000040000fa
:020000040040ba
:104c54002de9f04f87b004460768002102f0f2fe08
:104c64008346002840f0b4804ff0ff3323634ff0b5
:104c7400ff0ad14698460be0c4f830804ff0ff0994
:104c84000021204602f004fc8346002840f0a08066
:104c9400e169384605f07efa8346002840f09880a2
:104ca400256a2e78002e00f09180ea7a02f03f0304
:104cb400a371e52ee0d012f0080f01d00f2bdbd149
:104cc4000f2b19d0b9f1000f04d1284605f0e4feea
:104cd40082457dd094f82f3013f0010f07d10b22b9
:104ce40004f12401284605f021ff002870d0c4f8ff
:104cf40030804ff0ff09c3e794f82f3013f0400fd2
:104d0400bed116f0400f0cd095f80da006f0bf06ea
:104d14006369236395f80db0d34507d04ff0ff09bd
:104d2400aee7b145f6d04ff0ff09a9e7ea7eab7ec6
:104d340053ea022354d1fb68184604932b7803f0fa
:104d44003f03013b03eb430203eb8203dff8b0a014
:104d5400012101970596cdf808b01f460394044637
:104d640006e04ff6ff739e4243d1244b9a4519d077
:104d74001af8013bea185278ee5c46ea022600294a
:104d8400efd0ff2f28d8304602f094fd834607f178
:104d9400010934f8170002f08dfd834524d1314612
:104da4004f46e2e7059eddf808b03a46019f039cb2
:104db4002b7813f0400f04d019b1049b33f8123050
:104dc40073b9013e5ffa86f9da4659e74ff0040bee
:104dd400584607b0bde8f08f019fddf808b0039c8a
:104de400da464ff0ff094be7019fddf808b0039c5a
:104df400f6e7019fddf808b0039cf1e779ae4000c7
:044e04006cae400050
:020000040000fa
:020000040040ba
:104e08002de9f04f87b004468b4616469846002396
:104e1800c8f80030019005a905f0c0fa074630b976
:104e2800677d27b9237d13f0020f04d10727384681
:104e380007b0bde8f08fa369f34228bfde43002e18
:104e480000f0b18004f14003029303975fe0002172
:104e5800019802f035f803e0e169019802f030f8b2
:104e6800002864d1039f9ee002276775dfe70127ca
:104e78006775dce70123226a02990598407802f0f9
:104e8800afff20b9237d03f07f0323755ce0012782
:104e98006775cce702276775c9e701276775c6e715
:104ea8004ff400720beb4121029805f05dff237d62
:104eb80003f07f03237567e0236a994503d0a2694d
:104ec800e3689a4262d3c4f82090a069c0f308004e
:104ed800c0f50075b54228bf35462a465946029b9b
:104ee800184405f041ff237d63f07f032375d8f84c
:104ef80000302b44c8f80030ab44a3692b44a361ad
:104f0800e268934238bf1346e360761b4ad0a36930
:104f1800c3f30802002ad8d1059a5789013f17ea36
:104f280053270dd1002b97d1a06800288fd00128d6
:104f38009ad0b0f1ff3f9ad0e061a36803b9a060ae
:104f480094f91430002b95dbddf814a0e169504684
:104f580005f0a6fe814600289cd0b944750aabd05e
:104f6800baf80a307a199a4288bfdd1b2b464a469e
:104f780059469af8010002f033ff00288dd1216ac2
:104f8800a1eb09018d428bd86d02b0e701234a4697
:104f980002999af8010002f0cbfe002893d001276d
:104fa800677544e7039f237d43f0400323753ee77d
:020000040000fa
:020000040040ba
:104fb8002de9f0479df824600c4611b14ff0ff3100
:104fc800216092b1089981b11f461546804603f0c9
:104fd80059ff034648b101884ff450725c4802fb00
:104fe800010292f8de22012a01d0bde8f087012ee5
:104ff80000f09780da7812f0020ff6d0089ad019ec
:105008004ff45072dff848e102fb01e2d2f81c23aa
:105018009042ead84ff450724d4802fb010292f8d0
:105028002823012ae1d14ff4507202fb010e4ff000
:10503800000c8ef828c3b3f800a002fb0a02d2f8cd
:10504800c492b9f1000f63d04ff4507202fb0a0208
:10505800d2f8c8229446107850b12432002001308a
:10506800484555d0944612f824ebbef1000ff6d10e
:1050780001228cf800200022ccf820204ff4507e2a
:10508800334a0efb0a22b2f8c2e21b781b0243ea3b
:105098000e43c0b20343ccf80c30b2f8c23201332d
:1050a8009bb24ff6ff72934208bf01234ff4507230
:1050b800274802fb0a0aaaf8c232bcf1000f27d01f
:1050c800ccf80480ccf81050ccf81470089bccf8bd
:1050d80018308cf81d6001238cf8083014b1dcf806
:1050e8000c3023604ff4507303fb01f3184ad018b7
:1050f80003f53373d0f8cc423cb3d35843b11a6aa2
:1051080022b11b6a23b11a6a002afad1c3f820c057
:105118004ff450720e4b02fb0131012381f8283302
:1051280063e7da7812f0010f3ff45faf089ad019fd
:105138004ff45072dff818e002fb01e2d2f81423b2
:1051480090427ff667afbde8f087c0f8ccc2dfe7d2
:04515800c00c402027
:020000040000fa
:020000040040ba
:10515c002de9f04196b00190022208a901a8fef7b2
:10516c0075fd044618b1204616b0bde8f0810b223f
:10517c00202102a805f0e0fe019b1b781f2b40f2ba
:10518c009280002540f2b517574e1ee00624eae740
:10519c00002b7cd10a2d00f28280a8460ae0ff2c5d
:1051ac00f8d9092d79d805f1010816ab1d44230a4d
:1051bc0005f8503c08f10105e4b216ab434403f882
:1051cc00504c019b1b781f2b19d901a805f022fa12
:1051dc00b0f5803f57d202f069fb394604f09afdd6
:1051ec000446002851d02b28d0d02e23721c99b203
:1051fc00a142cdd012f8013f002bf8d1cfe79df89a
:10520c000830e52b45d075b1202c0ed102ab4344b0
:10521c00b8f1000f4dd008f1ff3213f8011d202911
:10522c0047d19046f4e7a84643e0a84641e0e52282
:10523c00119b1a700122089bda70089803f07afa15
:10524c00044690e7042826d1b8f1000f8bd0012139
:10525c0009a804f079fa0446002884d12022002100
:10526c00119805f069fe0822119bda720b2202a933
:10527c00119805f077fd0122089bda70089803f06d
:10528c0059fa04466fe706246de706246be70624fb
:10529c0069e7062467e7044665e7062463e7062406
:1052ac0061e706245fe79df80830e52bf9d04ff055
:1052bc000008089b099300210b9109a802f0befb82
:1052cc00044600287ff44faf012109a800f00afe24
:1052dc000028b7d1b8f1000fa9d00b2202a9119860
:0c52ec0005f040fda6e700bf84ad4000c7
:020000040000fa
:020000040040ba
:1052f80010b14ff0ff3070472de9f04f87b00f46df
:1053080093461e465f4b1c686069b0f1ff3f00f092
:10531800b380636a1b699b680593b3f5007f11d955
:105328004fea53280023b8f1010f1ad0cbb9012254
:10533800544b9a75002e00f08a8004f11c030493e4
:10534800029655e0059ab2f5007f0ad04ff4007333
:10535800b3fbf2f303fb07f703fb06f64ff0000875
:10536800e1e7022384f82130a3680096dd683b4614
:105378005a4604f11c01a847e0697fe0029622bb67
:105388006a025946404b03eb4a2005f0c3fc3e4bea
:105398000393029eb5425dd04ff0020384f821309a
:1053a8006069a36801220092d3f80ca04b46039ac7
:1053b8000499d04794f92120022a0fd1a368db6a07
:1053c800002bf9d020699847f4e700222d4b9a75f5
:1053d8004ff0ff3052e0cdf80cb0dae70296002a21
:1053e8002fd12f440beb452b029b5b1b029331d033
:1053f800b7fbf8f908fb197aa8eb0a05029b9d424e
:1054080028bf1d46a845e6d04ff0020384f8213096
:105418006069a3684ff4006200929b681e46059b72
:1054280009fb03f3184a0499b047029e94f9212016
:10543800022aa3d1a368db6a002bf9d02069984718
:10544800f4e700220f4b9a754ff0ff3016e0b14693
:10545800cdf80cb000220b4b9a75022384f821304a
:105468006069a36801220092dd684b46039a04f143
:105478001c01a847e06901e04ff0ff3007b0bde824
:0c548800f08f00bf381c4020c004402002
:020000040000fa
:020000040040ba
:1054940010b5634b1b6a13f4807f04d0614aff216b
:1054a40011770121517713f0010106d05c4a0820dd
:1054b4001060042010600720906213f4007f02d073
:1054c4000120584a1077574a527f8ab9554a127fa9
:1054d40052b2013a032a0bd8dfe802f002551c79d4
:1054e400504bdb6883b100214e4b188802f026fd37
:1054f4004c4b1b7f5bb2b3f1ff3f6ed0494b1b7f1c
:105504005bb2052b79d010bd0121464b188802f0ff
:1055140015fdede713f0040fead0424a5369d2684f
:10552400511e8b4209d03f4a5168581c5061ca5cd5
:105534003b4b5a633a4b1b6adae73a49096981b92a
:10554400384948684a61c25c354b5a6302221a6082
:1055540004229a621b6a13f0010f10d005220a7705
:10556400e8e772b62e4a042393622e4b58685969b1
:105574004c1c5c61435c536304f028fedae70422ac
:10558400284b1a77d6e713f0020fb1d0254a1369d6
:10559400023b92699a4216d0224b986899694a1c38
:1055a4009a611f4c246b44541b699a42a0d11c4b32
:1055b40002229a621b6a13f0010f14bf052204220f
:1055c400184b1a7794e70222154b1a60e4e7002976
:1055d4008ed00522134b1a778ae7124a00231377d9
:1055e4000f4b072199620821196004211960136a7d
:1055f400002b83d0506a984780e70a4b00225a77e1
:105604001a77074a07219162082111600421116069
:105614001b6a002b3ff477af024a506a984772e73f
:0856240000800140d01b402072
:020000040000fa
:020000040040ba
:10562c00f8b5544b03b19847534b03b19847eff37c
:10563c00108172b6514ad2f8883043f47003c2f824
:10564c008830bff34f8fbff36f8f01b962b64c4aee
:10565c004c4b5a609a6812f0010ffbd0494bdb6837
:10566c0013f4c07f13d00c22474b1a60474a454baa
:10567c005a609a6812f0010ffbd0454a414b5a60b0
:10568c009a6812f0010ffbd0424a434b1a60bff3e9
:10569c004f8fbff36f8f394cd4f8903223f0010346
:1056ac00c4f89032d4f8943223f00103c4f8943245
:1056bc00bff34f8fbff36f8f03f0cef9374b23f04f
:1056cc007f03a360364b9847636913f4003f12d1f4
:1056dc00bff34f8fbff36f8f0022c4f85022bff37c
:1056ec004f8fbff36f8f626942f400326261bff378
:1056fc004f8fbff36f8f214b5b6913f4803f2fd11a
:10570c001e4b0022c3f88420bff34f8fd3f8805078
:10571c00c5f34e36c5f3c90577014fea857c43f6d0
:10572c00e07e184607ea0e0462462b4642ea040164
:10573c00c0f86012013b02f14042b3f1ff3ff5d1da
:10574c00013e203fb6f1ff3fecd1bff34f8f0b4a28
:10575c00536943f480335361bff34f8fbff36f8fa3
:10576c00104b03b19847104b03b1984704f030f934
:10577c00fee700bf000000000000000000ed00e0ac
:10578c000d00005a000c0e40741c40200c08005aee
:10579c000c07005a010000a500180e400000400044
:0c57ac004d9b40000000000000000000c9
:020000040000fa
:020000040040ba
:1057b8002de9f0478eb081464568036805eb030a7a
:1057c8002c21284605f004fa002800f0ae80034694
:1057d8000246d046a0eb0a01002900f3a880002465
:1057e80002af2c26521b47f824203146581c05f0de
:1057f800eff90134034620b10246a0eb0801002965
:10580800f0dd0c2c03d000200eb0bde8f087032299
:10581800a91809f1080004f0c0fe039e731e2b446a
:105828000eac44f8343d029801302146284404f077
:105838006bff89ed040b049f7b1e2b440193701ca6
:105848002146284404f060ff89ed060b059e731e6f
:105858002b440193781c2146284404f055ff89ed18
:10586800080b069f7b1e2b440193701c214628447d
:1058780004f04aff89ed0a0b079e731e2b4401931f
:10588800781c2146284404f03fff89ed0c0b089f43
:105898007b1e2b440193701c2146284404f034ffde
:1058a80089ed0e0b099e731e2b440193781c21462b
:1058b800284404f029ff89ed100b0a9f7b1e2b4416
:1058c8000193701c2146284404f01eff89ed120b39
:1058d8000b9e731e2b440193781c2146284404f028
:1058e80013ff89ed140b0c9f7b1e2b440193701c36
:1058f8002146284404f008ff89ed160b0d9e731eff
:105908002b440193781c2146284404f0fdfe89edc0
:10591800180b0af1ff330193701c2146284404f048
:10592800f3fe89ed1a0b01206ee700206ce70020da
:025938006ae71c
:020000040000fa
:020000040040ba
:10593a002de9f04f87b004468b461546984600235a
:10594a00c8f80030019005a904f027fd074630b9d0
:10595a00677d27b9237d13f0010f04d10727384645
:10596a0007b0bde8f08fe668a369f61aae4228bf11
:10597a002e46002ef3d004f140030293039748e029
