:020000040000fa
:020000040040ba
:10000000f0ff45207d1840001b3d4000ab40400004
:10001000cb434000cb4540003b484000000000007f
:10002000000000000000000000000000914c4000b3
:10003000f742400000000000213f40007d474000a3
:10004000ab374000ab374000ab374000ab37400028
:10005000ab374000ab374000ab374000ab37400018
:10006000ab37400000000000ab374000ab3740002a
:10007000ab37400085204000591f4000b1214000af
:10008000d1504000ab374000ab374000ab374000a9
:10009000ab374000ab374000ab374000ab374000d8
:1000a000ab374000ab374000ab374000ab374000c8
:1000b000ab374000ab374000ab374000ab374000b8
:1000c000ab374000ab374000ab374000ab374000a8
:1000d000ab374000ab374000ab374000ab37400098
:1000e000ab374000ab374000ab374000ab37400088
:1000f000ab374000ab374000ab374000ab37400078
:10010000ab374000ab374000ab374000ab37400067
:10011000ab374000000000000000000000000000bd
:10012000ab374000ab374000ab374000ab37400047
:10013000ab374000ab374000ab374000ab37400037
:10014000ab374000ab374000ab374000ab37400027
:10015000ab374000ab374000ab374000ab37400017
:08016000ab374000ab37400053
:020000040000fa
:020000040040ba
:10016800f8b500bff8bc08bc9e467047f143400094
:10017800f8b500bff8bc08bc9e467047cd434000a8
:020000040000fa
:020000040040ba
:100188002de9f04f2ded0c8b98469bb000230446cb
:1001980040460e461192169305f0b7f8814600685e
:1001a80004f0aaff4ff0000a07464ff0000b15961f
:1001b800159b1a780d2a34d8092a38d2002a40d03b
:1001c80000230c93159d2b78302b40f00d816b7814
:1001d800582b01d0782b6cd10c9b019316ab009354
:1001e800cdf8088017abb14a15a9204601f030f8c0
:1001f80010f00706074605d0062e2cd1013500233e
:1002080015950c93119b002b40f06d850c9bebb161
:100218004bec17abb1ee470b1bb0bdec0c8bbde83c
:10022800f08f2b2a06d02d2a13d0202ac8d10133cb
:100238001593bde700220c925a1c15925b78002b8f
:10024800c0d1119b1596002b40f04b854bec10aba1
:10025800e2e70122efe7169a3ab1352118a804f02f
:100268006ffa1699204604f0cdfa013e042e08d8fc
:10027800dfe806f00c03171a0c00ddf860a0ddf8c3
:1002880064b03b07bed54bf0004bbbe7199b179af0
:10029800ddf860a023f4801302f2334243ea025be4
:1002a800efe7dff814b2ece76ff0004b4ff0ff3ade
:1002b800e7e7159b5a1c15925b78302bf9d0002b79
:1002c800a0d001230d93159b0e930023049306934e
:1002d8001d460a22159890f80080a8f13003d9b27b
:1002e800092940f283803a46d9f8001004f026fd27
:1002f800002800f08b80002042462b4601460890db
:10030800652a02d0452a40f0008123b910b90d9b17
:10031800002b96d00023159e721c159272782b2afa
:1003280000f0da802d2a00f0dd804ff0000ca2f1f9
:10033800300ebef1090f00f2e780302a00f0d580b8
:10034800a2f1310ebef1080f00f2df80a2f13008f1
:10035800159a0f92159a02f1010ecdf854e05278d1
:10036800a2f13009b9f1090f40f2c6800f9faeeb38
:10037800070ebef1080f44f61f6e00f3c380f04568
:10038800a8bff046bcf1000f01d0c8f10008002b4f
:1003980040f0e18000287ff435af0d9b002b7ff4ff
:1003a80031af089b002b7ff44caf4e2a00f0b6808b
:1003b80000f3ae80492a7ff444af3d4915a804f004
:1003c80037fc00283ff43daf159b3a49013b15a87f
:1003d800159304f02dfc10b9159b01331593dff824
:1003e800d8b04ff0000a0de700236be7082dd5bf02
:1003f8000699049902fb013302fb013300f1010065
:10040800d4bf069304930135159063e7159bda1959
:100418001592da5d002d59d12846302a2dd0a2f147
:100428003103082b00f26484159b0e9301460020cb
:100438000346b2f1300900f1010712d0394400eb4c
:10044800030c1f464ff00a0e67451cd118440828b4
:1004580000f1010332dc069a0a2000fb02920692a0
:100468000027159a501c159052783846a2f130078b
:10047800092fded90127089742e7159b5a1c1592c8
:1004880001305a78c9e7013707f1ff38b8f1080f8a
:1004980004dc069a0efb02f20692d5e7102fdebfa7
:1004a800049a0efb02f20492cee700bf745040009b
:1004b800ac524000af5240000000f07f102bdfbf6d
:1004c800049a0a2000fb02920492c9e701462b46cf
:1004d800cce70123089319e74ff0000cb21c1592e2
:1004e800b27824e74ff0010cf8e7159a02f1010ef3
:1004f800cdf854e0527820e70a2707fb0828a8f12e
:10050800300827e7f0463de715964ff000083ee72c
:10051800692a3ff452af6e2a7ff493ae884915a832
:1005280004f086fb00283ff48cae159b1b78282b23
:100538000ed118aa834915a801f060ff052807d134
:10054800199bddf860a043f0ff4b4bf4e00b59e634
:10055800dff800b245e7dded067a002d08bf1d463d
:10056800b8ee677b102b1a46a8bf10228ded087bca
:10057800092aa8eb0108dde908ab0edd7249ddedbb
:10058800047a01ebc20111ed126b9ded085bb8ee28
:10059800677ba5ee067b5bec17ab0f2b38dcb8f15d
:1005a800000f3ff42fae24ddb8f1160f0bdc6649bf
:1005b80001ebc80898ed007b4bec16ab27ee067be9
:1005c8005bec17ab1ee6c3f12501884520dc5e4acb
:1005d800c3f10f0302ebc30191ed007b4bec16abab
:1005e800a8eb030302ebc30227ee067b92ed006b38
:1005f800e4e718f1160f0bdb5349a1ebc80898ed97
:10060800007b4bec15ab85ee076b5bec16abf9e5a5
:100618009a1a4244002a73dd12f00f000ad04a49a0
:1006280001ebc00191ed007b4bec16ab27ee067b8e
:100638005bec17ab32f00f024fd0b2f59a7f22dd98
:1006480000252f460495a8462223dff80cb1236025
:100658004ff0000a049b002b3ff4d4ad16992046b6
:1006680004f0d0f84146204604f0ccf8394620463c
:1006780004f0c8f80499204604f0c4f82946204636
:1006880004f0c0f8bee53149cde904ab00271211ea
:100698003e460846012a23dc0fb1dde904ab00eb36
:1006a800c600abf1547b90ed007b4bec16ab27ee0c
:1006b800067b5bec17ab2bf00042120d24481205a9
:1006c80082425946bcd8a0f58010824286bfdff826
:1006d8008cb04ff0ff3a01f1547b4ff0000970e005
:1006e80012f0010f08d09ded046b91ed007b26ee12
:1006f800077b8ded047b0127013652100831c9e7cd
:10070800ebd0524212f00f000ad00f4901ebc001a2
:1007180091ed007b4bec15ab85ee076b5bec16abf4
:100728001211dad01f2a1bdd00252f460495a84692
:1007380022234ff0000a4ff0000b23608ae700bf26
:10074800b552400088504000182c4000104c400022
:100758000000a07c0000f8ff0000f07fffffef7fa3
:10076800cde904ab12f01009ad4918bf4ff06a0982
:100778000020002a00f30e8108b1dde904abb9f1cd
:10078800000f17d0cbf30a52c2f16b02002a594668
:1007980010dd1f2a40f30c81342adebf203a4ff0c7
:1007a800ff3000fa02f24ff0000accbf4ff05c7b3a
:1007b80002ea010b4bec17abb5ee407bf1ee10faf9
:1007c800b2d0069a00920e992a46204603f066f89f
:1007d800049000283ff434afb8f1000fc8f10003cb
:1007e8009fed899ba8bf00239fed89ab9fed8abb36
:1007f8000d93002528eae8730e932f46049b2046a4
:10080800596803f023fb804600283ff41daf049b82
:100818001a69023203f10c0192000c3004f0adfbae
:1008280018aa17a94bec10ab2046cde908ab02f08b
:10083800bcfc169000283ff407af0121204604f0c5
:1008480029fc074600283ff4ffae179e189a002e91
:10085800b1bf0e9b0d9b0e989b19babf981b0d9ba1
:100868000693a6eb0906b8bf069316446d4b013ee6
:100878009e42c2f1360280f2ae809b1b1f2ba2eb78
:1008880003024ff0010100f39a8001fa03f3109379
:1008980000230f93069b1344024409eb0206069ab1
:1008a8009a42a8bf1a46b242a8bf3246002a04ddbf
:1008b80006999b1ab61a8a1a06920d9ac2b1394637
:1008c8002046139302f0c0fc074600283ff4bcae54
:1008d8000146169a204601f021fe129000283ff4a6
:1008e800b3ae1699204603f08dff129a139b169209
:1008f800002b75dc0e9b002b7bd1002e08dd4146ba
:100908003246204602f000fc804600283ff49caea8
:10091800069b002b08dd39461a46204602f0f4fbf8
:10092800074600283ff490ae42461699204602f04a
:10093800d3f9054600283ff487aec3680693002321
:10094800c360394603f0e2fe00286dda069be3b97e
:10095800baf1000f19d1cbf31303b3b92bf000434d
:100968001b0d1b05b3f1d66f0fd96b6913b92b6932
:10097800012b0add29460122204602f0c5fb394633
:10098800054603f0c3fe00287ddcb9f1000f40f0f6
:10099800888063e6d60708d59ded046b91ed007b52
:1009a80026ee077b8ded047b012052100831e0e62e
:1009b8004ff0ff3101fa02f202ea0a0afae6c6f13a
:1009c8007f4606f57f0606f57b46e23601fa06f312
:1009d8000f9310915ee700230f930123109359e7bb
:1009e8001a461699204602f08ffb1690002881d1ee
:1009f8002ae641460e9a204602f026fc8046002848
:100a08007ff47baf20e600bf9535a094ffffdf3f62
:100a180035e5af350000e03f9535a094ffffcf3fa7
:100a2800e84b400002fcffff40f08480069acbf3bd
:100a3800130322b3b64a9342594652d15046b9f1ec
:100a4800000f19d0b34b0b40b3f1d46f4ff0ff3206
:100a580003d81b0dc3f16b039a40824241d1ae4bc0
:100a6800994202d101323ff4efadaa4b0b4003f596
:100a7800801b4ff0000a88e74ff0ff32ede783bb99
:100a8800baf1000f2dd12bf000431b0d1b05b9f156
:100a9800000f1dd0b3f1d66f1adcb3f15c7f7ff77e
:100aa80047ae9e4b0b9300230a939ded0a6b4beccc
:100ab80017ab27ee067b5bec17abbbf1000f7ff49f
:100ac800cdadbaf1000f7ff4c9ad22232360c5e58f
:100ad800a3f580136fea135b6fea0b5b4ff0ff3ae5
:100ae80053e70f9b8bb113ea0b0f3ff44eaf069bf6
:100af8004a465046594663b103f0eefd9ded087b2a
:100b080037ee007b5bec17ab3fe7109b13ea0a0f4d
:100b1800ebe703f0e1fd9ded087b37ee407b8dedc3
:100b2800067bb5ee407bf1ee10fadde906ab3ff44b
:100b3800ffad2ae73946284603f0b3fbb0ee007b49
:100b4800b4eec70bf1ee10fa64d8069b002b41d027
:100b5800734b0022b7ee008b6e48724900ea0b0611
:100b68008e4240f086800f90dde90801abf1547b9e
:100b78004bec10ab43ec1c2bcde90a0103f042fb14
:100b88004bec1dab0f98acee00db5bec1dab664b82
:100b980000ea0b029a4247d90b9a03f154739a421e
:100ba80003d10a9b01333ff44faddff86cb14ff02e
:100bb800ff3a1699204603f025fe4146204603f0e9
:100bc80021fe3946204603f01dfe2946204603f043
:100bd80019fe13e6baf1000f12d1cbf31303b3b920
:100be800b7ee007bb4eec70bf1ee10fab6ee008b51
:100bf80001d420ee088bb1ee487b53ec172babe702
:100c0800baf1010f03d1bbf1000f3ff491ad0022ff
:100c1800464b9fe7069bb6ee008b20ee088b002b19
:100c2800e9d053ec182b97e70bf1547bb9f1000f7f
:100c3800bfd12bf000431b0d1b059e42b9d1bdee61
:100c4800c80b069bb8eec00b38ee408b2bb9baf137
:100c5800000f02d1cbf31302e2b3b4eec98bf1ee6d
:100c680010fa3ff5fbacb4eeca8bf1ee10faa0dd3a
:100c7800f4e4b9f1000f1dd0b6f1d46f1ad89fed86
:100c8800227bb4eec78bf1ee10fa10d8fceec87bcd
:100c980017ee903a002b08bf012307ee903a069b07
:100ca800b8ee678b9bb9b1ee487b53ec172b03f179
:100cb800d6618b1b9ded080b43ec1c2b03f0a2faad
:100cc8009ded087bacee007b5bec17abaee753ec1d
:100cd800182bece7b4eecb8bf1ee10fa7ff569af89
:100ce800bce400230c93119a159b1360fff78eba8e
:100cf800652a4ff000013ff4ecab01270b4608973b
:100d0800fff700bbaff300800000c0ffffffdf412b
:100d1800ffff0f000000f07fffffef7f000050395a
:100d28000000f03f0000e07fffff9f7c0000f0bf65
:020000040000fa
:020000040040ba
:100d380080a640201c0000000000000088a340207e
:100d4800140100000000000028a740200600000051
:100d58000100000000000000020200000000402026
:100d680018000000000000001800402030000000bb
:100d78000000000048004020300000000000000093
:100d880078004020300000000000000060a64020ed
:100d9800200000000000000000a740201000000014
:100da8000000000010a74020100000000000000014
:100db800a80040201c0000000000000038a74020c8
:100dc8000400000000000000c400402018000000db
:100dd800000000003ca740200400000001000000c3
:100de800aaaaaaaa40a74020040000000000000008
:100df8001c02402000a000000000000044a7402082
:100e0800040000000000000048a740200400000083
:100e1800000000004ca74020040000000000000073
:100e280050a7402004000000000000009ca54020be
:100e3800640000000000000054a7402004000000e7
:100e48000000000058a74020040000000000000037
:100e58005ca74020040000000000000060a74020bc
:100e6800040000000000000064a740200400000007
:100e7800000000009ca640201400000000000000b4
:100e8800b0a64020140000000000000068a7402021
:100e980004000000000000006ca7402004000000cf
:100ea8000000000070a740200400000000000000bf
:100eb80074a740200400000000000000c4a64020e1
:100ec800140000000000000078a740200400000083
:100ed80000000000d8a64020140000000000000018
:100ee800eca6402014000000000000007ca7402071
:100ef800040000000000000080a74020040000005b
:100f0800000000009ca440207e00000000000000bb
:100f18001ca540207e0000000000000084a740209f
:100f2800040000000000000088a740200400000022
:100f3800000000008ca74020040000000000000012
:100f480090a7402004000000000000001aa54020df
:100f5800010000000000000094a7402004000000e9
:100f68000000000098a740200400000000000000d6
:100f780020a74020080000000000000030a7402003
:100f880006000000010000006865790a0d000000f5
:100f9800dc00402038000000000000009ca7402032
:100fa8000400000000000000a0a74020040000008a
:100fb80000000000a4a7402004000000000000007a
:100fc800a8a740200400000000000000aca74020b3
:100fd8000400000000000000b0a74020040000004a
:100fe8000100000002000000140140200100000080
:100ff8000000000018014020c400000000000000ac
:10100800dc0140200100000000000000e001402059
:10101800340000000000000014024020010000001d
:10102800000000001ca240206c010000010000002c
:101038004300000000000000000000000000000065
:101048000000000000000000000000000000000098
:101058004300000000000000000000000000000045
:101068000000000000000000000000000000000078
:101078004300000000000000000000000000000025
:101088000000000000000000000000000000000058
:101098004300000000000000000000000000000005
:1010a8000000000000000000000000000000000038
:1010b80043000000000000000000000000000000e5
:1010c8000000000000000000000000000000000018
:1010d80043000000000000000000000000000000c5
:1010e80000000000000000000000000000000000f8
:1010f80043000000000000000000000000000000a5
:1011080000000000000000000000000000000000d7
:10111800534e4000fd4c400000000000682840008d
:10112800cd524000cc524000cc524000cc5240003e
:10113800cc524000cc524000cc524000cc5240002f
:10114800cc524000cc524000ffffffffffffffffe3
:10115800ffffffffffff0000010041534349490023
:101168000000000000000000000000000000000077
:1011780000000000000000000000415343494900fe
:101188000000000000000000000000000000000057
:10119800000000000000000000000000b4a740208c
:1011a800040000000100000000a6402000a6402026
:1011b80060000000010000000000000000000000c6
:1011c8000000000000000000000000000000000017
:1011d8000000000000000000000000000000000007
:1011e80000000000000000000000000000000000f7
:1011f80000000000000000000000000000000000e7
:1012080000000000000000000000000000000000d6
:101218000000000000000000b8a740200400000003
:1012280000000000bca740200400000000000000ef
:10123800180240200400000000000000c0a7402061
:101248000400000000000000000000000000000092
:020000040000fa
:020000040040ba
:101258002de9f04f8bb08a46029016980693904677
:1012680004f053f803680393184603f045ff039b03
:10127800019003444ff0000b13f8013c0793daf890
:10128800003002331f4613f8010b30286cd003f0ee
:1012980005fc044600286ad1019a0399384603f0f0
:1012a8004dfd002866d1019bf85cfe1803f0f6fba3
:1012b800002862d03346187830281f4603f101030e
:1012c800f9d003f0ebfbb0fa80f56d0934464ff026
:1012d800010b3a4616460132307803f0dffb00284e
:1012e800f8d1019a0399304603f028fd50b954b952
:1012f800019bf418224616460132307803f0cefbe3
:101308000028f8d10cb1a41ba4003378502b01d0cd
:10131800702b40d173782b2b35d02d2b2fd0711cef
:101328004ff00009087803f0b9fb431edbb2182b15
:1013380031d8a0f1100211f8010f03f0affb431ee2
:10134800dbb2182b22d9b9f1000f00d05242144455
:10135800caf800100db3bbf1000f14bf0027062711
:1013680038460bb0bde8f08f0bf1010b8ae700257a
:101378002c46aee73e460125c7e70446fbe74ff09b
:101388000109b11ccee74ff00009fae70a2303fb75
:101398000202103acfe73146dae7f31b013b294650
:1013a800072b49dc029802f051fd019b00f114095a
:1013b8004ff0000bc3f101030546cdf81090da4653
:1013c8000893b7423bd3049840f804aba0eb09005c
:1013d800801028614701504603f0d4f8d8f800601f
:1013e8003f1ab74264ddbf1b3946284602f0c8ffe2
:1013f800824678b17b1e591103f01f024ff0010a93
:1014080059f821100afa02f20a4203d0534546dc81
:101418004ff0020a3946284602f046fc3c44d8f808
:1014280008309c4252dd2946029803f0ebf9149ae1
:1014380000231360a32793e701315b10b0e7731e05
:101448000593079a16f8013c934218d0bbf1200f78
:1014580007d1049bc3f800a004334ff0000a04939b
:10146800d34616f8010c03f019fb00f00f0000fa40
:101478000bf04aea000a0bf1040b059b0de0059bf3
:10148800089a13449f42e1d81846019a0399099390
:1014980003f054fc099b0028d8d11e4691e7b91ed9
:1014a800284602f06dff0028b2d04ff0030ab1e7da
:1014b80009daf71b29463a46029801f025fee41b93
:1014c800054600f114094ff0000aa8e7d8f804000f
:1014d80084426ada041ba6422edcd8f80c30022bb0
:1014e80022d0032b24d0012b15d1a64213d1012ed3
:1014f8000bdc069ad8f80430136001232b61c9f875
:101508000030149b62271d602ae7711e284602f0ee
:1015180037ff0028edd12946029803f073f9149a91
:101528000023136050271be7159b002be1d0f2e73f
:10153800159b002bddd1eee7671ebaf1000f31d104
:1015480027b13946284602f01bff82467a1101234b
:1015580007f01f0703fa07f759f8223021461f4200
:10156800284618bf4af0020a361b02f09dfbd8f83d
:1015780004400227baf1000f45d0d8f80c30022bee
:1015880015d0032b17d0012b09d11af0020f06d062
:10159800d9f800304aea030a1af0010f0ed147f0d1
:1015a800100730e04ff0010ad0e70127e2e7159b6a
:1015b800c3f101031593159b002bf0d0d5f81090bb
:1015c80005f114034fea890a03eb0a0100201a689f
:1015d800b2f1ff3f1cd001321a60022f05f114034b
:1015e80038d1d8f80020013a96420ad17111012267
:1015f80006f01f0653f8213002fa06f61e4218bffd
:10160800174647f02007149b1d60069b1c60a7e641
:1016180043f8040b9942dad8ab68994512db69683c
:101628000298013102f012fc2a69023205f10c011c
:10163800834692000c3003f0a0fc2946029803f080
:10164800e1f85d462b695a1c05eb83032a610122e8
:101658005a61c2e72a6991450bda0121284602f04e
:1016680023fbd8f8083001349c423ff7dcae012751
:10167800c7e716f01f06fad09a44c6f120065af8b2
:0c168800040c02f07fffb042e7dbf0e74b
:020000040000fa
:020000040040ba
:101694002de9f04f83b001900f4698460d9e9500ba
:1016a400284602f06dfc002800f08e80824654200b
:1016b40002f066fc0446002800f08380c0f830a0e5
:1016c4002a46a521504603f011fd043d236b1d4419
:1016d40025f00705002f7ad03b7884f834303b7826
:1016e40063b13b4604f1340207f10f01587802f864
:1016f400010f13f8010f08b18b42f7d1002384f8ce
:1017040043300c9b042b28bf04239946e362636493
:101714000027a76404f1040b584603f0f3fd04f119
:10172400180003f0effd2461c9f10503a3616462ad
:10173400e76484f8507042460199284603f058f94a
:10174400206006b1346003f0b3fa3d4a13680133f4
:1017540013603c4b1b68002b3dd03b4b1b683bb9d3
:10176400384b1b68da6ae36a9a4201d8354b1c602d
:10177400364a136801331360e06a354a116801235d
:1017840083400b43136000eb80005946314b03eb5d
:10179400800003f0a5fb03f043fc2b4b1b68002bdc
:1017a40048d0284b1b68da6ae36a9a4246d24ff063
:1017b4008052294b1a60bff34f8fbff36f8f012004
:1017c40039e0504603f079fc4ff0ff3033e000235a
:1017d40084f8343095e71b4b1c601368012bc7d188
:1017e4001c4d284603f0aafb05f1140003f0a6fbe8
:1017f40005f1280003f0a2fb05f13c0003f09efb79
:1018040005f1500003f09afb144e304603f096fbaa
:10181400134d284603f092fb124803f08ffb124845
:1018240003f08cfb114803f089fb114b1e60114b34
:101834001d609de7012003b0bde8f08f0120fae7a9
:1018440054a7402048a7402078a7402060a7402004
:1018540064a740209ca5402004ed00e09ca6402005
:10186400b0a64020c4a64020eca64020d8a6402024
:081874004ca7402050a74020c2
:020000040000fa
:020000040040ba
:10187c0080b5524b9847524b9847eff3108172b694
:10188c00504ad2f8883043f47003c2f88830bff362
:10189c004f8fbff36f8f01b962b64b4a4b4b5a60f7
:1018ac009a6812f0010ffbd0484bdb6813f4c07f31
:1018bc0013d00c22464b1a60464a444b5a609a6825
:1018cc0012f0010ffbd0444a404b5a609a6812f058
:1018dc00010ffbd0414a424b1a60bff34f8fbff34d
:1018ec006f8f384cd4f8903223f00103c4f8903247
:1018fc00d4f8943223f00103c4f89432bff34f8f21
:10190c00bff36f8f01f0ccfe364b23f07f03a36047
:10191c00354b9847636913f4003f12d1bff34f8fd7
:10192c00bff36f8f0022c4f85022bff34f8fbff369
:10193c006f8f626942f400326261bff34f8fbff365
:10194c006f8f204b5b6913f4803f2fd11d4b00220e
:10195c00c3f88420bff34f8fd3f88050c5f34e36b5
:10196c00c5f3c90577014fea857c43f6e07e18463e
:10197c0007ea0e0462462b4642ea0401c0f86012e4
:10198c00013b02f14042b3f1ff3ff5d1013e203f54
:10199c00b6f1ff3fecd1bff34f8f0a4a536943f4c2
:1019ac0080335361bff34f8fbff36f8f0f4b98474b
:1019bc000f4b984703f05ff9fee700bfcf4a40009a
:1019cc00cf4a400000ed00e00d00005a000c0e4024
:1019dc0038a740200c08005a0c07005a010000a53b
:1019ec0000180e400000400041434000cf4a400028
:0419fc00cf4a40008e
:020000040000fa
:020000040040ba
:101a00002de9f843524b1b78012b14d023b1022b44
:101a100000f08a80bde8f8830021084600f060f9f4
:101a20004b4c60600021012000f05af9a0600123b6
:101a30002370bde8f883474fdff81481464d474ccb
:101a4000264620e09a784d2a4bd0432a55d0502a7a
:101a500015d12a683a21304602f0c0fe206843784a
:101a6000442b4dd02a682368934208d02421304665
:101a700002f0b4fe18b123685a78432ae2d0384bfa
:101a80001b78002b50d14ff07e094a463946d8f8d2
:101a9000040001f03afa0028f7d0dff8d090494668
:101aa000384603f0c9f92f4b18602f4bc3f800904c
:101ab000c5f8009099f800002f2844d04b462a49d9
:101ac00001330b601a782f2afad12360252805d01c
:101ad000264b01332b601a78252afad1dff8a09023
:101ae000c0e7da1c22601a794e2abbd15b794d2bf4
:101af000b8d101221e4b1a70b4e703332360bee74e
:101b00008378412baed104302060494603f058f869
:101b1000184b83ed000bd9f800302360bdeec00bed
:101b2000154b83ed000a9de706221449084b98687f
:101b300001f092f950b10122054b1a700022084bb6
:101b40001a70bde8f883094b2360c1e7bde8f8834c
:101b5000dc0040209ca4402088a7402090a7402083
:101b60001aa5402094a7402098a740201ca54020fb
:101b70001801402020a74020a0a7402030a74020e7
:041b80008ca74020ce
:020000040000fa
:020000040040ba
:101b84002de9f04184b0044601914ff00008464627
:101b94004546514f49e0013ba36323684bb1236998
:101ba4005bb903f03dfa4ff00108404604b0bde8cc
:101bb400f08103f023f9a060f1e704f1100001f0d3
:101bc400adfe0028edd04ff08052434b1a60bff3b6
:101bd4004f8fbff36f8fe4e703f022fa4ff0000852
:101be400e3e702a803f088f929e084f8445032e0de
:101bf40084f8455035e003f05bf8a06801f032fa50
:101c0400804603f00dfa3ce0204601f08dfd00f023
:101c140029ff09e0204601f087fd00f023ff20465c
:101c240003f097f9002840d1012603f041f8a36b93
:101c3400002bb0d1019b002bced0002ed1d003f0cd
:101c4400eff903f04bfa03f033f894f844305bb245
:101c5400b3f1ff3fc9d094f845305bb2b3f1ff3f15
:101c6400c6d003f0ddf901a902a802f077fa002832
:101c7400d0d1204603f06df90028c5d02368002b8d
:101c8400b9d0019904f1240003f0aaf8204601f028
:101c94004bfd00f0e7fe0028c6d14ff080533b60b7
:101ca400bff34f8fbff36f8fbee7b8f1000f3ff460
:101cb4007caf02f0fdff636a5bb1236b1968c1f16d
:101cc4000501a06801f0b0fc03f0aaf94ff0000888
:0c1cd4006be70021f5e700bf04ed00e025
:020000040000fa
:020000040040ba
:101ce000022802d94ff0ff3070475c234b4a03fbb8
:101cf000002393f90c30022b02d04ff0ff307047d5
:101d00002de9f0410d4604465c2707fb00f702f180
:101d100034063e444ff6ff71304603f054f818b9cc
:101d20004ff0ff30bde8f0815c233c4a03fb042305
:101d30005b78002b59d15c23384a03fb04235b6892
:101d400013b115f0080f57d15c23344a03fb042369
:101d5000986800285bd05c2303fb04235b699846ea
:101d60001a7b52b110330022013282424fd0984682
:101d7000103313f8041c0029f6d1012388f80c3025
:101d8000264b1f44c8f8007088f80450002388f8d8
:101d9000053015f0080f05d05c23204903fb041320
:101da000012159705c211d4b01fb04314b6801334b
:101db0004b60888ce3b21b0243ea0043d2b2134368
:101dc000c8f808308b8c01339bb24ff6ff729342f8
:101dd00008bf01238b84304603f054f8b8f1000f9c
:101de00011d0d8f80800bde8f081304603f04af879
:101df0004ff0ff30bde8f081304603f043f84ff07c
:101e0000ff30bde8f0814ff0ff30bde8f081304693
:101e100003f038f84ff0ff30bde8f08188a3402090
:020000040000fa
:020000040040ba
:101e2000022802d94ff0ff3070475c2303fb00f318
:101e3000424ad35c13b14ff0ff30704770b504468f
:101e400010465c2202fb04f54319012646550d6835
:101e50001d618d685d614d689d6000255d609d62be
:101e6000dd625d709e8491f90c501d7691f90d50e4
:101e70005d760d69dd614d691d628d699d64cd6979
:101e8000dd640d6a1d654d6a5d65896a996502fbb1
:101e900004f505f13403184402f0e8ff10b94ff0df
:101ea000ff3070bd2648284402f0e0ff10b94ff023
:101eb000ff3070bd2348284402f0d8ff10b94ff01e
:101ec000ff3070bd00231a4619461f48284402f00f
:101ed0001bf910b94ff0ff3070bd00231a461946a8
:101ee0001a48284402f010f920b3144a154495f911
:101ef0001830b3f1ff3f04d12b695b6929461448c0
:101f000098475c230d4a03fb042393f91930b3f17e
:101f1000ff3f07d15c2303fb04231b691b68294691
:101f20000c4898475c23054a03fb042302221a73da
:101f3000204670bd4ff0ff3070bd00bf88a3402029
:101f4000c0a34020c4a34020c8a34020cca340206d
:081f5000af5040005d4240006b
:020000040000fa
:020000040040ba
:101f580038b5484b5b6913f0e0030fd1454b5b691b
:101f680013f0010f1cd1434b5b6913f0020f04d02f
:101f7800404b1b6913f0020f44d138bddbb23e4c15
:101f880084f82d3002f06cfce1223a4bda60002331
:101f980084f82c30636a002b69d0a06a9847dde783
:101fa800354b93f82c30002bddd03249324b0ee004
:101fb8008a69c2f30802486810f4003f9c69186aed
:101fc80000f101051d6214bf24f8102022544a694b
:101fd80012f0010f03d01a6ad8699042e8d8264b4c
:101fe8001a6adb699a42bed3234b002283f82c205d
:101ff800e121204ad1605b6a002bb4d01e4a906a66
:102008009847b0e71c4b1b7d002bb6d01a4b58687d
:102018001c68184b184a04e091684d1c9560615c77
:10202800d961596911f0020f0fd0916888420cd913
:10203800596811f4003fefd091684d1c956034f851
:102048001110c1f30801d961ebe70b4b9a685b6883
:102058009a4292d3084b00221a750221054ad16090
:10206800db68002b89d0044a1069984738bd014bba
:0c2078005b6978e70080024018004020ff
:020000040000fa
:020000040040ba
:1020840038b5484b5b6913f0e0030fd1454b5b69ee
:1020940013f0010f1cd1434b5b6913f0020f04d002
:1020a400404b1b6913f0020f44d138bddbb23e4ce8
:1020b40084f82d3002f0ecfbe1223a4bda60002385
:1020c40084f82c30636a002b69d0a06a9847dde756
:1020d400354b93f82c30002bddd03249324b0ee0d7
:1020e4008a69c2f30802486810f4003f9c69186ac0
:1020f40000f101051d6214bf24f8102022544a691e
:1021040012f0010f03d01a6ad8699042e8d8264b1e
:102114001a6adb699a42bed3234b002283f82c202f
:10212400e121204ad1605b6a002bb4d01e4a906a38
:102134009847b0e71c4b1b7d002bb6d01a4b586850
:102144001c68184b184a04e091684d1c9560615c4a
:10215400d961596911f0020f0fd0916888420cd9e6
:10216400596811f4003fefd091684d1c956034f824
:102174001110c1f30801d961ebe70b4b9a685b6856
:102184009a4292d3084b00221a750221054ad16063
:10219400db68002b89d0044a1069984738bd014b8d
:0c21a4005b6978e70040024048004020e2
:020000040000fa
:020000040040ba
:1021b00038b5484b5b6913f0e0030fd1454b5b69c1
:1021c00013f0010f1cd1434b5b6913f0020f04d0d5
:1021d000404b1b6913f0020f44d138bddbb23e4cbb
:1021e00084f82d3002f06cfbe1223a4bda600023d8
:1021f00084f82c30636a002b69d0a06a9847dde729
:10220000354b93f82c30002bddd03249324b0ee0a9
:102210008a69c2f30802486810f4003f9c69186a92
:1022200000f101051d6214bf24f8102022544a69f0
:1022300012f0010f03d01a6ad8699042e8d8264bf1
:102240001a6adb699a42bed3234b002283f82c2002
:10225000e121204ad1605b6a002bb4d01e4a906a0b
:102260009847b0e71c4b1b7d002bb6d01a4b586823
:102270001c68184b184a04e091684d1c9560615c1d
:10228000d961596911f0020f0fd0916888420cd9b9
:10229000596811f4003fefd091684d1c956034f8f7
:1022a0001110c1f30801d961ebe70b4b9a685b6829
:1022b0009a4292d3084b00221a750221054ad16036
:1022c000db68002b89d0044a1069984738bd014b60
:0c22d0005b6978e700c002407800402005
:020000040000fa
:020000040040ba
:1022dc002de9f04784b00446884601921d464ff024
:1022ec0000094e46434f39e02a464146204601f04c
:1022fc0088fb636a73b938b14ff080523d4b1a605a
:10230c00bff34f8fbff36f8f02f086fe012004b036
:10231c00bde8f08704f1240001f0fcfa0028f3d0aa
:10232c004ff08052334b1a60bff34f8fbff36f8f58
:10233c00eae702f071fe0020e9e702a802f0d8fdfe
:10234c001ae084f8446023e084f8456026e02046d7
:10235c0001f0e6f900f082fb4ff0010902f0a4fc59
:10236c00a26be36b9a42bfd3022dbdd0019b002b15
:10237c00dfd0b9f1000fe0d002f04efe02f0aafe61
:10238c0002f092fc94f844305bb2b3f1ff3fd8d02a
:10239c0094f845305bb2b3f1ff3fd5d002f03cfe70
:1023ac0001a902a801f0d6fee8b902f07dfcd4f830
:1023bc0038a0d4f83c9002f02ffeca45c7d1019941
:1023cc0004f1100002f008fd204601f0a9f900f01c
:1023dc0045fb0028c0d14ff080533b60bff34f8fbb
:1023ec00bff36f8fb8e7204601f09af900f036fb87
:0823fc0000208ce704ed00e075
:020000040000fa
:020000040040ba
:102404002de9f04f0b6801685f1102eb870713f0a9
:102414001f0387b018bf043700253e1f824690462d
:10242400029347f8045cb14634460195ab464a78ba
:102434004b1c039342b310460591049202f030fb07
:10244400002843d1049a0599202a18d8019b9b455a
:1024540013dd4c4506d2072d04dc2a4649462046a6
:1024640002f05cfc444544d90023a4f1040944f877
:10247400043ccdf804b04c461d460399d7e7292afd
:102484004ad10231caf80010bbf1000f44d04c45c8
:1024940006d2072d04dc2a464946204602f03efcbb
:1024a400444528d9434654f8042b43f8042ba64248
:1024b400f9d2002243f8042b9e42fbd233681bb9a5
:1024c400464527d101233360052026e00135082d38
:1024d4000bf1010b06dd4445cfd9002344f8043c3d
:1024e4000125043c226800f00f0040ea021020603d
:1024f400c3e70825c1e7029b002bdfd04ff0ff3272
:10250400c3f1200322fa03f357f8042c1a4047f8c6
:10251400042cd3e7043ed1e7042007b0bde8f08fd4
:020000040000fa
:020000040040ba
:102524002de9f74f14460a6923699a42b8bf0b464e
:102534008946bcbfa1461c46d9f81070d4f810a037
:10254400d9f80830d9f8041007eb0a069e42c8bf30
:10255400013101f07dfc00f1140505eb86082b46e2
:102564000022434516d304f1140209f1140102ebcd
:102574008a0301eb87070193019c944213460cd80c
:10258400002e03dd58f8043d002b54d0066103b03f
:10259400bde8f08f43f8042be3e7b3f800a004325e
:1025a400baf1000f20d0ae4689464ff0000c59f81e
:1025b400044bbef800b0a3b20afb03b34fea144bba
:1025c400def8004063444fea144c0afb0bc404ebee
:1025d40013449bb243ea04434f454fea144c4ef86c
:1025e400043be4d8cef800c032f8029cb9f1000fe5
:1025f4001fd02b68ae468c464ff0000abcf8004052
:10260400bef802b009fb04b4a2449bb243ea0a43f5
:102614004ef8043b5cf8043bbef800401b0c09fb7d
:10262400034303eb1a4367454fea134ae6d8cef84f
:0a26340000300435a0e7013ea2e7e4
:020000040000fa
:020000040040ba
:02263e007047e3
:020000040000fa
:020000040040ba
:102640002de9f047394b1b68002b68d1384b1a68cd
:1026500002f10108c3f80080b8f1000f17d0354b24
:102660001b68984520d20025334b1b68db6a03ebbf
:1026700083039b00314ad358022b28bf0125304bde
:102680001b68002b18bf01252846bde8f0872d4a9e
:1026900011682d4b1868106019602c4a13680133bb
:1026a000136002f0bdf9dae70025264fdff8a490a9
:1026b000dff888a021e04ff0ff321e4b1a60d3e70d
:1026c0001c4a1360d0e704f1180002f065fae06ad2
:1026d000d9f80020012383401343c9f8003000ebf0
:1026e000800031460aeb800002f0fcfb124b1b68b5
:1026f000e26adb6a9a4228bf01253b681b68002b0f
:10270000d9d03b68db68dc6863689845d8d3261d60
:10271000304602f041faa36a002bd4d1d7e70c4a25
:102720001368013313600025aee700bf5ca74020ab
:102730007ca740206ca7402048a740209ca54020b3
:1027400080a740204ca7402050a7402070a74020e1
:0827500074a7402064a740209b
:020000040000fa
:020000040040ba
:10275800374b1b7813b1012b30d0704710b50022ce
:1027680034497a2001f0d6fa002233497e2001f05c
:10277800d1fa324c4ff08061204602f0c4fd4ff090
:102788008041204602f0bffd012002f0c5fc4ff455
:1027980000222b4b1a632b4c4ff47a73c4f808327f
:1027a80042f6f820284b186001f07cff42f21073c3
:1027b800c4f8083201221e4b1a7010bd234b196849
:1027c800234b1a68881a80eae073a3ebe073b42bf2
:1027d80016dc204b18601f4b1b6883eae371a1ebe2
:1027e800e3711d4a1268914217dd4ff47a711b4a52
:1027f8001160002b0cdd4ff40022114b1a6310e01e
:10280800c3f5b4739142c8bf5b42124a1360e2e752
:102818004ff400220a4b5a6303e042f210720f4b46
:102828001a600e4b1a88074bc3f80822704700bf7e
:1028380014014020694d40006552400000140e40cc
:10284800000e0e4000000240aca74020a0a7402088
:102858009ca74020a8a74020b0a74020a4a74020bc
:020000040000fa
:020000040040ba
:102868000020202020202020202028282828282058
:102878002020202020202020202020202020202050
:1028880020881010101010101010101010101010b8
:1028980010040404040404040404041010101010a8
:1028a8001010414141414141010101010101010172
:1028b80001010101010101010101010110101010c4
:1028c8001010424242424242020202020202020244
:1028d8000202020202020202020202021010101098
:1028e80020000000000000000000000000000000c0
:1028f80000000000000000000000000000000000d0
:1029080000000000000000000000000000000000bf
:1029180000000000000000000000000000000000af
:10292800000000000000000000000000000000009f
:10293800000000000000000000000000000000008f
:10294800000000000000000000000000000000007f
:10295800000000000000000000000000000000006f
:01296800006e
:020000040000fa
:020000040040ba
:02296a007047b4
:020000040000fa
:020000040040ba
:10296c00394b0022c3f81421d3f8141141f0100193
:10297c00c3f814113549364b4b60364b0b604ff096
:10298c00ff334b650b66c1f89030c1f8a0304ff4a3
:10299c00002008616ff4002048618a63c1f8182197
:1029ac0001f50071102008671320486748606ff02c
:1029bc00130008604b650b66c1f89030c1f8a0306d
:1029cc000a614b618a63c1f8182101f500710b6033
:1029dc004b650b66c1f89030c1f8a0300a614b61b1
:1029ec008a63c1f8182101f500714ff4c0300867f3
:1029fc004a6748606ff4c03008604b650b66c1f8dd
:102a0c009030c1f8a0300a614b618a634ff0884066
:102a1c00c1f8b000c86cc1f8182101f500710b6049
:102a2c004b650b66c1f89030c1f8a0300a614b6160
:102a3c008a63c1f81821084b7e2119807a2199816b
:102a4c005a601a61704700bf00800840000e0e40ab
:0c2a5c0001002000feffdfff0000402012
:020000040000fa
:020000040040ba
:102a68002de9f04102f022f92e4b1a68013a1a605a
:102a78001b68002b4dd12c4b1b683bb300242b4efd
:102a88002b4fdff8c080336813b3f368dc6804f1b8
:102a9800180002f07df8251d284602f079f8e06a52
:102aa8003a680123834013433b6000eb80002946ca
:102ab80008eb800002f012fa1e4b1b68e26adb6a20
:102ac8009a42e0d301221c4b1a60dce7002421e083
:102ad8000cb101f0a1ff194b1c686cb1164e012511
:102ae80001e0013c05d0fff7a7fd0028f9d03560cb
:102af800f7e70022114b1a600f4b1b687bb14ff0b0
:102b080080520f4b1a60bff34f8fbff36f8f0124b2
:102b180000e0002402f082fa2046bde8f08100249b
:102b2800f8e700bf5ca7402054a74020c4a6402077
:102b380064a7402048a7402080a7402074a74020d1
:082b480004ed00e09ca5402013
:020000040000fa
:020000040040ba
:102b500030b583b0234c244b01930125009500230d
:102b60004ff4806221462148fef794fd204b0193eb
:102b7000009500234ff4806204f118011d48fef710
:102b800089fd1d4b0193009500234ff4806204f1f1
:102b900030011a48fef77efd194b01930095002382
:102ba0004ff4806204f148011648fef773fd164b9e
:102bb0000193009500234ff4806204f164011348ef
:102bc000fef768fd124b0193009500234ff48062dd
:102bd00004f180010f48fef75dfd01f007f903b035
:102be00030bd00bf1c344000cc004020d15240001a
:102bf000d4004020d9524000d0004020e152400093
:102c0000c8004020e9524000c4004020f15240007a
:082c1000d8004020f9524000f9
:020000040000fa
:020000040040ba
:102c1800000000000000f03f000000000000244019
:102c280000000000000059400000000000408f40f4
:102c3800000000000088c34000000000006af8405f
:102c48000000000080842e4100000000d012634183
:102c58000000000084d797410000000065cdcd41f9
:102c6800000000205fa00242000000e876483742da
:102c7800000000a2941a6d42000040e59c30a24278
:102c88000000901ec4bcd64200003426f56b0c43ed
:102c98000080e03779c3414300a0d8855734764394
:102ca80000c84e676dc1ab43003d9160e458e143f5
:102cb800408cb5781daf154450efe2d6e41a4b446a
:102cc80092d54d06cff08044f64ae1c7022db544af
:082cd800b49dd9794378ea4468
:020000040000fa
:020000040040ba
:102ce0002de9f0470d46074611462846144601f0e7
:102cf00011fd061e08d13146384601f0abf801231c
:102d000003614661bde8f087a4bf23462c463846e0
:102d10006168a6bf1d460026012601f09bf82b69bd
:102d2000c660266905f1140904f1140202eb860756
:102d300009eb830800f114054ff0000c52f804abc6
:102d400059f8044b1cfa8af1a3b2c91a230cc3eb3d
:102d50001a4303eb214389b24fea234cc84541eaa9
:102d60000343964645f8043be8d8be4505d355f8dd
:102d7000043d8bb10661bde8f0875ef8041b1cfac8
:102d800081f31a1402eb11429bb243ea02434fea69
:0c2d9000224c45f8043be8e7013ee8e770
:020000040000fa
:020000040040ba
:102d9c0070b5cd1c25f0030508350c2d38bf0c255e
:102dac00002d064601dba94203d90c233360002019
:102dbc0070bdfff7d4fd234a1468214691b9224c0b
:102dcc0023681bb9304601f0d9ff206029463046f4
:102ddc0001f0d4ff431c26d10c233360304602f0a3
:102dec0094fae4e70b685b1b1ad40b2b0fd90b601e
:102dfc00cd50cc18304602f088fa04f10b00231d9c
:102e0c0020f00700c31a1bd05a42e25070bd8c420e
:102e1c000dbf63684b686360136018bf0c46e9e72d
:102e2c000c464968cae7c41c24f00304a04205d030
:102e3c00211a304601f0a2ff0130cdd02560d9e730
:0c2e4c0070bd00bfb8a74020bca740200c
:020000040000fa
:020000040040ba
:102e58002de9f0410d46164601f024f9002e18bf61
:102e6800002d14bf0124002400280cbf002404f006
:102e780001045cb10746046804f138084ff6ff7195
:102e8800404601f09cff012803d000242046bde8fd
:102e9800f08100237b71e76294f91830b3f1ff3faa
:102ea80023d0a36d032b16d97100284601f0c4fb6b
:102eb8004ff4006194f91800fff7bdfb4ff6ff715e
:102ec80004f1400001f06cff012814d000244046b2
:102ed80001f0d4ffdae73146284601f0adfb0021c6
:102ee80094f91800fff7a7fbe8e723699b693146c7
:102ef80028469847e2e794f83040b4fa84f4640925
:022f0800e5e7fb
:020000040000fa
:020000040040ba
:102f0a002de9f0410d46164601f0cbf8002e18bf08
:102f1a00002d14bf0124002400280cbf002404f053
:102f2a0001045cb10746046804f13c084ff6ff71de
:102f3a00404601f043ff012803d000242046bde8a3
:102f4a00f08100237b71a76294f91930b3f1ff3f36
:102f5a0023d0a36d032b16d97100284601f04ffb2d
:102f6a004ff4006194f91900fff764fb4ff6ff7103
:102f7a0004f1440001f013ff012814d00024404654
:102f8a0001f07bffdae73146284601f038fb0021e1
:102f9a0094f91900fff74efbe8e723695b683146ad
:102faa0028469847e2e794f83140b4fa84f4640971
:022fba00e5e749
:020000040000fa
:020000040040ba
:102fbc00254b1b68002b2ed110b50022234b1a6019
:102fcc00234b1b681b6b1a68b2f1a53f27d0204b13
:102fdc0018681968343101f097ff1e4b1b68b3fa5f
:102fec0083f3dbb2c3f11f031b4a9900c81802eb31
:102ffc008000446864684460194402460832944274
:10300c001ad003eb8303144a02eb83035b68da6880
:10301c000f4b1a6010bd01220c4b1a6070475a6896
:10302c00b2f1a53fd3d19a68b2f1a53fcfd1db68fd
:10303c00b3f1a53fcbd1d0e760680a46064901eb56
:10304c0082025060dde700bf5ca7402080a74020d3
:0c305c0048a7402064a740209ca540200d
:020000040000fa
:020000040040ba
:10306800002849d038b50446c26a24490968c96aa3
:103078008a4238d28169002905db20490968c96a72
:10308800c1f10501816102eb82021d4901eb820257
:103098006169914205d0194a1268d26ae262012038
:1030a80038bd251d284601f073fd38b915490b6850
:1030b800e06a0122824023ea02030b600f4b1b687f
:1030c800d86ae0620f4a1168012404fa00f30b433e
:1030d800136000eb80002946094b03eb800001f0e8
:1030e800fdfe204638bd054a1268406cd36a9842f6
:1030f8002cbf0020012038bd0020704748a7402081
:083108009ca5402064a74020b3
:020000040000fa
:020000040040ba
:103110002de9f0470c464fea621a236949680aeb29
:103120000309a3680746164609f10105ab4231dbe6
:10313000384600f08ffe0022804600f1140311464d
:1031400052452adb20692aeaea7a04f1140116f0d2
:103150001f0203eb8a0301eb800e22d0c2f1200c88
:1031600000200e689640304343f8040b51f8040bde
:103170008e4520fa0cf0f4d8186008b109f1020568
:10318000013d3846c8f81050214601f03ffb40464b
:10319000bde8f08701315b00c8e743f82210013237
:1031a000cee7043b51f8042b43f8042f8e45f9d8a1
:0231b000e6e750
:020000040000fa
:020000040040ba
:1031b2002de9f7430e46012159ec108b154600f01c
:1031c20048fec9f30a540746c9f3130334bb0193fb
:1031d200b8f1000f27d002a840f8088d00f035ffa3
:1031e2000099f0b1019ac0f1200302fa03f30b43f4
:1031f200c2407b610192019bbb61002b14bf022183
:1032020001213961c4b1a4f2334404443460c0f1f1
:1032120035002860384603b0bde8f08343f48013dc
:10322200d5e77961e7e701a800f00fff019b7b6119
:10323200012139612030e5e707eb8103a0f232403a
:0e3242003060186901f0a1f9c0eb4110e1e71e
:020000040000fa
:020000040040ba
:103250002de9f843154612f0030206460f4607d043
:10326000013a214c002354f8222000f095fb074638
:10327000ad1035d0746a3cb9102001f049ff70627e
:10328000446084600460c460d6f82480d8f80840a4
:103290004cb940f27121304601f000ff0023c8f81c
:1032a0000800044603604ff00008eb070ad53946d2
:1032b00022463046fff736f939468146304601f05e
:1032c000a5fa4f466d100bd0206838b9224621462a
:1032d0003046fff727f92060c0f800800446e4e795
:0c32e0003846bde8f88300bfb85240003b
:020000040000fa
:020000040040ba
:1032ec00f8b5056900f1140707eb85052e1f55f895
:1032fc00044c204601f044f9c0f120030a280b606d
:10330c00dff874e014dcc0f10b0c24fa0cf1b742ba
:10331c0041ea0e0334bf55f8081c0021153004fa9d
:10332c0000f021fa0cf140ea010243ec102bf8bd3d
:10333c00b7423abfa5f1080655f8081c00210b3816
:10334c0015d08440c0f1200544f07f5444f440145f
:10335c00be4221fa05fe44ea0e038cbf56f8044c1b
:10336c00002401fa00f0ec4040ea0402dde744eaf4
:0c337c000e030a46d9e700bf0000f03f36
:020000040000fa
:020000040040ba
:1033880070b504460e461c4b1d681c4b186804306b
:1033980001f0fefb48b9194b1a6819490b68d06a45
:1033a8000122824023ea02030b60b4f1ff3f00d1ff
:1033b8009eb92c44114b1b685c60a54214d8114b74
:1033c80018680e4b1968043101f052f90e4b1b684e
:1033d8009c4201d20c4b1c6070bd084b196804312b
:1033e8000a4801f07bfd70bd094b1868034b19684a
:1033f800043101f03df970bd7ca7402048a740206a
:1034080064a740204ca740206ca74020d8a64020a5
:0434180050a7402059
:020000040000fa
:020000040040ba
:10341c004150505f414e454d4f4d455445525f54c0
:10342c0061736b73000000004150505f434f4d4d72
:10343c00554e49434154494f4e5f5461736b730071
:10344c004150505f4d4153545f434f4e54524f4c7b
:10345c005f5461736b7300004150505f434f555282
:10346c0053455f414c474f524954484d5f5461732b
:10347c006b7300004150505f5255444445525f43ba
:10348c004f4e54524f4c5f5461736b7300000000ed
:10349c004150505f4750535f5461736b730000bfd2
:020000040000fa
:020000040040ba
:1034ac001b4b93f82c30002b2fd170b4184a147d81
:1034bc00021c18bf012294421cd2164a002908bfd4
:1034cc00114602681401a14217d3b1fbf4f1002597
:1034dc00b1f5803f0ed2104a566883684468234386
:1034ec000e4c34402343c06803432b43536089b2d2
:1034fc0011620123184670bc7047d2009142f9d377
:10350c00b1fbf2f14ff40025e2e7002318467047b7
:10351c001800402080d1f008008002403fc1f5ff28
:020000040000fa
:020000040040ba
:10352c001b4b93f82c30002b2fd170b4184a147d00
:10353c00021c18bf012294421cd2164a002908bf53
:10354c00114602681401a14217d3b1fbf4f1002516
:10355c00b1f5803f0ed2104a566883684468234305
:10356c000e4c34402343c06803432b43536089b251
:10357c0011620123184670bc7047d2009142f9d3f6
:10358c00b1fbf2f14ff40025e2e700231846704737
:10359c004800402080d1f008004002403fc1f5ffb8
:020000040000fa
:020000040040ba
:1035ac001b4b93f82c30002b2fd170b4184a147d80
:1035bc00021c18bf012294421cd2164a002908bfd3
:1035cc00114602681401a14217d3b1fbf4f1002596
:1035dc00b1f5803f0ed2104a566883684468234385
:1035ec000e4c34402343c06803432b43536089b2d1
:1035fc0011620123184670bc7047d2009142f9d376
:10360c00b1fbf2f14ff40025e2e7002318467047b6
:10361c007800402080d1f00800c002403fc1f5ff87
:020000040000fa
:020000040040ba
:10362c00002838d038b50446426c914238bf114658
:10363c00c26a8a4202d0806c012800d038bde16297
:10364c00a069002802dbc1f10501a16102eb820235
:10365c00114901eb820261699142efd1251d284687
:10366c0001f094fa38b90d490b68e06a01228240e6
:10367c0023ea02030b60e06a084a116801238340c5
:10368c000b43136000eb80002946034b03eb8000d7
:10369c0001f022fcd2e770479ca5402064a7402093
:020000040000fa
:020000040040ba
:1036ac001c4b1d4a934230b438bf002103d203f89f
:1036bc00011b9342fbd1194800250168c1b942682e
:1036cc0032b383680c30d3b10139034613f8014b84
:1036dc0001f8014f1c1a9442f8d312f0030318bfdf
:1036ec00012303eb920200eb820001680029e6d073
:1036fc00846842680b460c303cb9002addd01a4471
:10370c0003f8015b9a42fbd1d7e7002adcd1e4e74e
:10371c0030bc7047000040201c024020380d400097
:020000040000fa
:020000040040ba
:10372c0070b5054601f0c0fa95f8454064b2002c1e
:10373c0011dd6b6a7bb105f1240604e0013c64b237
:10374c004cb16b6a3bb1304600f0e4f80028f5d080
:10375c0001f076fdf2e7ff2385f8453001f05cfcc3
:10376c0001f0a2fa95f8444064b2002c11dd2b69eb
:10377c007bb105f1100604e0013c64b24cb12b693d
:10378c003bb1304600f0c6f80028f5d001f058fdea
:0e379c00f2e7ff2385f8443001f03efc70bddb
:020000040000fa
:020000040040ba
:0237aa00fee738
:020000040000fa
:020000040040ba
:1037ac0010b501f087fc00f083fbfff7d9f84ff45c
:1037bc000043154a5360b03a536001f039f800f0f9
:1037cc001ffe00f05dfe00f09bfe10490220fef78c
:1037dc0021fb0f4c20600f490120fef71bfb6060a2
:1037ec000d490020fef716fba06001f04dfd01f025
:1037fc002dfd01f037fd01f03bfd01f03ffd01f027
:10380c0049fd00f0d3fc10bd00190e409c4940004e
:0c381c00b800402044494000ec48400047
:020000040000fa
:020000040040ba
:10382800002833d038b50446826c013a8264c06af5
:10383800616c88422cd05abb251d284601f0a8f996
:1038480070b9e26a02eb82039b001249cb583bb97c
:1038580011480368012101fa02f223ea0202026018
:10386800606ce062c0f10503a3610b4a1168012492
:1038780004fa00f30b43136000eb80002946054b64
:1038880003eb800001f02afb204638bd002070477a
:0c389800002038bd9ca5402064a7402003
:020000040000fa
:020000040040ba
:1038a4002de9f8430c4615461f46092208330646ff
:1038b40093fbf2f3002101229a4220db304600f010
:1038c400c7fa089b4361092d4ff00103036119dd19
:1038d40004f10909c8462c4418f8013b0146303b61
:1038e4000a22304600f056f8a045f5d1a5f10804a7
:1038f4004c442d1b6319bb4207dbbde8f88352001f
:103904000131d9e70a340925f3e714f8013b0146ec
:0c391400303b0a22304600f03df8ebe7a3
:020000040000fa
:020000040040ba
:1039200038b5c368dc6804f11805284601f034f99d
:10393000134b1b68e3b9251d284601f02df9e06af9
:10394000104a1168012383400b43136000eb800091
:1039500029460d4b03eb800001f0c4fa0b4b1b68aa
:10396000e26adb6a9a4208d90120094b186038bd27
:103970002946084801f0b6faf0e7002038bd00bf3c
:103980005ca7402064a740209ca5402048a7402079
:0839900080a74020c4a64020de
:020000040000fa
:020000040040ba
:103998002de9f0410d691f4606460c4601f1140e4b
:1039a8000023def8000081b202fb01710f0c000c4d
:1039b80002fb007089b2013301eb00419d424feade
:1039c80010474ef8041becdcd7b1a3689d4212db0c
:1039d80061683046013100f039fa2269023204f197
:1039e8000c01804692000c3001f0c7fa214630469f
:1039f80000f008ff444604eb850301355f6125614b
:063a08002046bde8f0813c
:020000040000fa
:020000040040ba
:103a0e0070b504461646856b026c5ab903681bb135
:103a1e0000200135a56370bd8068fff7fefe002310
:103a2e00a360f6e76eb9406801f0a4fa6368226cf1
:103a3e0013446360a268934217d323686360002027
:103a4e00e7e7c06801f096fa226c5242e36813442d
:103a5e00e36021688b4202d2a3681a44e26035b15a
:103a6e00022e04d1013d0020d3e70020d1e7002033
:023a7e00cfe790
:020000040000fa
:020000040040ba
:103a800000282dd030b40446174b1b7d53bb164b7a
:103a90001860596000229a6001221a75134b124a6d
:103aa00004e09068451c9560205cd861586910f06e
:103ab000020f0fd0906881420cd9586810f4003f73
:103ac000efd09068451c956034f81000c0f30800f2
:103ad000d861ebe70222054b9a60012030bc7047a9
:103ae000002070470020f9e71800402000800240c5
:020000040000fa
:020000040040ba
:103af00000282dd030b40446174b1b7d53bb164b0a
:103b00001860596000229a6001221a75134b124afc
:103b100004e09068451c9560205cd861586910f0fd
:103b2000020f0fd0906881420cd9586810f4003f02
:103b3000efd09068451c956034f81000c0f3080081
:103b4000d861ebe70222054b9a60012030bc704738
:103b5000002070470020f9e7480040200040024064
:020000040000fa
:020000040040ba
:103b600000282dd030b40446174b1b7d53bb164b99
:103b70001860596000229a6001221a75134b124a8c
:103b800004e09068451c9560205cd861586910f08d
:103b9000020f0fd0906881420cd9586810f4003f92
:103ba000efd09068451c956034f81000c0f3080011
:103bb000d861ebe70222054b9a60012030bc7047c8
:103bc000002070470020f9e77800402000c0024044
:020000040000fa
:020000040040ba
:103bd00038b504460d4601f06df82268216ce36ba0
:103be00003fb01f3d018a0600020a06362605b1aa1
:103bf0001344e360ff2384f8443084f84530a5b9ca
:103c000023691bb901f00efa012038bd04f1100040
:103c1000fff786fe0028f5d04ff08052074b1a6060
:103c2000bff34f8fbff36f8fece704f1100001f08b
:103c300087f904f1240001f083f9e3e704ed00e0e3
:020000040000fa
:020000040040ba
:103c400080b5164d164f174edff860802b68bbb15c
:103c500001f030f8fb68dc68201d00f09dff336840
:103c6000013b33602b68013b2b6001f0dbf9206bdb
:103c700001f025fa204601f022fa2b68002be7d14b
:103c8000094b1b68012be1d94ff08053c8f8003075
:103c9000bff34f8fbff36f8fd8e700bf58a7402007
:103ca000eca6402054a740209ca5402004ed00e055
:020000040000fa
:020000040040ba
:103cb000f0b506694b11b34200f114052bda11f08f
:103cc0001f0105eb860605eb830208d12946b242a7
:103cd0000b4610d252f8043b41f8043bf7e755f885
:103ce0002340c1f1200e0432cc402b46b24208d30f
:103cf0001c6004b104335b1b9b10036103b9436177
:103d0000f0bd176807fa0ef73c4343f8044b52f82e
:0a3d1000044bcc40eae72b46ede738
:020000040000fa
:020000040040ba
:023d1a00fee7c2
:020000040000fa
:020000040040ba
:103d1c00f0b4c0f34715164c635d2c446678b3427f
:103d2c0023d21f4603eb4304124d35f92440844241
:103d3c000fd00133dbb203eb43050e4c04eb8504cf
:103d4c00ddb2ae420fd91f4634f90c5b0133a842e9
:103d5c00f6d1084b7800c41903eb84046160a260af
:103d6c000120f0bc70470020fbe70020f9e700bf02
:083d7c0028a7402000004020b0
:020000040000fa
:020000040040ba
:103d84002de9f843c76c826c144d05446d0a144b3d
:103d94005e5d01355b5d9e421ed206eb4604114b0f
:103da40003eb84044ff001091740dff8348005e089
:103db40001360c3418f80530b3420dd9b4f90000bb
:103dc40000f01f0309fa03f33b42f1d06368002bb0
:103dd400eed0a1689847ebe7bde8f88300f2f1bfa5
:083de40028a740200000402048
:020000040000fa
:020000040040ba
:103dec0000b583b0124b019300230093802211493c
:103dfc001148fdf749fc012802d003b05df804fb23
:103e0c004ff0200372b683f31188bff36f8fbff3ab
:103e1c004f8f62b64ff0ff32084b1a600122084bed
:103e2c001a600022074b1a6000f060fae5e700bf49
:103e3c0068a7402000534000413c40006ca7402044
:083e4c0078a740207ca740206c
:020000040000fa
:020000040040ba
:103e540070b5456a04460e463db9102001f056f986
:103e64006062456085600560c560656aeb6883b122
:103e7400636adb6853f82600b8b9012101fa06f534
:103e84006a1d9200204600f0c7ff60b1466085605d
:103e94000ee021220421204600f0beff636ae860a0
:103ea400db68002be4d1002070bd026843f82620b3
:083eb40000230361c36070bd2f
:020000040000fa
:020000040040ba
:103ebc00154a164b9a621a46936e13f0020ffbd0fa
:103ecc00124a136b23f070031363936e13f0080ff5
:103edc00fbd00e4a136b23f4407343f480731363cb
:103eec00936e13f0080ffbd0084a136b23f00303f7
:103efc0043f002031363936e13f0080ffbd0044ad4
:103f0c00024b1a61704700bf013f182000060e409b
:043f1c0000fc038022
:020000040000fa
:020000040040ba
:103f2000eff30980bff36f8f154b1a681ef0100f67
:103f300008bf20ed108a20e9f04f10602de909003c
:103f40004ff0200072b680f31188bff34f8fbff39c
:103f50006f8f62b6fff732f84ff0000080f31188e0
:103f600009bc19680868b0e8f04f1ef0100f08bfd0
:103f7000b0ec108a80f30988bff36f8f704700bfe1
:043f800048a74020ee
:020000040000fa
:020000040040ba
:103f840038b5044610f0070f02d020f007040834b7
:103f940001f0a4f8104b1b6893b1104b1b681c4430
:103fa400a34213d249f6f77294420fd80a4a15680d
:103fb4001d440a4b1c60fef755fd4db1284638bd23
:103fc400074b23f00703044a1360e6e7fef74afdb4
:103fd40000f0a9ff0025f1e740a7402044a74020b6
:043fe4002402402053
:020000040000fa
:020000040040ba
:103fe80038b5eff311844ff0200372b683f31188cc
:103ff800bff36f8fbff34f8f62b6826bc36b9a426a
:104008001cd290f845305bb201328263b3f1ff3fb6
:1040180007d001335bb280f84530012084f3118862
:1040280038bd436a0bb90120f8e70d462430fff785
:1040380073fc2db120b101202860efe70020ede7e7
:044048000120ebe781
:020000040000fa
:020000040040ba
:10404c00036813f0070201460bd0da0723d4980754
:10405c0049bf5b089b0801200b605cbf0b60022012
:10406c00704798b2a8b91b0c102013f0ff0f04bfb7
:10407c001b0a08301a0704bf1b0904309a0704bf37
:10408c009b080230da0702d45b0806d001300b60c3
:0e409c0070471046e9e700207047202070476b
:020000040000fa
:020000040040ba
:0240aa00fee72f
:020000040000fa
:020000040040ba
:1040ac00431e13f1030f1ed8c0f30722022a1dd89a
:1040bc0010b4c4b25c21104b01fb02318b689c42e2
:1040cc0016d25c210c4b01fb0232536903eb041337
:1040dc009a6890420ed11a7b002a08bf002318461a
:1040ec005df8044b70470023184670470023fbe72c
:0c40fc000023f4e70023f2e788a3402033
:020000040000fa
:020000040040ba
:1041080038b504461d4631b101291bd00023036090
:104118004ff0ff3038bd012b01d9002038bd0322f4
:104128000021012000f03efb2060012d0fd170b16d
:1041380000231a461946fef7cdf8012814bf0020bf
:10414800012038bd2946104600f00cff2060206889
:08415800003018bf012038bd42
:020000040000fa
:020000040040ba
:1041600070b504460d4600f0a5fd114b1b682a688a
:10417000b2f1ff3f1ad061680e4800682668864297
:1041800003d08b4201d3012405e05b1a934206d38e
:1041900000232b60012400f045ff204670bdd31a98
:1041a0002b60204600f0aafe0024f4e70024f2e78a
:0841b0007ca7402070a740200d
:020000040000fa
:020000040040ba
:1041b800124bd96821f4e0610904090c104a0a433a
:1041c800da60bff35f8f62b6e02283f82320a3f59d
:1041d800406383f80d234ff40051196083f80e23d0
:1041e8004ff48041196083f80f234ff400411960a0
:1041f80083f810234ff480321a60704700ed00e016
:044208000000fa05b3
:020000040000fa
:020000040040ba
:10420c00124b10ee902a1a40a2f15073002b04ddd1
:10421c000020194641ec100b70475b421b15132b09
:10422c004ff000004ff0000104dc4ff4002242fa82
:10423c0003f1efe7143b1e2b4ff00102dabfc3f181
:10424c001f0302fa03f313461846e3e70000f07f5e
:020000040000fa
:020000040040ba
:10425c0038b50446856a03695b6a984798b1626d04
:10426c001168884218d05168884213d092689042e5
:10427c000ed000236b71012384f8313004f144001b
:10428c0000f09ef938bd00236b7184f83130f5e7ee
:0e429c00022302e0012300e000230133eae7e1
:020000040000fa
:020000040040ba
:1042aa00f7b50e4669460746fff71bf801a93046df
:1042ba0055ec104bfff715f83b6936699e1b9de8d4
:1042ca000c00d31a03eb461351ec100b002bd6bf8c
:1042da00c3eb033305eb035501eb035145ec174bd5
:0c42ea0041ec160b87ee060b03b0f0bd94
:020000040000fa
:020000040040ba
:0242f600fee7e1
:020000040000fa
:020000040040ba
:1042f80010b50e4b1a6842f460021a601a6842f050
:1043080060421a6000f030fc0024094b1c6000f089
:104318007bfe084a136843f04043136000f010fc2a
:10432800fef748fe00f097fc204610bd20ed00e0a7
:084338003ca7402034ef00e037
:020000040000fa
:020000040040ba
:1043400070b50d4e0d4ca41ba4100025a54209d13b
:104350000b4e0c4cfbf708ffa41ba4100025a54234
:1043600005d170bd56f8253098470135eee756f86f
:10437000253098470135f2e7740140007401400090
:084380007401400078014000c7
:020000040000fa
:020000040040ba
:1043880000f1140200694b11984210b511db0adde7
:1043980011f01f0107d052f8234024fa01f000fa67
:1043a80001f18c420bd102eb8303934203d8002026
:1043b80010bd0346f7e753f8041d0029f5d0012086
:0243c80010bd26
:020000040000fa
:020000040040ba
:0243ca00fee70c
:020000040000fa
:020000040040ba
:1043cc0010b5054c227832b9044b13b10448aff345
:1043dc0000800123237010bd80a640200000000047
:1043ec000000000008b5034b1bb103490348aff3b1
:1043fc00008008bd0000000084a6402000000000e2
:020000040000fa
:020000040040ba
:10440c000d4b4ff486721a6050221a604ff40c62f6
:10441c005a6051221a62094b00229a61da611a62bf
:10442c0083f82c205a621a605a609a601a75da6006
:10443c0083f82d20704700bf0080024018004020f8
:020000040000fa
:020000040040ba
:10444c00c0b138b505460c4a92f82c200ab10020b0
:10445c0038bd0c4600f002fa074b002283f82d20e1
:10446c009d61dc611a62012083f82c00e122034b70
:10447c009a6038bd00207047180040200080024030
:020000040000fa
:020000040040ba
:10448c000d4b4ff486721a6050221a604ff40c6276
:10449c005a604ff4f4721a62084b00229a61da6186
:1044ac001a6283f82c205a621a605a609a601a7544
:1044bc00da6083f82d20704700400240480040200d
:020000040000fa
:020000040040ba
:1044cc00c0b138b505460c4a92f82c200ab1002030
:1044dc0038bd0c4600f0d8f9074b002283f82d208c
:1044ec009d61dc611a62012083f82c00e122034bf0
:1044fc009a6038bd002070474800402000400240c0
:020000040000fa
:020000040040ba
:10450c000d4b4ff486721a6050221a604ff40c62f5
:10451c005a6051221a62094b00229a61da611a62be
:10452c0083f82c205a621a605a609a601a75da6005
:10453c0083f82d20704700bf00c002407800402057
:020000040000fa
:020000040040ba
:10454c00c0b138b505460c4a92f82c200ab10020af
:10455c0038bd0c4600f0aef9074b002283f82d2035
:10456c009d61dc611a62012083f82c00e122034b6f
:10457c009a6038bd002070477800402000c002408f
:020000040000fa
:020000040040ba
:10458c00020c12040346b2b90304102013f07f4f3f
:10459c0004bf1b02083013f0704f04bf1b01043022
:1045ac0013f0404f04bf9b000230002b06db5b0076
:0e45bc0003d5013070470020e8e7202070474b
:020000040000fa
:020000040040ba
:0245ca00fee70a
:020000040000fa
:020000040040ba
:1045cc0000b583b002a9002341f8043d0068fff751
:1045dc0005fd58b1019b6bb14ff08052064b1a6030
:1045ec00bff34f8fbff36f8f012000e0002003b0ab
:0c45fc005df804fb0120fae704ed00e08c
:020000040000fa
:020000040040ba
:104608000c4b5b6913f4803f12d0002910dd034680
:1046180000f01f000144bff34f8f064ac2f85c3216
:10462800203320390029f9dcbff34f8fbff36f8f98
:08463800704700bf00ed00e037
:020000040000fa
:020000040040ba
:104640000c4b5b6913f4803f12d0002910dd034648
:1046500000f01f000144bff34f8f064ac2f86832d2
:10466000203320390029f9dcbff34f8fbff36f8f60
:08467000704700bf00ed00e0ff
:020000040000fa
:020000040040ba
:1046780030b40d68b5f1ff3f02d000f1080202e046
:10468800026904e01a4653681c68a542fad25368c6
:104698004b6099608a605160086103680133036068
:0446a80030bc70476b
:020000040000fa
:020000040040ba
:1046ac0010b540b94ff08052094b1a60bff34f8fd1
:1046bc00bff36f8f10bd044600f00cfd00212046a7
:1046cc00fef75cfefef7caf90028f3d1eae700bf5b
:0446dc0004ed00e009
:020000040000fa
:020000040040ba
:1046e00070b504460d46164645ec104bfff78efd9f
:1046f0007eb1c5f30a53c3f16b03002b09dd1b0523
:1047000003f17f51002001f5401141ec170b20ee21
:04471000070b70bd66
:020000040000fa
:020000040040ba
:1047140003690a699b1a30b50cd192001430143124
:104724008418114454f8045d51f8042d954203d0c3
:1047340005d30123184630bda042f3d3fae74ff066
:04474400ff33f7e761
:020000040000fa
:020000040040ba
:10474800013910b549111469013102f1140300eb64
:10475800810103eb8404a342024603d300238a4267
:1047680005d310bd53f8042b40f8042bf3e742f8a7
:04477800043bf4e723
:020000040000fa
:020000040040ba
:10477c0008b54ff0200372b683f31188bff36f8f27
:10478c00bff34f8f62b6fdf755ff18b14ff0805253
:10479c00024b1a60002383f3118808bd04ed00e07e
:020000040000fa
:020000040040ba
:1047ac0070b506460d4601fb00f04830fff7e4fb00
:1047bc00044648b155b100f148030360e663256433
:1047cc0001212046fff7fef9204670bd2060f5e779
:020000040000fa
:020000040040ba
:1047dc0010b403681c788c420ed09a420ed0013370
:1047ec0003601c788c4203d09a42f8d1002000e080
:1047fc0001205df8044b70470120fae70020f8e730
:020000040000fa
:020000040040ba
:10480c0070b5446a06460d463cb9102000f07afc9f
:10481c007062446084600460c4603db1736a6a680d
:0e482c00db6853f82210296043f8225070bd5b
:020000040000fa
:020000040040ba
:02483a00fee797
:020000040000fa
:020000040040ba
:10483c00084b01221a60084ac3f8002242f2107297
:10484c00c3f80c220022c3f804224ff06412c3f800
:0c485c001822704700000240000101001b
:020000040000fa
:020000040040ba
:10486800094b5b6913f0e00f0dd0074b4ff48072d2
:104878001a605b6913f0010f05d0034b9a695a69f6
:0c48880012f0010ffad1704700800240ce
:020000040000fa
:020000040040ba
:10489400094b5b6913f0e00f0dd0074b4ff48072a6
:1048a4001a605b6913f0010f05d0034b9a695a69ca
:0c48b40012f0010ffad1704700400240e2
:020000040000fa
:020000040040ba
:1048c000094b5b6913f0e00f0dd0074b4ff480727a
:1048d0001a605b6913f0010f05d0034b9a695a699e
:0c48e00012f0010ffad1704700c0024036
:020000040000fa
:020000040040ba
:1048ec00184940000200000060a64020ffff0000b5
:1048fc000000000000000000d44f40009c4e40001f
:0c490c0010524000045240000300000064
:020000040000fa
:020000040040ba
:1049180081514000cd44400099514000b1514000c0
:10492800f94a400075514000f13a40008d5140006d
:0c493800a5514000ad4f40002d3540005f
:020000040000fa
:020000040040ba
:10494400704940000100000000a74020ffff000064
:104954000000000000000000e84f4000b44e40009a
:0c496400285240001c52400003000000dc
:020000040000fa
:020000040040ba
:10497000395140004d4440005151400069514000c0
:10498000d14a40002d514000813a4000455140003d
:0c4990005d514000994f4000ad344000e4
:020000040000fa
:020000040040ba
:10499c00c84940000100000010a74020ffff0000a4
:1049ac000000000000000000fc4f4000cc4e400016
:0c49bc0040524000345240000300000054
:020000040000fa
:020000040040ba
:1049c800c95140004d454000e1514000f9514000b7
:1049d800214b4000bd514000613b4000d551400093
:0c49e800ed514000c14f4000ad354000d3
:020000040000fa
:020000040040ba
:1049f4004ff0807340f8043c21f0010140f8081c9a
:104a0400054b40f80c3c40f8202c6ff0020340f8b2
:0c4a1400243c4438704700bf5f4c400059
:020000040000fa
:020000040040ba
:104a2000084b1b681b683bb1064b1b68db68db68e7
:104a30005a68054b1a6070474ff0ff32024b1a60fc
:0c4a4000704700bf4ca740206ca740202e
:020000040000fa
:020000040040ba
:104a4c0038b5084b1b7813b1012b04d038bd0122ab
:104a5c00044b1a7038bd044d64242c602046fff7bb
:0c4a6c001ffefae7e001402084a7402074
:020000040000fa
:020000040040ba
:104a7800074a136843b10749184488429abf10602f
:104a880018464ff0ff307047034b1360f3e700bf41
:0c4a9800c0a74020c8a94020c8a74020ab
:020000040000fa
:020000040040ba
:104aa400a0f13003092b02d82038c0b27047a0f11e
:104ab4006103052b01d84738f7e7a0f14103052b23
:0a4ac40001d82738f1e70020704701
:020000040000fa
:020000040040ba
:024ace0070472f
:020000040000fa
:020000040040ba
:104ad000074b93f82c3043b1e122064bda60044bcc
:104ae000002283f82c201a62da610120704700bf8f
:084af000180040200080024084
:020000040000fa
:020000040040ba
:104af800074b93f82c3043b1e122064bda60044ba4
:104b0800002283f82c201a62da610120704700bf66
:084b180048004020004002406b
:020000040000fa
:020000040040ba
:104b2000074b93f82c3043b1e122064bda60044b7b
:104b3000002283f82c201a62da610120704700bf3e
:084b40007800402000c0024093
:020000040000fa
:020000040040ba
:104b480008480068006880f308884ff0000080f388
:104b5800148862b661b6bff34f8fbff36f8f00df63
:084b680000bf000008ed00e0b1
:020000040000fa
:020000040040ba
:104b7000054b00221a6005490a600549054a116083
:104b800007221a60704700bf10e000e018e000e064
:084b9000df93040014e000e0d3
:020000040000fa
:020000040040ba
:104b980003694268816891608268416851605a6817
:104ba800904206d0002202611a68013a1a60186819
:084bb800704782685a60f5e7be
:020000040000fa
:020000040040ba
:104bc000074b084a10b41c68236a002b08bf134621
:104bd0000a46014620465df8044bfbf7d5ba00bff4
:084be000b4a740201ca24020f4
:020000040000fa
:020000040040ba
:104be800bc89d897b2d29c3c33a7a8d523f64939bb
:104bf8003da7f444fd0fa5329d978ccf08ba5b25dd
:084c0800436fac64280668113b
:020000040000fa
:020000040040ba
:104c10000080e03779c34143176e05b5b5b89346b8
:104c2000f5f93fe9034f384d321d30f94877825a84
:084c30003cbf737fdd4f1575d9
:020000040000fa
:020000040040ba
:104c380030b5036811f8014b013314b90360012042
:104c480030bd1a78a2f14105192d98bf2032a24231
:064c5800f0d0002030bd89
:020000040000fa
:020000040040ba
:104c5e0082b0002301934ff0200372b683f31188c4
:104c6e00bff36f8fbff34f8f62b6019b002bfcd04b
:044c7e0002b07047c9
:020000040000fa
:020000040040ba
:0e4c820008b50020fef791fdfdf761fffce78d
:020000040000fa
:020000040040ba
:104c9000074b19680868b0e8f04f80f30988bff344
:104ca0006f8f4ff0000080f311887047aff30080e2
:044cb00048a74020b1
:020000040000fa
:020000040040ba
:104cb4004ff0200372b683f31188bff36f8fbff3f5
:104cc4004f8f62b6024a136801331360704700bf06
:044cd4003ca7402099
:020000040000fa
:020000040040ba
:104cd80010b5024600210120fff764fd044638b1f3
:104ce800002181600160c1600b460a46fdf7f2fab7
:044cf800204610bd85
:020000040000fa
:020000040040ba
:104cfc0082b001b901a942b14bb113780b601278a3
:104d0c00101c18bf012002b070471046fbe76ff073
:044d1c000100f8e7b3
:020000040000fa
:020000040040ba
:104d2000c2f10802920070b5c2f12006436804681f
:104d300003fa06f52c43d340046040f8043f884250
:044d4000f4d370bd7b
:020000040000fa
:020000040040ba
:104d440010b56ab10139841810f8013b11f8012f2c
:104d5400934203d1a04201d0002bf5d1981a10bd83
:044d6400104610bd28
:020000040000fa
:020000040040ba
:104d6800054bdb6b002b054a1368b4bf013303f115
:104d7800ff331360704700bf00120e409ca740200d
:020000040000fa
:020000040040ba
:104d880038b5064c0023054608462360fff770fe39
:104d9800431c02d1236803b12b6038bd18024020a0
:020000040000fa
:020000040040ba
:104da80008b54ff6ff73994208bf4ff0ff3100680e
:0e4db800fcf7e4fe012814bf0020012008bd16
:020000040000fa
:020000040040ba
:104dc60008b54ff6ff73994208bf4ff0ff310068f0
:0e4dd600fcf7d5fe012814bf0020012008bd07
:020000040000fa
:020000040040ba
:104de40010b50c46044b19681831fff743fc012138
:0c4df4002046fef7c7fa10bd48a740207b
:020000040000fa
:020000040040ba
:104e0000054b1b6823b1044b1a68936c0133936400
:0c4e1000014b1868704700bf48a7402005
:020000040000fa
:020000040040ba
:104e1c0038b502fb01f42146fdf7baff054618b17f
:0c4e2c002246002100f05ef9284638bd47
:020000040000fa
:020000040040ba
:104e380010b50b46014611f80b4b0a3ce4b222466a
:0a4e4800184600f09af8204610bd4d
:020000040000fa
:020000040040ba
:104e520049b1ff2a85bf8a2303600a704ff0ff30f1
:0a4e620098bf012070470846704712
:020000040000fa
:020000040040ba
:104e6c0003680bb10020704710b504460120fff712
:084e7c002dff2060012010bd94
:020000040000fa
:020000040040ba
:104e840008b500231a4619460068fdf725fa0128db
:084e940014bf0020012008bd3d
:020000040000fa
:020000040040ba
:104e9c0000080000000000000002000000060000f6
:084eac0000040000000c0000ee
:020000040000fa
:020000040040ba
:104eb40000080000000000000002000000060000de
:084ec40000040000000c0000d6
:020000040000fa
:020000040040ba
:104ecc0000080000000000000002000000060000c6
:084edc0000040000000c0000be
:020000040000fa
:020000040040ba
:104ee40043684b609a688a609a6851609960086167
:084ef4000368013303607047fd
:020000040000fa
:020000040040ba
:104efc00034b1b680360034b1b684360704700bf88
:084f0c0070a740207ca74020a3
:020000040000fa
:020000040040ba
:104f14004ff0200372b683f31188bff36f8fbff392
:064f24004f8f62b6fee7ac
:020000040000fa
:020000040040ba
:104f2a004ff0200372b683f31188bff36f8fbff37c
:064f3a004f8f62b6fee796
:020000040000fa
:020000040040ba
:104f400000f1080343604ff0ff328260c3600361e9
:064f50000023036070471e
:020000040000fa
:020000040040ba
:104f560010b50446fff7abfea46b00f060f8b4fa98
:064f660084f0400910bdbb
:020000040000fa
:020000040040ba
:104f6c0010b50c4602220021fff71afc034600b1d3
:064f7c008463184610bd1d
:020000040000fa
:020000040040ba
:104f820010b5431e0a44914200d110bd11f8014be5
:064f920003f8014ff7e7f0
:020000040000fa
:020000040040ba
:104f9800034b93f82d00002283f82d20704700bfa3
:044fa800180040208d
:020000040000fa
:020000040040ba
:104fac00034b93f82d00002283f82d20704700bf8f
:044fbc004800402049
:020000040000fa
:020000040040ba
:104fc000034b93f82d00002283f82d20704700bf7b
:044fd0007800402005
:020000040000fa
:020000040040ba
:104fd400000000004000000080000000c00000004d
:044fe40000000200c7
:020000040000fa
:020000040040ba
:104fe800000000004000000080000000c000000039
:044ff80000000200b3
:020000040000fa
:020000040040ba
:104ffc00000000004000000080000000c000000025
:04500c00000002009e
:020000040000fa
:020000040040ba
:10501000dff80c00016841f4700101607047000086
:0450200088ed00e037
:020000040000fa
:020000040040ba
:10502400034a1368013b13600bb983f3118870477b
:045034003ca7402035
:020000040000fa
:020000040040ba
:10503800034b1b7813b90122014b1a70704700bf4c
:0450480018014020eb
:020000040000fa
:020000040040ba
:10504c00034b1b7813b90122014b1a70704700bf38
:04505c00dc01402013
:020000040000fa
:020000040040ba
:10506000034b1b7813b90122014b1a70704700bf24
:0450700014024020c6
:020000040000fa
:020000040040ba
:1050740035000000cefbffffcb0300000100000061
:045084000000000028
:020000040000fa
:020000040040ba
:1050880034000000cefbffffcb030000010000004e
:045098000000000014
:020000040000fa
:020000040040ba
:10509c0010b50c460121fef7d7fe012244610261d6
:0250ac0010bd35
:020000040000fa
:020000040040ba
:1050ae0008b5002380f830304030fff788fa08bd8d
:020000040000fa
:020000040040ba
:0250be00704739
:020000040000fa
:020000040040ba
:1050c000014a024b1a60704700060004000c0e40b3
:020000040000fa
:020000040040ba
:1050d00008b50248fef756fe08bd00bf00140e409a
:020000040000fa
:020000040040ba
:1050e000024a136801331360704700bf5ca7402079
:020000040000fa
:020000040040ba
:1050f00002440346934200d1704703f8011bf9e7cd
:020000040000fa
:020000040040ba
:10510000034613f8012b002afbd1181a0138704707
:020000040000fa
:020000040040ba
:10511000024b01461868fdf741be00bfb4a740200e
:020000040000fa
:020000040040ba
:0c512000014b5860704700bf00000240c7
:020000040000fa
:020000040040ba
:0c512c00014bd86019617047180040204a
:020000040000fa
:020000040040ba
:0c513800014b586299627047180040203b
:020000040000fa
